:1000000000200020251400004D1400004D140000B5
:1000100000000000000000000000000000000000E0
:100020000000000000000000000000004D1400006F
:1000300000000000000000004D140000CD0F000083
:100040004D1400004D1400004D1400004D1400002C
:100050004D140000290F00004D1400004D14000045
:100060004D1400004D1400004D1400004D1400000C
:100070004D1400004D1400004D140000710F0000DD
:100080004D1400004D1400004D1400004D140000EC
:100090004D1400004D1400004D1400004D140000DC
:1000A0004D1400004D1400004D1400004D140000CC
:1000B0004D1400004D1400004D1400004D140000BC
:1000C00010B5064C2378002B07D1054B002B02D02E
:1000D000044800E000BF0123237010BD740000201D
:1000E00000000000681D0000084B10B5002B03D075
:1000F0000749084800E000BF07480368002B00D10B
:1001000010BD064B002BFBD09847F9E7000000001C
:1001100078000020681D0000700000200000000032
:10012000164B002B00D1144B9D46402292029A1A86
:10013000924600218B460F461348144A121A01F0CA
:10014000C5F90F4B002B00D098470E4B002B00D069
:1001500098470020002104000D000D48002802D01F
:100160000C4800E000BF01F08DF92000290000F0EC
:10017000FFF801F071F9C0460000080000200020DF
:10018000000000000000000074000020F0190020B2
:10019000000000000000000010B55921162088243E
:1001A000044B5A68012A00D110BD596058605C6048
:1001B000F7E7C046FC00005070B5174B174D1968A3
:1001C0002A681748891A174A81421BD91648174CC2
:1001D000068821888E4213D31B6800212B60FD25E1
:1001E000134B11701D70FC3D9D7020355970DD70F2
:1001F000042301800F4923804868023B03434B607E
:10020000107870BD0C491B6809685B1A0B498B425A
:10021000F6D9FF231370F3E74C010020EC190020FE
:100220001102000004000020900100209201002033
:10023000500100200040054008010020E7030000B5
:10024000074B8200D150074B074A1B5C125C9B0195
:1002500092009B18054A9B18054A125C1A60704769
:10026000B00000207C1A00006A1A00000042005012
:10027000801A00000021F0B50F4D0B000824012763
:10028000AC460E4A0E4E11605B0045B2DBB2002D4B
:1002900010DA3760654617602D684000C0B2012D46
:1002A00001D12B43DBB2013C1160002CECD11800D2
:1002B0001460F0BD3160EDE7884200508442005088
:1002C0008C420050002310B5044C2360FFF7D2FF8E
:1002D000FF20FFF7CFFF0123236010BD80420050B5
:1002E000002370B50D00064C236080331843FFF7E0
:1002F000C1FF2800FFF7BEFF0123236070BDC04689
:100300008042005010B502218820FFF7E9FF8820C5
:100310000021FFF7E5FF002010BD10B50321852067
:10032000FFF7DEFF00218620FFF7DAFF0320FFF74B
:10033000C9FF0420FFF7C6FF87200521FFF7D0FF84
:10034000002010BD10B501218720FFF7C9FF002153
:100350008520FFF7C5FF00218620FFF7C1FF03209E
:10036000FFF7B0FF0420FFF7ADFF002010BD000035
:10037000F0B5A7B0FFF710FF0920EE4C1026236858
:100380000343236000F06EFF0423E5682268300019
:100390001343236000F066FF0723226935401343AF
:1003A0000F222361A369E4499343A361E368DB0758
:1003B00000D489E2002000F067FF0426E768236884
:1003C00010203343236000F04DFF07210F222369E3
:1003D0000B432361A36993431A0001231343A361D1
:1003E000022322698A431343236100F00BFFFB06BB
:1003F00002D42368B3432360002D03D10422236871
:1004000093432360AC2003268025C00500F0F0FF55
:10041000CA4800F0EDFFCA4800F0EAFFC94BCA49DC
:100420001A68AD00B24332431A601A68C7480A40DE
:100430002A43C7491A600A68002702400A60C0219F
:100440001A6889040A431A6000F0DCFE29000122C0
:10045000C04800F0F3FE802101224900BD4800F0B1
:10046000EDFE8021BC4B32001F60BC4B09011F60B8
:10047000B84800F0E3FE802101253200C900B548EC
:1004800000F0DCFE32001021B54800F0D7FE32004B
:100490002021B34800F0D2FEB24B32001D60B24BB7
:1004A00029001D60B14BAE481D60B14B1D6000F0CE
:1004B000C5FE32000221AA4800F0C0FE320004212D
:1004C000A74800F0BBFE32000821A54800F0B6FEA8
:1004D00032004021A74800F0B1FE32008021A5483B
:1004E00000F0ACFE80213200C901A24800F0A6FE57
:1004F0008021320049019A4800F0A0FE80219E4BE5
:100500002A001D609D4B49011D609D4B91481D6057
:100510009C4B1D609C4B1D609C4B1D609C4B1D604B
:100520009C4B1D6000F08AFE80212A00C901894889
:1005300000F084FE80212A000902864800F07EFE39
:10054000954B32001F60954B29001D60944B9548D8
:100550001D6000F073FE32000221924800F06EFE32
:10056000320004218F4800F069FE320008218D48D6
:1005700000F064FE8021320009027E4800F05EFE39
:1005800032000221734800F059FE874BA0211D6004
:100590009C46864BC9051D60854B1D60854B1D60C3
:1005A000854B1F60854B1F6060230D6B9D430D6362
:1005B0000D6B2B430B6330234D6E9D434D664D6E8B
:1005C0002B4380254B667E496D000B682B430B60E7
:1005D0000B687C4D2B400B607B4B06A925CB25C1BE
:1005E00062461B680B606569784BA4692D0E1F631A
:1005F000DE6099683540764E240531409960664941
:1006000005926A4A240F039104921E00012D02D123
:1006100000F0CAFD079006ABAD00611C585900F010
:100620005FFF962396211B0104004901C01800F0CA
:1006300057FF684B0238984200D84CE19623962128
:100640001B02E018490100F04BFF000902380423A7
:10065000614F70623968194204D02C213A688A438C
:1006600013433B60022300217B605C4C5C4B1022F7
:100670003B605C48616000F029FF32250122009454
:10068000594B5A4C5A495B48515C105C89018000B7
:1006900009185948155509180968D15401320D2A0D
:1006A000F0D159789A784C424C4150425041DA7816
:1006B00040005142514189004118187909194242BC
:1006C0004241D20052186946D2B2019209794B4A8E
:1006D0000125117059799A794C424C415042504150
:1006E000DA7940005142514189004118187A0919BC
:1006F00042424241587AD200521841424141987ACE
:100700000901521841424141D87A490152184142E7
:10071000414189015218197B32244B424B41DB0184
:10072000D3186A46DBB20293127A354B1A70039BD8
:100730001D6067E00002005000E1F5050200805EE8
:10074000083D809714020050FFF8FFFFFFF0FFFF05
:100750001802005000400050244200502042005037
:100760004040005054420050504200502842005037
:100770002C420050C040005070420050F8420050DF
:10078000DC420050D84200504C42005048420050D9
:100790004442005040420050304200503C42005021
:1007A000384200508040005004420050FC4200504B
:1007B00088420050804200508C42005084420050D9
:1007C00010000050FFFEFFFF4C16000000400540E7
:1007D0000FFFF0FFFFFF000000400040FC00005052
:1007E00082040000B0000020A00000209000002043
:1007F0006E1A00005C1A0000004200509E000020AB
:100800009F00002000F068FCFFF7C6FC2D223B682B
:10081000013C93432B433B600023009A53609C426E
:10082000F0D1039B01251C60FA24A40000F054FCC5
:10083000FFF7B2FC2D223B68013C93432B433B6006
:100840000023009A53609C42F0D18022210006A828
:1008500000F03CFEFD2306AA501D21491370D570FF
:1008600000F0D3FE019B1F4D9B00595906AB581D4C
:1008700000F0CBFE06AB1C49581D00F0C6FE029BE3
:100880009B00595906AB581D00F0BFFE06AB174937
:10089000581D00F0BAFE06AB581D00F0C3FE06ABB3
:1008A00002309870581D00F0BDFE802205305205C0
:1008B000A04220D08023DB05B169114218D006ABDD
:1008C0001B5D01343360F3E78020000300F0DCFCA3
:1008D000E568354071E5C0239B051843B7E6C0467F
:1008E000841A00005C160000891A0000901A0000AB
:1008F000013B002BE0D1ED4B059A1D780023EC4C19
:100900001360013C002C00D05EE20320FFF7DAFC0C
:1009100001900420FFF7D6FC019BFF2B00D1CBE018
:10092000FF2800D1C8E00722E24BAA211C70E24B4D
:100930008D201A70E14B053A1D70E14B1A70FFF7DC
:10094000CFFC0D20FFF7BEFC44218D20FFF7C8FC33
:100950000D20FFF7B7FCDB4B18800320FFF7B2FC3C
:100960000420FFF7AFFC80218720FFF7B9FC049B30
:100970001C68012C00D133E20320FFF7A3FC042004
:10098000FFF7A0FC0320FFF79DFC0420FFF79AFC73
:1009900000218520FFF7A4FC02218620FFF7A0FCA0
:1009A00000218920FFF79CFC0021D120FFF798FC53
:1009B0000B21D020FFF794FC5321F520FFF790FC8A
:1009C0005321F620FFF78CFC4021F720FFF788FC2D
:1009D0002121FA20FFF784FC2900F920FFF780FC91
:1009E0000021B220FFF77CFC0221B320FFF778FC46
:1009F0002D21B620FFF774FCD421B720FFF770FC3F
:100A00008821B020FFF76CFC6321F120FFF768FC20
:100A10001021B420FFF764FC4221B520FFF760FCF1
:100A2000F5218B20FFF75CFCF2218C20FFF758FCAE
:100A300014218D20FFF754FC1F21ED20FFF750FCFF
:100A40001E219C20FFF74CFCD021A020FFF748FC82
:100A50000021A120FFF744FC9D21A220FFF740FCCC
:100A60004921A320FFF73CFC0021A420FFF738FC1C
:100A70002421A520FFF734FC4E21EE20FFF730FCA7
:100A8000A521EF20FFF72CFC2021F020FFF728FC08
:100A90001821F220FFF724FC40219D20FFF720FCC5
:100AA0000A219E20FFF71CFC2021AA20FFF718FC3A
:100AB000FFF748FCFFF731FCC022834B52011A605C
:100AC0005A60824AFA219A60814A8900DA601A6182
:100AD0005A6111237268FA241343802273607D4B9C
:100AE00012021A6020221A607B4BFA25186800F067
:100AF000F7FC7A4A01385060C020794900060B6A39
:100B00002D261B021B0A03430B620023936007334D
:100B10001360A4006D00734B1A68A24200D26AE110
:100B2000FA229200A418FA2212019442F3D11B680F
:100B3000FA2102938900029800F058FD002904D19F
:100B4000F531FF310120FFF77BFB0024049B1B687C
:100B5000A3421ED1FFF7F6FB0320FFF7B3FB05000E
:100B6000C30702D5FFF7CEFB013CAB070FD54B20E7
:100B7000FFF7A8FB00250400FF2601902B00019A37
:100B80006F1C33409A4200DD4DE1FFF7BBFBFFF7DE
:100B9000C4FB554BE4B21C70002C00D1E3E0534B76
:100BA0009D78AC4200D2DEE04F4A15701A78C52A13
:100BB00000D0D8E05A78C52A00D0D4E05A19013ABA
:100BC0001278312701920022A9B20333042900D000
:100BD00030E1019B934200D0C5E02E310220FFF7A7
:100BE0002FFB434B1E78002E00D1BCE03F494B79D0
:100BF0000193B34204D0FF2B02D0FF2E00D0B2E00D
:100C00008B7B2A00039301233A48183A03708B7DAB
:100C1000D2B243701731023000F0EEFC2A4A163D82
:100C2000EDB251686B1C994218D911690D70481CBE
:100C300011699468CB181361A34202D311685B1A3F
:100C40001361214F7B68013B5B1B7B603B699842D2
:100C500000D303E12A00274900F0CEFC019BFF2BC3
:100C600000D180E0FF2E00D17DE0C5231F4C162669
:100C700023706370B53BE370093B23716B461B79AE
:100C800008221D49A01D6371A67000F0B5FC6B46DB
:100C90001B7B0125A3736B461B79002763742223FA
:100CA000A374114BE5731E7028E0C0469E0000201F
:100CB00041420F00C1000020C4000020C2000020FB
:100CC000C30000200601002094010020AC19002080
:100CD000AC01002000E100E00000002010E000E096
:100CE00000ED00E04C01002005010020C5000020BF
:100CF0009F0000200C010020981A00002574E57464
:100D000025756775FFF71EFB29008820FFF7E8FAB5
:100D100039008820FFF7E4FA3100BE20FFF7E0FA3F
:100D2000E15DFF200137FFF7DBFA162FF8D1042130
:100D30008520FFF7D5FA00218620FFF7D1FA03209E
:100D4000FFF7C0FA0420FFF7BDFA09218720FFF75B
:100D5000C7FA6B4A1368002BFCD1FFF7F3FAFFF7D1
:100D6000D1FAFFF7DAFAFFF727FA4F2800D0BCE0F4
:100D7000644E3278002A7CD0634B013A4E38747846
:100D8000327032211860FFF75BFA604B1978023934
:100D900089B2FD2902D8200000F068F9FFF7FCF9BC
:100DA0002D225B490B6893431A00012313430B6008
:100DB0000023009A5360574A136802995B1A042B68
:100DC000FAD90B000533B3E6FFF7E6F92D223B68AD
:100DD00093432C3A13433B600023009A536090E501
:100DE000FFF7DAF92D223B6893431C430023009A56
:100DF0003C605360BBE5484A1B68A2189A4207D979
:100E000029000120FFF71CFA29000220FFF718FA39
:100E1000FFF7C2F901233A68B24313433B60002352
:100E2000009A536077E67F20FFF74CFA3B4B58550A
:100E30003D00A3E618784240082054B2A446664616
:100E40005400E2B2002E01DA7C40E2B20138C0B2B6
:100E50000028F2D10139013389B2B7E6241AE4B28D
:100E600022002F4900F0C8FB2D4B78692A1B191965
:100E7000F2E62C4FFB6839698B423ED01C78402C3F
:100E800031D8621CBD68591C9B18AB4201D33A682B
:100E90009B1A99421DD22200300000F0ADFB1B4B83
:100EA0001C70002C12D03378002B0FD00120013B96
:100EB0003370154B757832211860023CFFF7C0F98A
:100EC000A1B2FD2902D8280000F0D0F800F052F9B4
:100ED00064E76D1AEDB22A00300000F08DFB701946
:100EE000621B7969D9E71400D9E7FFF765F9FF2894
:100EF00000D053E700F03EF90022034B1A604DE7A3
:100F0000FC420050AC19002038420050C0000020C4
:100F1000004000404C01002022FCFFFFC5000020E3
:100F20000C0100209401002080220D4B1202196A4E
:100F3000114201D01A6270470A4A116A106A0143CD
:100F400011621A6A196A0A431A62074B1A6A196A05
:100F50000A431A62054B1A6A196A0A43EAE7C0464D
:100F6000C0400050804000500041005040410050BF
:100F70000F4BDA69D20506D50E4A196810680E4A79
:100F800010600E4A1170DA6992050AD50C490D48B5
:100F90000A880088904205D9501C08800A498A5C5A
:100FA0001A60704702215A688A435A60F9E7C046BE
:100FB000004005404C0100200801002004000020F2
:100FC0009001002092010020500100201E4AF0B53F
:100FD0001368013313601D4B59684A1ED01C05D895
:100FE000012921D100221A495A600A6099684A1ED3
:100FF000D01C02D8012919D09A6001233220154C47
:10100000154D16491A5D5E5D9201B6009219144E97
:101010005F5C92191268134ED2B297420BD1F05412
:1010200001330D2BEED1F0BD5A60DFE700229A604C
:101030000D4B1A60E1E7F75C012F02D9013FF7542D
:10104000EEE7F0545A54EBE74C010020B0000020CA
:10105000244200506E1A00005C1A0000A00000201C
:10106000004200509000002020420050124B70B50A
:101070001A68124B00251A604E22114B0C001A7090
:10108000104BAF321A708A1C9A700122DA700A0073
:101090000D4918710231581D5D7000F0ADFA0B4B0F
:1010A000621D1A800A4B0B4A1D80022351682000E2
:1010B0000B43536070BDC0464C010020EC1900206A
:1010C0000400002050010020AC19002092010020F3
:1010D0009001002000400540F0B589B06A461F4BE2
:1010E000694631CB31C231CB31C211CB11C21C4B5D
:1010F0001C4A5B695B055B0F022B21D116681068E7
:10110000310000F0EDF90023174C184F2360451C07
:101110006361BE4217D83100154800F0E1F90100C3
:10112000380000F0DDF98023DB0560602360002DCE
:1011300011D180239B0422681A42FCD109B0F0BD72
:101140009B005E58DBE73900300000F0C9F9FA2354
:101150009B005843E7E7C046013DE8E7141D000047
:1011600000020050000000200000014040420F003B
:1011700000CA9A3B0A4A0020D36811698B420ED0FC
:101180001978481C1B189068D360834202D31068FA
:101190001B1AD3600120536801335B1853607047FA
:1011A0009401002070470000012307B5A02101AA87
:1011B0001370DB18537093700233D3700E4BC90257
:1011C0001B6A00200B4213D1190312D40B48990358
:1011D0000ED4D905C90D0231800848431904890F7E
:1011E000525C9904C90E0231514300F079F9800034
:1011F0000EBD0348EBE7C04600020050001BB700DD
:101200000080510110B5FFF7CFFF0721084A13698D
:101210000B40022B02D007499B0058580F239169BD
:101220001940013100F05CF9034B186010BDC04655
:1012300000020050441D000000000020F0B5002313
:10124000032601249C40214208D035005F00BD40A8
:101250000468AC431500BD402C4304600133102BDF
:10126000EFD1F0BD064B0749CA680240904201D158
:1012700001207047013B002BF6D11800F9E7C0466A
:10128000814F1200000200508023F0B5484D5B02F0
:101290002B6287B004000E002B68002862D1012069
:1012A00003432B60FFF7DEFF02230093414B0594BD
:1012B0000393414B414AF318934267D9404B414A4B
:1012C000F31893425AD80123760001930023012793
:1012D0001C0002937F420099039800F001F93A4BF9
:1012E0003A4AC318934220D84300F21A0492A44603
:1012F0003A000224364F3749DF198F420BD8049F3A
:101300009E4200D29F1B974205D2002F40D0009AE8
:10131000A44602923A0004990134091A04912E4914
:101320001B188C42E6D164461700009B01330093E2
:10133000222BD0D1019B059A9B031343A21E13437A
:10134000029A0420023A520213432B62FFF78AFFEB
:10135000019B0398591C029B594300F0C1F860435C
:1013600007B0F0BD04273B432B601020FFF77AFF46
:1013700080231B0305930097184B99E7184B194AD4
:10138000F318934207D8B60003239EE700239CE797
:10139000009B0293C9E7002C07D1134B2B6204205A
:1013A000FFF760FFFFF700FFDAE7104BF6E7C046F4
:1013B00000020050001BB700FF1E0AFAFFE0F5050F
:1013C0007F0F05FD7FF0FA02FF95E7FFBE77CC00A7
:1013D000001F0AFA00E1F505020200000080510139
:1013E000C08782FE40787D012EC200006FD60800C3
:1013F0007FB569466A46094B203370CB70C11B68C4
:101400000B60830F9B009A58054BD2181F2318407E
:101410001E3B834011680B4313607FBD141D000009
:10142000040200500649074A074B9B1A03DD043BA0
:10143000C858D050FBDCFFF7B5FEFEF771FE000088
:10144000741D00000000002074000020FEE7C0466C
:10145000ABBE744698472047084B10B50400002BDC
:1014600002D0002100E000BF054B1868836A002B02
:1014700000D09847200000F031F8C046000000007E
:10148000641D000070B500260C4D0D4C641BA410AB
:10149000A64209D1002600F0CDF80A4D0A4C641B83
:1014A000A410A64205D170BDB300EB589847013691
:1014B000EEE7B300EB5898470136F2E768000020EA
:1014C00068000020680000206C00002003008218E3
:1014D000934200D1704719700133F9E7FEE7C04627
:1014E000002243088B4274D303098B425FD3030A63
:1014F0008B4244D3030B8B4228D3030C8B420DD376
:10150000FF22090212BA030C8B4202D31212090203
:1015100065D0030B8B4219D300E0090AC30B8B4241
:1015200001D3CB03C01A5241830B8B4201D38B03EF
:10153000C01A5241430B8B4201D34B03C01A524194
:10154000030B8B4201D30B03C01A5241C30A8B42D7
:1015500001D3CB02C01A5241830A8B4201D38B02C2
:10156000C01A5241430A8B4201D34B02C01A524166
:10157000030A8B4201D30B02C01A5241CDD2C309D8
:101580008B4201D3CB01C01A524183098B4201D354
:101590008B01C01A524143098B4201D34B01C01A3F
:1015A000524103098B4201D30B01C01A5241C308B7
:1015B0008B4201D3CB00C01A524183088B4201D326
:1015C0008B00C01A524143088B4201D34B00C01A12
:1015D0005241411A00D20146524110467047FFE77E
:1015E00001B5002000F006F802BDC0460029F7D082
:1015F00076E770477047C046002310B59A4200D185
:1016000010BDCC5CC4540133F8E7020010B5137868
:10161000002B05D1CC5CD4540133002CFAD110BD81
:101620000132F4E70023C25C0133002AFBD1581ECB
:1016300070470000F8B5C046F8BC08BC9E4670472D
:10164000F8B5C046F8BC08BC9E467047001BB70002
:10165000000000000000000000805101A31A0000FB
:10166000A71A0000AB1A0000AF1A0000B31A00005E
:10167000B71A0000BB1A0000BF1A0000C31A00000E
:10168000C71A0000CA1A0000CE1A0000D21A0000C1
:10169000D61A0000DA1A0000DE1A0000E21A000072
:1016A000E61A0000EA1A0000EE1A0000F21A000022
:1016B000F61A0000FA1A0000FE1A0000021B0000D1
:1016C000061B00000A1B00000E1B0000121B00007E
:1016D000161B00001A1B00001E1B0000221B00002E
:1016E000261B00002A1B00002E1B0000321B0000DE
:1016F000361B00003A1B00003E1B0000421B00008E
:10170000461B00004A1B00004E1B0000521B00003D
:10171000561B00005A1B00005E1B0000621B0000ED
:10172000661B00006A1B00006E1B0000721B00009D
:10173000761B00007A1B00007E1B0000821B00004D
:10174000861B00008A1B00008E1B0000921B0000FD
:10175000961B00009A1B00009E1B0000A21B0000AD
:10176000A61B0000AA1B0000AE1B0000B21B00005D
:10177000B61B0000BA1B0000BE1B0000C21B00000D
:10178000C61B0000CA1B0000CE1B0000D21B0000BD
:10179000D61B0000DA1B0000DE1B0000E21B00006D
:1017A000E61B0000EA1B0000EE1B0000F21B00001D
:1017B000F61B0000FA1B0000FE1B0000021C0000CC
:1017C000061C00000A1C00000E1C0000121C000079
:1017D000161C00001A1C00001E1C0000221C000029
:1017E000261C00002A1C00002E1C0000A11A00006C
:1017F000A51A0000A91A0000AD1A0000B11A0000D5
:10180000B51A0000B91A0000BD1A0000C11A000084
:10181000C51A0000C91A0000CD1A0000D11A000034
:10182000D51A0000D91A0000DD1A0000E11A0000E4
:10183000E51A0000E91A0000ED1A0000F11A000094
:10184000F51A0000F91A0000FD1A0000011B000043
:10185000051B0000091B00000D1B0000111B0000F0
:10186000151B0000191B00001D1B0000211B0000A0
:10187000251B0000291B00002D1B0000311B000050
:10188000351B0000391B00003D1B0000411B000000
:10189000451B0000491B00004D1B0000511B0000B0
:1018A000551B0000591B00005D1B0000611B000060
:1018B000651B0000691B00006D1B0000711B000010
:1018C000751B0000791B00007D1B0000811B0000C0
:1018D000851B0000891B00008D1B0000911B000070
:1018E000951B0000991B00009D1B0000A11B000020
:1018F000A51B0000A91B0000AD1B0000B11B0000D0
:10190000B51B0000B91B0000BD1B0000C11B00007F
:10191000C51B0000C91B0000CD1B0000D11B00002F
:10192000D51B0000D91B0000DD1B0000E11B0000DF
:10193000E51B0000E91B0000ED1B0000F11B00008F
:10194000F51B0000F91B0000FD1B0000011C00003E
:10195000051C0000091C00000D1C0000111C0000EB
:10196000151C0000191C00001D1C0000211C00009B
:10197000251C0000291C00002D1C0000311C00004B
:10198000351C0000391C00003D1C0000411C0000FB
:10199000451C0000491C00004D1C0000511C0000AB
:1019A000551C0000591C00005D1C0000611C00005B
:1019B000651C0000691C00006D1C0000711C00000B
:1019C000751C0000791C00007D1C0000811C0000BB
:1019D000851C0000891C00008D1C0000911C00006B
:1019E000951C0000991C00009D1C0000A11C00001B
:1019F000A51C0000A91C0000AD1C0000B11C0000CB
:101A0000B51C0000B91C0000BD1C0000C11C00007A
:101A1000C51C0000C91C0000CD1C0000D11C00002A
:101A2000D51C0000D91C0000DD1C0000E11C0000DA
:101A3000E51C0000E91C0000ED1C0000F11C00008A
:101A4000F51C0000F91C0000FD1C0000011D000039
:101A5000051D0000091D00000D1D00000005040A01
:101A60000B0C0E070603020100000009080000012C
:101A70000100000103030301010101000000000057
:101A8000000101005B76315D0020C6B5B6CE2C00AA
:101A900020BAC5D2F4CFE4004646464646464646FE
:101AA00000313030003130310031303200313033EC
:101AB00000313034003130350031303600313037CC
:101AC00000313038003130390031313000313131BE
:101AD00000313132003131330031313400313135B0
:101AE0000031313600313137003131380031313990
:101AF0000031323000313231003132320031323394
:101B00000031323400313235003132360031323773
:101B10000031323800313239003133300031333165
:101B20000031333200313333003133340031333557
:101B30000031333600313337003133380031333937
:101B4000003134300031343100313432003134333B
:101B5000003134340031343500313436003134371B
:101B6000003134380031343900313530003135310D
:101B700000313532003135330031353400313535FF
:101B800000313536003135370031353800313539DF
:101B900000313630003136310031363200313633E3
:101BA00000313634003136350031363600313637C3
:101BB00000313638003136390031373000313731B5
:101BC00000313732003137330031373400313735A7
:101BD0000031373600313737003137380031373987
:101BE000003138300031383100313832003138338B
:101BF000003138340031383500313836003138376B
:101C0000003138380031383900313930003139315C
:101C1000003139320031393300313934003139354E
:101C2000003139360031393700313938003139392E
:101C30000032303000323031003230320032303356
:101C40000032303400323035003230360032303736
:101C50000032303800323039003231300032313128
:101C6000003231320032313300323134003231351A
:101C700000323136003231370032313800323139FA
:101C800000323230003232310032323200323233FE
:101C900000323234003232350032323600323237DE
:101CA00000323238003232390032333000323331D0
:101CB00000323332003233330032333400323335C2
:101CC00000323336003233370032333800323339A2
:101CD00000323430003234310032343200323433A6
:101CE0000032343400323435003234360032343786
:101CF0000032343800323439003235300032353178
:101D00000032353200323533003235340032353569
:101D100000000000001BB7000000000000000000F1
:101D2000000000000000000010270000000000007C
:101D30000080510100000000040000002C000000A1
:101D400000000000001BB7000000000080F0FA0255
:101D5000102700000000000000000000000000004C
:0C1D60000080510108000020000000007D
:081D6C00B4E3FF7F0100000059
:101D740080F0FA02FF0000000000000000000000F4
:101D8400000000000000000000000000000000004F
:101D9400000000000000000000000000000000003F
:101DA400000000000000000000000000000000002F
:101DB400000000000000000000000000000000001F
:101DC400000000000000000000000000000000000F
:101DD4000000000000000000E9000000C100000055
:041DE40000000000FB
:0400000300001425C0
:00000001FF
