:1000000000200020A1190000C9190000C919000032
:1000100000000000000000000000000000000000E0
:10002000000000000000000000000000C9190000EE
:100030000000000000000000C9190000811300004A
:10004000C9190000C9190000C9190000C919000028
:1000500011120000C9190000C9190000C9190000D7
:10006000C9190000C9190000C9190000C919000008
:100070004D13000031130000C919000015130000D2
:10008000F9120000DD120000C9190000C9190000B2
:10009000C9190000C9190000C9190000C9190000D8
:1000A000C9190000C9190000C9190000C9190000C8
:1000B000C9190000C9190000C9190000C9190000B8
:1000C00010B5064C2378002B07D1054B002B02D02E
:1000D000044800E000BF0123237010BDC0000020D1
:1000E00000000000181E0000084B10B5002B03D0C4
:1000F0000749084800E000BF07480368002B00D10B
:1001000010BD064B002BFBD09847F9E7000000001C
:10011000C4000020181E0000BC00002000000000E9
:10012000164B002B00D1144B9D46402292029A1A86
:10013000924600218B460F461348144A121A01F0CA
:100140009FFC0F4B002B00D098470E4B002B00D08C
:1001500098470020002104000D000D48002802D01F
:100160000C4800E000BF01F04BFC2000290000F02B
:1001700013F801F02FFCC04600000800002000200A
:100180000000000000000000C00000201018002047
:100190000000000000000000F0B5DFB001F028F81A
:1001A0000920F74C102623680343236001F000FB6D
:1001B0000423E568226830001343236001F0F8FA55
:1001C00007232269354013430F222361A369ED49B8
:1001D0009343A361E368DB0701D400F010FC002027
:1001E00001F0F8FA0426E7682368102033432360FF
:1001F00001F0DEFA07210F2223690B432361A36973
:1002000093431A0001231343A361022322698A4303
:100210001343236101F08CFAFB0602D42368B34335
:100220002360002D03D10422236893432360AC2074
:10023000C00501F083FBD44801F080FBD34801F0F6
:100240007DFBD34801F07AFBD24801F077FBD2481E
:1002500001F074FBAC200321C00501F0C1F9C021FD
:10026000C948890401F0BCF9C021C848890401F0DB
:10027000B7F9C021C648890401F0B2F9C021C548C8
:10028000890401F0ADF9C021C348890401F0A8F93F
:1002900001F04EFA01220821C04801F075FA01224E
:1002A0000221BF4801F070FA01220421BC4801F08C
:1002B0006BFA01220821BA4801F066FA8021002772
:1002C00001220901B64801F05FFA01220421B34876
:1002D00001F05AFAB34B03221F60B34B40211F6059
:1002E000B24BB3481F60B34B01241F60B24BB34EF7
:1002F0001F60B34BB34D1F6001F046FA802103220B
:100300008901A74801F040FA802103224901A4484D
:1003100001F03AFA03220121A14801F035FAAA4B73
:1003200022001C60A94B21001C60A94BA9481C603D
:10033000A94B1C6001F028FA22000221A54801F017
:1003400023FA03220421A34801F01EFA0322082104
:10035000A04801F019FA802103220902904801F017
:1003600013FA80212200C9018D4801F00DFA9B4B40
:1003700034602C601C609A4B22001C60994B102149
:100380001F60994B86481F6001F0FEF98021220012
:100390004900824801F0F8F98021220049017F4894
:1003A00001F0F2F98021220049007D4801F0ECF9CA
:1003B000220080217E4801F0E7F98C4B60221F600B
:1003C0008B4B1F608B4B1F608B4B1F608B4B1F60D9
:1003D000A023DB05196B91431963196B0A431A6358
:1003E0003022596E91435966596E11435966C021A6
:1003F000986B88439863986B01439963196E8048A2
:1004000001401966196E7F481966596E0140596698
:10041000596E59660321586B88435863586B0143E2
:100420005963596B784891435963596B0A435A632E
:100430007649DA6B0A40DA63C022D96B12020A43AA
:10044000DA6373491A6E0A401A661A6E1A6601F068
:100450008BF9704801F088F96F4801F085F96F4811
:1004600001F082F96E4801F07FF96E4801F0E8F87A
:100470006D4801F0E5F86D4801F0E2F86C4801F0D4
:10048000DFF86C4801F0DCF804236B4A1168099628
:100490000292194205D02C2112688A431343029A12
:1004A000136002230021029A644C5360029A644B49
:1004B000644813606160282201F0E2FA32260123C9
:1004C00008946149614C624A62489A5C185C9201E6
:1004D000800012183C481E55121812685A540133F5
:1004E000052BF0D148788B78444244415A425A4116
:1004F000CB78520058425841800010180A790019F0
:10050000534253410822DB001B185349DBB20B70E6
:100510001A40524800D17AE2083B0B700123037065
:1005200000232D2601270C782B604D4D013D002D19
:1005300000D06EE2032000F099FF0600042000F0D6
:1005400095FFFF2E00D15DE1FF2800D15AE107237E
:10055000444F454A3D70454D13702C70444C053B4B
:10056000AA218D20237000F08FFF0D2000F07EFF68
:10057000404E442130808D2000F086FF0D207BE02E
:100580000002005000E1F505083D8097093D809785
:10059000103D8057113D8057123D8057404000501C
:1005A000004000504C420050484200502C42005045
:1005B000C04000500C420050084200503C420050E5
:1005C0000442005038420050004200503042005077
:1005D0003442005080400050D84200508C420050BD
:1005E000804200508842005084420050DC4200505B
:1005F00020420050704200506042005010420050B3
:10060000FFFFFFCFFFF3FFFF08000008FF3FFFFFE2
:10061000FFFFFCFF090000081000000411000004A7
:100620001200000400400540008005400000054025
:10063000000015400040154000400040FC00005004
:1006400082050000480F0020E3010020DC010020AB
:10065000541D00003C1D0000E2010020C10E0020DE
:1006600041420F00700F0020730F0020710F002017
:10067000720F0020740F002000F0F8FE308003207D
:1006800000F0F4FE042000F0F1FE8021872000F04D
:10069000FBFE099B1E68012E00D1C6E1032000F07D
:1006A000E5FE042000F0E2FE032000F0DFFE04205F
:1006B00000F0DCFE0021852000F0E6FE022186200D
:1006C00000F0E2FE0021892000F0DEFE0021D120B2
:1006D00000F0DAFE0B21D02000F0D6FE5321F520E9
:1006E00000F0D2FE2E782378D64DF620EB18D9797B
:1006F00000F0CAFE2378F720EB18997B00F0C4FEC7
:100700002378FA20ED18697D00F0BEFE3100F92053
:1007100000F0BAFE0021B22000F0B6FE0221B320A4
:1007200000F0B2FE2D21B62000F0AEFED421B7209D
:1007300000F0AAFE8821B02000F0A6FE6321F1207F
:1007400000F0A2FE1021B42000F09EFE4221B52050
:1007500000F09AFEF5218B2000F096FEF2218C200D
:1007600000F092FE14218D2000F08EFE1821B64B71
:10077000ED201B78194300F087FE3A7823780E2489
:10078000002A00D09AE15C43B04D9C20615D2C1999
:1007900000F07AFE6178A02000F076FEA178A1201A
:1007A00000F072FEE178A22000F06EFE2179A32015
:1007B00000F06AFE6179A42000F066FEA179A52010
:1007C00000F062FEE179EE2000F05EFE217AEF207B
:1007D00000F05AFE617AF02000F056FEA17AF22075
:1007E00000F052FEE17A9D2000F04EFE217B9E201B
:1007F00000F04AFE617BAA2000F046FE00F076FE83
:1008000000F05FFE8022924D00211201280001F0CD
:1008100037F901238F4E904F90491A029C00AA1875
:10082000A251E2515C1C062B0ED0585C8C4A800011
:1008300084469A5C8B489201624412188A481B5C79
:1008400013602300072CE8D100258022874B12017A
:100850001D60874B29001A605A60864A86489A6054
:10086000864A874EDA601A615A618022D20001F00E
:1008700007F929000822834801F002F9290008221B
:10088000814801F0FDF8814B81491D70814B4A6818
:100890001D8011231A434A6080217F4A7F48090244
:1008A000116041681943416080217D48490211600F
:1008B000416819434160802040011060716819430C
:1008C000716080218901116076494E6833434B6025
:1008D0001023FA2110601360734B8900186801F02F
:1008E0001BF9724A01385060C020714900060B6A3A
:1008F0002D261B021B0A03430B6295601460FA2528
:10090000FA24AD0064006B4B1A68AA4200D20EE1D3
:10091000FA229200AD18684A9542F4D11B68FA2178
:1009200005938900059801F07DF9002904D1F5317E
:10093000FF31062000F080FD4C4F3B68052B00DCAA
:100940001FE1053B3B60099B1C68002C29D100F08E
:10095000CDFD032000F08AFD0500C30702D500F09D
:10096000A5FD013C02231D4210D04B2000F07EFD6E
:1009700000250400FF2603906B1C01932B00039AB3
:1009800033409A4200DD70E100F090FD00F099FDE7
:10099000002C06DDFA219623490001203B6000F07F
:1009A0004BFD2D4B04330493294B0133FF33079345
:1009B00001230193344A019B01999B5C079E0533F7
:1009C0008B54244B8A00D5582B4BC9012D4AFF3636
:1009D0005B1804990968A94200D1D5E20878B142B0
:1009E00000D249E10499079C0C600199019F515C78
:1009F000585400204C1C2449D4557854E9E78020F1
:100A0000000300F0E7FEE5683540FFF7EBFB0270FE
:100A100086E500F0EDFB029B029A1B68B3433B4363
:100A200013600023089A536080E500F0E1FB2D225B
:100A3000029B1B6893431E43029B089A1E6000237F
:100A4000536026E6BE1C0000730F0020DA1C000075
:100A5000E90100200C0A0020EC0900204C1D0000D8
:100A6000641D0000004200506C1D0000C40E0020F8
:100A7000F80F0020101800202C0A00201010002071
:100A800000001540AC0E0020B40E0020C00E002067
:100A900000400540C20E002000E100E0008005405B
:100AA00000000540004015405000002010E000E02C
:100AB00000ED00E0BC0E0020701700005C43C74D45
:100AC0009C20615D2C1900F0DFFC6178A02000F013
:100AD000DBFCA178A12000F0D7FCE178A22000F097
:100AE000D3FC2179A32000F0CFFC6179A42000F091
:100AF000CBFCA179A52000F0C7FCE179EE2000F045
:100B0000C3FC217AEF2000F0BFFC617AF02000F0F6
:100B1000BBFCA17AF22000F0B7FCE17A9D2000F046
:100B2000B3FC217B9E2000F0AFFC412163E61A68F4
:100B3000AB4BEB189A4217D22100012000F07CFC4D
:100B40002100022000F078FC2100032000F074FC5A
:100B50002100042000F070FC2100052000F06CFC56
:100B60002100062000F068FC00F042FB029B1A689E
:100B70000123B2431343029A13600023089A53607F
:100B8000C1E6984CE3682269934200D1DBE61E7807
:100B9000802E4BD8721CA568591C9B18AB4201D300
:100BA00022689B1A994255D232008F4800F0AAFF62
:100BB000002E00D14EE2FA239B003B6000F096FC31
:100BC0000121882000F060FC0021882000F05CFCFE
:100BD0003100BE2000F058FC0025834BFF20E95C6B
:100BE000013500F051FCEBB29E42F6D8042185207D
:100BF00000F04AFC0021862000F046FC032000F0B3
:100C000035FC042000F032FC0921872000F03CFC78
:100C1000099B1B68002BFBD100F068FC00F046FC30
:100C200000F04FFC3221012000F006FCE36822694D
:100C3000934200D187E61A78511C5B18A168E360E3
:100C40008B4202D321685B1AE360636801339B180F
:100C5000636078E66D1AEDB22A00634800F052FF37
:100C6000614B721B58196169A0E77F2000F0FEFB01
:100C70005E4B5855019D7FE6049C01312160B4E62E
:100C80000124039DA6E10224FBE70324F9E706996A
:100C9000380000F0E3FF002800D0A7E101369FE113
:100CA000002151563039C8B2092806D8192B04DC66
:100CB0000A2043430132CB18A7E1761B32002900FA
:100CC00012A800F01FFF5EAB9E190023313EFF3ECD
:100CD0003370042C13D8200000F0B6FF0E00C601BC
:100CE000D5011700E801369B5A1C36929B005EAA7C
:100CF000D318129AB03B1A60022FC1D00024002FE3
:100D0000BFD1052C47D1002741E012A93DA800F032
:100D1000B3FF3DA800F02CFE022F00D1C9E103244F
:100D2000EDE7BA00D15C3DA80391197D9B1896228E
:100D30009B695200DBB2069312AB9B181B780C9197
:100D40000D9300F0A1FF6323069A04009342AD4186
:100D50006D42AB1DC318DBB20A2110000E9300F0E8
:100D6000DBFE3030C3B20F93214B1B355B19109360
:100D7000FF2300262340ED180A93EB1E9BB211932C
:100D80006B1CDBB20B930C9BB34239D8013732ABEF
:100D90001A699742C5DB00220199164B481CCA54B8
:100DA000C0B2322100F048FB049B04330493019B42
:100DB00001330193079B0133FF330793019B072BFB
:100DC00000D0F7E50C4B0D4A1B78002B00D1D8E082
:100DD0001388052B6DD9053B1380B8E0B01C0000CB
:100DE00022FCFFFFF80F0020C80E00202C0E002070
:100DF000DC000020AC0E0020C10E0020C20E00203E
:100E0000C523AD4C08222370C52363701023E37003
:100E1000072323716B461B7BA01DA849637100F05B
:100E200071FE01220023E2732274039AA373FF2A46
:100E300030D16374FD23A37400233822E3746B461E
:100E40009B181B78043A2375012363756B469B1826
:100E50001B78A375069B632B1FD920002F3A1730F0
:100E6000974900F04FFE0A9A3DA9109800F04AFEFB
:100E7000914C1199E01C00F04FFB2C226B469B1803
:100E80001B7860550B9920000136A370F6B200F074
:100E90001FFC78E76B461B7BCBE75B23E3751B33BB
:100EA00023763C226B469B181B7863765D23A376E2
:100EB000D9E7FA23DB001380824B834A1B78FF2596
:100EC000DB00D3181800039300F0DEFEC5237F4C2F
:100ED000070023706370B53BE3706B461B790822F3
:100EE0007649A01D2371657100F00CFE0123FD22DF
:100EF00020000026E373237463755A33E3751B33B4
:100F00003D40A2742376BA1D413B227563762A00C8
:100F1000283303991B30A376A6736674E674A6750E
:100F200000F0F0FD29002F001831E01C00F0F4FA69
:100F30001B371C35E055E9B22000A17000F0C8FB5A
:100F4000604B1B78082B19D85E4A0133137000F0F0
:100F50004FF92D22029B1B6893431A000123134370
:100F6000029A13600023089A5360594A136805993E
:100F70005B1A042BFAD90B000533D0E4514B1E70D9
:100F8000E5E750490B7027E7019BD05C002800D1B2
:100F90000AE7504B019AD35C632B00D804E74E4D0F
:100FA000D1014A5D0023AB2A09D16A185478BA2CC2
:100FB00005D11218541E023A237013700333002413
:100FC0005918C31A6D18DBB2EC54B022210032A8B4
:100FD00000F056FD0023EB56002B30D02E003F4F83
:100FE0000023F3560693002B00D050E6731C0393A6
:100FF000069B01272C2B04D01F002F3F7A427A41F9
:101000005700AE4210D02A000023B24200D247E679
:101010001293042C00D972E6200000F00BFE64FE4F
:1010200023002A003C004500042C00D967E620007C
:1010300000F000FE62FE1A00290072FE3C00042C43
:1010400000D95EE6200000F0F5FD07000A0023004D
:101050002C005EFEE368EEE5039500274EE603955F
:10106000002704E0129B3793022F00D10BE60124E6
:1010700045E63C9B5A1C06333C929B005EAAD31863
:10108000129AB03B1A60022F00D1FEE5022436E628
:1010900003950027FAE70A223DA9129800F0ECFC1C
:1010A00037E6039500273AE6129B5D93002F00D1A7
:1010B00029E60424E5E5C046DC000020811D00008F
:1010C0008A1D0000C00E0020000000205C010020EE
:1010D000BC0E0020B40E00202C0A00207E1D000053
:1010E000094B820030B5D458000221700400074D2E
:1010F000FF34D1586419A14202D34019D05030BDF9
:101100000131D150FBE7C0460C0A0020E901002064
:101110000021F0B50F4D0B0008240127AC460E4A04
:101120000E4E11605B0045B2DBB2002D10DA376065
:10113000654617602D684000C0B2012D01D12B43D8
:10114000DBB2013C1160002CECD118001460F0BD42
:101150003160EDE788420050844200508C420050DC
:10116000002310B5044C2360FFF7D2FFFF20FFF7E8
:10117000CFFF0123236010BD80420050002370B5D3
:101180000D00064C236080331843FFF7C1FF280091
:10119000FFF7BEFF0123236070BDC04680420050B0
:1011A0000021F0B50F4D0B0008240127AC460E4A74
:1011B0000E4E11605B0045B2DBB2002D10DA3760D5
:1011C000654617602D684000C0B2012D01D12B4348
:1011D000DBB2013C1160002CECD118001460F0BDB2
:1011E0003160EDE78C42005084420050884200504C
:1011F00010B5592116208824044B5A68012A00D1C1
:1012000010BD596058605C60F7E7C046FC000050B4
:1012100080222B4B1202196A70B5114246D01A6215
:101220001220FFF79DFF0400264BFF2118701220AB
:10123000FFF7A4FF63B2002B16DB630614D5102062
:10124000FFF78EFF01000D20FFF798FF1320FFF737
:1012500087FF00241C4D06002C602000FFF758FF7C
:10126000A6421CDC01232B6089210120FFF786FFA9
:101270009F211120FFF782FF00214020FFF77EFF12
:1012800000214120FFF77AFF8D210120FFF776FF33
:1012900000220E4B1A600E4B01321A6070BDFF2007
:1012A000FFF736FF0B4BE0540134D9E71A6A196A8D
:1012B0000A431A62084B1A6A196A0A431A62EDE76E
:1012C00000400050F60F0020804200504C42005079
:1012D000D8420050760F002040400050054B10B51A
:1012E000DA69D20504D519680620C9B2FFF7F8FEFD
:1012F00010BDC04600801540054B10B5DA69D20517
:1013000004D519680220C9B2FFF7EAFE10BDC04635
:1013100000800540054B10B5DA69D20504D519687F
:101320000120C9B2FFF7DCFE10BDC04600400540F9
:10133000054B10B5DA69D20504D519680420C9B285
:10134000FFF7CEFE10BDC0460000154010B580244A
:10135000094B6400DA69224204D019680320C9B23B
:10136000FFF7BEFE054BDA69224204D0196805205A
:10137000C9B2FFF7B5FE10BD0000054000401540A2
:10138000234AF0B513682349013313600023012277
:101390009C46214C214D224E0F687B1ED81C02D842
:1013A000012F1DD00B6001320431092AF4D1012331
:1013B00032211C481C4C1D4DC25CE65C9201B600FB
:1013C00092191B4E921916685A191778F6B294465C
:1013D000184AB74210D1D1540133052BECD1F0BDDE
:1013E0006346AF5C0B60A35CBF009B01DB19104F31
:1013F000DB19B75C1F60D6E7D2181778012F02D926
:10140000013F1770E8E7117062461670E4E7C046C6
:10141000BC0E00204C0F00205A1D0000421D000091
:10142000741D0000541D00003C1D0000E30100205D
:1014300000420050DC010020074B8200D150074BD6
:10144000074A1B5C125C9B0192009B18054A9B1883
:10145000054A125C1A607047480F00205A1D0000B0
:10146000421D000000420050901D0000002310B5F6
:10147000044C2360FFF794FEFF20FFF791FE012349
:10148000236010BD80420050002370B50D00064C53
:10149000236080331843FFF783FE2800FFF780FEA8
:1014A0000123236070BDC0468042005010B5022168
:1014B0008820FFF7E9FF88200021FFF7E5FF0020E3
:1014C00010BD10B503218520FFF7DEFF0021862027
:1014D000FFF7DAFF0320FFF7C9FF0420FFF7C6FF7D
:1014E00087200521FFF7D0FF002010BD10B5012196
:1014F0008720FFF7C9FF00218520FFF7C5FF0021E6
:101500008620FFF7C1FF0320FFF7B0FF0420FFF79D
:10151000ADFF002010BD0000F0B50300082600203C
:10152000312701390B4A89B2914200D1F0BD1A78B6
:101530005040320044B2A44665464400E0B2002D5B
:1015400001DA7C40E0B2013AD2B2002AF2D1013392
:10155000E7E7C046FFFF0000012307B5A02101AA6D
:101560001370DB18537093700233D3700E4BC902A3
:101570001B6A00200B4213D1190312D40B489903A4
:101580000ED4D905C90D0231800848431904890FCA
:10159000525C9904C90E0231514300F0BDFA80003B
:1015A0000EBD0348EBE7C04600020050001BB70029
:1015B00000805101C2B2030010003038092803D85E
:1015C000303B4B43D8B2704710006138052801D832
:1015D000573BF6E7413A0020052AF4D8373BF0E7BD
:1015E000F0B585B06A46134B6C46E0CBE0C21B6891
:1015F0001360820AD2B2002A0AD08605F60EB240E3
:101600000D4D03039B0F5B199B001D6895431D60E7
:1016100003015B0F0CD08200C001C00E8340920F0B
:101620009200A458054AA41822689A4311432160E5
:1016300005B0F0BD9C1D0000860000141002005093
:10164000F0B585B06A461E4B0500103313CB13C2AC
:101650001B686E4613601B4A032354699769002276
:10166000240E2A63EB601C40174AAB683F05134009
:101670003F0FAB60012C02D1FFF76EFF0190A40079
:10168000791C305900F048FAE123E1211B020400E3
:101690004902C01800F040FA0C4B023898420BD9AE
:1016A000E123E1211B03E018490200F035FA0009AB
:1016B0000238686205B0F0BDC0239B051843F8E707
:1016C0009C1D0000000200500FFFF0FFFFFF000014
:1016D000F8B5154C4B1C626807000E0000209A42BA
:1016E00017D922691170501C2269A568D31823618B
:1016F000AB4202D322689B1A23616368013B9B1BA8
:1017000063602369984205D23200390000F0FAF98B
:101710000120F8BD2D1AEDB22A00390000F0F2F9CF
:101720006069721B7919F1E7F80F0020704700001B
:1017300010B5FFF711FF0721084A13690B40022B70
:1017400002D007499B0058580F2391691940013175
:1017500000F0E2F9034B186010BDC04600020050D3
:10176000CC1D000050000020064A030E9B180122E9
:101770000002000A824019681143196019689143F8
:101780001960704708000050F0B5002303260124BB
:101790009C40214208D035005F00BD400468AC4346
:1017A0001500BD402C4304600133102BEFD1F0BD78
:1017B000064B0749CA680240904201D10120704798
:1017C000013B002BF6D11800F9E7C046814F12000B
:1017D000000200508023F0B5484D5B022B6287B0B9
:1017E00004000E002B68002862D1012003432B6007
:1017F000FFF7DEFF02230093414B05940393414B17
:10180000414AF318934267D9404B414AF318934237
:101810005AD8012376000193002301271C0002936C
:101820007F420099039800F077F93A4B3A4AC3187F
:10183000934220D84300F21A0492A4463A000224AC
:10184000364F3749DF198F420BD8049F9E4200D292
:101850009F1B974205D2002F40D0009AA4460292C7
:101860003A0004990134091A04912E491B188C423C
:10187000E6D164461700009B01330093222BD0D1A0
:10188000019B059A9B031343A21E1343029A042053
:10189000023A520213432B62FFF78AFF019B03981F
:1018A000591C029B594300F037F9604307B0F0BD63
:1018B00004273B432B601020FFF77AFF80231B0394
:1018C00005930097184B99E7184B194AF318934260
:1018D00007D8B60003239EE700239CE7009B0293F2
:1018E000C9E7002C07D1134B2B620420FFF760FFE0
:1018F000FFF732FEDAE7104BF6E7C0460002005071
:10190000001BB700FF1E0AFAFFE0F5057F0F05FD7B
:101910007FF0FA02FF95E7FFBE77CC00001F0AFABE
:1019200000E1F5050202000000805101C08782FE3F
:1019300040787D012EC200006FD608007FB5694651
:101940006A46094B203370CB70C11B680B60830F54
:101950009B009A58054BD2181F2318401E3B83400A
:1019600011680B4313607FBD9C1D000004020050F2
:10197000F8B504000500012700202856002801D1F1
:101980002070F8BD1021FFF715FE06000120390078
:101990002856FFF70FFE3618267002350134EBE7A4
:1019A0000649074A074B9B1A03DD043BC858D05031
:1019B000FBDCFFF7BBFEFEF7B3FB0000241E0000BC
:1019C00000000020C0000020FEE7C046ABBE744609
:1019D00098472047084B10B50400002B02D0002187
:1019E00000E000BF054B1868836A002B00D09847C1
:1019F000200000F01DF9C04600000000EC1D0000B2
:101A000070B500260C4D0D4C641BA410A64209D1E4
:101A1000002600F041F90A4D0A4C641BA410A642AE
:101A200005D170BDB300EB5898470136EEE7B3001F
:101A3000EB5898470136F2E7B4000020B4000020CC
:101A4000B4000020B8000020931E10B50C00222B1B
:101A500004D900231C000B70200010BD0A2A09D1F4
:101A6000002807DA2D230B7001214042611800F095
:101A70000FF8F1E70021F9E710B5FFF7E5FF10BD1A
:101A800003008218934200D1704719700133F9E7BF
:101A9000F0B517008FB0252206000D0004A81849E4
:101AA00000F030F804AABB1E00240392222B05D9B3
:101AB0002C70250028000FB0F0BD019C631C019321
:101AC000EB1800933000013B3900029300F0AAF8B4
:101AD000039B029A5B5C30001370390000F01CF825
:101AE000061EEAD1009B18702B005A1B9442E1DDC0
:101AF0001A78295D19702A550133013CF5E7C04673
:101B0000F01D0000002310B59A4200D110BDCC5C3E
:101B1000C4540133F8E70000002243088B4274D319
:101B200003098B425FD3030A8B4244D3030B8B42DE
:101B300028D3030C8B420DD3FF22090212BA030CE7
:101B40008B4202D31212090265D0030B8B4219D3C8
:101B500000E0090AC30B8B4201D3CB03C01A5241E8
:101B6000830B8B4201D38B03C01A5241430B8B4230
:101B700001D34B03C01A5241030B8B4201D30B0319
:101B8000C01A5241C30A8B4201D3CB02C01A524140
:101B9000830A8B4201D38B02C01A5241430A8B4203
:101BA00001D34B02C01A5241030A8B4201D30B02EC
:101BB000C01A5241CDD2C3098B4201D3CB01C01A06
:101BC000524183098B4201D38B01C01A5241430910
:101BD0008B4201D34B01C01A524103098B4201D3FE
:101BE0000B01C01A5241C3088B4201D3CB00C01A6B
:101BF000524183088B4201D38B00C01A52414308E3
:101C00008B4201D34B00C01A5241411A00D2014607
:101C1000524110467047FFE701B5002000F006F87A
:101C200002BDC0460029F7D076E770477047C0462E
:101C3000FEE7C04603B47146490840004900095E0A
:101C400049008E4403BC704703B471464908400004
:101C50004900095A49008E4403BC7047C9B2037851
:101C6000002B04D0994200D170470130F7E74B4276
:101C7000594149420840F7E7031C0A7801311A70BC
:101C80000133002AF9D170470023C25C0133002AD6
:101C9000FBD1581E70470000F8B5C046F8BC08BC20
:101CA0009E467047F8B5C046F8BC08BC9E467047D3
:101CB0009A7140346E00084E792090400A41040425
:101CC000040303020153535358565A6140404040A5
:101CD000C040C0212121272D24001D416027520032
:101CE0000513A9203A400A201DA1204EA5000A276D
:101CF000522048400A201ED0009D4900244EA520B5
:101D000018400A2003D0009D49013D9D49200F4005
:101D10000A1E0368013A93027809D5001F400A2081
:101D2000064501D7DC03B80EBF002E400A2D82689D
:101D3000013A9302781D7E005C400A5000060D0CAB
:101D4000000000030102030B020A09000004080C52
:101D50000807070000030000000000010000000069
:101D6000010000000000010100030000000000006D
:101D700000000000000000000000000000002C2F08
:101D8000004646464646464646005B7631305D0094
:101D9000000101010101010101000000000000003B
:101DA000040000000C00000024000000001BB7002D
:101DB0000000000000000000008051010000000051
:101DC000040000002C00000000000000001BB70011
:101DD0000000000080F0FA02102700000000000060
:101DE00000000000000000000080510154000020AD
:101DF0003031323334353637383961626364656681
:101E00006768696A6B6C6D6E6F70717273747576EA
:0C1E10007778797A0000000000000000E4
:081E1C0004E3FF7F0100000058
:101E2400B5F7CAD430000000B5F7CAD431000000B9
:101E3400B5F7CAD432000000B5F7CAD433000000A5
:101E4400B5F7CAD434000000B5F7CAD43500000091
:101E5400B5F7CAD436000000B5F7CAD4370000007D
:101E6400B5F7CAD438000000B5F7CAD43900000069
:101E740080F0FA02000000000000000000000000F2
:101E8400000000000000000000000000000000004E
:101E9400000000000000000000000000000000003E
:101EA400000000000000000000000000000000002E
:101EB400000000000000000000000000000000001E
:101EC400000000000000000000000000000000000E
:101ED40000000000E9000000C10000000000000054
:04000003000019A13F
:00000001FF
