:100000000020002081180000A9180000A918000095
:1000100000000000000000000000000000000000E0
:10002000000000000000000000000000A91800000F
:100030000000000000000000A9180000A916000040
:10004000A9180000A9180000A9180000A9180000AC
:10005000D9150000A9180000A9180000A91800006F
:10006000A9180000A9180000A9180000A91800008C
:100070007516000059160000A91800003D16000072
:100080002116000005160000A9180000A91800009C
:10009000A9180000A9180000A9180000A91800005C
:1000A000A9180000A9180000A9180000A91800004C
:1000B000A9180000A9180000A9180000A91800003C
:1000C00010B5064C2378002B07D1054B002B02D02E
:1000D000044800E000BF0123237010BDC0000020D1
:1000E00000000000F81C0000084B10B5002B03D0E6
:1000F0000749084800E000BF07480368002B00D10B
:1001000010BD064B002BFBD09847F9E7000000001C
:10011000C4000020F81C0000BC000020000000000B
:10012000164B002B00D1144B9D46402292029A1A86
:10013000924600218B460F461348144A121A01F0CA
:100140000FFC0F4B002B00D098470E4B002B00D01C
:1001500098470020002104000D000D48002802D01F
:100160000C4800E000BF01F0BBFB2000290000F0BC
:1001700013F801F09FFBC04600000800002000209B
:100180000000000000000000C000002090190020C6
:100190000000000000000000F0B5DFB001F00CFA34
:1001A0000920F74C102623680343236001F0CCF8A4
:1001B0000423E568226830001343236001F0C4F88B
:1001C00007232269354013430F222361A369ED49B8
:1001D0009343A361E368DB0701D400F010FC002027
:1001E00001F0C4F80426E768236810203343236035
:1001F00001F0AAF807210F2223690B432361A369A9
:1002000093431A0001231343A361022322698A4303
:100210001343236101F058F8FB0602D42368B3436B
:100220002360002D03D10422236893432360AC2074
:10023000C00501F04FF9D44801F04CF9D34801F062
:1002400049F9D34801F046F9D24801F043F9D248C0
:1002500001F040F9AC200321C00500F08DFFC02162
:10026000C948890400F088FFC021C848890400F00B
:1002700083FFC021C648890400F07EFFC021C54825
:10028000890400F079FFC021C348890400F074FF9D
:1002900001F01AF801220821C04801F041F80122BA
:1002A0000221BF4801F03CF801220421BC4801F0C2
:1002B00037F801220821BA4801F032F880210027DE
:1002C00001220901B64801F02BF801220421B348AC
:1002D00001F026F8B34B03221F60B34B40211F608F
:1002E000B24BB3481F60B34B01241F60B24BB34EF7
:1002F0001F60B34BB34D1F6001F012F88021032241
:100300008901A74801F00CF8802103224901A44883
:1003100001F006F803220121A14801F001F8AA4BDF
:1003200022001C60A94B21001C60A94BA9481C603D
:10033000A94B1C6000F0F4FF22000221A54800F048
:10034000EFFF03220421A34800F0EAFF0322082163
:10035000A04800F0E5FF802103220902904800F048
:10036000DFFF80212200C9018D4800F0D9FF9B4B9F
:1003700034602C601C609A4B22001C60994B102149
:100380001F60994B86481F6000F0CAFF8021220041
:100390004900824800F0C4FF8021220049017F48C3
:1003A00000F0BEFF8021220049007D4800F0B8FF28
:1003B000220080217E4800F0B3FF8C4B60221F603A
:1003C0008B4B1F608B4B1F608B4B1F608B4B1F60D9
:1003D000A023DB05196B91431963196B0A431A6358
:1003E0003022596E91435966596E11435966C021A6
:1003F000986B88439863986B01439963196E8048A2
:1004000001401966196E7F481966596E0140596698
:10041000596E59660321586B88435863586B0143E2
:100420005963596B784891435963596B0A435A632E
:100430007649DA6B0A40DA63C022D96B12020A43AA
:10044000DA6373491A6E0A401A661A6E1A6600F069
:1004500057FF704800F054FF6F4800F051FF6F489D
:1004600000F04EFF6E4800F04BFF6E4800F0B4FE07
:100470006D4800F0B1FE6D4800F0AEFE6C4800F033
:10048000ABFE6C4800F0A8FE04236B4A1168099685
:100490000292194205D02C2112688A431343029A12
:1004A000136002230021029A644C5360029A644B49
:1004B000644813606160282201F052FA3226012359
:1004C00008946149614C624A62489A5C185C9201E6
:1004D000800012183C481E55121812685A540133F5
:1004E000052BF0D148788B78444244415A425A4116
:1004F000CB78520058425841800010180A790019F0
:10050000534253410822DB001B185349DBB20B70E6
:100510001A40524800D17AE2083B0B700123037065
:1005200000232D2601270C782B604D4D013D002D19
:1005300000D06EE2032001F02DF90600042001F046
:1005400029F9FF2E00D15DE1FF2800D15AE10723F0
:10055000444F454A3D70454D13702C70444C053B4B
:10056000AA218D20237001F023F90D2001F012F94A
:10057000404E442130808D2001F01AF90D207BE09F
:100580000002005000E1F505083D8097093D809785
:10059000103D8057113D8057123D8057404000501C
:1005A000004000504C420050484200502C42005045
:1005B000C04000500C420050084200503C420050E5
:1005C0000442005038420050004200503042005077
:1005D0003442005080400050D84200508C420050BD
:1005E000804200508842005084420050DC4200505B
:1005F00020420050704200506042005010420050B3
:10060000FFFFFFCFFFF3FFFF08000008FF3FFFFFE2
:10061000FFFFFCFF090000081000000411000004A7
:100620001200000400400540008005400000054025
:10063000000015400040154000400040FC00005004
:1006400082050000480F0020E3010020DC010020AB
:10065000341C00001C1C0000E2010020C10E002020
:1006600041420F00700F0020730F0020710F002017
:10067000720F0020740F002001F08CF830800320EE
:1006800001F088F8042001F085F88021872001F02E
:100690008FF8099B1E68012E00D1C6E1032001F0EE
:1006A00079F8042001F076F8032001F073F80420B3
:1006B00001F070F80021852001F07AF802218620EF
:1006C00001F076F80021892001F072F80021D12094
:1006D00001F06EF80B21D02001F06AF85321F520CB
:1006E00001F066F82E782378D64DF620EB18D979EC
:1006F00001F05EF82378F720EB18997B01F058F8A9
:100700002378FA20ED18697D01F052F83100F920C4
:1007100001F04EF80021B22001F04AF80221B32086
:1007200001F046F82D21B62001F042F8D421B7207F
:1007300001F03EF88821B02001F03AF86321F12061
:1007400001F036F81021B42001F032F84221B52032
:1007500001F02EF8F5218B2001F02AF8F2218C20EF
:1007600001F026F814218D2001F022F81821B64B53
:10077000ED201B78194301F01BF83A7823780E24FA
:10078000002A00D09AE15C43B04D9C20615D2C1999
:1007900001F00EF86178A02001F00AF8A178A120FC
:1007A00001F006F8E178A22001F002F82179A320F7
:1007B00000F0FEFF6179A42000F0FAFFA179A520E6
:1007C00000F0F6FFE179EE2000F0F2FF217AEF2051
:1007D00000F0EEFF617AF02000F0EAFFA17AF2204B
:1007E00000F0E6FFE17A9D2000F0E2FF217B9E20F1
:1007F00000F0DEFF617BAA2000F0DAFF01F00AF8CA
:1008000000F0F3FF8022924D00211201280001F038
:10081000A7F801238F4E904F90491A029C00AA1806
:10082000A251E2515C1C062B0ED0585C8C4A800011
:1008300084469A5C8B489201624412188A481B5C79
:1008400013602300072CE8D10025A022874B12015A
:100850001D60874B29001A605A60864A86489A6054
:10086000864A874EDA601A615A618022D20001F00E
:1008700077F829000822834801F072F8290008223D
:10088000814801F06DF8814B81491D70814B4A68A8
:100890001D8011231A434A6080217F4A7F48090244
:1008A000116041681943416080217D48490211600F
:1008B000416819434160802040011060716819430C
:1008C000716080218901116076494E6833434B6025
:1008D0001023FA2110601360734B8900186801F02F
:1008E0008BF8724A01385060C020714900060B6ACB
:1008F0002D261B021B0A03430B6295601460FA2528
:10090000FA24AD0064006B4B1A68AA4200D20EE1D3
:10091000FA229200AD18684A9542F4D11B68FA2178
:1009200005938900059801F0EDF8002904D1F5310F
:10093000FF31062000F014FF4C4F3B68052B00DC14
:100940001FE1053B3B60099B1C68002C29D100F08E
:1009500061FF032000F01EFF0500C30702D500F071
:1009600039FF013C02231D4210D04B2000F012FF42
:1009700000250400FF2603906B1C01932B00039AB3
:1009800033409A4200DD70E100F024FF00F02DFFBB
:10099000002C06DDFA219623490001203B6000F07F
:1009A000DFFE2D4B04330493294B0133FF330793B0
:1009B00001230193344A019B01999B5C079E0533F7
:1009C0008B54244B8A00D5582B4BC9012D4AFF3636
:1009D0005B1804990968A94200D1DDE20878B142A8
:1009E00000D249E10499079C0C600199019F515C78
:1009F000585400204C1C2449D4557854E9E78020F1
:100A0000000300F0B3FCE5683540FFF7EBFB027034
:100A100086E500F0D1FD029B029A1B68B3433B437D
:100A200013600023089A536080E500F0C5FD2D2275
:100A3000029B1B6893431E43029B089A1E6000237F
:100A4000536026E69E1B0000730F0020BA1B0000B7
:100A5000E90100200C0A0020EC0900202C1C0000F9
:100A6000441C0000004200504C1C0000C40E00203A
:100A7000780F0020901900202C0A0020900F0020F1
:100A800000001540AC0E0020B40E0020C00E002067
:100A900000400540C20E002000E100E0008005405B
:100AA00000000540004015405000002010E000E02C
:100AB00000ED00E0BC0E0020701700005C43CA4D42
:100AC0009C20615D2C1900F073FE6178A02000F07D
:100AD0006FFEA178A12000F06BFEE178A22000F06B
:100AE00067FE2179A32000F063FE6179A42000F065
:100AF0005FFEA179A52000F05BFEE179EE2000F019
:100B000057FE217AEF2000F053FE617AF02000F0CA
:100B10004FFEA17AF22000F04BFEE17A9D2000F01A
:100B200047FE217B9E2000F043FE412163E61A68C8
:100B3000AE4BEB189A4217D22100012000F010FEB4
:100B40002100022000F00CFE2100032000F008FE2E
:100B50002100042000F004FE2100052000F000FE2A
:100B60002100062000F0FCFD00F026FD029B1A6823
:100B70000123B2431343029A13600023089A53607F
:100B8000C1E69B4CE3682269934200D1DBE61E7804
:100B9000802E4BD8721CA568591C9B18AB4201D300
:100BA00022689B1A994255D23200924800F01AFFEF
:100BB000002E00D156E2FA23DB003B6000F02AFE53
:100BC0000121882000F0F4FD0021882000F0F0FDD4
:100BD0003100BE2000F0ECFD0025864BFF20E95CD3
:100BE000013500F0E5FDEBB29E42F6D804218520E8
:100BF00000F0DEFD0021862000F0DAFD032000F089
:100C0000C9FD042000F0C6FD0921872000F0D0FDB9
:100C1000099B1B68002BFBD100F0FCFD00F0DAFD06
:100C200000F0E3FD3221012000F09AFDE368226923
:100C3000934200D187E61A78511C5B18A168E360E3
:100C40008B4202D321685B1AE360636801339B180F
:100C5000636078E66D1AEDB22A00664800F0C2FEC5
:100C6000644B721B58196169A0E77F2000F092FD68
:100C7000614B5855019D7FE6049C01312160B4E62B
:100C80000124039DAEE10224FBE70324F9E7069962
:100C9000380000F053FF002800D0AFE10136A7E193
:100CA000002151563039C8B2092806D8192B04DC66
:100CB0000A2043430132CB18AFE1761B32002900F2
:100CC00012A800F08FFE5EAB9E190023313EFF3E5E
:100CD0003370042C13D8200000F026FF0E00CE0144
:100CE000DD011700F001369B5A1C36929B005EAA6C
:100CF000D318129AB03B1A60022FC1D00024002FE3
:100D0000BFD1052C47D1002741E012A93DA800F032
:100D100023FF3DA800F0F8FB022F00D1D1E103240E
:100D2000EDE7BA00D15C3DA80391197D9B1896228E
:100D30009B695200DBB2069312AB9B181B780C9197
:100D40000D9300F011FF6323069A04009342AD4116
:100D50006D42AB1DC318DBB20A2110000E9300F0E8
:100D60004BFE3030C3B20F93244B1B355B191093ED
:100D7000FF2300262340ED180A93EB1E9BB211932C
:100D80006B1CDBB20B930C9BB34241D8013732ABE7
:100D90001A699742C5DB00220199194B481CCA54B5
:100DA000C0B2322100F0DCFC049B04330493019BAD
:100DB00001330193079B0133FF330793019B072BFB
:100DC00000D0F7E50F4B104A1B78002B00D1DFE075
:100DD0000E4B1E79002E00D0DAE01388052B70D957
:100DE000053B1380BAE0C046901B000022FCFFFFC9
:100DF000780F0020C80E00202C0E0020DC00002000
:100E0000AC0E0020C10E0020C20E0020E301002025
:100E1000C523AD4C08222370C52363701023E370F3
:100E2000072323716B461B7BA01DA849637100F04B
:100E3000D9FD01220023E2732274039AA373FF2ACF
:100E400030D16374FD23A37400233822E3746B460E
:100E50009B181B78043A2375012363756B469B1816
:100E60001B78A375069B632B1FD920002F3A1730E0
:100E7000974900F0B7FD0A9A3DA9109800F0B2FD1D
:100E8000914C1199E01C00F0DBFC2C226B469B1866
:100E90001B7860550B9920000136A370F6B200F064
:100EA000E3F970E76B461B7BCBE75B23E3751B33F2
:100EB00023763C226B469B181B7863765D23A376D2
:100EC000D9E7FA23DB001380824B834A1B78FF2586
:100ED000DB00D3181800039300F046FEC5237F4CB7
:100EE000070023706370B53BE3706B461B790822E3
:100EF0007649A01D2371657100F074FD0123FD2268
:100F00002000E373237463755A33E3751B333D404C
:100F1000A2742376BA1D413B227563762A002833DA
:100F200003991B30A376A6736674E674A67500F069
:100F300059FD29002F001831E01C00F081FC1B37FF
:100F40001C35E055E9B22000A17000F08DF9614B2D
:100F50001B78082B19D85F4A0133137000F02CFB63
:100F60002D22029B1B6893431A0001231343029A0C
:100F700013600023089A5360594A136805995B1A55
:100F8000042BFAD90B000533C9E4524B1E70E5E778
:100F9000002350490B7024E7019BD05C002800D14E
:100FA00002E7504B019AD35C632B00D8FCE64E4D10
:100FB000D1014A5D0023AB2A09D16A185478BA2CB2
:100FC00005D11218541E023A237013700333002403
:100FD0005918C31A6D18DBB2EC54B022210032A8A4
:100FE00000F0BEFC0023EB56002B30D02E003F4F0C
:100FF0000023F3560693002B00D048E6731C03939E
:10100000069B01272C2B04D01F002F3F7A427A41E8
:101010005700AE4210D02A000023B24200D23FE671
:101020001293042C00D96AE6200000F073FD5CFEE8
:1010300023002A003C004500042C00D95FE6200074
:1010400000F068FD5AFE1A0029006AFE3C00042CDC
:1010500000D956E6200000F05DFD07000A002300DD
:101060002C0056FEE368E6E50395002746E6039567
:10107000002704E0129B3793022F00D103E60124DE
:101080003DE63C9B5A1C06333C929B005EAAD3185B
:10109000129AB03B1A60022F00D1F6E502242EE628
:1010A00003950027FAE70A223DA9129800F054FCA4
:1010B0002FE60395002732E6129B5D93002F00D1A7
:1010C00021E60424DDE5C046DC000020611C0000B0
:1010D0006A1C0000C00E0020000000205C010020FF
:1010E000BC0E0020B40E00202C0A00205E1C000064
:1010F000012307B5A02101AA1370DB185370937068
:101100000233D3700E4BC9021B6A00200B4213D16D
:10111000190312D40B4899030ED4D905C90D023115
:10112000800848431904890F525C9904C90E0231A2
:10113000514300F061FC80000EBD0348EBE7C04660
:1011400000020050001BB70000805101C2B2030032
:1011500010003038092803D8303B4B43D8B27047D1
:1011600010006138052801D8573BF6E7413A0020C6
:10117000052AF4D8373BF0E7F0B585B06A46134B43
:101180006C46E0CBE0C21B681360820AD2B2002A30
:101190000AD08605F60EB2400D4D03039B0F5B1976
:1011A0009B001D6895431D6003015B0F0CD08200FE
:1011B000C001C00E8340920F9200A458054AA418A3
:1011C00022689A431143216005B0F0BD701C0000F5
:1011D0008600001410020050F0B585B06A461E4B20
:1011E0000500103313CB13C21B686E4613601B4AF5
:1011F0000323546997690022240E2A63EB601C4084
:10120000174AAB683F0513403F0FAB60012C02D17A
:10121000FFF76EFF0190A400791C305900F0ECFB41
:10122000E123E1211B0204004902C01800F0E4FBA5
:101230000C4B023898420BD9E123E1211B03E01843
:10124000490200F0D9FB00090238686205B0F0BD20
:10125000C0239B051843F8E7701C000000020050F3
:101260000FFFF0FFFFFF0000F8B5154C4B1C626844
:1012700007000E0000209A4217D922691170501CF5
:101280002269A568D3182361AB4202D322689B1A56
:1012900023616368013B9B1B63602369984205D20D
:1012A0003200390000F09EFB0120F8BD2D1AEDB28E
:1012B0002A00390000F096FB6069721B7919F1E78A
:1012C000780F00207047000010B5FFF711FF0721CD
:1012D000084A13690B40022B02D007499B0058585B
:1012E0000F2391691940013100F086FB034B186010
:1012F00010BDC04600020050A01C0000500000209D
:10130000064A030E9B1801220002000A8240196857
:101310001143196019689143196070470800005023
:10132000F0B50023032601249C40214208D035005B
:101330005F00BD400468AC431500BD402C43046011
:101340000133102BEFD1F0BD064B0749CA680240AC
:10135000904201D101207047013B002BF6D11800CB
:10136000F9E7C046814F1200000200508023F0B51B
:10137000484D5B022B6287B004000E002B680028EA
:1013800062D1012003432B60FFF7DEFF02230093AD
:10139000414B05940393414B414AF318934267D95B
:1013A000404B414AF31893425AD8012376000193E7
:1013B000002301271C0002937F420099039800F04C
:1013C0001BFB3A4B3A4AC318934220D84300F21A07
:1013D0000492A4463A000224364F3749DF198F425F
:1013E0000BD8049F9E4200D29F1B974205D2002F2C
:1013F00040D0009AA44602923A0004990134091A96
:1014000004912E491B188C42E6D164461700009BBC
:1014100001330093222BD0D1019B059A9B031343E8
:10142000A21E1343029A0420023A520213432B6273
:10143000FFF78AFF019B0398591C029B594300F058
:10144000DBFA604307B0F0BD04273B432B6010205C
:10145000FFF77AFF80231B0305930097184B99E74A
:10146000184B194AF318934207D8B60003239EE796
:1014700000239CE7009B0293C9E7002C07D1134B84
:101480002B620420FFF760FFFFF732FEDAE7104B14
:10149000F6E7C04600020050001BB700FF1E0AFA24
:1014A000FFE0F5057F0F05FD7FF0FA02FF95E7FFEE
:1014B000BE77CC00001F0AFA00E1F5050202000029
:1014C00000805101C08782FE40787D012EC200005D
:1014D0006FD608007FB569466A46094B203370CB4A
:1014E00070C11B680B60830F9B009A58054BD21884
:1014F0001F2318401E3B834011680B4313607FBDC0
:10150000701C000004020050F8B50400050001271B
:1015100000202856002801D12070F8BD1021FFF7C7
:1015200015FE0600012039002856FFF70FFE361879
:10153000267002350134EBE7094B820030B5D458F0
:10154000000221700400074DFF34D1586419A142F4
:1015500002D34019D05030BD0131D150FBE7C04615
:101560000C0A0020E90100200021F0B50F4D0B000E
:1015700008240127AC460E4A0E4E11605B0045B2AE
:10158000DBB2002D10DA3760654617602D68400029
:10159000C0B2012D01D12B43DBB2013C1160002C04
:1015A000ECD118001460F0BD3160EDE78C420050C2
:1015B000844200508842005010B5592116208824DA
:1015C000044B5A68012A00D110BD596058605C6014
:1015D000F7E7C046FC0000508022084B1202196A4F
:1015E000114201D01A6270471A6A196A0A431A62D4
:1015F000034B1A6A196A0A43F4E7C04600400050D8
:1016000040400050054B10B5DA69D20504D5196881
:101610000620C9B2FFF790FF10BDC04600801540FC
:10162000054B10B5DA69D20504D519680220C9B294
:10163000FFF782FF10BDC04600800540054B10B586
:10164000DA69D20504D519680120C9B2FFF774FF21
:1016500010BDC04600400540054B10B5DA69D20503
:1016600004D519680420C9B2FFF766FF10BDC04653
:101670000000154010B58024094B6400DA6922424D
:1016800004D019680320C9B2FFF756FF054BDA6989
:10169000224204D019680520C9B2FFF74DFF10BDE2
:1016A0000000054000401540234AF0B51368234967
:1016B00001331360002301229C46214C214D224E10
:1016C0000F687B1ED81C02D8012F1DD00B60013281
:1016D0000431092AF4D1012332211C481C4C1D4D30
:1016E000C25CE65C9201B60092191B4E9219166814
:1016F0005A191778F6B29446184AB74210D1D15405
:101700000133052BECD1F0BD6346AF5C0B60A35CED
:10171000BF009B01DB19104FDB19B75C1F60D6E7D8
:10172000D2181778012F02D9013F1770E8E711701E
:1017300062461670E4E7C046BC0E00204C0F002045
:101740003A1C0000221C0000541C0000341C000045
:101750001C1C0000E301002000420050DC010020BE
:10176000074B8200D150074B074A1B5C125C9B0160
:1017700092009B18054A9B18054A125C1A60704734
:10178000480F00203A1C0000221C000000420050BC
:10179000C01C0000002310B5044C2360FFF7E4FEDA
:1017A000FF20FFF7E1FE0123236010BD80420050BF
:1017B000002370B50D00064C236080331843FFF7FB
:1017C000D3FE2800FFF7D0FE0123236070BDC04682
:1017D0008042005010B502218820FFF7E9FF8820E1
:1017E0000021FFF7E5FF002010BD10B50321852083
:1017F000FFF7DEFF00218620FFF7DAFF0320FFF767
:10180000C9FF0420FFF7C6FF87200521FFF7D0FF9F
:10181000002010BD10B501218720FFF7C9FF00216E
:101820008520FFF7C5FF00218620FFF7C1FF0320B9
:10183000FFF7B0FF0420FFF7ADFF002010BD000050
:10184000F0B5030008260020312701390B4A89B280
:10185000914200D1F0BD1A785040320044B2A44603
:1018600065464400E0B2002D01DA7C40E0B2013A66
:10187000D2B2002AF2D10133E7E7C046FFFF0000F1
:101880000649074A074B9B1A03DD043BC858D05052
:10189000FBDCFFF717FDFEF743FC0000041D000012
:1018A00000000020C0000020FEE7C046ABBE74462A
:1018B00098472047084B10B50400002B02D00021A8
:1018C00000E000BF054B1868836A002B00D09847E2
:1018D000200000F01DF9C04600000000CC1C0000F4
:1018E00070B500260C4D0D4C641BA410A64209D106
:1018F000002600F041F90A4D0A4C641BA410A642D0
:1019000005D170BDB300EB5898470136EEE7B30040
:10191000EB5898470136F2E7B4000020B4000020ED
:10192000B4000020B8000020931E10B50C00222B3C
:1019300004D900231C000B70200010BD0A2A09D115
:10194000002807DA2D230B7001214042611800F0B6
:101950000FF8F1E70021F9E710B5FFF7E5FF10BD3B
:1019600003008218934200D1704719700133F9E7E0
:10197000F0B517008FB0252206000D0004A8184905
:1019800000F030F804AABB1E00240392222B05D9D4
:101990002C70250028000FB0F0BD019C631C019342
:1019A000EB1800933000013B3900029300F0AAF8D5
:1019B000039B029A5B5C30001370390000F01CF846
:1019C000061EEAD1009B18702B005A1B9442E1DDE1
:1019D0001A78295D19702A550133013CF5E7C04694
:1019E000D01C0000002310B59A4200D110BDCC5C81
:1019F000C4540133F8E70000002243088B4274D33B
:101A000003098B425FD3030A8B4244D3030B8B42FF
:101A100028D3030C8B420DD3FF22090212BA030C08
:101A20008B4202D31212090265D0030B8B4219D3E9
:101A300000E0090AC30B8B4201D3CB03C01A524109
:101A4000830B8B4201D38B03C01A5241430B8B4251
:101A500001D34B03C01A5241030B8B4201D30B033A
:101A6000C01A5241C30A8B4201D3CB02C01A524161
:101A7000830A8B4201D38B02C01A5241430A8B4224
:101A800001D34B02C01A5241030A8B4201D30B020D
:101A9000C01A5241CDD2C3098B4201D3CB01C01A27
:101AA000524183098B4201D38B01C01A5241430931
:101AB0008B4201D34B01C01A524103098B4201D31F
:101AC0000B01C01A5241C3088B4201D3CB00C01A8C
:101AD000524183088B4201D38B00C01A5241430804
:101AE0008B4201D34B00C01A5241411A00D2014629
:101AF000524110467047FFE701B5002000F006F89C
:101B000002BDC0460029F7D076E770477047C0464F
:101B1000FEE7C04603B47146490840004900095E2B
:101B200049008E4403BC704703B471464908400025
:101B30004900095A49008E4403BC7047C9B2037872
:101B4000002B04D0994200D170470130F7E74B4297
:101B5000594149420840F7E7031C0A7801311A70DD
:101B60000133002AF9D170470023C25C0133002AF7
:101B7000FBD1581E70470000F8B5C046F8BC08BC41
:101B80009E467047F8B5C046F8BC08BC9E467047F4
:101B90009A7140346E00084E792090400A41040446
:101BA000040303020153535358565A6140404040C6
:101BB000C040C0212121272D24001D416027520053
:101BC0000513A9203A400A201DA1204EA5000A278E
:101BD000522048400A201ED0009D4900244EA520D6
:101BE00018400A2003D0009D49013D9D49200F4027
:101BF0000A1E0368013A93027809D5001F400A20A3
:101C0000064501D7DC03B80EBF002E400A2D8268BE
:101C1000013A9302781D7E005C400A5000060D0CCC
:101C2000000000030102030B020A09000004080C73
:101C3000080707000003000000000001000000008A
:101C4000010000000000010100030000000000008E
:101C500000000000000000000000000000002C2F29
:101C6000004646464646464646005B7631305D00B5
:101C700000000000040000000C0000002400000030
:101C8000001BB700000000000000000000805101B0
:101C900000000000040000002C0000000000000014
:101CA000001BB7000000000080F0FA0210270000BF
:101CB0000000000000000000000000000080510152
:101CC0000001010101010101010000005400002098
:101CD00030313233343536373839616263646566A2
:101CE0006768696A6B6C6D6E6F707172737475760C
:0C1CF0007778797A000000000000000006
:081CFC0024E4FF7F0100000059
:101D0400B5F7CAD430000000B5F7CAD431000000DA
:101D1400B5F7CAD432000000B5F7CAD433000000C6
:101D2400B5F7CAD434000000B5F7CAD435000000B2
:101D3400B5F7CAD436000000B5F7CAD4370000009E
:101D4400B5F7CAD438000000B5F7CAD4390000008A
:101D540080F0FA0200000000000000000000000013
:101D6400000000000000000000000000000000006F
:101D7400000000000000000000000000000000005F
:101D8400000000000000000000000000000000004F
:101D9400000000000000000000000000000000003F
:101DA400000000000000000000000000000000002F
:101DB40000000000E9000000C10000000000000075
:040000030000188160
:00000001FF
