:10000000002000206D1A0000951A0000951A0000CB
:1000100000000000000000000000000000000000E0
:10002000000000000000000000000000951A000021
:100030000000000000000000951A000051180000A8
:10004000951A0000951A0000951A0000951A0000F4
:10005000951A0000951A0000951A0000951A0000E4
:10006000951A0000951A0000951A0000951A0000D4
:1000700005180000E9170000951A0000CD170000D0
:10008000B1170000951A0000951A0000951A00009B
:10009000951A0000951A0000951A0000951A0000A4
:1000A000951A0000951A0000951A0000951A000094
:1000B000951A0000951A0000951A0000951A000084
:1000C00010B5064C2378002B07D1054B002B02D02E
:1000D000044800E000BF0123237010BD740000201D
:1000E00000000000BC1E0000084B10B5002B03D020
:1000F0000749084800E000BF07480368002B00D10B
:1001000010BD064B002BFBD09847F9E7000000001C
:1001100078000020BC1E00007000002000000000DD
:10012000164B002B00D1144B9D46402292029A1A86
:10013000924600218B460F461348144A121A01F0CA
:10014000E9FC0F4B002B00D098470E4B002B00D042
:1001500098470020002104000D000D48002802D01F
:100160000C4800E000BF01F0B1FC2000290000F0C5
:1001700013F801F095FCC0460000080000200020A4
:100180000000000000000000740000200C1A002095
:100190000000000000000000F0B58FB001F0F8FA98
:1001A0000920F74C102623680343236001F060F90F
:1001B0000423E568226830001343236001F058F9F6
:1001C00007232269354013430F222361A369ED49B8
:1001D0009343A361E368DB0700D4D3E3002001F07D
:1001E00059F90426E768236810203343236001F09F
:1001F0003FF907210F2223690B432361A36993432E
:100200001A0001231343A361022322698A43134383
:10021000236101F0A3F8FB0602D42368B3432360F3
:10022000002D03D10422236893432360AC20C00532
:1002300001F0E4F9D44801F0E1F9D44801F0DEF925
:10024000D34801F0DBF9D34801F0D8F9D24801F0E6
:10025000D5F9AC200321C00500F0FAFFC021CA483F
:10026000890400F0F5FFC021C848890400F0F0FFC0
:10027000C021C748890400F0EBFFC021C5488904AC
:1002800000F0E6FFC021C448890400F0E1FF01F05E
:1002900065F801220821C14801F0D6F801220421A5
:1002A000BE4801F0D1F801220221BD4801F0CCF88E
:1002B00001220421BA4801F0C7F801220821B848F8
:1002C00001F0C2F88021002701220901B44801F0A1
:1002D000BBF8B44B03221F60B34B40211F60B34BEC
:1002E000B3481F60B34B01241F60B34BB34E1F6074
:1002F000B34BB44D1F6001F0A7F8802103228901A0
:10030000A74801F0A1F8802103224901A44801F087
:100310009BF803220121A24801F096F8AA4B032280
:100320001C60AA4B21001C60A94BAA481C60AA4B68
:100330001C6001F089F803220221A64801F084F82C
:1003400003220421A34801F07FF803220821A148D9
:1003500001F07AF8802103220902914801F074F833
:1003600080210322C9018E4801F06EF89B4B2C605E
:1003700034601C609A4B22001C609A4B10211F6055
:10038000994B87481F6001F05FF8802122004900E7
:10039000824801F059F88021220049017F4801F08C
:1003A00053F88021220049007D4801F04DF88F4B21
:1003B0008F491F608F4B1F608F4B1F608F4B1F60DB
:1003C000A023DB05DA6B0A40DA63C022D96B120284
:1003D0000A43DA631A6E8A490A401A661A6E1A6666
:1003E0006022196B91431963196B0A431A63302217
:1003F000596E91435966596E11435966C021986BE5
:1004000088439863986B01439963196E7D48014056
:100410001966196E7C481966596E01405966596E05
:1004200059660321586B88435863586B01435963DD
:10043000596B764891435963596B0A435A6300F0EC
:10044000F3FF734800F0F0FF724800F0EDFF7248D0
:1004500000F0EAFF714800F0E7FF96217048C901FB
:1004600000F098FFE1216F48490200F093FFE1217D
:100470006D48490200F08EFFE1216C48490200F00E
:1004800089FFE1216A48490200F084FF0423694A98
:10049000116808960192194205D02C2112688A43EE
:1004A0001343019A136002230021019A624C5360A6
:1004B000019A624B624813606160202201F02AFBBE
:1004C0003226012304945F495F4C604A60489A5C7D
:1004D000185C9201800012183B481E5512181268D1
:1004E0005A540133052BF0D14A78CC785042504110
:1004F0008A78584E53425341624262415B009200F7
:100500009A180B7912185C425C41E400A41880220E
:10051000514BD20000213000E4B21C7001F0FAFA15
:10052000002190224D4BD2001E604D4BC0271E6013
:100530004C4B4D4E1960300001F0ECFA01233A00AB
:1005400099008C465A434948B2180A5060464849B7
:1005500042504849484A595C9A5C89008C4692014D
:100560001949624452184549C95C01331160052B91
:10057000E5D100232D2601272B60414D82E0C046A6
:100580000002005000E1F505123D8057083D8097BC
:10059000093D8097103D8057113D805740400050E5
:1005A000004000502C4200500C42005008420050C5
:1005B000C040005004420050484200503C420050AD
:1005C0004C4200503842005000420050304200502F
:1005D0003442005080400050D84200508C420050BD
:1005E0008042005088420050844200502042005017
:1005F000FF3FFFFF70420050604200501042005029
:10060000FFFFFCFFFFFFFFCFFFF3FFFF120000041F
:100610000800000809000008100000041100000490
:1006200000401540004005400080054000000540A6
:100630000000154000400040FC0000508205000012
:10064000781500203E010020370100200C1D00001D
:10065000F81C0000C40500203D010020F80900201E
:10066000DC090020DC42005044010020E0090020A9
:10067000C4090020061D00001A1D0000481D0000CE
:1006800041420F00013D002D00D082E1032001F026
:1006900077F90600042001F073F9FF2E00D1E8E09D
:1006A000FF2800D1E5E00723E34FE44A3D70E44D25
:1006B00013702C70E34C053BAA218D20237001F0B0
:1006C0006DF90D2001F05CF9DF4E442130808D2062
:1006D00001F064F90D2001F053F93080032001F09E
:1006E0004FF9042001F04CF98021872001F056F9E0
:1006F000089B1E68012E00D157E1032001F040F94C
:10070000042001F03DF9032001F03AF9042001F042
:1007100037F90021852001F041F90221862001F0FE
:100720003DF90021892001F039F90021D12001F0A3
:1007300035F90B21D02001F031F95321F52001F0DA
:100740002DF92E782378C14DF620EB18D97901F0D8
:1007500025F92378F720EB18997B01F01FF923780E
:10076000FA20ED18697D01F019F93100F92001F046
:1007700015F90021B22001F011F90221B32001F096
:100780000DF92D21B62001F009F9D421B72001F08F
:1007900005F98821B02001F001F96321F12001F071
:1007A000FDF81021B42001F0F9F84221B52001F044
:1007B000F5F8F5218B2001F0F1F8F2218C2001F001
:1007C000EDF814218D2001F0E9F818219B4BED2064
:1007D0001B78194301F0E2F83A7823780E24002AB6
:1007E00000D0EFE05C439A4D9C20615D2C1901F034
:1007F000D5F86178A02001F0D1F8A178A12001F00E
:10080000CDF8E178A22001F0C9F82179A32001F008
:10081000C5F86179A42001F0C1F8A179A52001F003
:10082000BDF8E179EE2001F0B9F8217AEF2001F06E
:10083000B5F8617AF02001F0B1F8A17AF22001F068
:10084000ADF8E17A9D2001F0A9F8217B9E2001F00E
:10085000A5F8617BAA2001F0A1F87B4B1A88002340
:10086000FF2A00D106337B4A137001F0C9F801F06A
:10087000B2F840220021784801F04CF98022002192
:10088000D200764801F046F90023754AC02413705F
:10089000744A1380744A13608723744ADB00D218A9
:1008A000734B180019001C605C601830D8338B60E3
:1008B000C860086148619342F3D1C0220021520010
:1008C0006C4801F027F90024062200216A4801F053
:1008D00021F98022694BD2001C60694B80201A608C
:1008E0005A6018329A189A601A001832DA601A613F
:1008F0005A611123634940014A68634D1A434A60B3
:10090000624A2D2610606968194369608021604D34
:100910000902116069681943696080215D4D4902CF
:1009200011606968194369605B4910604868FA257D
:1009300003434B608023FA219B011360574B8900CE
:10094000186801F0F1F8564A01385060C020554946
:1009500000060B6AAD001B021B0A03430B62072350
:100960009460F5341360FF344F4B1A68AA4200D2EA
:10097000A0E0FA229200AD184C4A9542F4D11B68CF
:100980000593C5E08020000300F084FDE568354054
:1009900027E400F0FDFE019B019A1B68B3433B4333
:1009A00013600023049A53606CE600F0F1FE2D22E0
:1009B000019B1B6893431E43019B049A1E60002306
:1009C000536095E65C433A4D9C20615D2C1900F024
:1009D000E5FF6178A02000F0E1FFA178A12000F000
:1009E000DDFFE178A22000F0D9FF2179A32000F0FB
:1009F000D5FF6179A42000F0D1FFA179A52000F0F6
:100A0000CDFFE179EE2000F0C9FF217AEF2000F060
:100A1000C5FF617AF02000F0C1FFA17AF22000F05A
:100A2000BDFFE17A9D2000F0B9FF217B9E2000F000
:100A3000B5FF41210EE7C046B6150020B9150020CC
:100A4000B7150020B8150020BC1500207A1C000046
:100A5000961C000000000020F60000200416002074
:100A600036010020041A0020081A0020D00B0020B4
:100A7000A80C0020FC090020BC0B0020CC0B00209F
:100A8000E0100020004015400040054000E100E07B
:100A900000800540000005400000154004000020D3
:100AA00010E000E000ED00E00016002070170000EC
:100AB0006C1C00001A68D34BEB189A4217D2210025
:100AC000012000F043FF2100022000F03FFF210041
:100AD000032000F03BFF2100042000F037FF21003D
:100AE000052000F033FF2100062000F02FFF00F06A
:100AF0004FFE019B1A680123B2431343019A13600E
:100B00000023049A53602FE7A52D01D00023137012
:100B1000BD4ABE49136809688B4200D144E1BC4913
:100B2000BC481D780818834200D23AE11160BA4AE5
:100B3000BA4C11784B1CDBB26554591E1370012955
:100B4000E2D002291DD00029DED0A2789A42DFD857
:100B5000200000F06DFDA8420FD10A2000F0BAFD80
:100B6000E378FF2B03D03221012000F0EFFEE37881
:100B7000B02B41D008D8A22B1DD00022A64B1A7052
:100B8000C6E7062DC2D9C3E7E02B75D0FF2BF4D101
:100B9000A34C21880029F0D0A24BA34A1B681268FD
:100BA0009B1AF422FF32934202D8A04800F0ACFE18
:100BB00000232380E1E761799D4CA522E3700123A6
:100BC0002371A033A371002322706270994D9C3A67
:100BD000A2706171200002212A70E37100F038FDDB
:100BE0002D7820006E1E310000F022FD2900A05556
:100BF000200000F089FEC0E7A17820000739C9B2C3
:100C000000F026FDA579002DB7D0AA23E279217A3C
:100C1000874CA8002370552363706B1EA3700023BC
:100C2000E370854B5B5D237102236371834BC35873
:100C3000180AA371E071180C1B0E637220723C231A
:100C4000002A00D0C3330D277A4E21737C48092136
:100C5000A372E272377000F0E9FE6073D8200A23B5
:100C6000102145437748E37340190233A77331706D
:100C7000E37000F043FB80E7A5782000E91F89B20C
:100C800000F0E6FCA779002F00D176E7E37907931F
:100C9000002B00D171E7237A0293002B00D16CE77F
:100CA000637A63240B3D0993EBB20393029B039A8F
:100CB0009C42A4416442A31DD318DBB20A210298CE
:100CC0000A9300F031FF00253030C3B20B93584B2C
:100CD0001B34E3180C93039B1B190693033B9BB235
:100CE0000D93069B5E1CF6B2C523514C082223705F
:100CF000C523637010235449E3705448093B2371A2
:100D0000677100F09DFF524A13780133DBB2137014
:100D1000A3730123E37301232374FF2F33D1002333
:100D20006374FD23A37400232822E3746B469B188D
:100D30001B78043A2375012363756B469B181B7857
:100D4000A375029B632B20D91F3A4249424800F009
:100D500077FF3249039A0A310C9800F071FF0D9920
:100D60003E4800F063FE324B069A31009854314AF7
:100D70003B489E701670013500F0C0FA079BEDB23B
:100D8000AB42B1D1F9E66774CBE75B23E3751B3364
:100D900023762C226B469B181B7863765D23A37603
:100DA000D7E701331360C2E601242E4EF36832699F
:100DB000934273D02C4F3000390000F079FA0028AC
:100DC00069D02A4BA200E55C294BAD01E35C039797
:100DD0009B00ED18274BED18274BE35C2B60274B4E
:100DE000D15800238022D205029280228F695205B9
:100DF000174245D0039A9A5C01330A609842F1D1B8
:100E000043E0C04622FCFFFFDC090020F809002077
:100E1000C4050020FF03000036010020F60000207A
:100E2000041A002000160020081A002004160020D2
:100E3000BE150020C80B0020B0150020981500201A
:100E4000C2150020D00B00204E1D0000C41500204C
:100E5000BA150020571D0000D5150020C11500202F
:100E6000E0100020A80C0020381500201A1D0000FA
:100E7000061D000000420050201D0000281D00003B
:100E8000029A013A0292002AAFD1022000F022FC1D
:100E9000C64B1B5D2B60300000F0E8FB0134D836F8
:100EA000052C83D10127C24BC24CC033403403937D
:100EB000FBB20793039BC04ABF330B93231D0993D7
:100EC0003B01D3180693230010330D93083B0A937C
:100ED000BB00029302E0AA2800D0FD54B74A029B4F
:100EE000B74902989B5841588B4200D1DCE00B99DE
:100EF0001878994200D981E0029B03999950B14B2F
:100F0000AC4EFD5CB9016A1CD2B271184855551E31
:100F1000FA54012D68D0032D6CD0002DDBD0E3787E
:100F2000D81C8242DADDCA1895780D2D59D1095C9A
:100F30000A2956D1033B99B20998557800F076FDFD
:100F400085424ED1079B3221581CC0B200F0FEFCF6
:100F5000A27A9D4B0299FA54E37BA27B1B029B1859
:100F6000627B1B029B18227B1B029B18E578974A29
:100F70000F3D8B50964BEDB2FD542A000D9906980B
:100F800000F05EFEABB29A1C0C92A5222270A52244
:100F900009336270DEB2FF2B05D90F2633405E1E87
:100FA000B34110331E000223E37001232371002399
:100FB00063716B461B7F2A00A371E5710699A670C9
:100FC0000A9800F03DFE0C99200000F041FB711ED4
:100FD0002000651800F02CFB31002870200000F084
:100FE0005BFB0022774B03E0552800D176E7002217
:100FF000FA5473E7062800D970E7F8E7029901333D
:101000008B507CE7734CE368226993425ED072494F
:10101000200000F04DF9061E34D0FA235B003B603F
:1010200000F0EEFC0121882000F0B8FC00218820AF
:1010300000F0B4FC3100BE2000F0B0FC0025EBB2A3
:10104000B34223D30421852000F0A8FC0021862090
:1010500000F0A4FC032000F093FC042000F090FCBE
:101060000921872000F09AFC5C4A1368002BFCD110
:1010700000F0C6FC00F0A4FC00F0ADFC322106201C
:1010800000F064FC200000F0F1FA1FE0524BFF205A
:10109000595D00F083FC0135D1E77F2000F070FC42
:1010A0004F4B5855029D2AE0039B0137C033403413
:1010B0000393052F00D0FBE64A4B1B78062B5CD030
:1010C000494F3B68052B9DDD053B3B600024089B99
:1010D0001B68A3421ED100F093FC032000F050FCDB
:1010E0000500C30702D500F06BFC013CAB070FD530
:1010F0004B2000F045FC00250400FF2603906B1CEC
:1011000002932B00039A33409A42C6DC00F058FC4D
:1011100000F061FC354D2C60002C2EDD304C237826
:10112000C52B2AD16378C52B27D1617C0B22A171F5
:101130003221203BA07B237063703B33E370DF3BA5
:101140002371A2706071217220002E39E3716372E5
:101150002A6000F07DFA2D6820006E1E310000F03C
:1011600067FA2900A055200000F096FAFA21002322
:10117000490006203B6000F0E9FB00F009FB2D224E
:10118000019B1B6893431A0001231343019A1360C8
:101190000023049A5360164A136805995B1A042BBE
:1011A000FAD90B000533FFF7EBFBC046481D0000E2
:1011B00044010020FC09002090000020C409002008
:1011C000E0090020BC0B0020B0150020981500207D
:1011D000F0000020E0100020F81400203C420050F5
:1011E0007C0B002000000020CC0B0020C40B002052
:1011F00000160020012307B5A02101AA1370DB18F7
:10120000537093700233D3700E4BC9021B6A0020D7
:101210000B4213D1190312D40B4899030ED4D905EC
:10122000C90D0231800848431904890F525C9904A2
:10123000C90E0231514300F077FC80000EBD034817
:10124000EBE7C04600020050001BB70000805101D0
:10125000F0B585B06A46134B6C46E0CBE0C21B6824
:101260001360820AD2B2002A0AD08605F60EB24076
:101270000D4D03039B0F5B199B001D6895431D607B
:1012800003015B0F0CD08200C001C00E8340920F9F
:101290009200A458054AA41822689A431143216079
:1012A00005B0F0BD601D0000860000141002005063
:1012B000F8B50269C36807000E001D7893421BD081
:1012C000402D19D86A1C8468591C9B18A34201D36D
:1012D00002689B1A994205D22A00300000F0B0FC47
:1012E0002800F8BD641AE4B22200300000F0A8FC27
:1012F00030192A1B7969F1E70025F1E7F8B50400F8
:1013000062684B1C0E0000209A4218D922691170A5
:10131000501C2269A568D3182361AB4202D322680E
:101320009B1A236163680B4F9B1B013B636023691E
:10133000984205D23200390000F082FC0120F8BD4D
:101340002D1AEDB22A00390000F07AFC6069721B98
:101350007919F1E7BE1500207047000010B5FFF7BE
:1013600049FF0721084A13690B40022B02D00749A5
:101370009B0058580F2391691940013100F0D4FBAC
:10138000034B186010BDC04600020050901E0000C4
:1013900004000020F0B587B002AE32001E4B0500FD
:1013A00010330F0013CB13C21B6813601B4A0323B7
:1013B00054699269240E019200222A63EB601C405A
:1013C000174AAB681340AB60012C02D1FFF712FF44
:1013D0007060002F19D0019BA4001905090F01317D
:1013E000305900F0A1FB040078080019390000F022
:1013F0009BFB0C4B0238984209D9F80000193900C0
:1014000000F092FB00090238686207B0F0BDC0230B
:101410009B051843F8E7C046601D0000000200501D
:101420000FFFF0FFFFFF0000064A030E9B1801228A
:101430000002000A8240196811431960196891433B
:101440001960704708000050F0B5002303260124FE
:101450009C40214208D035005F00BD400468AC4389
:101460001500BD402C4304600133102BEFD1F0BDBB
:10147000064B0749CA680240904201D101207047DB
:10148000013B002BF6D11800F9E7C046814F12004E
:10149000000200508023F0B5484D5B022B6287B0FC
:1014A00004000E002B68002862D1012003432B604A
:1014B000FFF7DEFF02230093414B05940393414B5A
:1014C000414AF318934267D9404B414AF31893427B
:1014D0005AD8012376000193002301271C000293B0
:1014E0007F420099039800F01FFB3A4B3A4AC31819
:1014F000934220D84300F21A0492A4463A000224F0
:10150000364F3749DF198F420BD8049F9E4200D2D5
:101510009F1B974205D2002F40D0009AA44602920A
:101520003A0004990134091A04912E491B188C427F
:10153000E6D164461700009B01330093222BD0D1E3
:10154000019B059A9B031343A21E1343029A042096
:10155000023A520213432B62FFF78AFF019B039862
:10156000591C029B594300F0DFFA604307B0F0BDFD
:1015700004273B432B601020FFF77AFF80231B03D7
:1015800005930097184B99E7184B194AF3189342A3
:1015900007D8B60003239EE700239CE7009B029335
:1015A000C9E7002C07D1134B2B620420FFF760FF23
:1015B000FFF720FEDAE7104BF6E7C04600020050C6
:1015C000001BB700FF1E0AFAFFE0F5057F0F05FDBF
:1015D0007FF0FA02FF95E7FFBE77CC00001F0AFA02
:1015E00000E1F5050202000000805101C08782FE83
:1015F00040787D012EC200006FD608007FB5694695
:101600006A46094B203370CB70C11B680B60830F97
:101610009B009A58054BD2181F2318401E3B83404D
:1016200011680B4313607FBD601D00000402005071
:101630000200002330B5054D141AA14201DC180048
:1016400030BD147801326340EB5CF5E7901D00007B
:1016500010B52C24831D053164421A1A914200DA18
:1016600010BD1A7862401A700133F6E70200C368B1
:10167000116900208B420ED01978481C1B18906805
:10168000D360834202D310681B1AD36001205368D1
:1016900001335B1853607047802370B5094C060016
:1016A00020880A004518DB009D4209D8064B31000E
:1016B000181800F0C5FA054B25801A68044B1A600B
:1016C00070BDC046041A0020041600200016002039
:1016D000081A0020F7B52D2601270A4C019025682D
:1016E0002368019A5B1B934200D3F7BD00F050F8CA
:1016F000054A1368B3433B4313600022034B5A600F
:10170000EEE7C0460016002000400040FC000050FC
:10171000094A30B58400A358084D1970C0235843B6
:101720000300A158BF335B19994202D34019A0505E
:1017300030BD0131A150FBE7E00900204401002049
:101740000021F0B50F4D0B0008240127AC460E4ACE
:101750000E4E11605B0045B2DBB2002D10DA37602F
:10176000654617602D684000C0B2012D01D12B43A2
:10177000DBB2013C1160002CECD118001460F0BD0C
:101780003160EDE78C4200508442005088420050A6
:1017900010B5592116208824044B5A68012A00D11B
:1017A00010BD596058605C60F7E7C046FC0000500F
:1017B000054B10B5DA69D20504D519680220C9B203
:1017C000FFF7A6FF10BDC04600800540054B10B5D1
:1017D000DA69D20504D519680120C9B2FFF798FF6C
:1017E00010BDC04600400540054B10B5DA69D20572
:1017F00004D519680420C9B2FFF78AFF10BDC0469E
:101800000000154010B580240C4B6400DA692242B8
:1018100004D019680320C9B2FFF77AFF084BDA69D0
:10182000224208D0074A19681368197006498B428A
:1018300002D3064B136010BD0133FBE700000540E7
:1018400000401540F8090020C3090020C40500200D
:10185000234AF0B5136823490133136000230122A2
:101860009C46214C214D224E0F687B1ED81C02D86D
:10187000012F1DD00B6001320431072AF4D101235E
:1018800032211C481C4C1D4DC25CE65C9201B60026
:1018900092191B4E921916685A191778F6B2944687
:1018A000184AB74210D1D1540133052BECD1F0BD09
:1018B0006346AF5C0B60A35CBF009B01DB19104F5C
:1018C000DB19B75C1F60D6E7D2181778012F02D951
:1018D000013F1770E8E7117062461670E4E7C046F2
:1018E000001600207C150020121D0000FE1C0000C8
:1018F000401D00000C1D0000F81C00003E010020EF
:101900000042005037010020F8B5012380260D4C1D
:101910000D4A0D0023604118760581420BD08023CB
:10192000DB059769374203D0037801301360F4E791
:10193000013B002BF5D10220FFF7CCFE002328004D
:101940002360F8BDDC42005000401540074B820088
:10195000D150074B074A1B5C125C9B0192009B18FD
:10196000054A9B18054A125C1A60704778150020DA
:10197000121D0000FE1C000000420050B01E0000BE
:10198000002310B5044C2360FFF7DAFEFF20FFF7B9
:10199000D7FE0123236010BD80420050002370B5A4
:1019A0000D00064C236080331843FFF7C9FE280062
:1019B000FFF7C6FE0123236070BDC0468042005081
:1019C00010B502218820FFF7E9FF88200021FFF7EA
:1019D000E5FF002010BD10B503218520FFF7DEFFD5
:1019E00000218620FFF7DAFF0320FFF7C9FF04205C
:1019F000FFF7C6FF87200521FFF7D0FF002010BDAD
:101A000010B501218720FFF7C9FF00218520FFF7CE
:101A1000C5FF00218620FFF7C1FF0320FFF7B0FFBD
:101A20000420FFF7ADFF002010BD0000F0B503005B
:101A300008260020312701390B4A89B2914200D192
:101A4000F0BD1A785040320044B2A44665464400C6
:101A5000E0B2002D01DA7C40E0B2013AD2B2002AB5
:101A6000F2D10133E7E7C046FFFF00000649074A0D
:101A7000074B9B1A03DD043BC858D050FBDCFFF733
:101A80006BFCFEF74DFB0000C81E000000000020AC
:101A900074000020FEE7C046ABBE7446984720475E
:101AA000084B10B50400002B02D0002100E000BF5D
:101AB000054B1868836A002B00D09847200000F07F
:101AC00031F8C04600000000B81E000070B50026C6
:101AD0000C4D0D4C641BA410A64209D1002600F049
:101AE000B9F80A4D0A4C641BA410A64205D170BD7A
:101AF000B300EB5898470136EEE7B300EB58984730
:101B00000136F2E76800002068000020680000202D
:101B10006C00002003008218934200D170471970B6
:101B20000133F9E7FEE7C046002243088B4274D335
:101B300003098B425FD3030A8B4244D3030B8B42CE
:101B400028D3030C8B420DD3FF22090212BA030CD7
:101B50008B4202D31212090265D0030B8B4219D3B8
:101B600000E0090AC30B8B4201D3CB03C01A5241D8
:101B7000830B8B4201D38B03C01A5241430B8B4220
:101B800001D34B03C01A5241030B8B4201D30B0309
:101B9000C01A5241C30A8B4201D3CB02C01A524130
:101BA000830A8B4201D38B02C01A5241430A8B42F3
:101BB00001D34B02C01A5241030A8B4201D30B02DC
:101BC000C01A5241CDD2C3098B4201D3CB01C01AF6
:101BD000524183098B4201D38B01C01A5241430900
:101BE0008B4201D34B01C01A524103098B4201D3EE
:101BF0000B01C01A5241C3088B4201D3CB00C01A5B
:101C0000524183088B4201D38B00C01A52414308D2
:101C10008B4201D34B00C01A5241411A00D20146F7
:101C2000524110467047FFE701B5002000F006F86A
:101C300002BDC0460029F7D076E770477047C0461E
:101C4000002310B59A4200D110BDCC5CC4540133BE
:101C5000F8E70000F8B5C046F8BC08BC9E467047DF
:101C6000F8B5C046F8BC08BC9E4670479A7140342F
:101C70006E00084E792090400A41040404030302D8
:101C80000153535358565A6140404040C040C02110
:101C90002121272D24001D41602752000513A92072
:101CA0003A400A201DA1204EA5000A275220484094
:101CB0000A201ED0009D4900244EA52018400A206D
:101CC00003D0009D49013D9D49200F400A1E036835
:101CD000013A93027809D5001F400A20064501D732
:101CE000DC03B80EBF002E400A2D8268013A930231
:101CF000781D7E005C400A5000060D0C00000002BA
:101D00000102030B03000004080C0800000300009C
:101D100000000001000000000100000001010000BF
:101D2000000101010100000000000000004005402A
:101D30000080054000000540000015400000000044
:101D40000000000000000000000000000000464607
:101D5000464646464646005B7631305D0000000050
:101D600000000000040000000C000000240000003F
:101D7000001BB700000000000000000000805101BF
:101D800000000000040000002C0000000000000023
:101D90002DC30FBAB178A9F2750A7549938DC7A6FC
:101DA000C93C16F9AB4B29534080200FBC9741B179
:101DB000213D28C5F4176CD63C1AC330B69060405C
:101DC000FD08840E7CA795A369D25166C0F5F65430
:101DD000DEBCC6C0394166B8FFB5D75E1048713663
:101DE000FCDCB09C7996155EA2E1F491E69974FC56
:101DF0000EEC88E9D57937F23DE9F263797151BC8F
:101E00009BAF56ADDDE80D9BAC9DEC8543E1502CBE
:101E10004678527F07CB820BC8E0C0D42F8D6B8BE6
:101E2000BA05E5E71F6936277B545B2AC4F1ABC0CE
:101E30009246C9CFADE8AB0353D9DF082513FE0F97
:101E40004C68D5AAAD781EBB95E71CC09B9D98CF6A
:101E50004D6C39A93EB0FBFE93AE698025F0A274AB
:101E60007C4C892B9D66E3695CEA7619520DAB9632
:101E70007127E56C9A2764AC5B75D9F566FEC7CB14
:101E8000D5D7FAD2CC36D4A4AAABF58903A112F3E4
:101E9000001BB7000000000080F0FA0210270000CD
:101EA0000000000000000000000000000080510160
:101EB00000010101010101000800002000000000F4
:081EC00060E2FF7F0100000059
:101EC8000600000080F0FA02000000000000000098
:101ED80000000000000000000000000000000000FA
:101EE80000000000000000000000000000000000EA
:101EF80000000000000000000000000000000000DA
:101F080000000000000000000000000000000000C9
:101F180000000000000000000000000000000000B9
:101F28000000000000000000E9000000C1000000FF
:041F380000000000A5
:0400000300001A6D72
:00000001FF
