:1000000000200020C1290000E9290000E9290000A2
:1000100000000000000000000000000000000000E0
:10002000000000000000000000000000E9290000BE
:100030000000000000000000E9290000911E0000FF
:10004000E9290000E9290000E9290000491E000013
:10005000E9290000591D0000E9290000E9290000F4
:10006000411D0000251D0000E9290000E9290000CC
:10007000DD1C0000AD1C0000E9290000911C0000FF
:10008000751C0000591C0000E9290000E929000046
:10009000E9290000E9290000E9290000E929000018
:1000A000E9290000E9290000E9290000E929000008
:1000B000E9290000E9290000E9290000E9290000F8
:1000C00010B5064C2378002B07D1054B002B02D02E
:1000D000044800E000BF0123237010BD7800002019
:1000E00000000000C42E0000084B10B5002B03D008
:1000F0000749084800E000BF07480368002B00D10B
:1001000010BD064B002BFBD09847F9E7000000001C
:100110007C000020C42E00007400002000000000BD
:10012000164B002B00D1144B9D46402292029A1A86
:10013000924600218B460F461348144A121A02F0C9
:1001400093FC0F4B002B00D098470E4B002B00D098
:1001500098470020002104000D000D48002802D01F
:100160000C4800E000BF02F05BFC2000290000F01A
:1001700013F802F03FFCC0460000080000200020F9
:100180000000000000000000780000204C18002053
:100190000000000000000000F0B595B001F04CFD3B
:1001A0000920FC4D10262B6803432B6002F0CAFA8D
:1001B0000423EC682A68300013432B6002F0C2FA73
:1001C00007232A69344013430F222B61AB69F2499C
:1001D0009343AB61EB68DB0701D400F0E3FC002044
:1001E00002F0C2FA0426EF682B68102033432B601C
:1001F00002F0A8FA07210F222B690B432B61AB6990
:1002000093431A0001231343AB6102232A698A43F3
:1002100013432B6102F0E8F9FB0602D42B68B343C9
:100220002B60002C03D104222B6893432B60AC205D
:10023000C00502F04DFBD94802F04AFBD84802F055
:1002400047FBD84802F044FBD74802F041FBD748AF
:1002500002F03EFBD64802F03BFBD64802F038FBEA
:10026000D54802F035FBD54802F032FBD44802F005
:100270002FFBD44802F02CFBAC200321C00502F078
:10028000FFF8C021C548890402F0FAF8E021C4480B
:10029000C90002F0F5F8E021C248C90102F0F0F807
:1002A0000021C14802F0ECF88021C048890202F028
:1002B000E7F88021BE48890302F0E2F8C021BD487A
:1002C000890402F0DDF8C021BB48890402F0D8F8A7
:1002D000C021BA48890402F0D3F8C021B848890483
:1002E00002F0CEF8C021B748890402F0C9F802F044
:1002F0007BF9802101228900B34802F0FFF98021B7
:1003000001224900B04802F0F9F98021AF4F0122E3
:100310000902AD4802F0F2F901220421380002F08E
:10032000EDF90022AA4B04211A60AA4BA6481A60D4
:10033000A94BA0241A60A94BE4051A60033202F00D
:10034000DDF903220821A04802F0D8F98021032218
:10035000C9009D4802F0D2F98021032209019A4880
:1003600002F0CCF901229E4B08211A609D4B380007
:100370001A609D4B9D4E1A609D4B1A60023202F02E
:10038000BDF901229B4B30001A608023E26B1B04F5
:100390001343E3638023E26BDB031343E363002235
:1003A000802102F0ABF98022B3693000B361F369B8
:1003B00040211343F361736913437361002202F018
:1003C0009DF9B3698021B3614023F26909021A43A0
:1003D000F26172693800134373618023626B1B06FC
:1003E000134363638023626C5B04134363640022E2
:1003F00002F084F9BB698021BB61FA697E4B7F4EB4
:1004000013438022FB617B691202134330007B613E
:100410000022490002F072F9B3690121B361F26967
:10042000774B784813438022F3617369520013437A
:100430007361FD3A02F062F903220221714802F071
:100440005DF9032204216F4802F058F903220821C4
:100450006C4802F053F9032280215B4802F04EF908
:1004600003220221584802F049F90122664B674EE7
:100470001A60674B32601A60664B53481A6000225C
:10048000654B1A60654B1A600132110002F036F9B3
:10049000012210214C4802F031F98021012249004B
:1004A000380002F02BF9802101224901380002F0C6
:1004B00025F900225A4B5B481A605B4B1A605B4B74
:1004C0001A605B4B1A600323626B9A436263626B30
:1004D00013436363236B574A134023638023226BC8
:1004E000DB0113432363636B534A1340802263632E
:1004F000636B120213436363236D504A134004225B
:100500002365236D2365E36D9343E365E36D4C4AF7
:10051000E365236E13402366236E4A4A2366E36B2A
:100520001340E363C023E26B1B021343E363236EB8
:10053000454A13402366236E23666023226B9A4349
:100540002263226B134323633023626E9A436266F5
:10055000626E1A436266C022A16B9143A163A16BD4
:100560000A43A263226E39490A402266226E384944
:100570002266626E0A406266626E36496266226B6D
:100580000A402263C022216B92010A432263626EF9
:1005900062E0C0460002005000E1F505103D8057C2
:1005A0000200805E0300C05E100000B30400005F24
:1005B0000500405F123D8057083D8097093D8097B8
:1005C0000A3D8097113D8057004000504040005048
:1005D000484200503C42005024420050204200500B
:1005E0002C420050284200500C420050C0400050A5
:1005F000084200504C4200500080008040410050B2
:100600000001000180400050044200501C42005094
:1006100088420050804200508C420050844200507A
:100620007042005010000004604200501042005020
:1006300000420050FFBFFFFFFF7FFFFFFFFFFFFEF5
:10064000FFFF7FFFFF3FFFFFFFFFFCFFFFFFFFCF2D
:10065000FFF3FFFFFFCFFFFFF3490A406266C022AE
:10066000616E92000A436266626B9A436263626BD8
:100670001343636302F032F8EC4802F02FF8EC48C1
:1006800002F02CF8EB4802F029F8EB4802F026F8CB
:10069000EA4802F023F8EA4801F0C2FFE94801F015
:1006A000BFFFE94801F0BCFFE84801F0B9FFE848A6
:1006B00001F0B6FFE74801F0B3FF3F200823E64A08
:1006C000E6491060536008604B60802310689B050A
:1006D000184310600A68E24813430B603121E14B74
:1006E000E14A19605A60E14B19605A6001F0F6FF67
:1006F0006B6B0E96DB0300D55CE201F047FF002434
:10070000DB4902F0C5F93022DA4BDB4D1C606B6827
:10071000013893431A00102313436B60322380B2D5
:10072000A86301305843642102F0B2F98021D34B11
:100730000138A8651A68D248490302401A601A684D
:1007400011431960CF4B1A6802401A608022196861
:1007500092030A431A600423CB490A681A430A60C9
:1007600001221100A140194207D021001600914337
:100770008E403100286A014329620134062CF0D1F1
:100780000423C24A11680092194205D02C21126834
:100790008A431343009A13600223009ABC4D5360AE
:1007A000009ABC4BA027136000236B6001F044FA51
:1007B00001F0B8FFC020800301F060FC0524FF05B4
:1007C000060004400195042C13D11023C020B24A26
:1007D0008003116801250B43136001F039FC3100DF
:1007E000C020A9432143800301F058FCBB681D438E
:1007F000BD60F920400201F041FCA84B1870FF28B1
:1008000001D903221A7001F095FF0023019AA02755
:10081000536001F011FA01F085FFC020800301F060
:100820002DFC0524FF0506000440042C13D11023E1
:10083000C020994A8003116801250B43136001F021
:1008400007FC3100C020A9432143800301F026FCAE
:10085000BB681D43BD60F820400201F00FFC904CC6
:10086000C0B22070102801D90023237001F062FF6C
:100870000021019B182259608A4802F0F5F83227BE
:100880000123894E894D8A485A5D195C920189007D
:10089000521888499F5552181168874A9954013354
:1008A000062BF1D180222578844C854BD200002183
:1008B00020001D7002F0D8F8824BA0221C60824BF1
:1008C000002182481C6002F0CFF8402200218048BD
:1008D00002F0CAF8280001F067FC90227D4C00214C
:1008E000D200200002F0C0F8C02601237A4D7B48D8
:1008F0007B4932005A439F00A2187A513A50794FEF
:100900005A5CDF5D9201BF00D2196A4FD219764F4F
:10091000FF5C01331760052BEBD1744C8022002162
:10092000200002F0A1F8724B40221C60714B0021A4
:1009300071481C6002F098F80023704AC0241370BC
:100940006F4A136080226F4BD2001A605A601832CF
:100950009A189A601A001832DA601A615A6187236D
:10096000694ADB00D218694B180019001C605C60F2
:100970001830D8338B60C860086148619A42F3D15F
:10098000C022002452000021614802F06DF80622C6
:100990000021604802F068F8402200215E4802F021
:1009A00063F85E4B5E4D1C705E4B80201C705E4B8E
:1009B00023491C705D4B4A681D8011231A434A600D
:1009C0005B4A40011F4E10607168194371601060EE
:1009D0001D482D2641681943416080211B480902AA
:1009E0001160416819434160802119484902116032
:1009F00041681943416080218902116015494868A6
:100A000003434B6080239B0113608023FA215B002A
:100A10001360DB181360F93BFF3B1360183313605E
:100A2000444B8900186887E0FFFCFFFF12000004B8
:100A300008000008090000080A000008110000046E
:100A40000000054000401540004005400080054082
:100A500000801540000015400000014020000140CA
:100A6000100000080000114050C300002000114099
:100A700048E801001800044000000440B0000440B1
:100A8000CFFFCFFFB4000440D80004400040004036
:100A9000FC0000508205000000C000500000002053
:100AA000570100202C170020500100208F2C00003F
:100AB0007C2C000000420050A0010020EA01002030
:100AC000580100200C0B0020EC0A002044170020E5
:100AD000600100206A060020140B0020F40A0020A8
:100AE0009C2C0000892C0000BC2C0000EA05002092
:100AF000100B0020F00A00200F0100204F01002001
:100B0000800D002094120020840D00205C0E002037
:100B10002C0B0020EC0C0020A7010020E901002094
:100B2000B80B0000E8010020E70100204818002071
:100B300000E100E00400002001F0AAFFCC4A0138E7
:100B40005060C020CB4900060B6A1B021B0A0343FE
:100B50000B62072394601360FA240F95FA25A40012
:100B60006D00C54B1A68A24229D3FA229200A4183C
:100B7000FA2212019442F4D11B68FA2104938900ED
:100B8000049802F00BF8002904D1F531FF3102205E
:100B900001F014FAB94B1B680A2B2CD90022B84B70
:100BA0001A7028E08020000301F0DEFDEC6834407C
:100BB000FFF718FB01F018FDB24B18689FE51A68A3
:100BC000B14BE3189A4207D22900022001F0F6F94E
:100BD0002900032001F0F2F901F02EF8009B1A68B9
:100BE0000123B2431343009A13600023019A536018
:100BF000B7E7A52DD2D1A54AA54910680B689F4A31
:100C0000834201D100F07BFDA248A34C1D7804195A
:100C1000A34200D2F4E108600026994916600A78E0
:100C20009E4C531CDBB20B70591EA5540129E0D019
:100C3000022929D0B142DCD0A2789A42DBD8200028
:100C400001F060FEA842A9D13221032001F0B6F9DB
:100C5000E378A22B00D1C5E01AD8052B00D17AE1A8
:100C6000062B00D1ACE1A52260798D4CCF212270FA
:100C7000A522627008228B4DE170CE39A2702171DD
:100C800060712A70A371C0E0073D392D86D8B2E7A4
:100C9000B02B00D1C4E0E02BE5D1A3782000DF1F0A
:100CA0000293BBB21900059301F03CFEA779002F17
:100CB00000D14AE1E3790893002B00D145E1237A82
:100CC0000393002B00D140E1637A63240993029BD4
:100CD0000A210B3BDBB20693039B069A9C42A4417C
:100CE0006442A31DD318DBB203980A9301F0D0FE2F
:100CF00000253030C3B20B93694B1B34E3180C93BF
:100D0000069B1B190793033B9BB20D93079B5E1C2D
:100D1000F6B2C523624C082223706370B53BE370C2
:100D20006149093B61482371677101F04CFF5B4BDE
:100D30005B79A3730123E37301232374FF2F00D096
:100D4000F5E000236374FD23A37400232822E374D9
:100D50006B469B181B78043A2375012363756B4619
:100D60009B181B78A375039B632B00D8E1E01F3A07
:100D70004F49504801F027FF4849069A0A310C981C
:100D800001F021FF0D994C4801F0EEF9444B079A10
:100D9000444C9854310049489E70267001F0C6FBBF
:100DA0000023984200D0330024780135E41A6242CF
:100DB0006241089BEDB2941CAB42AAD10599374819
:100DC00001F0B0FD354D029B2C71591E280001F039
:100DD00099FD029B0299EB18013B1870280001F065
:100DE00027F9DBE6A52261792D4C2E4D2270A52234
:100DF000E370012362700922617102212371B13312
:100E0000A371A83BA2702A70E371200001F08AFD53
:100E10002D7820006E1E310001F074FDA0551EE0FB
:100E2000A7782000073FFFB2390001F07BFDA579CC
:100E3000E179002D46D1022913D92149042001F07E
:100E4000BDF80123A57823713900200001F06AFD67
:100E5000691E200001F056FD6319013B187029003E
:100E6000ACE0FA239B005943042001F0C1F8E8E705
:100E700010E000E000ED00E07C0D00209400002078
:100E80004F0100200400002022FCFFFF0C0B00207B
:100E9000EC0A0020EA010020FF0300000F010020FF
:100EA00002180020780D0020C82C0000081800202F
:100EB000D12C0000191800200518002094120020E1
:100EC000B80B0000AA23227ADD4CA8002370553B02
:100ED00063706B1EA370DB4BE6705B5D23710223B6
:100EE0006371D94BC358180AA371E071180C1B0E1B
:100EF000637220723C23002900D0C3330D27D34EE8
:100F0000E172D3480921A3723770227301F02CF9E2
:100F10006073D8200A2310214543CE48E37340195B
:100F20000233A7733170E37001F000FB36E667749B
:100F300009E75B23E3751B3323762C226B469B1852
:100F40001B7863765D23A37616E72000059901F0F0
:100F5000E9FC012436E7A5782000073DEDB2290021
:100F600001F0E0FCA279BC4B002A02D11B78E371AE
:100F700015E0E7791F7000F05FFE01F0D3FBF82069
:100F8000400201F065F8F8203900400201F086F8CF
:100F900001F0D0FB019B5E60E07901F005F90123CF
:100FA000A67823712900200001F0BCFC711E2000EE
:100FB00001F0A8FC3100A319013B187020000EE7D6
:100FC000A5782000073DEDB2290001F0ABFCA27925
:100FD000A24B002ACAD0E6791E7000F02DFE01F067
:100FE000A1FBF920400201F033F8F9203100400262
:100FF00001F054F801F09EFB0023019A5360CEE704
:1010000001330B6008E6052B02D9053B138080E312
:1010100011800121924A934C1388E17001339BB2F5
:101020001380A522217100218F4D227062709C3A9D
:10103000A27061712A7020001A0A0231A271E37154
:1010400001F070FC2D7820006E1E310001F05AFC7A
:101050002900A055200000F0EBFF5AE301262821CB
:10106000714363185878AA2811D19878FF280ED1B7
:10107000187990420BD15B79022B08D1093A7B4B4E
:101080000731D2B261187A481A7001F09CFD28230A
:101090005E430023A419638460E3764C627F012AD7
:1010A00000D1BFE0E37F002B00D1637722003D3207
:1010B0001378012B00D1B5E03F342378002B00D109
:1010C00013703378002B00D04DE36B4B1B78062B4D
:1010D0005ED06A4F3B68052B00DCEDE0053B3B60D2
:1010E00000240E9B1B68A3421FD101F027F80320A8
:1010F00000F0E4FF0500C30702D500F0FFFF013C4C
:10110000AB0710D54B2000F0D9FF00250400FF26C7
:1011100003906B1C02932B00039A33409A4200DD2C
:1011200016E100F0EBFF00F0F4FF554D2C60002CB1
:101130002EDD544C2378C52B2AD16378C52B27D1BB
:10114000617C0B22A1713221203BA07B2370637054
:101150003B33E370DF3B2371A2706071217220008A
:101160002E39E37163722A6001F0DCFB2D682000E8
:101170006E1E310001F0C6FB2900A055200000F0D2
:1011800057FFFA219623490002203B6000F016FF2A
:1011900001243D4EF3683269934226D03B4F300024
:1011A000390001F09DF9021E1CD0394BA000E55C0E
:1011B000384BAD01E35C39009B00ED18364BED1860
:1011C000364B1B5D2B60364BC05801F071FA354B26
:1011D0001F68344B1B68DB1B012B00D8BFE0324B70
:1011E0001B5D2B60300001F0ABFB0134D836052CC1
:1011F000D0D101272D4B2E4CC03340340393FBB28A
:101200000693039B2B4ABF330A93231D08933B018C
:10121000D3180593230010330793083B0993BB00B1
:101220000293ADE004225B01E418210010482A700B
:1012300001F0C9FC0223637743E7DBB2A7E2C046B3
:1012400002180020FC170020E4170020780D002071
:1012500006180020840D0020570100200000002007
:101260005A010020380D00207A0D00200E010020C8
:10127000F80000206001002008000020800D002000
:10128000F40C0020AC0C00205C0E0020EC160020BA
:101290009C2C0000892C000000420050C22C000051
:1012A000A42C00007C0D0020BC2C00006A0600204D
:1012B0002C0B002098000020BE4CE368226993426A
:1012C00000D10DE7BC49200001F00AF9061E34D018
:1012D000FA239B003B6000F031FF0121882000F0E1
:1012E000FBFE0021882000F0F7FE3100BE2000F058
:1012F000F3FE0025EBB2B34223D30421852000F096
:10130000EBFE0021862000F0E7FE032000F0D6FE71
:10131000042000F0D3FE0921872000F0DDFEA74A5B
:101320001368002BFCD100F009FF00F0E7FE00F08D
:10133000F0FE3221022000F041FE200001F000FB0F
:10134000CEE69D4BFF20595D00F0C6FE0135D1E78A
:101350007F2000F0B3FE9A4B5855029DD9E600F06D
:101360006BFC2D22009B1B6893432C3A1343009A7D
:1013700013600023019A53602BE7AA2800D0F95488
:10138000904A029B904902989B5841588B4200D149
:101390001DE20A99187899427FD8029B03999950C7
:1013A0008A4B8B4EFD5CB9016A1CD2B27618511E75
:1013B000FA547055012966D003296AD00029DCD07F
:1013C000E178C81C8242DBDD73189A780D2A57D168
:1013D000325C0A2A54D1033989B208985D7800F04A
:1013E000C3FE85424CD13221022000F0E7FDA27AF3
:1013F000784B0299FA54E37BA27B1B029B18627B19
:101400001B029B18227B1B029B18E578724A0F3D3A
:101410008B50724BEDB2FD542A000799059801F0EC
:10142000D2FBABB29A1C0B92A5222270A5220933E3
:101430006270DEB2FF2B05D90F2633405E1EB3412A
:1014400010331E000223E370013B237100236371FC
:101450006B461B7E2A00A371E5710599A670099859
:1014600001F0B1FB0B99200001F05CFA711E200025
:10147000651801F047FA31002870200000F0D8FD0F
:101480000022524B03E0552800D179E70022FA549C
:1014900076E7062800D973E7F8E7029901338B5005
:1014A0007EE76B469B8F4E4913804E483A0001F011
:1014B000FFF89BE100214C4A11700122C52B02D09C
:1014C000532B03D10B22494B1A7090E11522FF2BAD
:1014D000F9D01F22FA2BF6D000232B7087E1434965
:1014E0000A78012A04D1C52BF6D1C33B0B707EE1EB
:1014F0000B2A03D1542BEFD1483BF7E7152A05D12E
:10150000FE2B01D1D43BF1E71623EFE71F2AE3D1ED
:10151000102BE1D11033E9E734490A78022A03D1CC
:10152000314A13700323E1E70C2A03D1412BD3D1B5
:10153000343BDBE7162A01D11723D7E7202A03D152
:10154000082BC9D11933D1E72A2AC5D1264A02333B
:1015500013702B23CAE725480278032A02D10423FB
:10156000037044E10D2A03D1542BB5D1463BF7E774
:10157000172A0BD16378A278E17853409942ABD116
:1015800000220170012001F0F1F9A5E72223212AB0
:10159000E6D02B2AA0D12C23E2E7144801780429B5
:1015A00026D1114B1B78934200D920E1E3780370D8
:1015B00092E7C04694120020AC1600201C42005056
:1015C000AC0C0020F40A0020140B0020EC0C0020CE
:1015D0002C0B0020FC170020E4170020080100203D
:1015E000522C000000001540E9010020E701002016
:1015F0000E2955D1A3185A1E12780A2A00D0F6E0F7
:10160000023B1B780D2B00D0F1E09C49200001F03B
:10161000CBFA002800D05FE726000A369849300050
:1016200001F0F0FA002812D19649300001F0EAFAF0
:1016300000280CD19449300001F0E4FA002806D1CA
:101640009249300001F0DEFA002800D144E72D2154
:10165000200001F0C1FA061E00D13DE701302D2126
:1016600001F0BAFA002800D136E7841BE3B2022B5E
:1016700000D831E71022002110A801F0F5F98449C3
:1016800010A801F0B7FA3C4010AB22003100581D01
:1016900001F099FA621D10A97E4801F009F81BE7D4
:1016A000182900D118E722290AD10C2A00D89EE077
:1016B000FF2B00D09BE0E3780370A279617961E7AA
:1016C0002C2900D008E7744B1B78934200D98EE098
:1016D0006379652B00D08AE0E3780370E279A17921
:1016E000022050E701320A608FE000F0A5FA23687B
:1016F000029A93433343236000236B60B6E0136880
:10170000664905331360664A13888B4200D87AE431
:1017100011800023634D644C2B70230028331B7809
:10172000002B0AD123004A331A88002A05D023004F
:101730004E331B78012B00D990E4230050331B78E3
:10174000002B0BD1230072331A88002A06D0230005
:1017500076331B780226012B00D980E4514E337872
:10176000002B00D199E46421012000F027FCA52181
:101770002A784E4C93B29E1C093321706170FF2B66
:1017800000D85AE50F210B40591E8B41103302211E
:10179000E1700139217120000021454DA370617174
:1017A000A171083043492B70E27101F00CFA31004D
:1017B000200001F0B7F82D7820006E1E310001F0F6
:1017C000A1F82900A055200000F032FC7DE4039B25
:1017D0000137C03340340393052F00D00FE5364A5C
:1017E0001388052B00D85CE6053B1380FF2733499F
:1017F000334B0A681B689A421ED0324813780400A3
:101800007F34A24200D26DE708602F4A11783F2949
:1018100001D9002111702C4D2C4C29784A1CD2B2D0
:10182000501E2A706354032800D9B6E601F026F949
:1018300042FE57FE74FE93FE254B5B79002B07D1C9
:10184000244B04201978FA239B00594300F0D0FB65
:1018500000F0F2F92D2201261F4C204D2368204F65
:1018600093433343236000236B600292013F002FB8
:1018700000D03AE7049B0533FFF77FF9D72C00002F
:10188000582C0000612C0000682C0000702C000017
:101890004C2C000000001540E901002030750000CC
:1018A0005C0100200E01002044170020F80C0020ED
:1018B000790D0020F800002048180020F00A0020D0
:1018C000100B0020EA050020E8010020A7010020FD
:1018D000A00100200000002000400040FC0000505B
:1018E0003B0B0000094A30B58400A358084D19701D
:1018F000C02358430300A158BF335B19994202D358
:101900004019A05030BD0131A150FBE7140B00205D
:101910006A06002030B5027F0300052A38D1002274
:10192000110042769818007C551C0409444061401F
:10193000002A01D12A00F5E71A68140224181C6055
:101940002A00052DEED10F20DA7D01408A4202D017
:10195000012040420CE0C8229968DA77187C220006
:101960008C4202D1997D884203D0987501209A60FB
:1019700030BD587F002803D05D680120AC42F7D00D
:10198000002A01D10029E3D001205A605877EFE7FF
:101990000121007E084002D000225A76D8E7D97E85
:1019A00018760829E4D1511C1977D97D9A18D87670
:1019B0001174D875DCE710B51400527E0300FF2ABD
:1019C00037D0122A1BD10020E021ED326276E26886
:1019D00020769B18E075E0762077E360890001228D
:1019E0008B4202D9A276E27610BDA02189008B42FB
:1019F00001D9A076F7E70123A3760020F4E7112AA6
:101A000003D101326276E360F7E78238FF38FE28BF
:101A100004D8002902DD01236376EEE7813B002034
:101A2000FE2B04D8824202D001326276DCE7607677
:101A3000E3E7A27E002A4CD00029E4DDE268131817
:101A4000E360237E0133DBB25AB22376002A2BDB1C
:101A5000E27D52000132E275E27E511CE176042102
:101A60008A43032A02D1833A13432376A023E268F0
:101A70009B009A42BFD9217E4BB2002B23DBE27D33
:101A8000E37E5200E2755A1CE27604229343032B54
:101A900002D1833B0B432376E023E2689B009A420A
:101AA000A9D80020A0769FE7237F052B03D1E27DF4
:101AB0000B331343E3752000FFF72CFF431CD5D1F4
:101AC0000120404290E72000FFF724FF431CE3D1B0
:101AD000F6E7002997DDE268217E1318E3604BB238
:101AE000002B0EDBE27DE37E5200E2755A1CE276AB
:101AF00004229343032B02D1833B0B432376A02381
:101B0000CBE72000FFF706FF431CF8D1D8E7000021
:101B1000F0B5282444432F4AA35C012B1FD1012890
:101B200012D0022819D0282302214343D154002186
:101B3000D3185C1D0633E177D97728235843002357
:101B400012180732D377F0BD234B11215960802141
:101B50001C68C90521431960E5E7204BF5E7022B16
:101B60002AD1012803D002281ED000230AE08023B6
:101B70001949DB050C6823430B60194B1B68591E80
:101B80008B41DBB2282545435419A71DF97F053445
:101B90008B404E1CF6B2FE77E17F0B43E377072EB6
:101BA000CBD903235355C8E780230C49DB050C68C8
:101BB00023430B600B4BE1E7032BBED11319598C68
:101BC0004D1C5D8459180533DB7F4B700023A354F3
:101BD000B3E7C04644170020000001402000014048
:101BE000DC420050D84200500021F0B50F4D0B00F0
:101BF00008240127AC460E4A0E4E11605B0045B228
:101C0000DBB2002D10DA3760654617602D684000A2
:101C1000C0B2012D01D12B43DBB2013C1160002C7D
:101C2000ECD118001460F0BD3160EDE7884200503F
:101C3000844200508C42005010B55921162088244F
:101C4000044B5A68012A00D110BD596058605C608D
:101C5000F7E7C046FC000050054B10B5DA69D20525
:101C600004D519680120C9B2FFF73CFE10BDC0467B
:101C700000801540054B10B5DA69D20504D5196806
:101C80000320C9B2FFF72EFE10BDC04600800540FC
:101C9000054B10B5DA69D20504D519680220C9B21E
:101CA000FFF720FE10BDC04600400540074BDA6933
:101CB000D20508D5064A19681368197005498B4280
:101CC00002D3054B136070470133FBE7000015405A
:101CD000100B002069060020EA0500200C4B10B50F
:101CE000DA69D20508D50B4A1968136819700A49D0
:101CF0008B420BD3094B1360094BDA69D20504D52B
:101D000019680420C9B2FFF7EDFD10BD0133F2E7F9
:101D1000000005400C0B0020E9050020EA0100202E
:101D2000004015400122054B10B59968114203D0BF
:101D30009A600220FFF7ECFE10BDC0462000014073
:101D40000120044B10B59A68024202D09860FFF758
:101D5000DFFE10BD000001408023304A5B00116AA5
:101D600010B5194215D013622D4B2E4AD8685A600F
:101D700080221968D2050A431A602B4B2B4A196836
:101D800001394B425941012349421943FFF713FEE0
:101D900010BD4021264B186A084214D01962254B09
:101DA000180050300278002A09D1234A383951608E
:101DB00080211468C9052143116001220270763325
:101DC00000221A70E4E78021186A084212D01962D2
:101DD000184B180028300278002A09D1174A7839A0
:101DE000516080211468C9052143116001220270ED
:101DF0004E33E5E71249086A0C6A20430862196A03
:101E0000186A014319620F4B196A186A0143196273
:101E1000136A116A0B431362BAE7C046404100508F
:101E20002000114050C3000060430050800100209A
:101E3000C040005044170020200001400000014035
:101E4000804000500041005080220C4B120210B51F
:101E50001A620B4B0B4AD8685A6080221968D20567
:101E60000A431A60084B094A196801394B42594123
:101E7000012349421943FFF79EFD10BD4040005029
:101E80000000114050C300007C420050600100205F
:101E90003E4AF0B513683E49013313600023012226
:101EA0009C463C4C3C4D3D4E0F687B1ED81C02D8D6
:101EB000012F3CD00B6001320431052AF4D10123FB
:101EC00032213748374C384DC25CE65C9201B6008F
:101ED0009219364E921916685A191778F6B2944626
:101EE000334AB7422FD1D1540133062BECD1002312
:101EF0001D00304C1A1910004E300178012901D80C
:101F00000131017028321178002903D001780129AC
:101F100000D915702833502BECD1274BDA7F002ADB
:101F20001CD11A003F321278002A23D1F0BD63463B
:101F3000AF5C0B60A35CBF009B01DB191B4FDB197F
:101F4000B75C1F60B7E7D2181778012F02D9013F9D
:101F50001770C9E7117062461670C5E7012A09D9E2
:101F6000013ADA7719003F310A78012A07D9013A94
:101F70000A70DBE70022DA779A609A75F2E70022AE
:101F80009A6236330A701A70D0E7C0467C0D002082
:101F900030170020962C0000832C0000BC2C000081
:101FA0008F2C00007C2C0000A0010020004200507B
:101FB000500100204417002060010020074B8200E0
:101FC000D150074B074A1B5C125C9B0192009B1887
:101FD000054A9B18054A125C1A6070472C170020AE
:101FE000962C0000832C000000420050C22C000000
:101FF00010B5002902D0FFF7E1FF10BD074B8200AA
:10200000D150074B074A1B5C125C9B0192009B1846
:10201000054A9B18054A125C1A60EEE72C1700204F
:10202000962C0000832C000000420050BC2C0000C5
:1020300070B50D00040032210320FFF7BFFF2A0016
:102040002100024800F034FB70BDC046000005408E
:102050002222094BDA60213A58601A61BFF36F8F70
:1020600018690028FCD140221968114203D0196870
:1020700001380A431A60704700C000500022064B26
:10208000DA60013258601A61BFF36F8F1A69002A53
:10209000FCD198687047C04600C000502122064B12
:1020A000DA60203A586099601A61BFF36F8F1A693D
:1020B000002AFCD17047C04600C00050002310B574
:1020C000044C2360FFF790FDFF20FFF78DFD0123F7
:1020D000236010BD80420050002370B50D00064CF7
:1020E000236080331843FFF77FFD2800FFF77CFD56
:1020F0000123236070BDC0468042005010B502210C
:102100008820FFF7E9FF88200021FFF7E5FF002086
:1021100010BD10B503218520FFF7DEFF00218620CA
:10212000FFF7DAFF0320FFF7C9FF0420FFF7C6FF20
:1021300087200521FFF7D0FF002010BD10B5012139
:102140008720FFF7C9FF00218520FFF7C5FF002189
:102150008620FFF7C1FF0320FFF7B0FF0420FFF741
:10216000ADFF002010BD0000F0B5030008260020E0
:10217000312701390B4A89B2914200D1F0BD1A785A
:102180005040320044B2A44665464400E0B2002DFF
:1021900001DA7C40E0B2013AD2B2002AF2D1013336
:1021A000E7E7C046FFFF00000022F8B504002D2637
:1021B0000127A54BA54D1A60013D002D00D0F2E08E
:1021C0000320FFF77BFF06000420FFF777FFFF2EB9
:1021D00000D1E7E0FF2800D1E4E09D4B9D4E1D704B
:1021E00007239D4DAA212C709C4C33708D20053BFC
:1021F0002370FFF771FF0D20FFF760FF984F442118
:1022000038808D20FFF768FF0D20FFF757FF3880DB
:102210000320FFF753FF0420FFF750FF80218720A2
:10222000FFF75AFF8F4B1F68012F00D1C6E0032034
:10223000FFF744FF0420FFF741FF0320FFF73EFFB5
:102240000420FFF73BFF00218520FFF745FF022117
:102250008620FFF741FF00218920FFF73DFF002185
:10226000D120FFF739FF0B21D020FFF735FF532195
:10227000F520FFF731FF2F7823787B4DF620EB1800
:10228000D979FFF729FF2378F720EB18997BFFF71F
:1022900023FF2378FA20ED18697DFFF71DFF390031
:1022A000F920FFF719FF0021B220FFF715FF0221E7
:1022B000B320FFF711FF2D21B620FFF70DFFD4212A
:1022C000B720FFF709FF8821B020FFF705FF632142
:1022D000F120FFF701FF1021B420FFF7FDFE42219E
:1022E000B520FFF7F9FEF5218B20FFF7F5FEF2216F
:1022F0008C20FFF7F1FE14218D20FFF7EDFE182151
:102300003378ED201943FFF7E7FE514A237812781E
:102310000E24002A5ED15C43544D9C20615D2C1933
:10232000FFF7DAFE6178A020FFF7D6FEA178A120A2
:10233000FFF7D2FEE178A220FFF7CEFE2179A3209D
:10234000FFF7CAFE6179A420FFF7C6FEA179A52098
:10235000FFF7C2FEE179EE20FFF7BEFE217AEF2003
:10236000FFF7BAFE617AF020FFF7B6FEA17AF220FD
:10237000FFF7B2FEE17A9D20FFF7AEFE217B9E20A3
:10238000FFF7AAFE617BAA20FFF7A6FE344B1A884E
:102390000623FF2A00D00023354A1370FFF7CEFE34
:1023A000FFF7B7FEF8BDFFF747FC324A1368B343A7
:1023B0003B4313600022304B5A60FDE6FFF73CFCC4
:1023C0002D212C4A13688B431F43176000222A4B90
:1023D0005A6027E75C43294D9C20615D2C19FFF76B
:1023E0007BFE6178A020FFF777FEA178A120FFF7A0
:1023F00073FEE178A220FFF76FFE2179A320FFF79B
:102400006BFE6179A420FFF767FEA179A520FFF795
:1024100063FEE179EE20FFF75FFE217AEF20FFF700
:102420005BFE617AF020FFF757FEA17AF220FFF7FA
:1024300053FEE17A9D20FFF74FFE217B9E20FFF7A0
:102440004BFE41219FE7C0460442005041420F002D
:10245000421800204518002043180020441800208E
:10246000461800201C420050222D00003E2D000086
:102470000800002000400040FC000050142D000027
:10248000F0B585B06A46134B6C46E0CBE0C21B68E2
:102490001360820AD2B2002A0AD08605F60EB24034
:1024A0000D4D03039B0F5B199B001D6895431D6039
:1024B00003015B0F0CD08200C001C00E8340920F5D
:1024C0009200A458054AA41822689A431143216037
:1024D00005B0F0BDE42C000086000014100200508E
:1024E000F8B50269C36807000E001D7893421BD03F
:1024F000402D19D86A1C8468591C9B18A34201D32B
:1025000002689B1A994205D22A00300000F05BFB5A
:102510002800F8BD641AE4B22200300000F053FB3A
:1025200030192A1B7969F1E70025F1E7F8B50400B5
:1025300062684B1C0E0000209A4218D92269117063
:10254000501C2269A568D3182361AB4202D32268CC
:102550009B1A236163680B4F9B1B013B63602369DC
:10256000984205D23200390000F02DFB0120F8BD61
:102570002D1AEDB22A00390000F025FB6069721BAC
:102580007919F1E70218002070470000012307B510
:10259000A02101AA1370DB18537093700233D3701B
:1025A0000E4BC9021B6A00200B4213D1190312D42F
:1025B0000B4899030ED4D905C90D02318008484350
:1025C0001904890F525C9904C90E0231514300F07D
:1025D0005FFA80000EBD0348EBE7C04600020050E2
:1025E000001BB7000080510110B5FFF7CFFF072196
:1025F000084A13690B40022B02D007499B00585828
:102600000F2391691940013100F042FA034B186021
:1026100010BDC04600020050A02E000004000020A3
:10262000F0B585B06A461E4B0500103313CB13C2BC
:102630001B686E4613601B4A032354699769002286
:10264000240E2A63EB601C40174AAB683F05134019
:102650003F0FAB60012C02D1FFF798FF0190A4005F
:10266000791C305900F014FAE123E1211B02040027
:102670004902C01800F00CFA0C4B023898420BD9F2
:10268000E123E1211B03E018490200F001FA0009EF
:102690000238686205B0F0BDC0239B051843F8E717
:1026A000E42C0000000200500FFFF0FFFFFF0000CD
:1026B00070B580258C186D05A14206D1100070BD43
:1026C000013B002B03D11A00F8E78023DB05866964
:1026D0002E42F5D00B7801310360EDE7064A030E78
:1026E0009B1801220002000A8240196811431960F8
:1026F000196891431960704708000050F0B5002335
:10270000032601249C40214208D035005F00BD40D3
:102710000468AC431500BD402C4304600133102B0A
:10272000EFD1F0BD0123024A11680B4313607047DB
:1027300000C000500121024A13688B4313607047A8
:1027400000C00050064B0749CA680240904201D1C0
:1027500001207047013B002BF6D11800F9E7C04675
:10276000814F1200000200508023F0B5484D5B02FB
:102770002B6287B004000E002B68002862D1012074
:1027800003432B60FFF7DEFF02230093414B0594C8
:102790000393414B414AF318934267D9404B414A56
:1027A000F31893425AD8012376000193002301279E
:1027B0001C0002937F420099039800F069F93A4B9C
:1027C0003A4AC318934220D84300F21A0492A4460E
:1027D0003A000224364F3749DF198F420BD8049F45
:1027E0009E4200D29F1B974205D2002F40D0009AF4
:1027F000A44602923A0004990134091A04912E4920
:102800001B188C42E6D164461700009B01330093ED
:10281000222BD0D1019B059A9B031343A21E134385
:10282000029A0420023A520213432B62FFF78AFFF6
:10283000019B0398591C029B594300F029F96043FE
:1028400007B0F0BD04273B432B601020FFF77AFF51
:1028500080231B0305930097184B99E7184B194ADF
:10286000F318934207D8B60003239EE700239CE7A2
:10287000009B0293C9E7002C07D1134B2B62042065
:10288000FFF760FFFFF782FEDAE7104BF6E7C0467E
:1028900000020050001BB700FF1E0AFAFFE0F5051A
:1028A0007F0F05FD7FF0FA02FF95E7FFBE77CC00B2
:1028B000001F0AFA00E1F505020200000080510144
:1028C000C08782FE40787D012EC200006FD60800CE
:1028D0007FB569466A46094B203370CB70C11B68CF
:1028E0000B60830F9B009A58054BD2181F2318408A
:1028F0001E3B834011680B4313607FBDE42C000036
:10290000040200500200002330B5054D141AA14204
:1029100001DC180030BD147801326340EB5CF5E750
:10292000A02D000010B52C24831D053164421A1A15
:10293000914200DA10BD1A7862401A700133F6E74E
:102940000200C368116900208B420ED01978481C20
:102950001B189068D360834202D310681B1AD3609F
:102960000120536801335B185360704770B5124BF8
:10297000124C90B01C806C46A523237063700A240F
:102980006B466D469C7003236E46EB7001253571D6
:102990000025B071F1716846190032727571FFF748
:1029A000C1FF09216846FFF7ADFF2100707268463C
:1029B000FFF73EFB10B070BD48180020B80B0000B8
:1029C0000649074A074B9B1A03DD043BC858D05001
:1029D000FBDCFFF7D9FDFDF7A3FB0000D02E0000C4
:1029E0000000002078000020FEE7C046ABBE744621
:1029F00098472047084B10B50400002B02D0002157
:102A000000E000BF054B1868836A002B00D0984790
:102A1000200000F031F8C04600000000C02E000089
:102A200070B500260C4D0D4C641BA410A64209D1B4
:102A3000002600F0FFF80A4D0A4C641BA410A642C1
:102A400005D170BDB300EB5898470136EEE7B300EF
:102A5000EB5898470136F2E76C0000206C0000202C
:102A60006C0000207000002003008218934200D107
:102A7000704719700133F9E7FEE7C04603B47146A9
:102A8000490840004900095E49008E4403BC704774
:102A9000002243088B4274D303098B425FD3030A9D
:102AA0008B4244D3030B8B4228D3030C8B420DD3B0
:102AB000FF22090212BA030C8B4202D3121209023E
:102AC00065D0030B8B4219D300E0090AC30B8B427C
:102AD00001D3CB03C01A5241830B8B4201D38B032A
:102AE000C01A5241430B8B4201D34B03C01A5241CF
:102AF000030B8B4201D30B03C01A5241C30A8B4212
:102B000001D3CB02C01A5241830A8B4201D38B02FC
:102B1000C01A5241430A8B4201D34B02C01A5241A0
:102B2000030A8B4201D30B02C01A5241CDD2C30912
:102B30008B4201D3CB01C01A524183098B4201D38E
:102B40008B01C01A524143098B4201D34B01C01A79
:102B5000524103098B4201D30B01C01A5241C308F1
:102B60008B4201D3CB00C01A524183088B4201D360
:102B70008B00C01A524143088B4201D34B00C01A4C
:102B80005241411A00D20146524110467047FFE7B8
:102B900001B5002000F006F802BDC0460029F7D0BC
:102BA00076E770477047C04630B50024A24201D195
:102BB000002005E0035D651C0C5DA34201D0181BDD
:102BC00030BD2C00F2E7002310B59A4200D110BDB1
:102BD000CC5CC4540133F8E7C9B20378002B04D0AD
:102BE000994200D170470130F7E74B4259414942C1
:102BF0000840F7E7031C0A7801311A700133002AF4
:102C0000F9D1704710B502000078002804D1097886
:102C100000290DD010BD013210780028FAD0002311
:102C2000C85C002804D0D45C8442F4D10133F7E7B7
:102C30001000EFE7F8B5C046F8BC08BC9E467047E8
:102C4000F8B5C046F8BC08BC9E46704741543A47A8
:102C5000490041543A4753005453474546303344A2
:102C600000424634303330004A58425F54544D00DD
:102C70004D454458494E472D49525400000B0A0314
:102C80000203000008090F0200000004080C000005
:102C90000000000001000000000001000000000131
:102CA00001000000000000000080154000400540C9
:102CB00000800540004015400000000000000000BA
:102CC00000000001010101004646464646464646D0
:102CD000005B7631305D00535441543A204E414DF3
:102CE0004500000000000000040000000C0000008F
:102CF00024000000001BB7000000000000000000DE
:102D00000080510100000000040000002C000000C1
:102D1000000000009A7140346E00084E7920904007
:102D20000A410404040303020153535358565A61E1
:102D300040404040C040C0212121272D24001D419A
:102D4000602752000513A9203A400A201DA1204EF9
:102D5000A5000A27522048400A201ED0009D4900A5
:102D6000244EA52018400A2003D0009D49013D9D16
:102D700049200F400A1E0368013A93027809D500E2
:102D80001F400A20064501D7DC03B80EBF002E40C5
:102D90000A2D8268013A9302781D7E005C400A5039
:102DA0002DC30FBAB178A9F2750A7549938DC7A6DC
:102DB000C93C16F9AB4B29534080200FBC9741B159
:102DC000213D28C5F4176CD63C1AC330B69060403C
:102DD000FD08840E7CA795A369D25166C0F5F65410
:102DE000DEBCC6C0394166B8FFB5D75E1048713643
:102DF000FCDCB09C7996155EA2E1F491E69974FC36
:102E00000EEC88E9D57937F23DE9F263797151BC6E
:102E10009BAF56ADDDE80D9BAC9DEC8543E1502C9E
:102E20004678527F07CB820BC8E0C0D42F8D6B8BC6
:102E3000BA05E5E71F6936277B545B2AC4F1ABC0AE
:102E40009246C9CFADE8AB0353D9DF082513FE0F77
:102E50004C68D5AAAD781EBB95E71CC09B9D98CF4A
:102E60004D6C39A93EB0FBFE93AE698025F0A2748B
:102E70007C4C892B9D66E3695CEA7619520DAB9612
:102E80007127E56C9A2764AC5B75D9F566FEC7CBF4
:102E9000D5D7FAD2CC36D4A4AAABF58903A112F3C4
:102EA000001BB7000000000080F0FA0210270000AD
:102EB0000000000000000000000000000080510140
:082EC0000C00002000000000DE
:082EC80058D2FF7F0100000059
:102ED0000300000080F0FA0206000000000000007D
:102EE00000000000000000000000000000000000E2
:102EF00000000000000000000000000000000000D2
:102F000000000000000000000000000000000000C1
:102F100000000000000000000000000000000000B1
:102F200000000000000000000000000000000000A1
:102F3000000000000000000000000000E9000000A8
:082F4000C100000000000000C8
:04000003000029C10F
:00000001FF
