:1000000000200020BD240000E5240000E5240000BD
:1000100000000000000000000000000000000000E0
:10002000000000000000000000000000E5240000C7
:100030000000000000000000E5240000092200008C
:10004000E5240000E5240000E5240000F121000083
:10005000E524000059210000E5240000E52400000B
:100060004521000031210000E5240000E5240000C6
:10007000E9200000B9200000E52400009D200000D8
:100080008120000065200000E5240000E524000038
:10009000E5240000E5240000E5240000E52400003C
:1000A000E5240000E5240000E5240000E52400002C
:1000B000E5240000E5240000E5240000E52400001C
:1000C00010B5064C2378002B07D1054B002B02D02E
:1000D000044800E000BF0123237010BD7800002019
:1000E00000000000C0290000084B10B5002B03D011
:1000F0000749084800E000BF07480368002B00D10B
:1001000010BD064B002BFBD09847F9E7000000001C
:100110007C000020C02900007000002000000000CA
:10012000164B002B00D1144B9D46402292029A1A86
:10013000924600218B460F461348144A121A02F0C9
:1001400011FA0F4B002B00D098470E4B002B00D01C
:1001500098470020002104000D000D48002802D01F
:100160000C4800E000BF02F0D9F92000290000F09F
:1001700013F802F0BDF9C04600000800002000207E
:10018000000000000000000078000020CC170020D4
:100190000000000000000000F0B597B001F052FF31
:1001A0000920FC4D10262B6803432B6001F050FD05
:1001B0000423EC682A68300013432B6001F048FDEB
:1001C00007232A69344013430F222B61AB69F2499C
:1001D0009343AB61EB68DB0701D400F020FC002007
:1001E00001F048FD0426EF682B68102033432B6094
:1001F00001F02EFD07210F222B690B432B61AB6908
:1002000093431A0001231343AB6102232A698A43F3
:1002100013432B6101F07EFCFB0602D42B68B34331
:100220002B60002C03D104222B6893432B60AC205D
:10023000C00501F0D3FDD94801F0D0FDD84801F048
:10024000CDFDD84801F0CAFDD74801F0C7FDD74819
:1002500001F0C4FDD64801F0C1FDD64801F0BEFD55
:10026000D54801F0BBFDD54801F0B8FDAC20032115
:10027000C00501F09BFBC021C848890401F096FB32
:100280000021C74801F092FB8021C648890201F095
:100290008DFB8021C448890301F088FBC021C3483D
:1002A000890401F083FBC021C148890401F07EFB71
:1002B000C021C048890401F079FBC021BE488904EF
:1002C00001F074FBC021BD48890401F06FFB01F00F
:1002D00021FC802101228900B94801F0A5FC802180
:1002E00001224900B64801F09FFC80210122090249
:1002F000B34801F099FC01220421B24801F094FCBA
:100300000022B14B04211A60B04BAD481A60B04BCB
:1003100001261A60AF4BA0241A60033201F084FC5E
:1003200003220821A64801F07FFC80210322C90096
:10033000A34801F079FC802103220901A04801F0C3
:1003400073FCA54B03221E60A44B08211E60A44B26
:100350009C481E60A34BE4051E6001F065FCA24BA7
:10036000A24F1E608023E26B1B041343E3638023D0
:10037000E26BDB0313433800E3630022802101F0CA
:1003800053FCBB693800BB61FA69994B40211343A8
:100390008022FB617B6913437B61002201F044FCF6
:1003A000BB693100BB61FA69924B93481343FB610F
:1003B00040237A6913437B61032201F035FC032259
:1003C00002218D4801F030FC032204218A4801F00B
:1003D0002BFC03220821884801F026FC03228021FF
:1003E000774801F021FC03220221754801F01CFC32
:1003F0000022824B824F1E60824B3E601E60824B09
:1004000031001E60814B6E481A60814B1A603200C9
:1004100001F00AFC32001021694801F005FC80213E
:1004200032004900674801F0FFFB8021320049019A
:10043000644801F0F9FB0022764B77481A60774B4D
:100440001A60774B1A60774B1A600323626B9A43EA
:100450006263626B13436363236B734A13402363CA
:100460008023226BDB0113432363636B6F4A1340CA
:1004700080226363636B120213436363236D6C4AD0
:10048000134004222365236D2365E36D9343E365E5
:10049000E36D684AE365236E13402366236E664A64
:1004A0002366E36B1340E363C023E26B1B02134339
:1004B000E363236E614A13402366236E2366602341
:1004C000226B9A432263226B134323633023626EB1
:1004D0009A436266626E1A436266C022A16B9143C0
:1004E000A163A16B0A43A263226E55490A402266AA
:1004F000226E54492266626E0A406266626E5249FA
:100500006266226B0A402263C022216B92010A4379
:100510002263626E4D490A406266C022616E92009B
:100520000A436266626B9A436263626B134363635E
:1005300001F06AFB464801F067FB464801F064FBA6
:10054000454801F061FB454801F05EFB444801F07D
:100550005BFB444801F0FAFA434801F0F7FA4348DC
:1005600001F0F4FA424801F0F1FA424801F0EEFAE3
:10057000414801F0EBFA3121404B414A19605A6081
:10058000404B414819605A6001F03EFB6B6B10977D
:100590007CE0C0460002005000E1F505103D8057A8
:1005A000100000B30400005F0500405F123D80575B
:1005B000083D8097093D80970A3D8097113D8057FF
:1005C0000040005040400050484200503C42005023
:1005D00024420050204200502C420050284200503B
:1005E0000C420050084200504C420050C0400050A5
:1005F00080008000400040008040005004420050D5
:100600001C42005088420050804200508C420050F2
:1006100084420050704200501000000460420050BC
:100620001042005000420050FFBFFFFFFF7FFFFF5E
:10063000FFFFFFFEFFFF7FFFFF3FFFFFFFFFFCFF0E
:10064000FFFFFFCFFFF3FFFFFFCFFFFFFFFCFFFF29
:100650001200000408000008090000080A00000851
:100660001100000400000540004015400040054016
:10067000008005400080154000001540000011403A
:1006800050C300002000114010000008DB0300D51B
:10069000CDE101F011FA0024E74901F077FF3022A3
:1006A000E64BE74D1C606B68013893431A0010233A
:1006B00013436B60322380B2A86301305843642136
:1006C00001F064FF8021DF4B0138A8651A68DE481D
:1006D000490302401A601A6811431960DB4B1A681B
:1006E00002401A608022196892030A431A600423A8
:1006F000D7490A681A430A6001221100A140194231
:1007000007D02100160091438E403100286A014332
:1007100029620134062CF0D10423CE4A11680192DB
:10072000194205D02C2112688A431343019A1360A1
:1007300002230025019AC84C5360019AC74BC84F49
:100740001360656001F07EFC01213A680A433A605B
:10075000C0229203FD607A603961BFF36F8F099404
:100760003B69002BFCD10524BD682C40042C1BD117
:10077000C0263A6810331343B6033B60300001F0E3
:10078000E7FD012321229D432C43FA607E60BC607B
:100790003B61BFF36F8F3B69002BFCD1A022D205D8
:1007A000916801330B4393600023FB60F8235B02E5
:1007B0007B6001233B61BFF36F8F3A69002AFCD154
:1007C000BB68A84CDBB22370102B00D92270012526
:1007D00000213B681822AB433B60099BA24859604B
:1007E00001F0C0FE322294462B00A04EA04DA1483D
:1007F0006246195C9A555A5D8900920152189E49C9
:10080000521811689D4A99540133062BF0D1802269
:1008100025789B4C9B4BD200002120001D7001F0DD
:10082000A1FE994B60221C60984B002198481C60E7
:1008300001F098FE280000F04DFF9022954CD20068
:100840000021200001F08EFEC0260123924D934826
:1008500032005A439900A2184A510A509049914ACD
:10086000595C9A5C89008C46920183496244521813
:100870008D49C95C01331160052BE9D18B4C802275
:100880000021200001F06EFE894B40221C60894B44
:10089000002189481C6001F065FE0023874AC024BE
:1008A0001370874A13608022864BD2001A605A6008
:1008B00018329A189A601A001832DA601A615A616E
:1008C0008723814ADB00D218804B180019001C6076
:1008D0005C601830D8338B60C860086148619A4208
:1008E000F3D1C022002452000021794801F03AFEE1
:1008F00006220021774801F035FE4022002176488B
:1009000001F030FE754B764D1C70764B80201C70CC
:10091000754B76491C70764B4A681D8011231A432B
:100920004A60744A4001744E1060716819437160E6
:10093000106072482D26416819434160802170483B
:100940000902116041681943416080216D484902E4
:1009500011604168194341608021890211606A4930
:10096000486803434B6080239B0113602023FA21D6
:100970001360664B8900186801F008FE644A01386C
:100980005060C020634900060B6A1B021B0A034328
:100990000B62072394601360FA241195FA25A400D2
:1009A0006D005D4B1A68A24200D2BBE0FA229200B1
:1009B000A4185A4A9442F4D11B68FA21039389007F
:1009C000039801F069FE002904D1F531FF310220BE
:1009D00001F094FC2D4A2C49136809688B4201D11F
:1009E00000F0D9FD26494E481D780818834200D2F0
:1009F0004AE21160314A304C11784B1CDBB265542D
:100A0000591E1370012905D0022900D1A4E0002944
:100A100000D0A5E0A52DDDD000231370DAE78020FB
:100A2000000301F027F9EC683440FFF7DBFB01F02D
:100A300071F8364B18682EE648E8010018000440AB
:100A400000000440B0000440CFFFCFFFB4000440DA
:100A5000D800044000400040FC0000508205000027
:100A600000C00050530100204C1700204C01002012
:100A70008B2700007827000000420050C0010020B2
:100A80000A020020540100202C0B00200C0B002037
:100A9000600100208A060020340B0020140B002087
:100AA0008527000098270000B82700000A060020CC
:100AB000300B0020100B00200B0100204B01002008
:100AC000A00D0020B4120020A40D00207C0E0020F8
:100AD0004C0B00200C0D0020C70100200902002053
:100AE000B80B0000080200200702002000000540AB
:100AF000C817002000E100E000401540004005401C
:100B000000800540008015400000154000000020D6
:100B100010E000E000ED00E09C0D002070170000E8
:100B2000FF0300001A68DA4BE3189A4207D2290043
:100B3000022001F0E3FB2900032001F0DFFB01F0BC
:100B400081FA019B1A680123B2431343019A13608F
:100B50000023099A536024E7062D00D85CE739E7A3
:100B6000A2789A4200D935E7200001F051F9A84255
:100B70000BD13221032001F0C1FBE378A22B00D17D
:100B8000B6E006D8052B00D148E10022C14B1A700F
:100B900020E7B02B00D1CBE0E02BF6D1A3782000EA
:100BA000DE1F0293B3B21900069301F041F9A67952
:100BB000002E00D12CE1E3790A93002B00D127E12C
:100BC000237A0493002B00D122E1637A63240B93F0
:100BD000029B0A210B3BDBB20793049B079A9C42C2
:100BE000A4416442A31DD318DBB204980C9301F016
:100BF000CDFC00253030C3B20D93A74B1B34E31856
:100C00000E93079B1B190893033B9BB20F93089B02
:100C10000133DBB20593C5239F4C08222370637018
:100C2000B53BE3709D49093B9D482371667101F016
:100C300048FD9C4B5B79A3730123E3730123237469
:100C4000FF2E00D0D6E000236374FD23A37400239D
:100C50003022E3746B469B181B78043A23750123FA
:100C600063756B469B181B78A375049B632B00D898
:100C7000C2E0273A8C498D4801F023FD8949079A43
:100C80000A310E9801F01DFD0F99894801F0CCFB47
:100C9000814B089A874C98546A46127D05992270B8
:100CA0006A46127D84489A7000F0D6FE002398426E
:100CB00000D0059B24780135E41A624262410A9B08
:100CC000EDB2941CAB42A6D10699764801F0B0F87B
:100CD000744D029B2C71591E280001F099F8029B5B
:100CE0000299EB18013B1870280001F021FB4CE73A
:100CF000A5216279684C6F4D2170A521E370012315
:100D000061700921237108332B70A170D223022155
:100D100062712000A371E17101F08AF82D78200042
:100D20006E1E310001F074F8A05529002000DCE7A8
:100D3000A6782000073EF6B2310001F079F8A579D7
:100D4000E279002D1FD1FF2A13D10121494204204D
:100D500001F0D4FA01233100A5782371200001F0BD
:100D600067F8691E200001F053F86319013B187001
:100D7000DBE7FA21890051430029E8D14F4B196183
:100D80004F4B1960E6E7AA23217A434CA800237051
:100D9000553B63706B1EA3700023E370494B5B5D92
:100DA000237102236371484BC358180AA371E07181
:100DB000180C1B0E637220723C23002A00D0C33330
:100DC000A3720D233B4E2173404809213370E27218
:100DD00001F02AFB0D236073D820A3730A2310218E
:100DE00045433B48E373401902333170E37000F030
:100DF00033FECAE6667428E75B23E3751B3323766C
:100E000034226B469B181B7863765D23A37635E707
:100E10002000069901F00CF8012459E7A37820007E
:100E2000073BDBB21900029301F002F8A279294BCB
:100E3000002A06D11B78E3710123A578237102995A
:100E40008CE7E67901251E7001F0FCF8F8203B687C
:100E500040022B433B6001F07BFA2123FB60F82327
:100E60005B027B60BE603D61BFF36F8F1A4B1969F7
:100E70000029FCD101201A6882431A60174B59607F
:100E8000E07900F027FCD7E701331360B2E5C046F4
:100E900022FCFFFF4B01002082170020C427000026
:100EA000881700200B010020CD2700009917002093
:100EB00085170020980D0020B41200204C17002048
:100EC000484200507C17002064170020861700203D
:100ED000A40D00205301002000C00050FC00005071
:100EE000053B13600023B34DB34C2B7023002C3310
:100EF0001B78002B00D0F8E0230044331B78002B34
:100F00000DD0022318265E43310004220C316118F3
:100F1000AA482A7001F0D5FB0023A41923752B7869
:100F2000002B33D06421012001F0E8F9A5212A78B3
:100F3000A34C93B29E1C093321706170D9B2FF2B70
:100F400005D90F210B40591E8B4110331900022384
:100F5000E370013B2371200000239A4D63712970D7
:100F6000A17008309549A371E27101F0AAFB31002C
:100F7000200000F05DFF2D7820006E1E310000F093
:100F800047FF2900A055200001F0D2F98E4B1B78B5
:100F9000062B60D08D4B1B68052B00DCA7E08B4A2D
:100FA000053B13600024109B1B68A3421FD101F076
:100FB00025FA032001F0E2F90500C30702D501F08C
:100FC000FDF9013CAB0710D54B2001F0D7F9002506
:100FD0000400FF2604906B1C02932B00049A3340FC
:100FE0009A4200DDD0E001F0E9F901F0F2F9784D24
:100FF0002C60002C2FDD774C2378C52B2BD1637808
:10100000C52B28D1617C0B22A1713221203BA07B12
:10101000237063703B33E370DF3BA2702371607118
:10102000217220002E392A60E371637200F000FF04
:101030002D6820006E1E310000F0EAFE2900A05548
:10104000200001F075F9FA210023604A49000220CE
:10105000136001F053F901245F4EF3683269934243
:1010600026D05E49300000F0D1FC021E1DD05C4B42
:10107000A000E55C5B4BAD01E35C58499B00ED18BB
:10108000594BED18594B1B5D2B60594BC05800F064
:10109000A5FD584B1B680293564B029A1B689B1A7E
:1010A000012B78D9544B1B5D2B60300000F0CEFE35
:1010B0000134D836052CD0D10126504B504CC033CA
:1010C00040340593F3B20793059B4E4ABF330C930C
:1010D000231D0A933301D31806932300103308937A
:1010E000083B0B93B300029397E001230AE7464CB9
:1010F000E3682269934200D154E74449200000F09C
:1011000085FC061E35D0FA23304A5B00136001F0DF
:1011100075F90121882001F03FF90021882001F0B4
:101120003BF93100BE2001F037F90025EBB2B342A4
:1011300023D30421852001F02FF90021862001F01E
:101140002BF9032001F01AF9042001F017F9092105
:10115000872001F021F92E4A1368002BFCD101F001
:101160004DF901F02BF901F034F93221022001F0A0
:10117000C5F8200000F06AFE14E7244BFF20595DFB
:1011800001F00AF90135D1E77F2001F0F7F8114BA2
:101190005855029D1FE700F055FF2D22019B1B684B
:1011A00093432C3A1343019A13600023099A536026
:1011B00072E7C0460A01002060010020F400002010
:1011C000180D0020990D002004000020A00D002023
:1011D000140D0020CC0C00207C0E00200C170020E9
:1011E000982700008527000000420050BE2700001D
:1011F000A02700009C0D0020B82700008A060020D0
:101200004C0B002094000020B4120020CC160020CB
:101210001C420050AA2800D0F554BD4A029BBD498B
:1012200002989B5841588B4200D1E0E10C99187804
:10123000994200D984E0029B05999950B649B74B71
:101240008C46F55CB1016A1CD2B261444855551E0A
:10125000F254012D6AD0032D6ED0002DDAD0E37840
:10126000D81C8242D9DDCA1895780D2D5BD1095C56
:101270000A2958D1033B99B20A98557801F0D4F85D
:10128000854250D13221022001F038F8A27AA44BD5
:101290000299F254E37BA27B1B029B18627B1B0228
:1012A0009B18227B1B029B18E5789E4A0F3D8B50B2
:1012B0009D4BEDB2F5542A000899069801F001FA09
:1012C000ABB29A1C0D92A5222270A522093362703E
:1012D000DAB20492FF2B05D90F2213405A1E934114
:1012E000103304936B461B7C2A00A3700223E37027
:1012F000013B2371002363716B461B7FE571A37172
:1013000006990B9801F0DDF90D99200000F090FD91
:10131000049B2000591E651800F07AFD049928707E
:10132000200001F005F800227C4B03E0552800D195
:1013300073E70022F25470E7062800D96DE7F8E75A
:10134000029901338B5079E76B4644215B181B8867
:10135000764913807648320000F040FC56E10021C7
:10136000744A11700122C52B02D0532B03D10B22DA
:10137000714B1A704AE11522FF2BF9D01F22FA2B6C
:10138000F6D000232B7041E16B490A78012A04D181
:10139000C52BF6D1C33B0B7038E10B2A03D1542B7C
:1013A000EFD1483BF7E7152A05D1FE2B01D1D43BFD
:1013B000F1E71623EFE71F2AE3D1102BE1D1103319
:1013C000E9E75D490A78022A03D15A4A13700323D8
:1013D000E1E70C2A03D1412BD3D1343BDBE7162ABA
:1013E00001D11723D7E7202A03D1082BC9D11933FC
:1013F000D1E72A2AC5D14F4A023313702B23CAE7FB
:101400004D480278032A02D104230370FEE00D2A1E
:1014100003D1542BB5D1463BF7E7172A0BD163789C
:10142000A278E17853409942ABD1002201700120AB
:1014300001F01AF8A5E72223212AE6D02B2AA0D111
:101440002C23E2E73C480178042907D1394B1B786B
:10145000934200D9DAE0E378037092E70E2979D15C
:10146000A3185A1E12780A2A00D0CFE0023B1B783C
:101470000D2B00D0CAE03149200001F013F90028FB
:1014800000D07EE726000A362D49300001F038F9F9
:10149000002812D12B49300001F032F900280CD17C
:1014A0002949300001F02CF9002806D127493000E5
:1014B00001F026F9002800D163E72D21200001F07A
:1014C00009F9061E00D15CE701302D2101F002F977
:1014D000002800D155E7841BE3B2022B00D850E767
:1014E0001022002112A801F03DF8194912A801F0BC
:1014F000FFF8FF231C4012AB22003100581D01F001
:10150000E0F8621D12A90A4800F068FB39E7C046FE
:10151000140B0020340B00204C0B00200C0D00207D
:101520007C17002064170020040100204E270000D3
:10153000000015400902002007020020D327000008
:10154000542700005D270000642700006C2700007E
:1015500048270000182900D113E7222908D10C2AB6
:1015600054D9FF2B52D1E3780370A27961795EE7F9
:101570002C2900D005E7464B1B78934246D8637967
:10158000652B43D1E3780370E279A17902204FE71C
:1015900001320A6047E03F4A1368052B00D99FE4F7
:1015A00001213D4B3D4C13603D4AE1701388217190
:1015B00001339BB21380A52200213A4D2270627044
:1015C0009C3AA27061712A7020001A0A0231A2713D
:1015D000E37100F02DFC2D7820006E1E310000F02C
:1015E00017FC2900A055200000F0A2FE7AE4059B1C
:1015F0000136C03340340593052E00D062E52A4AF7
:101600001388052B00D89FE6053B13802749284BFC
:101610000A681B689A421CD02648137804007F345D
:10162000A242B5D30860244D2A783F2A01D900226E
:101630002A702978214C4A1CD2B2501E2A70635459
:10164000032800D9FEE600F097FF8AFE9FFEBCFE4D
:10165000DBFE1B4B5B79002B03D11A49042000F001
:101660004DFE00F0EFFC2D2217490B6893431A0042
:101670000123134300220B60144B5A60144A136871
:1016800003995B1A042BFAD90B000533FFF795F980
:10169000090200205801002030750000580D00207C
:1016A000560100209A0D0020C8170020100B0020C2
:1016B000300B00200A06002008020020C70100208D
:1016C000C0010020B80B000000400040FC000050AA
:1016D0009C0D00200022F8B504002D260127A54B03
:1016E000A54D1A60013D002D00D0F2E0032000F06E
:1016F00045FE0600042000F041FEFF2E00D1E7E089
:10170000FF2800D1E4E09D4B9D4E1D7007239D4DA9
:10171000AA212C709C4C33708D20053B237000F067
:101720003BFE0D2000F02AFE984F442138808D208A
:1017300000F032FE0D2000F021FE3880032000F082
:101740001DFE042000F01AFE8021872000F024FEF8
:101750008F4B1F68012F00D1C6E0032000F00EFE62
:10176000042000F00BFE032000F008FE042000F02F
:1017700005FE0021852000F00FFE0221862000F0EA
:101780000BFE0021892000F007FE0021D12000F08F
:1017900003FE0B21D02000F0FFFD5321F52000F0C7
:1017A000FBFD2F7823787B4DF620EB18D97900F0DC
:1017B000F3FD2378F720EB18997B00F0EDFD2378FB
:1017C000FA20ED18697D00F0E7FD3900F92000F0FE
:1017D000E3FD0021B22000F0DFFD0221B32000F084
:1017E000DBFD2D21B62000F0D7FDD421B72000F07D
:1017F000D3FD8821B02000F0CFFD6321F12000F05F
:10180000CBFD1021B42000F0C7FD4221B52000F02F
:10181000C3FDF5218B2000F0BFFDF2218C2000F0EC
:10182000BBFD14218D2000F0B7FD18213378ED2089
:10183000194300F0B1FD514A237812780E24002A92
:101840005ED15C43544D9C20615D2C1900F0A4FDD9
:101850006178A02000F0A0FDA178A12000F09CFDFF
:10186000E178A22000F098FD2179A32000F094FDFA
:101870006179A42000F090FDA179A52000F08CFDF5
:10188000E179EE2000F088FD217AEF2000F084FD60
:10189000617AF02000F080FDA17AF22000F07CFD5A
:1018A000E17A9D2000F078FD217B9E2000F074FD00
:1018B000617BAA2000F070FD344B1A880623FF2AB2
:1018C00000D00023354A137000F098FD00F081FD30
:1018D000F8BD00F0B7FB324A1368B3433B431360D3
:1018E0000022304B5A60FDE600F0ACFB2D212C4A63
:1018F00013688B431F43176000222A4B5A6027E767
:101900005C43294D9C20615D2C1900F045FD6178F8
:10191000A02000F041FDA178A12000F03DFDE1787C
:10192000A22000F039FD2179A32000F035FD617976
:10193000A42000F031FDA179A52000F02DFDE17972
:10194000EE2000F029FD217AEF2000F025FD617ADC
:10195000F02000F021FDA17AF22000F01DFDE17AD7
:101960009D2000F019FD217B9E2000F015FD4121F6
:101970009FE7C0460442005041420F00C2170020BA
:10198000C5170020C3170020C4170020C617002069
:101990001C4200501E2800003A28000004000020CD
:1019A00000400040FC00005010280000F0B585B059
:1019B0006A46134B6C46E0CBE0C21B681360820A98
:1019C000D2B2002A0AD08605F60EB2400D4D0303AE
:1019D0009B0F5B199B001D6895431D6003015B0F06
:1019E0000CD08200C001C00E8340920F9200A45818
:1019F000054AA41822689A431143216005B0F0BD3E
:101A0000E02700008600001410020050F8B50269BB
:101A1000C36807000E001D7893421BD0402D19D8D3
:101A20006A1C8468591C9B18A34201D302689B1A44
:101A3000994205D22A00300000F043FE2800F8BD8C
:101A4000641AE4B22200300000F03BFE30192A1B79
:101A50007969F1E70025F1E7F8B5040062684B1CED
:101A60000E0000209A4218D922691170501C226978
:101A7000A568D3182361AB4202D322689B1A236165
:101A800063680B4F9B1B013B63602369984205D23F
:101A90003200390000F015FE0120F8BD2D1AEDB21C
:101AA0002A00390000F00DFE6069721B7919F1E718
:101AB0008217002070470000012307B5A02101AA6A
:101AC0001370DB18537093700233D3700E4BC9023E
:101AD0001B6A00200B4213D1190312D40B4899033F
:101AE0000ED4D905C90D0231800848431904890F65
:101AF000525C9904C90E0231514300F047FD800049
:101B00000EBD0348EBE7C04600020050001BB700C3
:101B10000080510110B5FFF7CFFF0721084A136974
:101B20000B40022B02D007499B0058580F239169A4
:101B30001940013100F02AFD034B186010BDC0466A
:101B4000000200509C29000000000020F0B585B084
:101B50006A461E4B0500103313CB13C21B686E463A
:101B600013601B4A0323546997690022240E2A63D9
:101B7000EB601C40174AAB683F0513403F0FAB605A
:101B8000012C02D1FFF798FF0190A400791C305975
:101B900000F0FCFCE123E1211B0204004902C01813
:101BA00000F0F4FC0C4B023898420BD9E123E12100
:101BB0001B03E018490200F0E9FC000902386862E2
:101BC00005B0F0BDC0239B051843F8E7E0270000EF
:101BD000000200500FFFF0FFFFFF000070B58025EE
:101BE0008C186D05A14206D1100070BD013B002B81
:101BF00003D11A00F8E78023DB0586692E42F5D071
:101C00000B7801310360EDE7064A030E9B180122B1
:101C10000002000A82401968114319601968914353
:101C20001960704708000050F0B500230326012416
:101C30009C40214208D035005F00BD400468AC43A1
:101C40001500BD402C4304600133102BEFD1F0BDD3
:101C5000064B0749CA680240904201D101207047F3
:101C6000013B002BF6D11800F9E7C046814F120066
:101C7000000200508023F0B5484D5B022B6287B014
:101C800004000E002B68002862D1012003432B6062
:101C9000FFF7DEFF02230093414B05940393414B72
:101CA000414AF318934267D9404B414AF318934293
:101CB0005AD8012376000193002301271C000293C8
:101CC0007F420099039800F061FC3A4B3A4AC318EE
:101CD000934220D84300F21A0492A4463A00022408
:101CE000364F3749DF198F420BD8049F9E4200D2EE
:101CF0009F1B974205D2002F40D0009AA446029223
:101D00003A0004990134091A04912E491B188C4297
:101D1000E6D164461700009B01330093222BD0D1FB
:101D2000019B059A9B031343A21E1343029A0420AE
:101D3000023A520213432B62FFF78AFF019B03987A
:101D4000591C029B594300F021FC604307B0F0BDD1
:101D500004273B432B601020FFF77AFF80231B03EF
:101D600005930097184B99E7184B194AF3189342BB
:101D700007D8B60003239EE700239CE7009B02934D
:101D8000C9E7002C07D1134B2B620420FFF760FF3B
:101D9000FFF792FEDAE7104BF6E7C046000200506C
:101DA000001BB700FF1E0AFAFFE0F5057F0F05FDD7
:101DB0007FF0FA02FF95E7FFBE77CC00001F0AFA1A
:101DC00000E1F5050202000000805101C08782FE9B
:101DD00040787D012EC200006FD608007FB56946AD
:101DE0006A46094B203370CB70C11B680B60830FB0
:101DF0009B009A58054BD2181F2318401E3B834066
:101E000011680B4313607FBDE027000004020050FF
:101E10000200002330B5054D141AA14201DC180060
:101E200030BD147801326340EB5CF5E79C2800007C
:101E300010B52C24831D053164421A1A914200DA30
:101E400010BD1A7862401A700133F6E70200C368C9
:101E5000116900208B420ED01978481C1B1890681D
:101E6000D360834202D310681B1AD36001205368E9
:101E700001335B1853607047094A30B58400A3589A
:101E8000084D1970C02358430300A158BF335B1994
:101E9000994202D34019A05030BD0131A150FBE757
:101EA000340B00208A0600201300F0B5447AC23BB0
:101EB000FF3B002C00D16FE07E2B59D8037A002B1A
:101EC00007D00023002202604360002303724372A4
:101ED00008E00468456824196D41CB172B43214362
:101EE000016043604268334CD10D0368C905A142CB
:101EF0003DD1FF210F24550A2D010D40110921402C
:101F00004D19DE0F51000E4331002D0121404919BA
:101F10009F0E95012F432740090179180D015E0D91
:101F2000D1020E4331002140160449191D0C3543DE
:101F3000090125406D185605D90A920631439B09BF
:101F40002D01214013434919234000250024090194
:101F500000225B18012104604560C4680272C3322C
:101F60004172FF32A34223D0C36002610175F0BD0C
:101F7000C13A7E2AA5D8037A002B0BD004684568A5
:101F800024196D41CB172B4343600023214301608B
:101F90000372A7E70123FBE77E2BA3D80268CB17C8
:101FA00011434268016013434360047201238EE7CA
:101FB0000261DCE7000080FF0A4B0B49DA6810B5CC
:101FC0005960802104001868C90501431820196070
:101FD000064B604319684B425941054BC018FFF747
:101FE00063FF10BD0000114050C30000DC420050F0
:101FF000600100200021F0B50F4D0B0008240127DF
:10200000AC460E4A0E4E11605B0045B2DBB2002DAD
:1020100010DA3760654617602D684000C0B2012DA8
:1020200001D12B43DBB2013C1160002CECD1180034
:102030001460F0BD3160EDE78842005084420050EA
:102040008C42005010B5592116208824044B5A6840
:10205000012A00D110BD596058605C60F7E7C046A6
:10206000FC000050054B10B5DA69D20504D519689B
:102070000120C9B2FFF700FF10BDC0460080154027
:10208000054B10B5DA69D20504D519680320C9B229
:10209000FFF7F2FE10BDC04600800540054B10B5AD
:1020A000DA69D20504D519680220C9B2FFF7E4FE47
:1020B00010BDC04600400540074BDA69D20508D57F
:1020C000064A19681368197005498B4202D3054BFB
:1020D000136070470133FBE700001540300B002010
:1020E000890600200A0600200C4B10B5DA69D205DB
:1020F00008D50B4A1968136819700A498B420BD32B
:10210000094B1360094BDA69D20504D5196804201C
:10211000C9B2FFF7B1FE10BD0133F2E70000054080
:102120002C0B0020090600200A0200200040154068
:102130000122034B9968114200D09A607047C04653
:10214000200001400122034B9968114200D09A609F
:102150007047C0460000014080231D4A5B00116AA1
:1021600010B5194211D013621A4B1B49DA68596035
:1021700080211868C90501431960184B184819686F
:102180004B425941FFF790FE10BD4021154B186A94
:10219000084201D01962E7E78021186A084204D09A
:1021A00019620120FFF708FFEEE70F49086A0C6A81
:1021B00020430862196A186A014319620B4B196AB5
:1021C000186A01431962136A116A0B431362DBE751
:1021D000404100502000114050C30000D842005040
:1021E00090010020C040005080400050004100504D
:1021F000802210B5034B12021A620120FFF7DCFEA9
:1022000010BDC04640400050314AF0B51368314916
:1022100001331360002301229C462F4C2F4D304E7A
:102220000F687B1ED81C02D8012F2ED00B60013204
:102230000431052AF4D1012332212A482A4C2B4D9E
:10224000C25CE65C9201B6009219294E921916689A
:102250005A191778F6B29446264AB74221D1D1547A
:102260000133062BECD1244B9A6A012A24D8002290
:102270009A621A002C321278002A00D15A621A6C23
:10228000012A1CD9013A1A64F0BD6346AF5C0B60A9
:10229000A35CBF009B01DB19154FDB19B75C1F6006
:1022A000C5E7D2181778012F02D9013F1770D7E779
:1022B000117062461670D3E7013A9A62DFE7002296
:1022C0001A641A0044321278002ADDD1DA63DBE79F
:1022D0009C0D002050170020922700007F2700004F
:1022E000B82700008B27000078270000C0010020DD
:1022F000004200504C01002060010020074B82008A
:10230000D150074B074A1B5C125C9B0192009B1843
:10231000054A9B18054A125C1A6070474C1700204A
:10232000922700007F27000000420050BE270000D7
:1023300070B50D00040032210320FFF7DFFF2A00F3
:1023400021000248FFF74AFC70BDC046000005406E
:102350002222094BDA60213A58601A61BFF36F8F6D
:1023600018690028FCD140221968114203D019686D
:1023700001380A431A60704700C00050002310B5AE
:10238000044C2360FFF736FEFF20FFF733FE0123E6
:10239000236010BD80420050002370B50D00064C34
:1023A000236080331843FFF725FE2800FFF722FE45
:1023B0000123236070BDC0468042005010B5022149
:1023C0008820FFF7E9FF88200021FFF7E5FF0020C4
:1023D00010BD10B503218520FFF7DEFF0021862008
:1023E000FFF7DAFF0320FFF7C9FF0420FFF7C6FF5E
:1023F00087200521FFF7D0FF002010BD10B5012177
:102400008720FFF7C9FF00218520FFF7C5FF0021C6
:102410008620FFF7C1FF0320FFF7B0FF0420FFF77E
:10242000ADFF002010BD0000F0B50300082600201D
:10243000312701390B4A89B2914200D1F0BD1A7897
:102440005040320044B2A44665464400E0B2002D3C
:1024500001DA7C40E0B2013AD2B2002AF2D1013373
:10246000E7E7C046FFFF000070B5124B124C90B07A
:102470001C806C46A523237063700A246B466D464E
:102480009C7003236E46EB70012535710025B071F9
:10249000F1716846190032727571FFF7C9FC0921A4
:1024A0006846FFF7B5FC210070726846FFF740FFF1
:1024B00010B070BDC8170020B80B00000649074ACD
:1024C000074B9B1A03DD043BC858D050FBDCFFF7D9
:1024D000F1FAFDF725FE0000CC29000000000020E5
:1024E00074000020FEE7C046ABBE74469847204704
:1024F000084B10B50400002B02D0002100E000BF03
:10250000054B1868836A002B00D09847200000F024
:1025100031F8C04600000000BC29000070B500265C
:102520000C4D0D4C641BA410A64209D1002600F0EE
:10253000FFF80A4D0A4C641BA410A64205D170BDD9
:10254000B300EB5898470136EEE7B300EB589847D5
:102550000136F2E7680000206800002068000020D3
:102560006C00002003008218934200D1704719705C
:102570000133F9E7FEE7C04603B47146490840005D
:102580004900095E49008E4403BC7047002243089D
:102590008B4274D303098B425FD3030A8B4244D32B
:1025A000030B8B4228D3030C8B420DD3FF2209026D
:1025B00012BA030C8B4202D31212090265D0030B2C
:1025C0008B4219D300E0090AC30B8B4201D3CB0322
:1025D000C01A5241830B8B4201D38B03C01A524164
:1025E000430B8B4201D34B03C01A5241030B8B4266
:1025F00001D30B03C01A5241C30A8B4201D3CB0251
:10260000C01A5241830A8B4201D38B02C01A524135
:10261000430A8B4201D34B02C01A5241030A8B4238
:1026200001D30B02C01A5241CDD2C3098B4201D350
:10263000CB01C01A524183098B4201D38B01C01ACE
:10264000524143098B4201D34B01C01A5241030945
:102650008B4201D30B01C01A5241C3088B4201D3F4
:10266000CB00C01A524183088B4201D38B00C01AA1
:10267000524143088B4201D34B00C01A5241411AC8
:1026800000D20146524110467047FFE701B50020D5
:1026900000F006F802BDC0460029F7D076E7704783
:1026A0007047C04630B50024A24201D1002005E0A9
:1026B000035D651C0C5DA34201D0181B30BD2C00CE
:1026C000F2E7002310B59A4200D110BDCC5CC4548F
:1026D0000133F8E7C9B20378002B04D0994200D146
:1026E00070470130F7E74B42594149420840F7E74C
:1026F000031C0A7801311A700133002AF9D170479E
:1027000010B502000078002804D1097800290DD006
:1027100010BD013210780028FAD00023C85C0028D0
:1027200004D0D45C8442F4D10133F7E71000EFE722
:10273000F8B5C046F8BC08BC9E467047F8B5C04620
:10274000F8BC08BC9E46704741543A474900415482
:102750003A475300545347454630334400424634C9
:10276000303330004A58425F54544D004D45445870
:10277000494E472D49525400000B0A030203000042
:1027800008090F0200000004080C0000000000000F
:102790000100000000000100000000010100000035
:1027A000000000000080154000400540008005400A
:1027B0000040154000000000000000000000000183
:1027C000010101004646464646464646005B7631D4
:1027D000305D00535441543A204E414D45000000B5
:1027E00000000000040000000C00000024000000B5
:1027F000001BB70000000000000000000080510135
:1028000000000000040000002C0000000000000098
:102810009A7140346E00084E792090400A410404B9
:10282000040303020153535358565A614040404039
:10283000C040C0212121272D24001D4160275200C6
:102840000513A9203A400A201DA1204EA5000A2701
:10285000522048400A201ED0009D4900244EA52049
:1028600018400A2003D0009D49013D9D49200F409A
:102870000A1E0368013A93027809D5001F400A2016
:10288000064501D7DC03B80EBF002E400A2D826832
:10289000013A9302781D7E005C400A502DC30FBAA6
:1028A000B178A9F2750A7549938DC7A6C93C16F986
:1028B000AB4B29534080200FBC9741B1213D28C527
:1028C000F4176CD63C1AC330B6906040FD08840EF5
:1028D0007CA795A369D25166C0F5F654DEBCC6C08C
:1028E000394166B8FFB5D75E10487136FCDCB09C44
:1028F0007996155EA2E1F491E69974FC0EEC88E9F4
:10290000D57937F23DE9F263797151BC9BAF56AD91
:10291000DDE80D9BAC9DEC8543E1502C4678527F61
:1029200007CB820BC8E0C0D42F8D6B8BBA05E5E7CF
:102930001F6936277B545B2AC4F1ABC09246C9CFCE
:10294000ADE8AB0353D9DF082513FE0F4C68D5AAB9
:10295000AD781EBB95E71CC09B9D98CF4D6C39A9E7
:102960003EB0FBFE93AE698025F0A2747C4C892BAF
:102970009D66E3695CEA7619520DAB967127E56CAA
:102980009A2764AC5B75D9F566FEC7CBD5D7FAD26A
:10299000CC36D4A4AAABF58903A112F3001BB7006F
:1029A0000000000080F0FA02102700000000000084
:1029B000000000000000000000805101080000201D
:0429C0000000000013
:0829C4005CD7FF7F0100000059
:1029CC0080F0FA0206000000000000000000000089
:1029DC0000000000000000000000000000000000EB
:1029EC0000000000000000000000000000000000DB
:1029FC0000000000000000000000000000000000CB
:102A0C0000000000000000000000000000000000BA
:102A1C0000000000000000000000000000000000AA
:102A2C000000000000000000E9000000C1000000F0
:042A3C000000000096
:04000003000024BD18
:00000001FF
