:10000000002000205D2600008526000085260000D7
:1000100000000000000000000000000000000000E0
:100020000000000000000000000000008526000025
:100030000000000000000000852600009123000061
:10004000852600008526000085260000512300003B
:100050008526000069220000852600008526000014
:100060005122000035220000852600008526000070
:10007000ED210000BD21000085260000A121000027
:1000800085210000692100008526000085260000EA
:1000900085260000852600008526000085260000B4
:1000A00085260000852600008526000085260000A4
:1000B0008526000085260000852600008526000094
:1000C00010B5064C2378002B07D1054B002B02D02E
:1000D000044800E000BF0123237010BD7000002021
:1000E00000000000542B0000084B10B5002B03D07B
:1000F0000749084800E000BF07480368002B00D10B
:1001000010BD064B002BFBD09847F9E7000000001C
:1001100074000020542B00006C0000200000000040
:10012000164B002B00D1144B9D46402292029A1A86
:10013000924600218B460F461348144A121A02F0C9
:10014000E1FA0F4B002B00D098470E4B002B00D04C
:1001500098470020002104000D000D48002802D01F
:100160000C4800E000BF02F0A9FA2000290000F0CE
:1001700013F802F08DFAC0460000080000200020AD
:100180000000000000000000700000206018002047
:100190000000000000000000F0B593B001F0D4FFB3
:1001A0000920FC4D10262B6803432B6001F084FDD1
:1001B0000423EC682A68300013432B6001F07CFDB7
:1001C00007232A69344013430F222B61AB69F2499C
:1001D0009343AB61EB68DB0701D400F0EDFC00203A
:1001E00001F07CFD0426EF682B68102033432B6060
:1001F00001F062FD07210F222B690B432B61AB69D4
:1002000093431A0001231343AB6102232A698A43F3
:1002100013432B6101F0B2FCFB0602D42B68B343FD
:100220002B60002C03D104222B6893432B60AC205D
:10023000C00501F007FED94801F004FED84801F0DE
:1002400001FED84801F0FEFDD74801F0FBFDD7487C
:1002500001F0F8FDD64801F0F5FDD64801F0F2FDB9
:10026000D54801F0EFFDD54801F0ECFDD44801F090
:10027000E9FDD44801F0E6FDAC200321C00501F002
:10028000C9FBC021C548890401F0C4FBE021C44872
:10029000C90001F0BFFBE021C248C90101F0BAFB6F
:1002A0000021C14801F0B6FB8021C048890201F05D
:1002B000B1FB8021BE48890301F0ACFBC021BD48E1
:1002C000890401F0A7FBC021BB48890401F0A2FB0F
:1002D000C021BA48890401F09DFBC021B8488904B7
:1002E00001F098FBC021B748890401F093FB01F0AD
:1002F00045FC802101228900B34801F0C9FC80211E
:1003000001224900B04801F0C3FC8021AF4F012217
:100310000902AD4801F0BCFC01220421380001F0C3
:10032000B7FC0022AA4B04211A60AA4BA6481A6007
:10033000A94BA0241A60A94BE4051A60033201F00E
:10034000A7FC03220821A04801F0A2FC802103227F
:10035000C9009D4801F09CFC8021032209019A48B4
:1003600001F096FC01229E4B9E4E1A609E4B30007F
:100370001A609E4B80211A609D4B1A608023E26BAD
:100380001B041343E3638023E26BDB031343E36348
:10039000002201F07DFC8022B3693000B361F36973
:1003A00040211343F361736913437361002201F029
:1003B0006FFCB3698021B3614023F26909021A43DB
:1003C000F26172693800134373618023626B1B060C
:1003D000134363638023626C5B04134363640022F2
:1003E00001F056FCBB698021BB61FA69814B824EEA
:1003F00013438022FB617B691202134330007B614F
:100400000022490001F044FCB3690121B361F269A3
:100410007A4B7B4813438022F36173695200134384
:100420007361FD3A01F034FC03220221744801F0AB
:100430002FFC03220421724801F02AFC0322082128
:100440006F4801F025FC032280215F4801F020FC69
:10045000032202215C4801F01BFC0122694B6A4E19
:100460001A606A4B32601A60694B57481A60002262
:10047000684B1A60684B1A600132110001F008FCE9
:1004800001221021504801F003FC80210122490083
:10049000380001F0FDFB802101224901380001F004
:1004A000F7FB00225D4B5E481A605E4B1A605E4BA4
:1004B0001A605E4B1A600323626B9A436263626B3D
:1004C00013436363236B5A4A134023638023226BD5
:1004D000DB0113432363636B564A1340802263633B
:1004E000636B120213436363236D534A1340042268
:1004F0002365236D2365E36D9343E365E36D4F4A05
:10050000E365236E13402366236E4D4A2366E36B37
:100510001340E363C023E26B1B021343E363236EC8
:10052000484A13402366236E23666023226B9A4356
:100530002263226B134323633023626E9A43626605
:10054000626E1A436266C022A16B9143A163A16BE4
:100550000A43A263226E3C490A402266226E3B494E
:100560002266626E0A406266626E39496266226B7A
:100570000A402263C022216B92010A432263626E09
:1005800034490A406266C022616E92000A43626684
:10059000626B61E00002005000E1F505103D8057FC
:1005A0000200805E0300C05E100000B30400005F24
:1005B0000500405F123D8057083D8097093D8097B8
:1005C0000A3D8097113D8057004000504040005048
:1005D000484200503C42005024420050204200500B
:1005E0002C420050C0400050284200500C420050A5
:1005F000084200500080008040410050000100018E
:1006000080400050044200501C420050884200507C
:10061000804200508C420050844200507042005092
:100620001000000460420050104200500042005090
:10063000FFBFFFFFFF7FFFFFFFFFFFFEFFFF7FFF0B
:10064000FF3FFFFFFFFFFCFFFFFFFFCFFFF3FFFFB9
:10065000FFCFFFFFFFFCFFFF9A436263626B134310
:10066000636301F005FBF24801F002FBF14801F081
:10067000FFFAF14801F0FCFAF04801F0F9FAF0480D
:1006800001F0F6FAEF4801F095FAEF4801F092FA1E
:10069000EE4801F08FFAEE4801F08CFAED4801F0D7
:1006A00089FAED4801F086FA3F200823EB4AEC492D
:1006B0001060536008604B60802310689B051843EE
:1006C00010600A68E74813430B603121E64BE74AA4
:1006D00019605A60E64B19605A6001F0C9FA6B6BF9
:1006E0000C96DB0300D56FE201F01AFA0024E14911
:1006F00002F01CF83022E04BE04D1C606B680138C2
:1007000093431A00102313436B60322380B2A86313
:1007100001305843642102F009F88021D84B013898
:10072000A8651A68D748490302401A601A6811433D
:100730001960D54B1A6802401A608022196892032A
:100740000A431A600423D1490A681A430A60012245
:100750001100A140194207D02100160091438E409C
:100760003100286A014329620134062CF0D10423A8
:10077000C74C22681A4204D02C2122688A431343B2
:100780002360022300266360C24DC34B23606E606A
:1007900001F0DAFC0121C14B1A680A431A60C02239
:1007A0009203DE605A601961BFF36F8F0495009366
:1007B000009B1B69002BFBD10525009B9E683540E3
:1007C000042D21D11A681023C0271343009ABF03B8
:1007D0001360380001F098FE2122012300999E4306
:1007E000CA60009A35435760009A9560009A136179
:1007F000BFF36F8F009B1B69002BFBD1A022D2059A
:10080000916801330B4393600023009AD360F8236F
:10081000009A5B0253600123009A1361BFF36F8F4C
:10082000009B1A69002AFBD19B689D4DDBB22B709F
:10083000102B00D92A7001260021009B009A1B680A
:100840009848B3431360049B1822596001F05AFF83
:10085000322294463300944F944E95486246195C78
:10086000DA559A5D8900920152189249521811681E
:10087000914A99540133052BF0D180222E788F4D67
:100880008F4BD200002128001E7001F03BFF8D4BE2
:10089000A0221D608C4B00218C481D6001F032FFAE
:1008A000602200218A4801F02DFF300000F050FF47
:1008B0009022884DD2000021280001F023FFC0279C
:1008C0000123854E85483A005A439900AA188A5157
:1008D0000A508349834A595C9A5C89008C4692018C
:1008E0007449624452188049C95C01331160052B78
:1008F000E9D17E4D80220021280001F003FF7C4BCE
:1009000040221D607B4B00217B481D6001F0FAFEF8
:1009100000237A4AC0251370794A13708022794BDC
:10092000D2001A605A6018329A189A601A00183267
:10093000DA601A615A618723734ADB00D218734B5D
:10094000180019001D605D601830D8338B60C860D6
:10095000086148619A42F3D1C0220025520000216B
:100960006B4801F0CFFE062200216A4801F0CAFE62
:1009700040220021684801F0C5FE684B684E1D709A
:10098000684B80201D70684B2E491D70674B4A686C
:100990001E8011231A434A60654A40012A4F1060A5
:1009A000796819437960106028482D2741681943F8
:1009B0004160802126480902116041681943416065
:1009C0008021244849021160416819434160802117
:1009D000890211602049486803434B6080239B01D2
:1009E00013608023FA215B001360DB181360F93B6E
:1009F000FF3B1360183313604E4B8900186801F0F9
:100A000095FE4D4A01385060C0204C4900060B6AE3
:100A10001B021B0A03430B62072395601360FA2530
:100A20000D96FA26AD007600454B1A688AE0C0465E
:100A30001200000408000008090000080A0000086D
:100A40001100000400000540004015400040054032
:100A50000080054000801540000015400000014066
:100A600020000140100000080000114050C30000A9
:100A70002000114048E80100180004400000044034
:100A8000B0000440CFFFCFFFB4000440D8000440C2
:100A900000400040FC0000508205000000C00050F3
:100AA0004A01002040170020440100202A290000AC
:100AB0001829000000420050B80100200102002067
:100AC0004B010020240B0020040B002058170020AD
:100AD00058010020810600202C0B00200C0B002068
:100AE00024290000362900002A29000001060020E0
:100AF000280B0020080B00200301002043010020E8
:100B0000940D0020A8120020980D0020700E0020E7
:100B1000440B0020040D0020BE0100200002002034
:100B2000B80B0000FF010020FE0100205E1800202D
:100B300000E100E00000002010E000E000ED00E037
:100B4000900D0020AA4244D3FA229200AD18D44A54
:100B5000954200D068E71B68FA2102938900029849
:100B600001F06AFE002904D1F531FF31022001F0C5
:100B7000A1FCCC4ACC49136809688B4201D100F032
:100B800052FDCA49CA481D780818834200D2E1E1E3
:100B90001160C84AC84C11784B1CDBB26554591E11
:100BA0001370012903D002292BD000292CD1A52DA7
:100BB000DFD000231370DCE78020000301F08EF803
:100BC000EC683440FFF70EFB00F0D8FFBB4B186811
:100BD0008CE51A68BA4BEB189A4207D23100022012
:100BE00001F068FC3100032001F064FC01F0ACFA74
:100BF00001232268BA43134323600023049A5360FD
:100C000012E7062DD5D9B4E7A2789A42B1D82000D0
:100C100001F032F9A8420BD13221032001F04AFC45
:100C2000E378A22B00D190E006D8052B00D124E177
:100C30000022A04B1A709CE7B02B00D1A6E0E02B5D
:100C4000F6D1A37820000193073B9BB219000393D0
:100C500001F022F9A579002D00D108E1E379002BFC
:100C600000D104E1267A002E00D100E1637A954C90
:100C70000593C52323706370B53BE3700822093BDD
:100C800091499248019F2371657101F0EAFD904AF4
:100C90000B3F1378FFB20133DBB21370A373012350
:100CA000E3732374FF2D00D0D1E000236374FD2390
:100CB000A3740023E3746333B3429B415B42814DD1
:100CC0000633FB182B7501236B756B461B7DAB75CB
:100CD000632E00D8BDE005227E497F4801F0C1FDAA
:100CE0001C24754E3A00310028190A313C1901F0D4
:100CF000B8FDE11E89B2794801F066FC285501343F
:100D0000E4B2774F210077483C70AC7000F0D8FE19
:100D1000431E98413B78404204401C1B62426241A2
:100D200003993000941C01F0B7F8634D019B2C71BE
:100D3000591E280001F0A0F8019B0199EB18013B16
:100D40001870280001F0D0FB72E7A52162795D4C94
:100D5000634DE37001232170A521237108332B70AB
:100D60006170B12309216271A170A3710221A73BB7
:100D70002000E37101F090F82D7820006E1E310004
:100D800001F07AF8A05529002000DBE7A6782000C2
:100D9000073EF6B2310001F07FF8A579E179002D28
:100DA0001FD1FF2913D10139FF39042001F082FB43
:100DB00001233100A5782371200001F06DF8691E30
:100DC000200001F059F86319013B1870DBE7FA23A2
:100DD0009B0059430029E8D1434B1961434B1960EB
:100DE000E6E7AA23227A374CA8002370553B6370AC
:100DF0006B1EA3700023E3703D4B5B5D23710223E8
:100E000063713C4BC358180AA371E071180C1B0E98
:100E1000637220723C23002900D0C3330D27304E6B
:100E2000E17235480921A3723770227301F0CCFBBF
:100E30006073D8200A23102145433048E3734019DA
:100E40000233A7733170E37000F03AFEF0E6657488
:100E50002DE75B23EB751B332B760A21300001F065
:100E600065FC5D2330306876AB761B2439E72000C3
:100E7000039901F011F8012457E7A3782000073BFC
:100E8000DBB21900019301F007F8A2791C4B002A8C
:100E900038D11B78E3710123A578237101998BE781
:100EA00070170000040B0020240B0020010200201A
:100EB000FF03000043010020030100200000002088
:100EC00022FCFFFF171800205A2900001D180020DF
:100ED00016180020632900002E1800201A18002080
:100EE0008A0D0020A8120020401700204842005020
:100EF00010180020F81700201B180020980D002063
:100F00004A0100200125F827E6797F021E7001F0D2
:100F10001BF9009B009A1B6838002B43136001F0FB
:100F2000F3FA2123009AD360009B5F60009B9E60D0
:100F3000009B1D61BFF36F8FC34B19690029FCD162
:100F400001201A6882431A60C04B5960E07900F0B2
:100F5000FFFBA0E7013313601BE6053B1360002392
:100F6000BB4EBC4C3370230028331B78002B09D1B7
:100F700023004A331A88002A04D023004E331B78FA
:100F8000012B47D8230050331B78002B0AD12300B4
:100F900072331A88002A05D0230076331B78022585
:100FA000012B38D8AA4F3B78002B52D06421012066
:100FB00001F080FAA5213278A74C93B29E1C093328
:100FC00021706170FF2B00D8BFE00F210B40591E2C
:100FD0008B4110330221E170013921712000002181
:100FE0009E4DA3706171A17108309D492B70E27113
:100FF00001F037FC3100200000F04EFF2D7820007A
:101000006E1E310000F038FF2900A055200001F0CD
:101010006BFA3AE001252821694363185878AA2819
:1010200011D19878FF280ED1187990420BD15B79B5
:10103000022B08D1093A864B0731D2B26118884891
:101040001A7001F00EFC28235D43002364196384A9
:10105000A8E7844B1A002C321278002A73D144334B
:101060001B78002B0ED0022318255D432900042293
:101070007C4C0C3161187A48327001F0F2FB00238D
:10108000641923753B78002B90D1774D2B78052B75
:101090005DD9053B2B700C9B1868002809D101F025
:1010A00049FA012104000C4000D1A0E0872001F0A2
:1010B0004FFA01246D4EF3683269934226D06C4F8B
:1010C0003000390000F0D6FC021E1CD0694BA00095
:1010D000E55C694BAD01E35C39009B00ED18674BA3
:1010E000ED18674B1B5D2B60664BC05800F0AAFDE6
:1010F000654B1F68644B1B68DB1B012B00D896E017
:10110000624B1B5D2B60300000F0D4FE0134D836FA
:10111000052CD0D101275E4B5E4CC0334034039385
:10112000FBB20893039B5C4ABF330A93231D0793CA
:101130003B01D3180593230010330693083B099312
:10114000BB000193B7E001238EE7DBB242E7534CCB
:10115000E368226993429ED0514F2000390000F08D
:1011600089FC061E39D064232B7001F018FA012186
:10117000882001F0EDF90021882001F0E9F9310023
:10118000BE2001F0E5F90025EBB2B34229D30421DA
:10119000852001F0DDF90021862001F0D9F9002039
:1011A00001F0C8F9002001F0C5F90921872001F0FC
:1011B000CFF93C4B1D68002DFCD101F0F0F9022164
:1011C000882001F0C5F92900882001F0C1F901F05B
:1011D000D1F93221022001F06DF9200000F06AFE01
:1011E00059E7795DFF2001F0B3F90135CCE78307BA
:1011F00000D45EE7200001F09DF9FF2605002300E2
:10120000671C33409D420BDC0121872001F0A0F9CF
:10121000002D00D14DE73221022001F04BF948E7C3
:10122000002001F087F9204B18553C00E7E700F05B
:101230008BFF2D211D4A13688B432C390B43136000
:101240000023049A536055E700C00050FC00005092
:1012500002010020581700200A0D00208B0D0020ED
:10126000EC00002058010020940D0020700E00209A
:1012700000170020362900002429000000420050F9
:10128000542900003C290000900D00202A2900006C
:1012900081060020440B00208C000020A8120020B2
:1012A000C01600201C420050C40C0020004000402A
:1012B000AA2800D0F954BA4A019BBA4901989B5810
:1012C00041588B4200D1DAE10A991878994200D945
:1012D00081E0019B03999950B34BB44EFD5CB90179
:1012E0006A1CD2B27618511EFA547055012968D082
:1012F00003296CD00029DBD0E178C81C8242DADDFA
:1013000073189A780D2A59D1325C0A2A56D10339BA
:1013100089B207985D7801F057F985424ED13221A4
:10132000022001F0C7F8A27AA14B0199FA54E37B9D
:10133000A27B1B029B18627B1B029B18227B1B0259
:101340009B18E5789B4A0F3D8B509B4BEDB2FD54AB
:101350002A000699059801F084FAABB29A1C0B9208
:10136000A5222270A52209336270DEB2FF2B05D9B7
:101370000F2633405E1EB34110331E000223E3707C
:10138000013B23710023202263716B469B181B785D
:101390002A00A371E5710599A670099801F061FA18
:1013A0000B99200000F078FD711E2000651800F0F8
:1013B00063FD31002870200001F096F800227A4B7E
:1013C00003E0552800D176E70022FA5473E7062897
:1013D00000D970E7F8E7019901338B507CE76B4641
:1013E0009B8E7649138076483A0000F02BFC55E13D
:1013F0000021744A11700122C52B02D0532B03D156
:101400000B22714B1A704AE11522FF2BF9D01F22D3
:10141000FA2BF6D000232B7041E16B490A78012AA0
:1014200004D1C52BF6D1C33B0B7038E10B2A03D195
:10143000542BEFD1483BF7E7152A05D1FE2B01D1FC
:10144000D43BF1E71623EFE71F2AE3D1102BE1D1BC
:101450001033E9E75C490A78022A03D1594A13702C
:101460000323E1E70C2A03D1412BD3D1343BDBE743
:10147000162A01D11723D7E7202A03D1082BC9D177
:101480001933D1E72A2AC5D14E4A023313702B23D0
:10149000CAE74D480278032A02D104230370FEE014
:1014A0000D2A03D1542BB5D1463BF7E7172A0BD1B0
:1014B0006378A278E17853409942ABD10022017061
:1014C000012001F0A1F8A5E72223212AE6D02B2A4A
:1014D000A0D12C23E2E73C480178042907D1394BFD
:1014E0001B78934200D9DAE0E378037092E70E2983
:1014F00078D1A3185A1E12780A2A00D0CFE0023BF6
:101500001B780D2B00D0CAE03049200001F09AF979
:10151000002800D07EE726000A362D49300001F071
:10152000BFF9002812D12B49300001F0B9F9002889
:101530000CD12949300001F0B3F9002806D1274920
:10154000300001F0ADF9002800D163E72D21200023
:1015500001F090F9061E00D15CE701302D2101F069
:1015600089F9002800D155E7841BE3B2022B00D88B
:1015700050E7102200210EA801F0C4F818490EA867
:1015800001F086F93C400EAB22003100581D01F0FD
:1015900068F9621D0EA90A4800F054FB3AE7C046FC
:1015A0000C0B00202C0B0020040D0020440B00200D
:1015B00010180020F8170020FC000020EE28000082
:1015C0000000154000020020FE01002069290000F3
:1015D000F4280000FD280000042900000C29000068
:1015E000E8280000182900D114E7222908D10C2A84
:1015F00055D9FF2B53D1E3780370A27961795FE766
:101600002C2900D006E7434B1B78934247D86379D7
:10161000652B44D1E3780370E279A179022050E789
:1016200001320A6048E03C4A1368052B00D994E473
:1016300001213A4B3A4C13603A4AE1701388217108
:1016400001339BB21380A5220021374D22706270B6
:101650009C3AA27061712A7020001A0A0231A271AC
:10166000E37100F019FC2D7820006E1E310000F0AF
:1016700003FC2900A055200000F036FF6FE4039B17
:101680000137C03340340393052F00D048E5274A83
:101690001388052B00D8A2E6053B1380FF272449B9
:1016A000244B0A681B689A421CD023481378040014
:1016B0007F34A242B4D30860204D2A783F2A01D952
:1016C00000222A7029781E4C4A1CD2B2501E2A7061
:1016D0006354032800D9FEE601F01EF88AFE9FFE3F
:1016E000BCFEDBFE00F030FD2D2216490B68934353
:1016F0001A000123134300220B60134B5A60134A54
:10170000136802995B1A042BFAD90B000533FFF713
:1017100023FAC0460002002050010020307500006E
:101720004A0D00204C0100208C0D00205E18002086
:10173000080B0020280B002001060020FF010020DC
:10174000BE01002000400040FC000050900D002031
:101750000022F8B505002D260127A14BA14C1A60E7
:10176000013C002C00D0ECE0032000F0E3FE06007A
:10177000042000F0DFFEFF2E00D1E1E0FF2800D1C1
:10178000DEE0994B994E1C700723994A3570994DAC
:101790001370AA21053B8D202B7000F0D9FE20008C
:1017A00000F0C8FE944F442138808D2000F0D0FE18
:1017B000200000F0BFFE3880200000F0BBFE2000BB
:1017C00000F0B8FE8021872000F0C2FE2D278B4B51
:1017D0001C68012C00D1BFE0002000F0ABFE00200F
:1017E00000F0A8FE002000F0A5FE002000F0A2FE00
:1017F0000021852000F0ACFE0221862000F0A8FE2A
:101800000021892000F0A4FE0021D12000F0A0FEDC
:101810000B21D02000F09CFE5321F52000F098FE13
:10182000774C2B78F620E318D979367800F090FEC3
:101830002B78F720E318997B00F08AFE2B78FA20AA
:10184000E418617D00F084FE3100F92000F080FE94
:101850000021B22000F07CFE0221B32000F078FECF
:101860002D21B62000F074FED421B72000F070FEC8
:101870008821B02000F06CFE6321F12000F068FEAA
:101880001021B42000F064FE4221B52000F060FE7B
:10189000F5218B2000F05CFEF2218C2000F058FE38
:1018A00014218D2000F054FE1821514BED201B789F
:1018B0000E24194300F04CFE4B4A2B781278002A74
:1018C00055D15C434F4D9C20615D2C1900F040FECA
:1018D0006178A02000F03CFEA178A12000F038FE45
:1018E000E178A22000F034FE2179A32000F030FE40
:1018F0006179A42000F02CFEA179A52000F028FE3B
:10190000E179EE2000F024FE217AEF2000F020FEA5
:10191000617AF02000F01CFEA17AF22000F018FE9F
:10192000E17A9D2000F014FE217B9E2000F010FE45
:10193000617BAA2000F00CFE00F031FE00F01AFEE0
:10194000F8BD00F001FC304A1368B3433B43136019
:1019500000222E4B5A6003E700F0F6FB2A4A136878
:10196000BB431C4314600022284B5A602FE75C43A2
:10197000274D9C20615D2C1900F0EAFD6178A020C4
:1019800000F0E6FDA178A12000F0E2FDE178A220C0
:1019900000F0DEFD2179A32000F0DAFD6179A420BA
:1019A00000F0D6FDA179A52000F0D2FDE179EE206E
:1019B00000F0CEFD217AEF2000F0CAFD617AF02020
:1019C00000F0C6FDA17AF22000F0C2FDE17A9D2070
:1019D00000F0BEFD217B9E2000F0BAFD4121A8E76A
:1019E0000442005041420F005718002058180020B0
:1019F0005A180020591800205C1800201C42005082
:101A0000B2290000CE29000000400040FC00005038
:101A1000A4290000F0B585B06A46134B6C46E0CBB4
:101A2000E0C21B681360820AD2B2002A0AD086057F
:101A3000F60EB2400D4D03039B0F5B199B001D6812
:101A400095431D6003015B0F0CD08200C001C00EE6
:101A50008340920F9200A458054AA41822689A4322
:101A60001143216005B0F0BD742900008600001408
:101A700010020050F8B50269C36807000E001D7817
:101A800093421BD0402D19D86A1C8468591C9B189E
:101A9000A34201D302689B1A994205D22A00300062
:101AA00000F0DFFE2800F8BD641AE4B22200300026
:101AB00000F0D7FE30192A1B7969F1E70025F1E71C
:101AC000F8B5040062684B1C0E0000209A4218D939
:101AD00022691170501C2269A568D3182361AB429A
:101AE00002D322689B1A236163680B4F9B1B013B47
:101AF00063602369984205D23200390000F0B1FEDC
:101B00000120F8BD2D1AEDB22A00390000F0A9FE1F
:101B10006069721B7919F1E71718002070470000FF
:101B2000012307B5A02101AA1370DB18537093702D
:101B30000233D3700E4BC9021B6A00200B4213D133
:101B4000190312D40B4899030ED4D905C90D0231DB
:101B5000800848431904890F525C9904C90E023168
:101B6000514300F0E3FD80000EBD0348EBE7C046A3
:101B700000020050001BB7000080510110B5FFF7B4
:101B8000CFFF0721084A13690B40022B02D00749F7
:101B90009B0058580F2391691940013100F0C6FD90
:101BA000034B186010BDC04600020050302B0000EF
:101BB00000000020F0B585B06A461E4B05001033CA
:101BC00013CB13C21B686E4613601B4A0323546970
:101BD00097690022240E2A63EB601C40174AAB6809
:101BE0003F0513403F0FAB60012C02D1FFF798FF78
:101BF0000190A400791C305900F098FDE123E12107
:101C00001B0204004902C01800F090FD0C4B023882
:101C100098420BD9E123E1211B03E018490200F0AF
:101C200085FD00090238686205B0F0BDC0239B0540
:101C30001843F8E774290000000200500FFFF0FF7E
:101C4000FFFF000070B580258C186D05A14206D1FC
:101C5000100070BD013B002B03D11A00F8E7802370
:101C6000DB0586692E42F5D00B7801310360EDE784
:101C7000064A030E9B1801220002000A82401968DE
:101C800011431960196891431960704708000050AA
:101C9000F0B50023032601249C40214208D03500E2
:101CA0005F00BD400468AC431500BD402C43046098
:101CB0000133102BEFD1F0BD064B0749CA68024033
:101CC000904201D101207047013B002BF6D1180052
:101CD000F9E7C046814F1200000200508023F0B5A2
:101CE000484D5B022B6287B004000E002B68002871
:101CF00062D1012003432B60FFF7DEFF0223009334
:101D0000414B05940393414B414AF318934267D9E1
:101D1000404B414AF31893425AD80123760001936D
:101D2000002301271C0002937F420099039800F0D2
:101D3000FDFC3A4B3A4AC318934220D84300F21AAA
:101D40000492A4463A000224364F3749DF198F42E5
:101D50000BD8049F9E4200D29F1B974205D2002FB2
:101D600040D0009AA44602923A0004990134091A1C
:101D700004912E491B188C42E6D164461700009B43
:101D800001330093222BD0D1019B059A9B0313436F
:101D9000A21E1343029A0420023A520213432B62FA
:101DA000FFF78AFF019B0398591C029B594300F0DF
:101DB000BDFC604307B0F0BD04273B432B601020FF
:101DC000FFF77AFF80231B0305930097184B99E7D1
:101DD000184B194AF318934207D8B60003239EE71D
:101DE00000239CE7009B0293C9E7002C07D1134B0B
:101DF0002B620420FFF760FFFFF792FEDAE7104B3B
:101E0000F6E7C04600020050001BB700FF1E0AFAAA
:101E1000FFE0F5057F0F05FD7FF0FA02FF95E7FF74
:101E2000BE77CC00001F0AFA00E1F50502020000AF
:101E300000805101C08782FE40787D012EC20000E3
:101E40006FD608007FB569466A46094B203370CBD0
:101E500070C11B680B60830F9B009A58054BD2180A
:101E60001F2318401E3B834011680B4313607FBD46
:101E700074290000040200500200002330B5054D13
:101E8000141AA14201DC180030BD147801326340FD
:101E9000EB5CF5E7302A000010B52C24831D0531DA
:101EA00064421A1A914200DA10BD1A7862401A7020
:101EB0000133F6E70200C368116900208B420ED09F
:101EC0001978481C1B189068D360834202D31068AD
:101ED0001B1AD3600120536801335B1853607047AD
:101EE000094A30B58400A358084D1970C0235843DF
:101EF0000300A158BF335B19994202D34019A05087
:101F000030BD0131A150FBE72C0B002081060020E1
:101F10001300F0B5447AC23BFF3B002C00D16EE0C9
:101F20007E2B58D8037A002B07D0002300220260B2
:101F3000436000230372437208E004684568241973
:101F40006D41CB172B432143016043604268334C02
:101F5000D10D0368C905A1423CD1FF210F24550AC8
:101F60002D010D40110921404D19DE0F51000E4386
:101F700031002D01214049199F0E95012F43274023
:101F8000090179180D015E0DD1020E433100214087
:101F9000160449191D0C3543090125406D185605D5
:101FA000D90A920631439B092D0121401343491957
:101FB000234000250024090100225B180121046050
:101FC0004560C46802724172A032A34223D0C3604C
:101FD00002610175F0BDC13A7E2AA6D8037A002BB2
:101FE0000BD00468456824196D41CB172B4343601F
:101FF0000023214301600372A8E70123FBE77E2B46
:10200000A4D80268CB1711434268016013434360B0
:10201000047201238FE70261DCE7C046000080FF05
:10202000F0B5282444432F4AA35C012B1FD101287B
:1020300012D0022819D0282302214343D154002171
:10204000D3185C1D0633E177D97728235843002342
:1020500012180732D377F0BD234B1121596080212C
:102060001C68C90521431960E5E7204BF5E7022B01
:102070002AD1012803D002281ED000230AE08023A1
:102080001949DB050C6823430B60194B1B68591E6B
:102090008B41DBB2282545435419A71DF97F053430
:1020A0008B404E1CF6B2FE77E17F0B43E377072EA1
:1020B000CBD903235355C8E780230C49DB050C68B3
:1020C00023430B600B4BE1E7032BBED11319598C53
:1020D0004D1C5D8459180533DB7F4B700023A354DE
:1020E000B3E7C0465817002000000140200001401F
:1020F000DC420050D84200500021F0B50F4D0B00DB
:1021000008240127AC460E4A0E4E11605B0045B212
:10211000DBB2002D10DA3760654617602D6840008D
:10212000C0B2012D01D12B43DBB2013C1160002C68
:10213000ECD118001460F0BD3160EDE7884200502A
:10214000844200508C42005010B55921162088243A
:10215000044B5A68012A00D110BD596058605C6078
:10216000F7E7C046FC000050054B10B5DA69D20510
:1021700004D519680120C9B2FFF7B2FE10BDC046F0
:1021800000801540054B10B5DA69D20504D51968F1
:102190000320C9B2FFF7A4FE10BDC0460080054071
:1021A000054B10B5DA69D20504D519680220C9B209
:1021B000FFF796FE10BDC04600400540074BDA69A8
:1021C000D20508D5064A19681368197005498B426B
:1021D00002D3054B136070470133FBE70000154045
:1021E000280B002080060020010600200C4B10B5B3
:1021F000DA69D20508D50B4A1968136819700A49BB
:102200008B420BD3094B1360094BDA69D20504D515
:1022100019680420C9B2FFF763FE10BD0133F2E76D
:1022200000000540240B00200006002001020020D1
:10223000004015400122054B10B59968114203D0AA
:102240009A600220FFF7ECFE10BDC046200001405E
:102250000120044B10B59A68024202D09860FFF743
:10226000DFFE10BD0000014080232E4A5B00116A92
:1022700010B5194211D013622B492C4BDA68596002
:1022800080211868C90501431960294B294819683C
:102290004B425941FFF73CFE10BD4021264B186AC6
:1022A000084214D01962254B180050300278002AD9
:1022B00009D1234A3839516080211468C905214366
:1022C000116001220270763300221A70E4E7802147
:1022D000186A084212D01962184B18002830027888
:1022E000002A09D1174A7839516080211468C9053C
:1022F00021431160012202704E33E5E71249086A5A
:102300000C6A20430862196A186A014319620F4B6C
:10231000196A186A01431962136A116A0B4313623E
:10232000BAE7C0464041005050C3000020001140B1
:102330006043005088010020C04000505817002022
:10234000200001400000014080400050004100504A
:1023500080220A4B120210B509491A62094BDA6849
:10236000596080211868C90501431960064B074868
:1023700019684B425941FFF7CBFD10BD404000505A
:1023800050C30000000011407C420050700100204A
:102390003C4AF0B513683C49013313600023012225
:1023A0009C463A4C3A4D3B4E0F687B1ED81C02D8D7
:1023B000012F44D00B6001320431052AF4D10123EE
:1023C00032213548354C364DC25CE65C9201B60090
:1023D0009219344E921916685A191778F6B2944623
:1023E000314AB74237D1D1540133052BECD1002308
:1023F0001D002E4C1A1910004E300178012901D809
:102400000131017028321178002903D001780129A7
:1024100000D915702833502BECD1254B9A6A012A2C
:1024200024D800229A621A002C321278002A00D195
:102430005A621A6C012A1CD9013A1A64F0BD63462B
:10244000AF5C0B60A35CBF009B01DB19154FDB1970
:10245000B75C1F60AFE7D2181778012F02D9013F90
:102460001770C1E7117062461670BDE7013A9A62B3
:10247000DFE700221A641A0044321278002ADDD104
:10248000DA63DBE7900D00204417002030290000BC
:102490001E2900002A2900002A290000182900000E
:1024A000B8010020004200504401002058170020CD
:1024B00058010020074B8200D150074B074A1B5C94
:1024C000125C9B0192009B18054A9B18054A125CFE
:1024D0001A60704740170020302900001E290000B4
:1024E000004200505429000070B50D000400322154
:1024F0000320FFF7DFFF2A0021000248FFF7A2FBBD
:1025000070BDC046000005402222094BDA60213A26
:1025100058601A61BFF36F8F18690028FCD1402200
:102520001968114203D0196801380A431A607047CC
:1025300000C00050002310B5044C2360FFF7DCFD01
:10254000FF20FFF7D9FD0123236010BD804200501A
:10255000002370B50D00064C236080331843FFF74D
:10256000CBFD2800FFF7C8FD0123236070BDC046E6
:102570008042005010B502218520FFF7E9FF0021BD
:102580008620FFF7E5FF0020FFF7D4FF0020FFF7CC
:10259000D1FF87200521FFF7DBFF002010BD10B51C
:1025A00001218720FFF7D4FF00218520FFF7D0FF0E
:1025B00000218620FFF7CCFF0020FFF7BBFF0020A3
:1025C000FFF7B8FF002010BDF0B50300082600207B
:1025D000312701390B4A89B2914200D1F0BD1A78F6
:1025E0005040320044B2A44665464400E0B2002D9B
:1025F00001DA7C40E0B2013AD2B2002AF2D10133D2
:10260000E7E7C046FFFF000070B5124B124C90B0D8
:102610001C806C46A523237063700A246B466D46AC
:102620009C7003236E46EB70012535710025B07157
:10263000F1716846190032727571FFF72DFC09219E
:102640006846FFF719FC210070726846FFF74CFFDF
:1026500010B070BD5E180020B80B00000649074A94
:10266000074B9B1A03DD043BC858D050FBDCFFF737
:1026700055FAFDF755FD0000602B0000000000201A
:1026800070000020FEE7C046ABBE74469847204766
:10269000084B10B50400002B02D0002100E000BF61
:1026A000054B1868836A002B00D09847200000F083
:1026B00031F8C04600000000502B000070B5002625
:1026C0000C4D0D4C641BA410A64209D1002600F04D
:1026D000FFF80A4D0A4C641BA410A64205D170BD38
:1026E000B300EB5898470136EEE7B300EB58984734
:1026F0000136F2E76400002064000020640000203E
:102700006800002003008218934200D170471970BE
:102710000133F9E7FEE7C04603B4714649084000BB
:102720004900095E49008E4403BC704700224308FB
:102730008B4274D303098B425FD3030A8B4244D389
:10274000030B8B4228D3030C8B420DD3FF220902CB
:1027500012BA030C8B4202D31212090265D0030B8A
:102760008B4219D300E0090AC30B8B4201D3CB0380
:10277000C01A5241830B8B4201D38B03C01A5241C2
:10278000430B8B4201D34B03C01A5241030B8B42C4
:1027900001D30B03C01A5241C30A8B4201D3CB02AF
:1027A000C01A5241830A8B4201D38B02C01A524194
:1027B000430A8B4201D34B02C01A5241030A8B4297
:1027C00001D30B02C01A5241CDD2C3098B4201D3AF
:1027D000CB01C01A524183098B4201D38B01C01A2D
:1027E000524143098B4201D34B01C01A52410309A4
:1027F0008B4201D30B01C01A5241C3088B4201D353
:10280000CB00C01A524183088B4201D38B00C01AFF
:10281000524143088B4201D34B00C01A5241411A26
:1028200000D20146524110467047FFE701B5002033
:1028300000F006F802BDC0460029F7D076E77047E1
:102840007047C04630B50024A24201D1002005E007
:10285000035D651C0C5DA34201D0181B30BD2C002C
:10286000F2E7002310B59A4200D110BDCC5CC454ED
:102870000133F8E7C9B20378002B04D0994200D1A4
:1028800070470130F7E74B42594149420840F7E7AA
:10289000031C0A7801311A700133002AF9D17047FC
:1028A00010B502000078002804D1097800290DD065
:1028B00010BD013210780028FAD00023C85C00282F
:1028C00004D0D45C8442F4D10133F7E71000EFE781
:1028D000F8B5C046F8BC08BC9E467047F8B5C0467F
:1028E000F8BC08BC9E46704741543A4749004154E1
:1028F0003A47530054534745463033440042463428
:10290000303330004A58425F54544D004D454458CE
:10291000494E472D49525400000B0A03020000089B
:10292000090F0200000004080C0000000000000075
:102930000000000001000000000101000000000094
:1029400000801540004005400080054000401540D3
:1029500000000000000101010100464646464646CF
:102960004646005B7631305D00535441543A204E68
:10297000414D450000000000040000000C00000074
:1029800024000000001BB700000000000000000051
:102990000080510100000000040000002C00000035
:1029A000000000009A7140346E00084E792090407B
:1029B0000A410404040303020153535358565A6155
:1029C00040404040C040C0212121272D24001D410E
:1029D000602752000513A9203A400A201DA1204E6D
:1029E000A5000A27522048400A201ED0009D490019
:1029F000244EA52018400A2003D0009D49013D9D8A
:102A000049200F400A1E0368013A93027809D50055
:102A10001F400A20064501D7DC03B80EBF002E4038
:102A20000A2D8268013A9302781D7E005C400A50AC
:102A30002DC30FBAB178A9F2750A7549938DC7A64F
:102A4000C93C16F9AB4B29534080200FBC9741B1CC
:102A5000213D28C5F4176CD63C1AC330B6906040AF
:102A6000FD08840E7CA795A369D25166C0F5F65483
:102A7000DEBCC6C0394166B8FFB5D75E10487136B6
:102A8000FCDCB09C7996155EA2E1F491E69974FCA9
:102A90000EEC88E9D57937F23DE9F263797151BCE2
:102AA0009BAF56ADDDE80D9BAC9DEC8543E1502C12
:102AB0004678527F07CB820BC8E0C0D42F8D6B8B3A
:102AC000BA05E5E71F6936277B545B2AC4F1ABC022
:102AD0009246C9CFADE8AB0353D9DF082513FE0FEB
:102AE0004C68D5AAAD781EBB95E71CC09B9D98CFBE
:102AF0004D6C39A93EB0FBFE93AE698025F0A274FF
:102B00007C4C892B9D66E3695CEA7619520DAB9685
:102B10007127E56C9A2764AC5B75D9F566FEC7CB67
:102B2000D5D7FAD2CC36D4A4AAABF58903A112F337
:102B3000001BB7000000000080F0FA021027000020
:102B400000000000000000000000000000805101B3
:082B5000040000200000000059
:082B5800C8D5FF7F0100000059
:102B600080F0FA02000000000000000000000000F9
:102B70000000000000000000000000000000000055
:102B80000000000000000000000000000000000045
:102B90000000000000000000000000000000000035
:102BA0000000000000000000000000000000000025
:102BB0000000000000000000000000000000000015
:102BC00000000000E9000000C1000000000000005B
:040000030000265D76
:00000001FF
