:1000000000200020E52300000D2400000D24000046
:1000100000000000000000000000000000000000E0
:100020000000000000000000000000000D2400009F
:1000300000000000000000000D2400004921000025
:100040000D2400000D2400000D24000031210000CB
:100050000D240000992000000D2400000D24000054
:1000600085200000712000000D2400000D240000F8
:1000700029200000F91F00000D240000DD1F0000F2
:10008000C11F0000A51F00000D2400000D2400006A
:100090000D2400000D2400000D2400000D2400009C
:1000A0000D2400000D2400000D2400000D2400008C
:1000B0000D2400000D2400000D2400000D2400007C
:1000C00010B5064C2378002B07D1054B002B02D02E
:1000D000044800E000BF0123237010BD7000002021
:1000E00000000000E8280000084B10B5002B03D0EA
:1000F0000749084800E000BF07480368002B00D10B
:1001000010BD064B002BFBD09847F9E7000000001C
:1001100074000020E82800006C00002000000000AF
:10012000164B002B00D1144B9D46402292029A1A86
:10013000924600218B460F461348144A121A02F0C9
:10014000A5F90F4B002B00D098470E4B002B00D089
:1001500098470020002104000D000D48002802D01F
:100160000C4800E000BF02F06DF92000290000F00B
:1001700013F802F051F9C0460000080000200020EA
:10018000000000000000000070000020C0170020E8
:100190000000000000000000F0B593B001F0F2FE96
:1001A0000920FC4D10262B6803432B6001F0F0FC66
:1001B0000423EC682A68300013432B6001F0E8FC4C
:1001C00007232A69344013430F222B61AB69F2499C
:1001D0009343AB61EB68DB0701D400F01FFC002008
:1001E00001F0E8FC0426EF682B68102033432B60F5
:1001F00001F0CEFC07210F222B690B432B61AB6969
:1002000093431A0001231343AB6102232A698A43F3
:1002100013432B6101F01EFCFB0602D42B68B34391
:100220002B60002C03D104222B6893432B60AC205D
:10023000C00501F073FDD94801F070FDD84801F008
:100240006DFDD84801F06AFDD74801F067FDD74839
:1002500001F064FDD64801F061FDD64801F05EFD75
:10026000D54801F05BFDD54801F058FDAC200321D5
:10027000C00501F03BFBC021C848890401F036FBF2
:100280000021C74801F032FB8021C648890201F0F5
:100290002DFB8021C448890301F028FBC021C348FD
:1002A000890401F023FBC021C148890401F01EFB31
:1002B000C021C048890401F019FBC021BE4889044F
:1002C00001F014FBC021BD48890401F00FFB01F0CF
:1002D000C1FB802101228900B94801F045FC802141
:1002E00001224900B64801F03FFC802101220902A9
:1002F000B34801F039FC01220421B24801F034FC7A
:100300000022B14B04211A60B04BAD481A60B04BCB
:1003100001261A60AF4BA0241A60033201F024FCBE
:1003200003220821A64801F01FFC80210322C900F6
:10033000A34801F019FC802103220901A04801F023
:1003400013FCA54B03221E60A44B08211E60A44B86
:100350009C481E60A34BE4051E6001F005FCA24B07
:10036000A24F1E608023E26B1B041343E3638023D0
:10037000E26BDB0313433800E3630022802101F0CA
:10038000F3FBBB693800BB61FA69994B4021134309
:100390008022FB617B6913437B61002201F0E4FB57
:1003A000BB693100BB61FA69924B93481343FB610F
:1003B00040237A6913437B61032201F0D5FB0322BA
:1003C00002218D4801F0D0FB032204218A4801F06C
:1003D000CBFB03220821884801F0C6FB03228021C1
:1003E000774801F0C1FB03220221754801F0BCFBF4
:1003F0000022824B824F1E60824B3E601E60824B09
:1004000031001E60814B6E481A60814B1A603200C9
:1004100001F0AAFB32001021694801F0A5FB802100
:1004200032004900674801F09FFB802132004901FA
:10043000644801F099FB0022764B77481A60774BAD
:100440001A60774B1A60774B1A600323626B9A43EA
:100450006263626B13436363236B734A13402363CA
:100460008023226BDB0113432363636B6F4A1340CA
:1004700080226363636B120213436363236D6C4AD0
:10048000134004222365236D2365E36D9343E365E5
:10049000E36D684AE365236E13402366236E664A64
:1004A0002366E36B1340E363C023E26B1B02134339
:1004B000E363236E614A13402366236E2366602341
:1004C000226B9A432263226B134323633023626EB1
:1004D0009A436266626E1A436266C022A16B9143C0
:1004E000A163A16B0A43A263226E55490A402266AA
:1004F000226E54492266626E0A406266626E5249FA
:100500006266226B0A402263C022216B92010A4379
:100510002263626E4D490A406266C022616E92009B
:100520000A436266626B9A436263626B134363635E
:1005300001F00AFB464801F007FB464801F004FBC6
:10054000454801F001FB454801F0FEFA444801F03E
:10055000FBFA444801F09AFA434801F097FA4348FD
:1005600001F094FA424801F091FA424801F08EFA03
:10057000414801F08BFA3121404B414A19605A60E1
:10058000404B414819605A6001F0DEFA6B6B0C97E2
:100590007CE0C0460002005000E1F505103D8057A8
:1005A000100000B30400005F0500405F123D80575B
:1005B000083D8097093D80970A3D8097113D8057FF
:1005C0000040005040400050484200503C42005023
:1005D00024420050204200502C420050284200503B
:1005E0000C420050084200504C420050C0400050A5
:1005F00080008000400040008040005004420050D5
:100600001C42005088420050804200508C420050F2
:1006100084420050704200501000000460420050BC
:100620001042005000420050FFBFFFFFFF7FFFFF5E
:10063000FFFFFFFEFFFF7FFFFF3FFFFFFFFFFCFF0E
:10064000FFFFFFCFFFF3FFFFFFCFFFFFFFFCFFFF29
:100650001200000408000008090000080A00000851
:100660001100000400000540004015400040054016
:10067000008005400080154000001540000011403A
:1006800050C300002000114010000008DB0300D51B
:10069000CCE101F0B1F90024E74901F00BFF302271
:1006A000E64BE74D1C606B68013893431A0010233A
:1006B00013436B60322380B2A86301305843642136
:1006C00001F0F8FE8021DF4B0138A8651A68DE488A
:1006D000490302401A601A6811431960DB4B1A681B
:1006E00002401A608022196892030A431A600423A8
:1006F000D7490A681A430A6001221100A140194231
:1007000007D02100160091438E403100286A014332
:1007100029620134062CF0D10423CE4C22681A42FF
:1007200004D02C2122688A4313432360022300262D
:100730006360C94DC94BCA4F23606E6001F022FC53
:1007400001213A680A433A60C0229203FE607A604F
:100750003961BFF36F8F04953B69002BFCD10525F0
:10076000BE683540042D1CD1C0203A6810331343B5
:100770003B60800301F08CFD21220123FA60C0223E
:100780009E43354392037A60BD603B61BFF36F8F38
:100790003B69002BFCD1A022D205916801330B43A9
:1007A00093600023FB60F8235B027B6001233B61C5
:1007B000BFF36F8F3A69002AFCD1BB68A94DDBB249
:1007C0002B70102B00D92A70012600213B681822BB
:1007D000B3433B60049BA448596001F057FE3222AA
:1007E00094463300A148A24E6146A24A99549A5DAC
:1007F000195C9201890052189F49521811689F4A4A
:1008000099540133062BEFD180222E789C4D9D4BBD
:10081000D200002128001E7001F038FE9A4B6022A1
:100820001D609A4B00219A481D6001F02FFE300098
:1008300000F0FAFE9022974DD2000021280001F02E
:1008400025FE0123944E9548C0225A439900AA18C8
:100850008A510A509249934A595C9A5C89008C46A5
:1008600092018549624452188F49C95C0133116075
:10087000052BE9D18D4D80220021280001F006FED4
:100880008B4B40221D608B4B00218B481D6001F07B
:10089000FDFD0023894AC0251370894A1370802208
:1008A000884BD2001A605A6018329A189A601A005F
:1008B0001832DA601A615A618723834ADB00D21842
:1008C000824B180019001D605D601830D8338B60B2
:1008D000C860086148619A42F3D1C02200255200E5
:1008E00000217B4801F0D2FD06220021794801F069
:1008F000CDFD40220021784801F0C8FD774B784EAD
:100900001D70784B78491D70784B1D70784B4A6884
:100910001E8011231A434A608021764A49011160E2
:1009200075498C4660464968194341608021734887
:1009300049011160416819434160802170480902F2
:10094000116041681943416080216E48490211607D
:100950004168194341608021890211606A494868F1
:1009600003434B6080239B0113602023FA21136013
:10097000664B8900186801F09DFD654A013850609A
:10098000C020644900060B6A1B021B0A03430B626A
:10099000072395601360FA250D96FA26AD007600C0
:1009A0005D4B1A68AA4200D2BCE0FA229200AD1850
:1009B0005A4A9542F4D11B68FA21019389000198A3
:1009C00001F0FEFD002904D1F531FF31022001F0D4
:1009D00035FC2E4A2C49136809688B4201D100F07E
:1009E00086FD27494E481D780818834200D22BE225
:1009F0001160324A304C11784B1CDBB26554591EE1
:100A00001370012905D0022900D1A4E0002900D0EB
:100A1000A5E0A52DDDD000231370DAE780200003C8
:100A200001F0C8F8EC683440FFF7DCFB01F012F885
:100A3000364B18682FE6C04648E80100180004400D
:100A400000000440B0000440CFFFCFFFB4000440DA
:100A5000D800044000400040FC0000508205000027
:100A600000C000504B01002040170020A0260000CD
:100A7000B32600004401002000420050B8010020CD
:100A8000020200204C010020240B0020040B002057
:100A900058010020820600202C0B00200C0B0020A7
:100AA000AD260000C0260000E0260000020600205F
:100AB000280B0020080B0020030100204301002028
:100AC000940D0020A8120020980D0020700E002028
:100AD000440B0020040D0020BF0100200102002073
:100AE000B80B00000002002000000540FF010020BC
:100AF000BE17002000E100E0004015400040054026
:100B000000800540008015400000154000000020D6
:100B100010E000E000ED00E0900D002070170000F4
:100B2000FF0300001A68CA4BEB189A4207D2310043
:100B3000022001F083FB3100032001F07FFB01F074
:100B400021FA2D2322689A432C3B13432360002370
:100B5000049A536024E7062D00D85CE739E7A278B1
:100B60009A4200D935E7200001F0F2F8A8420BD1F3
:100B70003221032001F062FBE378A22B00D194E044
:100B800006D8052B00D129E10022B24B1A7020E7CC
:100B9000B02B00D1AAE0E02BF6D1A378200000937F
:100BA000073B9BB21900029301F0E2F8A579002DF2
:100BB00000D10DE1E379002B00D109E1267A002E66
:100BC00000D105E1637AA44C0593009B08220B3BFE
:100BD000DBB20393C52323706370B53BE3709F4979
:100BE000093B9F482371657101F0FFFC9D4A137812
:100BF0000133DBB21370A3730123E3732374FF2D5E
:100C000000D0D5E000236374FD23A3740023E374B4
:100C10006333B3429B41039A5B428F4D0633D31833
:100C20002B7501236B756B461B7DAB75632E00D84E
:100C3000C0E005228C498D4801F0D7FC1C248C4E65
:100C4000039A310028190A3101F0CFFC039B89482F
:100C50001C19E11E89B201F07BFB28550134E4B276
:100C6000854B210085481C70AC7000F095FE431E3A
:100C70009841814B40421B7804401C1B62426241F8
:100C800002993000941C01F073F8794D009B2C718F
:100C9000591E280001F05CF8009B0099EB18013BFD
:100CA0001870280001F0E4FA6EE7A52162796A4C19
:100CB000714DE37001232170A521237108332B703E
:100CC0006170B12309216271A170A3710221A53B5A
:100CD0002000E37101F04CF82D7820006E1E3100E9
:100CE00001F036F8A05529002000DBE7A6782000A7
:100CF000073EF6B2310001F03BF8A579E179002D0D
:100D00001FD1FF2913D10139FF39042001F096FAD0
:100D100001233100A5782371200001F029F8691E14
:100D2000200001F015F86319013B1870DBE7FA2386
:100D30009B0059430029E8D1514B1961514B19606F
:100D4000E6E7AA23227A444CA8002370553B63703F
:100D50006B1EA3700023E3704B4B5B5D237102237A
:100D600063714A4BC358180AA371E071180C1B0E2B
:100D7000637220723C23002900D0C333A3720D2379
:100D80003D4EE172424809213370227301F0E0FACE
:100D90000D236073D820A3730A23102145433D48D7
:100DA000E373401902333170E37000F0F5FDEBE6B8
:100DB000657429E75B23EB751B332B760A21300022
:100DC00001F078FB5D2330306876AB761B2436E784
:100DD0002000029900F0CCFF012456E7A378200000
:100DE000073BDBB21900009300F0C2FFA2792A4B47
:100DF000002A06D11B78E3710123A578237100999D
:100E00008AE7E67901251E7001F0BCF8F8203B68FE
:100E100040022B433B6001F03BFA2123FB60F823A7
:100E20005B027B60BE603D61BFF36F8F1B4B196936
:100E30000029FCD101201A6882431A60184B5960BE
:100E4000E07900F0F1FBD7E701331360D1E5C0464C
:100E500022FCFFFF4301002077170020EC26000052
:100E60007D17002076170020F52600008E17002041
:100E7000030100207A1700208A0D0020A81200200C
:100E800040170020484200507017002058170020DB
:100E90007B170020980D00204B01002000C000505F
:100EA000FC000050053B13600023994D994C2B70BA
:100EB00023002C331B78002B00D0A8E02300443300
:100EC0001B78002B0DD0022318265E43310004222C
:100ED0000C31611890482A7001F087FB0023A41997
:100EE00023752B78002B33D06421012001F0A6F963
:100EF000A5212A78894C93B29E1C09332170617018
:100F0000D9B2FF2B05D90F210B40591E8B4110334D
:100F100019000223E370013B237120000023804D60
:100F200063712970A17008307B49A371E27101F0EF
:100F30005CFB3100200000F01BFF2D7820006E1EAE
:100F4000310000F005FF2900A055200001F090F9C4
:100F5000744D2B78052B5CD9053B2B700C9B1868C6
:100F6000002809D101F0AAF9012104000C4000D1A8
:100F70009FE0872001F0B0F901246B4EF3683269DD
:100F8000934227D06949300000F0E0FC021E1ED0D9
:100F9000674BA000E55C674BAD01E35C63499B00D8
:100FA000ED18654BED18654B1B5D2B60644BC0580D
:100FB00000F0B4FD634B1B680093624B009A1B6802
:100FC0009B1A012B00D895E05F4B1B5D2B60300016
:100FD00000F0DCFE0134D836052CCFD101265B4B66
:100FE0005B4CC03340340393F3B20793039B594ADD
:100FF000BF330A93231D08933301D31805932300AD
:1010000010330693083B0993B3000093B1E001232A
:101010005AE7514CE368226993429FD04F49200020
:1010200000F094FC061E39D064232B7001F07BF98C
:101030000121882001F050F90021882001F04CF9AD
:101040003100BE2001F048F90025EBB2B34229D3AC
:101050000421852001F040F90021862001F03CF9AF
:10106000002001F02BF9002001F028F90921872048
:1010700001F032F93A4B1D68002DFCD101F053F913
:101080000221882001F028F92900882001F024F9A4
:1010900001F034F93221022001F0D0F8200000F0F4
:1010A00075FE5BE72D4BFF20595D01F015F9013509
:1010B000CBE7830700D45FE7200001F0FFF8FF26AD
:1010C0000500631C0093230033409D420BDC01218B
:1010D000872001F001F9002D00D14DE732210220D7
:1010E00001F0ACF848E7002001F0E8F81D4B185576
:1010F000009CE6E700F046FF2D211B4A13688B4356
:101100002C390B4313600023049A536055E7C04603
:101110000201002058010020EC0000200A0D0020F0
:101120008B0D0020940D0020700E00200017002071
:10113000C0260000AD26000000420050E626000058
:10114000C8260000900D0020E02600008206002046
:10115000440B00208C000020A8120020C0160020A4
:101160001C420050C40C002000400040AA2800D0BF
:10117000F154BD4A009BBD4900989B5841588B4291
:1011800000D1E0E10A991878994200D987E0009BE4
:1011900003999950B649B74B8C46F55CB1016A1C6E
:1011A0006144D2B28C464855511EF25401296CD08C
:1011B000032970D00029D9D0E178C81C8242D8DD3B
:1011C00063465B189A780D2A5CD16246125C0A2A43
:1011D00058D1033989B208985D7801F0B9F8854291
:1011E00050D13221022001F029F8A27AA24B0099B5
:1011F000F254E37BA27B1B029B18627B1B029B18B1
:10120000227B1B029B18E5789C4A0F3D8B509C4B20
:10121000EDB2F5542A000699059801F0E6F9ABB253
:101220009A1C0B92A5222270A52209336270DAB2B1
:101230000292FF2B05D90F2213405A1E93411033FF
:1012400002936B461B7A2A00A3700223E370013BD2
:101250002371002363716B461B7FE571A3710599B0
:10126000099801F0C2F90B99200000F081FD029B62
:101270002000591E651800F06BFD029928702000AF
:1012800000F0F6FF00227B4B03E0552800D170E709
:101290000022F2546DE7062800D96AE7F8E70099C2
:1012A00001338B5076E76B469B8E764913807648E8
:1012B000320000F033FC55E10021744A1170012224
:1012C000C52B02D0532B03D10B22714B1A7049E16D
:1012D0001522FF2BF9D01F22FA2BF6D000232B70FA
:1012E00040E16B490A78012A04D1C52BF6D1C33BF2
:1012F0000B7037E10B2A03D1542BEFD1483BF7E7B2
:10130000152A05D1FE2B01D1D43BF1E71623EFE7D7
:101310001F2AE3D1102BE1D11033E9E75C490A78A9
:10132000022A03D1594A13700323E1E70C2A03D19F
:10133000412BD3D1343BDBE7162A01D11723D7E762
:10134000202A03D1082BC9D11933D1E72A2AC5D1C4
:101350004E4A023313702B23CAE74D480278032A02
:1013600002D104230370FDE00D2A03D1542BB5D123
:10137000463BF7E7172A0BD16378A278E178534010
:101380009942ABD100220170012001F001F8A5E7DC
:101390002223212AE6D02B2AA0D12C23E2E73C48A5
:1013A0000178042907D1394B1B78934200D9D9E041
:1013B000E378037092E70E2978D1A3185A1E1278A9
:1013C0000A2A00D0CEE0023B1B780D2B00D0C9E0EA
:1013D0003049200001F0FAF8002800D07EE726000E
:1013E0000A362D49300001F01FF9002812D12B498F
:1013F000300001F019F900280CD12949300001F022
:1014000013F9002806D12749300001F00DF9002812
:1014100000D163E72D21200001F0F0F8061E00D175
:101420005CE701302D2101F0E9F8002800D155E7F3
:10143000841BE3B2022B00D850E7102200210EA833
:1014400001F024F818490EA801F0E6F8FF231C402B
:101450000EAB22003100581D01F0C7F8621D0EA925
:10146000094800F05BFB39E70C0B00202C0B002037
:10147000440B0020040D0020701700205817002096
:10148000FC0000207626000000001540010200202C
:10149000FF010020FB2600007C26000085260000BE
:1014A0008C2600009426000070260000182900D128
:1014B00014E7222908D10C2A54D9FF2B52D1E37802
:1014C0000370A27961795FE72C2900D006E7464BCB
:1014D0001B78934246D86379652B43D1E378037038
:1014E000E279A179022050E701320A6047E03F4AE1
:1014F0001368052B00D9D5E401213D4B3D4C136009
:101500003D4AE1701388217101339BB21380A522FB
:1015100000213A4D227062709C3AA27061712A706B
:1015200020001A0A0231A271E37100F021FC2D782B
:1015300020006E1E310000F00BFC2900A055200099
:1015400000F096FEB0E4039B0136C03340340393B1
:10155000052E00D048E52A4A1388052B00D8A2E6BC
:10156000053B13802749284B0A681B689A421CD008
:101570002648137804007F34A242B5D30860244D76
:101580002A783F2A01D900222A702978214C4A1C46
:10159000D2B2501E2A706354032800D9FFE600F02F
:1015A0007FFF8BFEA0FEBDFEDCFE1B4B5B79002B9C
:1015B00003D16421042000F041FE00F0E3FC2D2261
:1015C00016490B6893431A000123134300220B6052
:1015D000134B5A60134A136801995B1A042BFAD90A
:1015E0000B000533FFF7E8F901020020500100204D
:1015F000307500004A0D00204E0100208C0D0020A7
:10160000BE170020080B0020280B00200206002037
:1016100000020020BF010020B8010020004000406F
:10162000FC000050900D00200022F8B505002D268A
:101630000127A14BA14C1A60013C002C00D0ECE02A
:10164000032000F03BFE0600042000F037FEFF2ED2
:1016500000D1E1E0FF2800D1DEE0994B994E1C70EB
:101660000723994A3570994D1370AA21053B8D20A7
:101670002B7000F031FE200000F020FE944F44213A
:1016800038808D2000F028FE200000F017FE388002
:10169000200000F013FE200000F010FE80218720C3
:1016A00000F01AFE2D278B4B1C68012C00D1BFE0E7
:1016B000002000F003FE002000F000FE002000F0FB
:1016C000FDFD002000F0FAFD0021852000F004FE61
:1016D0000221862000F000FE0021892000F0FCFDA0
:1016E0000021D12000F0F8FD0B21D02000F0F4FD06
:1016F0005321F52000F0F0FD774C2B78F620E3180D
:10170000D979367800F0E8FD2B78F720E318997B3B
:1017100000F0E2FD2B78FA20E418617D00F0DCFD9A
:101720003100F92000F0D8FD0021B22000F0D4FDF6
:101730000221B32000F0D0FD2D21B62000F0CCFD19
:10174000D421B72000F0C8FD8821B02000F0C4FDEE
:101750006321F12000F0C0FD1021B42000F0BCFD99
:101760004221B52000F0B8FDF5218B2000F0B4FD3A
:10177000F2218C2000F0B0FD14218D2000F0ACFD92
:101780001821514BED201B780E24194300F0A4FDC5
:101790004B4A2B781278002A55D15C434F4D9C2040
:1017A000615D2C1900F098FD6178A02000F094FD97
:1017B000A178A12000F090FDE178A22000F08CFD3E
:1017C0002179A32000F088FD6179A42000F084FD38
:1017D000A179A52000F080FDE179EE2000F07CFDEC
:1017E000217AEF2000F078FD617AF02000F074FD9E
:1017F000A17AF22000F070FDE17A9D2000F06CFDEE
:10180000217B9E2000F068FD617BAA2000F064FD32
:1018100000F089FD00F072FDF8BD00F0B3FB304A26
:101820001368B3433B43136000222E4B5A6003E717
:1018300000F0A8FB2A4A1368BB431C431460002233
:10184000284B5A602FE75C43274D9C20615D2C1983
:1018500000F042FD6178A02000F03EFDA178A120BB
:1018600000F03AFDE178A22000F036FD2179A320B6
:1018700000F032FD6179A42000F02EFDA179A520B1
:1018800000F02AFDE179EE2000F026FD217AEF201C
:1018900000F022FD617AF02000F01EFDA17AF22016
:1018A00000F01AFDE17A9D2000F016FD217B9E20BC
:1018B00000F012FD4121A8E70442005041420F0010
:1018C000B7170020B8170020BA170020B91700205A
:1018D000BC1700201C420050462700006227000071
:1018E00000400040FC00005038270000F0B585B0F3
:1018F0006A46134B6C46E0CBE0C21B681360820A59
:10190000D2B2002A0AD08605F60EB2400D4D03036E
:101910009B0F5B199B001D6895431D6003015B0FC6
:101920000CD08200C001C00E8340920F9200A458D8
:10193000054AA41822689A431143216005B0F0BDFE
:10194000082700008600001410020050F8B5026954
:10195000C36807000E001D7893421BD0402D19D894
:101960006A1C8468591C9B18A34201D302689B1A05
:10197000994205D22A00300000F037FE2800F8BD59
:10198000641AE4B22200300000F02FFE30192A1B46
:101990007969F1E70025F1E7F8B5040062684B1CAE
:1019A0000E0000209A4218D922691170501C226939
:1019B000A568D3182361AB4202D322689B1A236126
:1019C00063680B4F9B1B013B63602369984205D200
:1019D0003200390000F009FE0120F8BD2D1AEDB2E9
:1019E0002A00390000F001FE6069721B7919F1E7E5
:1019F0007717002070470000012307B5A02101AA36
:101A00001370DB18537093700233D3700E4BC902FE
:101A10001B6A00200B4213D1190312D40B489903FF
:101A20000ED4D905C90D0231800848431904890F25
:101A3000525C9904C90E0231514300F03BFD800015
:101A40000EBD0348EBE7C04600020050001BB70084
:101A50000080510110B5FFF7CFFF0721084A136935
:101A60000B40022B02D007499B0058580F23916965
:101A70001940013100F01EFD034B186010BDC04637
:101A800000020050C428000000000020F0B585B01E
:101A90006A461E4B0500103313CB13C21B686E46FB
:101AA00013601B4A0323546997690022240E2A639A
:101AB000EB601C40174AAB683F0513403F0FAB601B
:101AC000012C02D1FFF798FF0190A400791C305936
:101AD00000F0F0FCE123E1211B0204004902C018E0
:101AE00000F0E8FC0C4B023898420BD9E123E121CD
:101AF0001B03E018490200F0DDFC000902386862AF
:101B000005B0F0BDC0239B051843F8E70827000087
:101B1000000200500FFFF0FFFFFF000070B58025AE
:101B20008C186D05A14206D1100070BD013B002B41
:101B300003D11A00F8E78023DB0586692E42F5D031
:101B40000B7801310360EDE7064A030E9B18012272
:101B50000002000A82401968114319601968914314
:101B60001960704708000050F0B5002303260124D7
:101B70009C40214208D035005F00BD400468AC4362
:101B80001500BD402C4304600133102BEFD1F0BD94
:101B9000064B0749CA680240904201D101207047B4
:101BA000013B002BF6D11800F9E7C046814F120027
:101BB000000200508023F0B5484D5B022B6287B0D5
:101BC00004000E002B68002862D1012003432B6023
:101BD000FFF7DEFF02230093414B05940393414B33
:101BE000414AF318934267D9404B414AF318934254
:101BF0005AD8012376000193002301271C00029389
:101C00007F420099039800F055FC3A4B3A4AC318BA
:101C1000934220D84300F21A0492A4463A000224C8
:101C2000364F3749DF198F420BD8049F9E4200D2AE
:101C30009F1B974205D2002F40D0009AA4460292E3
:101C40003A0004990134091A04912E491B188C4258
:101C5000E6D164461700009B01330093222BD0D1BC
:101C6000019B059A9B031343A21E1343029A04206F
:101C7000023A520213432B62FFF78AFF019B03983B
:101C8000591C029B594300F015FC604307B0F0BD9E
:101C900004273B432B601020FFF77AFF80231B03B0
:101CA00005930097184B99E7184B194AF31893427C
:101CB00007D8B60003239EE700239CE7009B02930E
:101CC000C9E7002C07D1134B2B620420FFF760FFFC
:101CD000FFF792FEDAE7104BF6E7C046000200502D
:101CE000001BB700FF1E0AFAFFE0F5057F0F05FD98
:101CF0007FF0FA02FF95E7FFBE77CC00001F0AFADB
:101D000000E1F5050202000000805101C08782FE5B
:101D100040787D012EC200006FD608007FB569466D
:101D20006A46094B203370CB70C11B680B60830F70
:101D30009B009A58054BD2181F2318401E3B834026
:101D400011680B4313607FBD082700000402005098
:101D50000200002330B5054D141AA14201DC180021
:101D600030BD147801326340EB5CF5E7C427000016
:101D700010B52C24831D053164421A1A914200DAF1
:101D800010BD1A7862401A700133F6E70200C3688A
:101D9000116900208B420ED01978481C1B189068DE
:101DA000D360834202D310681B1AD36001205368AA
:101DB00001335B1853607047094A30B58400A3585B
:101DC000084D1970C02358430300A158BF335B1955
:101DD000994202D34019A05030BD0131A150FBE718
:101DE0002C0B0020820600201300F0B5447AC23B81
:101DF000FF3B002C00D16EE07E2B58D8037A002BDD
:101E000007D0002300220260436000230372437264
:101E100008E00468456824196D41CB172B43214322
:101E2000016043604268334CD10D0368C905A1428B
:101E30003CD1FF210F24550A2D010D4011092140ED
:101E40004D19DE0F51000E4331002D01214049197B
:101E50009F0E95012F432740090179180D015E0D52
:101E6000D1020E4331002140160449191D0C35439F
:101E7000090125406D185605D90A920631439B0980
:101E80002D01214013434919234000250024090155
:101E900000225B18012104604560C468027241722F
:101EA000A032A34223D0C36002610175F0BDC13AE4
:101EB0007E2AA6D8037A002B0BD004684568241923
:101EC0006D41CB172B434360002321430160037214
:101ED000A8E70123FBE77E2BA4D80268CB171143A8
:101EE0004268016013434360047201238FE702617B
:101EF000DCE7C046000080FF0A4B0B49DA6810B5EA
:101F00005960802104001868C90501431820196030
:101F1000064B604319684B425941054BC018FFF707
:101F200063FF10BD0000114050C30000DC420050B0
:101F3000580100200021F0B50F4D0B0008240127A7
:101F4000AC460E4A0E4E11605B0045B2DBB2002D6E
:101F500010DA3760654617602D684000C0B2012D69
:101F600001D12B43DBB2013C1160002CECD11800F5
:101F70001460F0BD3160EDE78842005084420050AB
:101F80008C42005010B5592116208824044B5A6801
:101F9000012A00D110BD596058605C60F7E7C04667
:101FA000FC000050054B10B5DA69D20504D519685C
:101FB0000120C9B2FFF700FF10BDC04600801540E8
:101FC000054B10B5DA69D20504D519680320C9B2EA
:101FD000FFF7F2FE10BDC04600800540054B10B56E
:101FE000DA69D20504D519680220C9B2FFF7E4FE08
:101FF00010BDC04600400540074BDA69D20508D540
:10200000064A19681368197005498B4202D3054BBB
:10201000136070470133FBE700001540280B0020D8
:1020200081060020020600200C4B10B5DA69D205AB
:1020300008D50B4A1968136819700A498B420BD3EB
:10204000094B1360094BDA69D20504D519680420DD
:10205000C9B2FFF7B1FE10BD0133F2E70000054041
:10206000240B002001060020020200200040154041
:102070000122034B9968114200D09A607047C04614
:10208000200001400122034B9968114200D09A6060
:102090007047C0460000014080231D4A5B00116A62
:1020A00010B5194211D013621A4B1B49DA685960F6
:1020B00080211868C90501431960184B1848196830
:1020C0004B425941FFF790FE10BD4021154B186A55
:1020D000084201D01962E7E78021186A084204D05B
:1020E00019620120FFF708FFEEE70F49086A0C6A42
:1020F00020430862196A186A014319620B4B196A76
:10210000186A01431962136A116A0B431362DBE711
:10211000404100502000114050C30000D842005000
:1021200088010020C0400050804000500041005015
:10213000802210B5034B12021A620120FFF7DCFE69
:1021400010BDC04640400050314AF0B513683149D7
:1021500001331360002301229C462F4C2F4D304E3B
:102160000F687B1ED81C02D8012F2ED00B600132C5
:102170000431052AF4D1012332212A482A4C2B4D5F
:10218000C25CE65C9201B6009219294E921916685B
:102190005A191778F6B29446264AB74221D1D1543B
:1021A0000133062BECD1244B9A6A012A24D8002251
:1021B0009A621A002C321278002A00D15A621A6CE4
:1021C000012A1CD9013A1A64F0BD6346AF5C0B606A
:1021D000A35CBF009B01DB19154FDB19B75C1F60C7
:1021E000C5E7D2181778012F02D9013F1770D7E73A
:1021F000117062461670D3E7013A9A62DFE7002257
:102200001A641A0044321278002ADDD1DA63DBE75F
:10221000900D002044170020BA260000A7260000D9
:10222000E0260000B3260000A0260000B801002030
:10223000004200504401002058010020074B82005A
:10224000D150074B074A1B5C125C9B0192009B1804
:10225000054A9B18054A125C1A6070474017002017
:10226000BA260000A726000000420050E626000023
:1022700070B50D00040032210320FFF7DFFF2A00B4
:1022800021000248FFF74AFC70BDC046000005402F
:102290002222094BDA60213A58601A61BFF36F8F2E
:1022A00018690028FCD140221968114203D019682E
:1022B00001380A431A60704700C00050002310B56F
:1022C000044C2360FFF736FEFF20FFF733FE0123A7
:1022D000236010BD80420050002370B50D00064CF5
:1022E000236080331843FFF725FE2800FFF722FE06
:1022F0000123236070BDC0468042005010B502210A
:102300008520FFF7E9FF00218620FFF7E5FF002089
:10231000FFF7D4FF0020FFF7D1FF87200521FFF74B
:10232000DBFF002010BD10B501218720FFF7D4FF8F
:1023300000218520FFF7D0FF00218620FFF7CCFF8A
:102340000020FFF7BBFF0020FFF7B8FF002010BD03
:10235000F0B5030008260020312701390B4A89B265
:10236000914200D1F0BD1A785040320044B2A446E8
:1023700065464400E0B2002D01DA7C40E0B2013A4B
:10238000D2B2002AF2D10133E7E7C046FFFF0000D6
:1023900070B5124B124C90B01C806C46A523237074
:1023A00063700A246B466D469C7003236E46EB7087
:1023B000012535710025B071F1716846190032723E
:1023C0007571FFF7D5FC09216846FFF7C1FC2100B4
:1023D00070726846FFF74CFF10B070BDBE1700204A
:1023E000B80B00000649074A074B9B1A03DD043B64
:1023F000C858D050FBDCFFF7FDFAFDF791FE000056
:10240000F42800000000002070000020FEE7C04615
:10241000ABBE744698472047084B10B50400002B0C
:1024200002D0002100E000BF054B1868836A002B32
:1024300000D09847200000F031F8C04600000000AE
:10244000E428000070B500260C4D0D4C641BA41050
:10245000A64209D1002600F0FFF80A4D0A4C641B81
:10246000A410A64205D170BDB300EB5898470136C1
:10247000EEE7B300EB5898470136F2E7640000201E
:10248000640000206400002068000020030082181F
:10249000934200D1704719700133F9E7FEE7C04657
:1024A00003B47146490840004900095E49008E4462
:1024B00003BC7047002243088B4274D303098B424C
:1024C0005FD3030A8B4244D3030B8B4228D3030C04
:1024D0008B420DD3FF22090212BA030C8B4202D3A6
:1024E0001212090265D0030B8B4219D300E0090ACE
:1024F000C30B8B4201D3CB03C01A5241830B8B42D7
:1025000001D38B03C01A5241430B8B4201D34B03BF
:10251000C01A5241030B8B4201D30B03C01A524124
:10252000C30A8B4201D3CB02C01A5241830A8B42A9
:1025300001D38B02C01A5241430A8B4201D34B0292
:10254000C01A5241030A8B4201D30B02C01A5241F6
:10255000CDD2C3098B4201D3CB01C01A52418309AA
:102560008B4201D38B01C01A524143098B4201D3E4
:102570004B01C01A524103098B4201D30B01C01A0F
:102580005241C3088B4201D3CB00C01A5241830889
:102590008B4201D38B00C01A524143088B4201D3B6
:1025A0004B00C01A5241411A00D201465241104616
:1025B0007047FFE701B5002000F006F802BDC046F5
:1025C0000029F7D076E770477047C04630B5002441
:1025D000A24201D1002005E0035D651C0C5DA34211
:1025E00001D0181B30BD2C00F2E7002310B59A4231
:1025F00000D110BDCC5CC4540133F8E7C9B20378F4
:10260000002B04D0994200D170470130F7E74B42CC
:10261000594149420840F7E7031C0A7801311A7012
:102620000133002AF9D1704710B502000078002864
:1026300004D1097800290DD010BD0132107800288E
:10264000FAD00023C85C002804D0D45C8442F4D1C2
:102650000133F7E71000EFE7F8B5C046F8BC08BC57
:102660009E467047F8B5C046F8BC08BC9E46704709
:1026700041543A47490041543A475300545347455F
:102680004630334400424634303330004A58425FCB
:1026900054544D004D454458494E472D495254001D
:1026A000000B0A030203000008090F0200000004E7
:1026B000080C000000000000010000000000010004
:1026C0000000000101000000000000000080154033
:1026D000004005400080054000401540000000001B
:1026E00000000000000000010101010046464646CE
:1026F00046464646005B7631305D00535441543ABD
:10270000204E414D45000000000000000400000084
:102710000C00000024000000001BB70000000000B7
:1027200000000000008051010000000004000000D3
:102730002C000000000000009A7140346E00084E2A
:10274000792090400A4104040403030201535353C7
:1027500058565A6140404040C040C0212121272D99
:1027600024001D41602752000513A9203A400A2089
:102770001DA1204EA5000A27522048400A201ED045
:10278000009D4900244EA52018400A2003D0009D3A
:1027900049013D9D49200F400A1E0368013A9302FA
:1027A0007809D5001F400A20064501D7DC03B80E82
:1027B000BF002E400A2D8268013A9302781D7E00E8
:1027C0005C400A502DC30FBAB178A9F2750A754959
:1027D000938DC7A6C93C16F9AB4B29534080200FF7
:1027E000BC9741B1213D28C5F4176CD63C1AC330C3
:1027F000B6906040FD08840E7CA795A369D251660F
:10280000C0F5F654DEBCC6C0394166B8FFB5D75E28
:1028100010487136FCDCB09C7996155EA2E1F4910B
:10282000E69974FC0EEC88E9D57937F23DE9F2635C
:10283000797151BC9BAF56ADDDE80D9BAC9DEC852D
:1028400043E1502C4678527F07CB820BC8E0C0D4BE
:102850002F8D6B8BBA05E5E71F6936277B545B2A02
:10286000C4F1ABC09246C9CFADE8AB0353D9DF0882
:102870002513FE0F4C68D5AAAD781EBB95E71CC08A
:102880009B9D98CF4D6C39A93EB0FBFE93AE6980FD
:1028900025F0A2747C4C892B9D66E3695CEA76196D
:1028A000520DAB967127E56C9A2764AC5B75D9F530
:1028B00066FEC7CBD5D7FAD2CC36D4A4AAABF5895D
:1028C00003A112F3001BB7000000000080F0FA0221
:1028D00010270000000000000000000000000000C1
:0C28E000008051010400002000000000F6
:0828EC0034D8FF7F0100000059
:1028F40080F0FA0200000000000000000000000068
:1029040000000000000000000000000000000000C3
:1029140000000000000000000000000000000000B3
:1029240000000000000000000000000000000000A3
:102934000000000000000000000000000000000093
:102944000000000000000000000000000000000083
:1029540000000000E9000000C100000000000000C9
:04000003000023E5F1
:00000001FF
