:1000000000200020652700008D2700008D270000BC
:1000100000000000000000000000000000000000E0
:100020000000000000000000000000008D2700001C
:1000300000000000000000008D270000DD1C000013
:100040008D2700008D2700008D2700009D1C0000DB
:100050008D270000B51B00008D2700008D270000B4
:100060009D1B0000811B00008D2700008D270000D4
:10007000391B0000091B00008D270000ED1A00004D
:10008000D11A0000B51A00008D2700008D2700004E
:100090008D2700008D2700008D2700008D27000090
:1000A0008D2700008D2700008D2700008D27000080
:1000B0008D2700008D2700008D2700008D27000070
:1000C00010B5064C2378002B07D1054B002B02D02E
:1000D000044800E000BF0123237010BD7800002019
:1000E00000000000682C0000084B10B5002B03D066
:1000F0000749084800E000BF07480368002B00D10B
:1001000010BD064B002BFBD09847F9E7000000001C
:100110007C000020682C000070000020000000001F
:10012000164B002B00D1144B9D46402292029A1A86
:10013000924600218B460F461348144A121A02F0C9
:1001400065FB0F4B002B00D098470E4B002B00D0C7
:1001500098470020002104000D000D48002802D01F
:100160000C4800E000BF02F02DFB2000290000F049
:1001700013F802F011FBC046000008000020002028
:100180000000000000000000780000206C18002033
:100190000000000000000000F0B597B001F07AFC0C
:1001A0000920FC4D10262B6803432B6002F09CF9BC
:1001B0000423EC682A68300013432B6002F094F9A2
:1001C00007232A69344013430F222B61AB69F2499C
:1001D0009343AB61EB68DB0701D400F0F3FC002034
:1001E00002F094F90426EF682B68102033432B604B
:1001F00002F07AF907210F222B690B432B61AB69BF
:1002000093431A0001231343AB6102232A698A43F3
:1002100013432B6102F0CAF8FB0602D42B68B343E8
:100220002B60002C03D104222B6893432B60AC205D
:10023000C00502F01FFAD94802F01CFAD84802F0B3
:1002400019FAD84802F016FAD74802F013FAD7483C
:1002500002F010FAD64802F00DFAD64802F00AFA77
:10026000D54802F007FAD54802F004FAD44802F063
:1002700001FAD44802F0FEF9AC200321C00501F0D8
:10028000E1FFC021C548890401F0DCFFE021C4483A
:10029000C90001F0D7FFE021C248C90101F0D2FF37
:1002A0000021C14801F0CEFF8021C048890201F041
:1002B000C9FF8021BE48890301F0C4FFC021BD48A9
:1002C000890401F0BFFFC021BB48890401F0BAFFD7
:1002D000C021BA48890401F0B5FFC021B84889049B
:1002E00001F0B0FFC021B748890401F0ABFF02F074
:1002F0005DF8802101228900B34802F0E1F88021F5
:1003000001224900B04802F0DBF88021AF4F012202
:100310000902AD4802F0D4F801220421380002F0AD
:10032000CFF80022AA4B04211A60AA4BA6481A60F3
:10033000A94BA0241A60A94BE4051A60033202F00D
:10034000BFF803220821A04802F0BAF88021032256
:10035000C9009D4802F0B4F88021032209019A489F
:1003600002F0AEF801229E4B08211A609D4B380026
:100370001A609D4B9D4E1A609D4B1A60023202F02E
:100380009FF801229B4B30001A608023E26B1B0414
:100390001343E3638023E26BDB031343E363002235
:1003A000802102F08DF88022B3693000B361F369D7
:1003B00040211343F361736913437361002202F018
:1003C0007FF8B3698021B3614023F26909021A43BF
:1003D000F26172693800134373618023626B1B06FC
:1003E000134363638023626C5B04134363640022E2
:1003F00002F066F8BB698021BB61FA697E4B7F4ED3
:1004000013438022FB617B691202134330007B613E
:100410000022490002F054F8B3690121B361F26986
:10042000774B784813438022F3617369520013437A
:100430007361FD3A02F044F803220221714802F090
:100440003FF8032204216F4802F03AF80322082102
:100450006C4802F035F8032280215B4802F030F846
:1004600003220221584802F02BF80122664B674E06
:100470001A60674B32601A60664B53481A6000225C
:10048000654B1A60654B1A600132110002F018F8D2
:10049000012210214C4802F013F88021012249006A
:1004A000380002F00DF8802101224901380002F0E5
:1004B00007F800225A4B5B481A605B4B1A605B4B93
:1004C0001A605B4B1A600323626B9A436263626B30
:1004D00013436363236B574A134023638023226BC8
:1004E000DB0113432363636B534A1340802263632E
:1004F000636B120213436363236D504A134004225B
:100500002365236D2365E36D9343E365E36D4C4AF7
:10051000E365236E13402366236E4A4A2366E36B2A
:100520001340E363C023E26B1B021343E363236EB8
:10053000454A13402366236E23666023226B9A4349
:100540002263226B134323633023626E9A436266F5
:10055000626E1A436266C022A16B9143A163A16BD4
:100560000A43A263226E39490A402266226E384944
:100570002266626E0A406266626E36496266226B6D
:100580000A402263C022216B92010A432263626EF9
:1005900062E0C0460002005000E1F505103D8057C2
:1005A0000200805E0300C05E100000B30400005F24
:1005B0000500405F123D8057083D8097093D8097B8
:1005C0000A3D8097113D8057004000504040005048
:1005D000484200503C42005024420050204200500B
:1005E0002C420050284200500C420050C0400050A5
:1005F000084200504C4200500080008040410050B2
:100600000001000180400050044200501C42005094
:1006100088420050804200508C420050844200507A
:100620007042005010000004604200501042005020
:1006300000420050FFBFFFFFFF7FFFFFFFFFFFFEF5
:10064000FFFF7FFFFF3FFFFFFFFFFCFFFFFFFFCF2D
:10065000FFF3FFFFFFCFFFFFF1490A406266C022B0
:10066000616E92000A436266626B9A436263626BD8
:100670001343636301F014FFEA4801F011FFEA48F5
:1006800001F00EFFE94801F00BFFE94801F008FF17
:10069000E84801F005FFE84801F0A4FEE74801F052
:1006A000A1FEE74801F09EFEE64801F09BFEE64809
:1006B00001F098FEE54801F095FE3F200823E44A4A
:1006C000E4491060536008604B60802310689B050C
:1006D000184310600A68E04813430B603121DF4B78
:1006E000DF4A19605A60DF4B19605A6001F0D8FE8A
:1006F0006B6B1096DB0300D56CE201F029FE002441
:10070000D94902F097F83022D84BD94D1C606B685C
:10071000013893431A00102313436B60322380B2D5
:10072000A86301305843642102F084F88021D14B42
:100730000138A8651A68D048490302401A601A684F
:1007400011431960CD4B1A6802401A608022196863
:1007500092030A431A600423C9490A681A430A60CB
:1007600001221100A140194207D021001600914337
:100770008E403100286A014329620134062CF0D1F1
:100780000423C04A11680292194205D02C21126834
:100790008A431343029A136002230025029ABA4C3B
:1007A0005360029AB94B1360656001F073F901213F
:1007B000B74B1A680A431A60C0229203DD605A6080
:1007C0001961BFF36F8F09940193019B1B69002B83
:1007D000FBD10524019B9D682C40042C21D11A6873
:1007E0001023C0261343019AB6031360300001F0B2
:1007F00031FB2122012301999D43CA60019A2C43B8
:100800005660019A9460019A1361BFF36F8F019B48
:100810001B69002BFBD1A022D205916801330B4349
:1008200093600023019AD360F823019A5B0253601E
:100830000123019A1361BFF36F8F019B1A69002A8C
:10084000FBD19B68934CDBB22370102B00D9227034
:10085000012500213227019B019A1B688E48AB437A
:100860001360099B1822596001F0D0FF2B008B4EBA
:100870008B4D8C485A5D195C9201890052188A4947
:100880009F5552181168894A99540133062BF1D1AA
:1008900080222578864C874BD200002120001D70D5
:1008A00001F0B4FF844BA0221C60844B00218448DB
:1008B0001C6001F0ABFF60220021824801F0A6FF1E
:1008C000280001F053FB90227F4C0021D200200031
:1008D00001F09CFFC02601237C4D7D487D493200FC
:1008E0005A439F00A2187A513A507B4F5A5CDF5D01
:1008F0009201BF00D2196C4FD219784FFF5C0133BF
:100900001760052BEBD1764C80220021200001F0EE
:100910007DFF744B40221C60734B002173481C60A8
:1009200001F074FF0023724AC0241370714A1360EF
:100930008022714BD2001A605A6018329A189A605D
:100940001A001832DA601A615A6187236B4ADB0099
:10095000D2186B4B180019001C605C601830D8333B
:100960008B60C860086148619A42F3D1C0220024BC
:1009700052000021634801F049FF0622002162482D
:1009800001F044FF40220021604801F03FFF604B2E
:10099000604D1C70604B80201C70604B26491C70A1
:1009A0005F4B4A681D8011231A434A605D4A40012B
:1009B000224E1060716819437160106020482D2626
:1009C00041681943416080211E4809021160416855
:1009D0001943416080211C48490211604168194354
:1009E00041608021890211601849486803434B60C7
:1009F00080239B0113608023FA215B001360DB18C6
:100A00001360F93BFF3B136018331360464B8900BA
:100A1000186801F00FFF454A01385060C02087E098
:100A2000FFFCFFFF12000004080000080900000896
:100A30000A000008110000040000054000401540B5
:100A40000040054000800540008015400000154032
:100A5000000001402000014010000008000011408B
:100A600050C300002000114048E801001800044075
:100A700000000440B0000440CFFFCFFFB4000440AA
:100A8000D800044000400040FC00005082050000F7
:100A900000C00050530100204C1700204C010020E2
:100AA000332A0000202A000000420050C00100202C
:100AB0000A020020540100202C0B00200C0B002007
:100AC00064170020600100208A060020340B0020FB
:100AD000140B0020402A00002D2A0000602A00008C
:100AE0000A060020300B0020100B00200B01002014
:100AF0004B010020A00D0020B4120020A40D002006
:100B00007C0E00204C0B00200C0D0020C7010020A3
:100B100009020020B80B0000080200200702002094
:100B20006818002000E100E00000002010E000E074
:100B3000DC4900060B6A1B021B0A03430B620723F6
:100B400094601360FA241195FA25A4006D00D64B29
:100B50001A68A24243D3FA229200A418D34A9442BC
:100B6000F5D11B68FA2104938900049801F0E8FE8E
:100B7000002904D1F531FF31022001F041F9CC4ABE
:100B8000CC49136809688B4201D100F0A0FDCA4925
:100B9000CA481D780818834200D202E21160C84A90
:100BA000C84C11784B1CDBB26554591E13700129D7
:100BB00003D002292DD000292ED1A52DDFD000236E
:100BC0001370DCE78020000301F0A0FCEC683440E7
:100BD000FFF708FB01F0EAFBBB4B18688FE51A68CA
:100BE000BA4BE3189A4207D22900022001F008F913
:100BF0002900032001F004F900F04CFF029B1A6861
:100C00000123B2431343029A13600023099A5360ED
:100C10009DE7062DD3D9B2E7A2789A42AFD820003B
:100C200001F042FDA8420BD13221032001F0E8F887
:100C3000E378A22B00D1B1E006D8052B00D175E1F5
:100C400000229F4B1A709AE7B02B00D1C6E0E02B30
:100C5000F6D1A3782000DE1F0393B3B219000693E8
:100C600001F032FDA679002E00D159E1E3790A9313
:100C7000002B00D154E1237A0593002B00D14FE1E2
:100C8000637A63240B93039B0A210B3BDBB207932C
:100C9000059B079A9C42A4416442A31DD318DBB272
:100CA00005980C9301F0C6FD00253030C3B20D93BA
:100CB000874B1B34E3180E93079B1B190893033BC8
:100CC0009BB20F93089B5F1CFFB2C523804C082288
:100CD00023706370B53BE3707E49093B7E48237106
:100CE000667101F042FE774B5B79A3730123E373D6
:100CF00001232374FF2E00D0D1E000236374FD2371
:100D0000A37400233022E3746B469B181B78043ACB
:100D10002375012363756B469B181B78A375059B90
:100D2000632B00D8F0E0273A6C496D4801F01DFEB6
:100D30006449079A0A310E9801F017FE0F99694825
:100D400001F0F4F8624B089A674C985439006748F0
:100D50009F70277001F0CCFA0023984200D03B002E
:100D600024780135E41A624262410A9BEDB2941C78
:100D7000AB42AAD10699534801F0A6FC514D039B02
:100D80002C71591E280001F08FFC039B0399EB186E
:100D9000013B1870280001F04DF851E7A521627958
:100DA0004B4C514D2170A521E37001236170092145
:100DB000237108332B70A170B223022162712000CD
:100DC000A371E17101F080FC2D7820006E1E3100CE
:100DD00001F06AFCA05529002000DCE7A67820007D
:100DE000073EF6B2310001F06FFCA579E279002DE3
:100DF0001FD1FF2A13D101214942042001F000F83C
:100E000001233100A5782371200001F05DFC691EEB
:100E1000200001F049FC6319013B1870DBE7FA215F
:100E2000890051430029E8D1314B1961314B1960D8
:100E3000E6E7AA23217A264CA8002370553B63706D
:100E40006B1EA3700023E3702B4B5B5D23710223A9
:100E500063712A4BC358180AA371E071180C1B0E5A
:100E6000637220723C23002A00D0C3330D271E4E2C
:100E7000217323480921A372E272377001F056F8FA
:100E80006073D8200A23102145431E48E37340199C
:100E90000233A7733170E37001F02AFAD0E666746A
:100EA0002DE7C04600ED00E09C0D0020701700000B
:100EB0000C0B00202C0B00200A020020FF03000076
:100EC0004B0100200B0100200000002022FCFFFF4E
:100ED000221800206C2A000028180020752A000023
:100EE0003918002025180020980D0020B412002089
:100EF0004C170020484200501C1800200418002005
:100F000026180020A40D00205B23E3751B332376F5
:100F100034226B469B181B7863765D23A37607E724
:100F20002000069901F0D0FB012427E7A3782000D8
:100F3000073BDBB21900039301F0C6FBA279BF4B5C
:100F4000002A06D11B78E3710123A5782371039948
:100F50005AE70125F827E6797F021E7000F09AFD16
:100F6000019B019A1B6838002B43136000F072FF4D
:100F70002123019AD360019B5F60019B9E60019BCE
:100F80001D61BFF36F8FAE4B19690029FCD10120A1
:100F90001A6882431A60AB4B5960E07900F0E6FFB3
:100FA000D2E701331360FAE5053B13600023A64E38
:100FB000A64C3370230028331B78002B09D1230063
:100FC0004A331A88002A04D023004E331B78012BA1
:100FD00047D8230050331B78002B0AD123007233EB
:100FE0001A88002A05D0230076331B780225012BAE
:100FF00038D8954F3B78002B52D06421012000F067
:10100000FFFEA5213278924C93B29E1C09332170C9
:101010006170FF2B00D80FE10F210B40591E8B414F
:1010200010330221E1700139217120000021894D26
:10103000A3706171A171083087492B70E27101F0D2
:1010400094FC3100200001F03FFB2D7820006E1E43
:10105000310001F029FB2900A055200000F0EAFE34
:101060003BE001252821694363185878AA2811D14B
:101070009878FF280ED1187990420BD15B79022B1A
:1010800008D1093A704B0731D2B2611872481A7010
:1010900001F06BFC28235D43002364196384A8E7F7
:1010A0006E4B1A002C321278002A00D0C2E0443372
:1010B0001B78002B0ED0022318255D432900042243
:1010C000664C0C3161186448327001F04EFC00230C
:1010D000641923753B78002B8FD1614B1B78062B4D
:1010E0005ED0604F3B68052B00DCD9E0053B3B60E0
:1010F0000024109B1B68A3421FD100F001FF0320B6
:1011000000F0BEFE0500C30702D500F0D9FE013C89
:10111000AB0710D54B2000F0B3FE00250400FF26DE
:1011200005906B1C03932B00059A33409A4200DD17
:1011300002E100F0C5FE00F0CEFE4B4D2C60002C0D
:101140002EDD4A4C2378C52B2AD16378C52B27D1B5
:10115000617C0B22A1713221203BA07B2370637044
:101160003B33E370DF3B2371A2706071217220007A
:101170002E39E37163722A6001F0A6FA2D6820000F
:101180006E1E310001F090FA2900A055200000F0F9
:1011900051FEFA210023490002203B6000F030FE9E
:1011A0000124334EF3683269934226D0314F300028
:1011B000390001F077F8021E1CD02F4BA000E55C2F
:1011C0002E4BAD01E35C39009B00ED182C4BED1864
:1011D0002C4B1B5D2B602C4BC05801F04BF92B4B5B
:1011E0001F682A4B1B68DB1B012B00D8ABE0284B88
:1011F0001B5D2B60300001F075FA0134D836052CE8
:10120000D0D10127234B244CC03340340593FBB28B
:101210000793059B214ABF330C93231D0A933B017F
:10122000D3180693230010330893083B0B93BB009D
:10123000039399E001233FE7DBB2F2E6530100207C
:1012400000C00050FC0000500A010020641700207C
:10125000180D0020990D0020F400002060010020EE
:1012600004000020A00D0020140D0020CC0C002054
:101270007C0E00200C170020402A00002D2A0000C0
:1012800000420050662A0000482A00009C0D002001
:10129000602A00008A0600204C0B002094000020E9
:1012A000BF4CE3682269934200D121E7BD49200089
:1012B00000F0F8FF061E34D0FA235B003B6000F01C
:1012C0001FFE0121882000F0E9FD0021882000F0A8
:1012D000E5FD3100BE2000F0E1FD0025EBB2B34298
:1012E00023D30421852000F0D9FD0021862000F0C1
:1012F000D5FD032000F0C4FD042000F0C1FD09214C
:10130000872000F0CBFDA84A1368002BFCD100F029
:10131000F7FD00F0D5FD00F0DEFD3221022000F0E7
:101320006FFD200001F0DEF9E2E69E4BFF20595DE3
:1013300000F0B4FD0135D1E77F2000F0A1FD9B4B0B
:101340005855039DEDE600F0A5FB2D22029B1B687E
:1013500093432C3A1343029A13600023099A536073
:101360003FE7AA2800D0F954914A039B914903987A
:101370009B5841588B4200D1D5E10C99187899427D
:101380007FD8039B059999508B4B8C4EFD5CB9011E
:101390006A1CD2B27618511EFA547055012966D0D3
:1013A00003296AD00029DCD0E178C81C8242DBDD49
:1013B00073189A780D2A57D1325C0A2A54D103390E
:1013C00089B20A985D7800F0B1FD85424CD1322196
:1013D000022000F015FDA27A794B0399FA54E37BC1
:1013E000A27B1B029B18627B1B029B18227B1B02A9
:1013F0009B18E578734A0F3D8B50734BEDB2FD544B
:101400002A000899069801F0B0FAABB29A1C0D9226
:10141000A5222270A52209336270DEB2FF2B05D906
:101420000F2633405E1EB34110331E000223E370CB
:10143000013B2371002363716B461B7F2A00A3715C
:10144000E5710699A6700B9801F08FFA0D992000AE
:1014500001F03AF9711E2000651801F025F93100FC
:101460002870200000F0E6FC0022534B03E05528D2
:1014700000D179E70022FA5476E7062800D973E70D
:10148000F8E7039901338B507EE76B4644215B18E4
:101490001B884E4913804E483A0000F0EBFF51E1A3
:1014A00000214C4A11700122C52B02D0532B03D1CD
:1014B0000B22494B1A7046E11522FF2BF9D01F224F
:1014C000FA2BF6D000232B703DE143490A78012A1C
:1014D00004D1C52BF6D1C33B0B7034E10B2A03D1E9
:1014E000542BEFD1483BF7E7152A05D1FE2B01D14C
:1014F000D43BF1E71623EFE71F2AE3D1102BE1D10C
:101500001033E9E734490A78022A03D1314A1370CB
:101510000323E1E70C2A03D1412BD3D1343BDBE792
:10152000162A01D11723D7E7202A03D1082BC9D1C6
:101530001933D1E72A2AC5D1264A023313702B2347
:10154000CAE725480278032A02D104230370FAE08F
:101550000D2A03D1542BB5D1463BF7E7172A0BD1FF
:101560006378A278E17853409942ABD100220170B0
:10157000012001F0CDF8A5E72223212AE6D02B2A6D
:10158000A0D12C23E2E714480178042926D1114B7D
:101590001B78934200D9D6E0E378037092E7C04607
:1015A000B4120020CC1600201C420050CC0C0020AD
:1015B000140B0020340B00200C0D00204C0B0020DD
:1015C0001C1800200418002004010020F629000047
:1015D0000000154009020020070200200E2955D105
:1015E000A3185A1E12780A2A00D0ACE0023B1B78DE
:1015F0000D2B00D0A7E07549200001F0A7F90028C5
:1016000000D05FE726000A367149300001F0CCF9BE
:10161000002812D16F49300001F0C6F900280CD122
:101620006D49300001F0C0F9002806D16B49300047
:1016300001F0BAF9002800D144E72D21200001F083
:101640009DF9061E00D13DE701302D2101F096F9EC
:10165000002800D136E7841BE3B2022B00D831E723
:101660001022002112A801F0D1F85D4912A801F062
:1016700093F93C4012AB22003100581D01F075F97E
:10168000621D12A9574800F0F5FE1BE7182900D18A
:1016900018E7222908D10C2A55D9FF2B53D1E3781A
:1016A0000370A279617963E72C2900D00AE74E4BD9
:1016B0001B78934247D86379652B44D1E378037054
:1016C000E279A179022054E701320A6048E0474AF2
:1016D0001368052B00D967E40121454B454C136085
:1016E000454AE1701388217101339BB21380A52212
:1016F0000021424D227062709C3AA27061712A7082
:1017000020001A0A0231A271E37100F0DDFF2D788A
:1017100020006E1E310000F0C7FF2900A0552000F8
:1017200000F088FB42E4059B0137C0334034059349
:10173000052F00D06BE5324A1388052B00D8A4E6AC
:10174000053B1380FF272F492F4B0A681B689A42DD
:101750001CD02E48137804007F34A242B4D3086012
:101760002B4D2A783F2A01D900222A702978294C4A
:101770004A1CD2B2501E2A706354032800D902E7D3
:1017800001F04EF88EFEA3FEC0FEDFFE224B5B7919
:10179000002B03D12149042000F032FB00F07AF93C
:1017A0002D221F490B6893431A0001231343002283
:1017B0000B601C4B5A601C4A136804995B1A042B7B
:1017C000FAD90B000533FFF7CDF9C0467B2A00009C
:1017D000FC290000052A00000C2A0000142A000041
:1017E000F0290000000015400902002058010020E7
:1017F00030750000580D0020560100209A0D002081
:1018000068180020100B0020300B00200A06002072
:1018100008020020C7010020C0010020B80B000012
:1018200000400040FC0000509C0D0020094A30B5EB
:101830008400A358084D1970C02358430300A158D1
:10184000BF335B19994202D34019A05030BD01311A
:10185000A150FBE7340B00208A0600201300F0B5EE
:10186000447AC23BFF3B002C00D16FE07E2B59D85D
:10187000037A002B07D0002300220260436000237C
:101880000372437208E00468456824196D41CB1760
:101890002B432143016043604268334CD10D036800
:1018A000C905A1423DD1FF210F24550A2D010D404C
:1018B000110921404D19DE0F51000E4331002D0159
:1018C000214049199F0E95012F432740090179189E
:1018D0000D015E0DD1020E4331002140160449195D
:1018E0001D0C3543090125406D185605D90A92068D
:1018F00031439B092D012140134349192340002501
:101900000024090100225B18012104604560C468BD
:101910000272C3324172FF32A34223D0C36002611C
:101920000175F0BDC13A7E2AA5D8037A002B0BD0F1
:101930000468456824196D41CB172B43436000238D
:10194000214301600372A7E70123FBE77E2BA3D8A5
:101950000268CB171143426801601343436004726D
:1019600001238EE70261DCE7000080FFF0B5282448
:1019700044432F4AA35C012B1FD1012812D0022817
:1019800019D0282302214343D1540021D3185C1DD0
:101990000633E177D97728235843002312180732FA
:1019A000D377F0BD234B1121596080211C68C905F4
:1019B00021431960E5E7204BF5E7022B2AD10128E6
:1019C00003D002281ED000230AE080231949DB053A
:1019D0000C6823430B60194B1B68591E8B41DBB20B
:1019E000282545435419A71DF97F05348B404E1C0B
:1019F000F6B2FE77E17F0B43E377072ECBD90323C3
:101A00005355C8E780230C49DB050C6823430B6062
:101A10000B4BE1E7032BBED11319598C4D1C5D8490
:101A200059180533DB7F4B700023A354B3E7C0463E
:101A3000641700200000014020000140DC420050FB
:101A4000D84200500021F0B50F4D0B0008240127AB
:101A5000AC460E4A0E4E11605B0045B2DBB2002D63
:101A600010DA3760654617602D684000C0B2012D5E
:101A700001D12B43DBB2013C1160002CECD11800EA
:101A80001460F0BD3160EDE78842005084420050A0
:101A90008C42005010B5592116208824044B5A68F6
:101AA000012A00D110BD596058605C60F7E7C0465C
:101AB000FC000050054B10B5DA69D20504D5196851
:101AC0000120C9B2FFF7B2FE10BDC046008015402C
:101AD000054B10B5DA69D20504D519680320C9B2DF
:101AE000FFF7A4FE10BDC04600800540054B10B5B1
:101AF000DA69D20504D519680220C9B2FFF796FE4B
:101B000010BDC04600400540074BDA69D20508D534
:101B1000064A19681368197005498B4202D3054BB0
:101B2000136070470133FBE700001540300B0020C5
:101B3000890600200A0600200C4B10B5DA69D20590
:101B400008D50B4A1968136819700A498B420BD3E0
:101B5000094B1360094BDA69D20504D519680420D2
:101B6000C9B2FFF763FE10BD0133F2E70000054084
:101B70002C0B0020090600200A020020004015401E
:101B80000122054B10B59968114203D09A600220DA
:101B9000FFF7ECFE10BDC046200001400120044BC1
:101BA00010B59A68024202D09860FFF7DFFE10BDC0
:101BB0000000014080232E4A5B00116A10B51942D3
:101BC00011D013622B492C4BDA68596080211868B8
:101BD000C90501431960294B294819684B425941ED
:101BE000FFF73CFE10BD4021264B186A084214D076
:101BF0001962254B180050300278002A09D1234A77
:101C00003839516080211468C905214311600122CF
:101C10000270763300221A70E4E78021186A0842C5
:101C200012D01962184B180028300278002A09D106
:101C3000174A7839516080211468C9052143116021
:101C4000012202704E33E5E71249086A0C6A20430C
:101C50000862196A186A014319620F4B196A186AF7
:101C600001431962136A116A0B431362BAE7C04653
:101C70004041005050C3000020001140604300501C
:101C800090010020C0400050641700202000014057
:101C900000000140804000500041005080220A4B6B
:101CA000120210B509491A62094BDA68596080219D
:101CB0001868C90501431960064B074819684B426B
:101CC0005941FFF7CBFD10BD4040005050C300000C
:101CD000000011407C420050780100203C4AF0B5E1
:101CE00013683C4901331360002301229C463A4C9F
:101CF0003A4D3B4E0F687B1ED81C02D8012F44D0B2
:101D00000B6001320431052AF4D101233221354818
:101D1000354C364DC25CE65C9201B6009219344EE9
:101D2000921916685A191778F6B29446314AB74292
:101D300037D1D1540133062BECD100231D002E4C9A
:101D40001A1910004E300178012901D801310170B3
:101D500028321178002903D00178012900D91570A3
:101D60002833502BECD1254B9A6A012A24D8002223
:101D70009A621A002C321278002A00D15A621A6C28
:101D8000012A1CD9013A1A64F0BD6346AF5C0B60AE
:101D9000A35CBF009B01DB19154FDB19B75C1F600B
:101DA000AFE7D2181778012F02D9013F1770C1E7AA
:101DB000117062461670BDE7013A9A62DFE70022B1
:101DC0001A641A0044321278002ADDD1DA63DBE7A4
:101DD0009C0D0020501700203A2A0000272A0000FE
:101DE000602A0000332A0000202A0000C0010020E1
:101DF000004200504C0100206417002060010020C8
:101E0000074B8200D150074B074A1B5C125C9B01B9
:101E100092009B18054A9B18054A125C1A6070478D
:101E20004C1700203A2A0000272A000000420050E8
:101E3000662A000070B50D00040032210320FFF770
:101E4000DFFF2A002100024800F014FB70BDC046ED
:101E5000000005402222094BDA60213A58601A61DD
:101E6000BFF36F8F18690028FCD140221968114216
:101E700003D0196801380A431A60704700C0005047
:101E8000002310B5044C2360FFF7DCFDFF20FFF7B3
:101E9000D9FD0123236010BD80420050002370B59E
:101EA0000D00064C236080331843FFF7CBFD28005C
:101EB000FFF7C8FD0123236070BDC046804200507B
:101EC00010B502218820FFF7E9FF88200021FFF7E5
:101ED000E5FF002010BD10B503218520FFF7DEFFD0
:101EE00000218620FFF7DAFF0320FFF7C9FF042057
:101EF000FFF7C6FF87200521FFF7D0FF002010BDA8
:101F000010B501218720FFF7C9FF00218520FFF7C9
:101F1000C5FF00218620FFF7C1FF0320FFF7B0FFB8
:101F20000420FFF7ADFF002010BD0000F0B5030056
:101F300008260020312701390B4A89B2914200D18D
:101F4000F0BD1A785040320044B2A44665464400C1
:101F5000E0B2002D01DA7C40E0B2013AD2B2002AB0
:101F6000F2D10133E7E7C046FFFF00000022F8B5D9
:101F700004002D260127A54BA54D1A60013D002D1B
:101F800000D0F2E00320FFF77BFF06000420FFF7FC
:101F900077FFFF2E00D1E7E0FF2800D1E4E09D4B62
:101FA0009D4E1D7007239D4DAA212C709C4C3370B3
:101FB0008D20053B2370FFF771FF0D20FFF760FFB9
:101FC000984F442138808D20FFF768FF0D20FFF7E0
:101FD00057FF38800320FFF753FF0420FFF750FF1F
:101FE00080218720FFF75AFF8F4B1F68012F00D1F8
:101FF000C6E00320FFF744FF0420FFF741FF032062
:10200000FFF73EFF0420FFF73BFF00218520FFF78D
:1020100045FF02218620FFF741FF00218920FFF7BD
:102020003DFF0021D120FFF739FF0B21D020FFF722
:1020300035FF5321F520FFF731FF2F7823787B4DB3
:10204000F620EB18D979FFF729FF2378F720EB1852
:10205000997BFFF723FF2378FA20ED18697DFFF7BE
:102060001DFF3900F920FFF719FF0021B220FFF70B
:1020700015FF0221B320FFF711FF2D21B620FFF736
:102080000DFFD421B720FFF709FF8821B020FFF70B
:1020900005FF6321F120FFF701FF1021B420FFF7B6
:1020A000FDFE4221B520FFF7F9FEF5218B20FFF759
:1020B000F5FEF2218C20FFF7F1FE14218D20FFF7B1
:1020C000EDFE18213378ED201943FFF7E7FE514A62
:1020D000237812780E24002A5ED15C43544D9C2054
:1020E000615D2C19FFF7DAFE6178A020FFF7D6FEBC
:1020F000A178A120FFF7D2FEE178A220FFF7CEFE63
:102100002179A320FFF7CAFE6179A420FFF7C6FE5C
:10211000A179A520FFF7C2FEE179EE20FFF7BEFE10
:10212000217AEF20FFF7BAFE617AF020FFF7B6FEC2
:10213000A17AF220FFF7B2FEE17A9D20FFF7AEFE12
:10214000217B9E20FFF7AAFE617BAA20FFF7A6FE57
:10215000344B1A880623FF2A00D00023354A137017
:10216000FFF7CEFEFFF7B7FEF8BDFFF793FC324A4C
:102170001368B3433B4313600022304B5A60FDE6C3
:10218000FFF788FC2D212C4A13688B431F431760EF
:1021900000222A4B5A6027E75C43294D9C20615D51
:1021A0002C19FFF77BFE6178A020FFF777FEA1785E
:1021B000A120FFF773FEE178A220FFF76FFE2179DF
:1021C000A320FFF76BFE6179A420FFF767FEA179DA
:1021D000A520FFF763FEE179EE20FFF75FFE217A8D
:1021E000EF20FFF75BFE617AF020FFF757FEA17A40
:1021F000F220FFF753FEE17A9D20FFF74FFE217B8F
:102200009E20FFF74BFE41219FE7C046044200504D
:1022100041420F006218002065180020631800205A
:1022200064180020661800201C420050C62A0000D6
:10223000E22A00000400002000400040FC000050A2
:10224000B82A0000F0B585B06A46134B6C46E0CB67
:10225000E0C21B681360820AD2B2002A0AD0860547
:10226000F60EB2400D4D03039B0F5B199B001D68DA
:1022700095431D6003015B0F0CD08200C001C00EAE
:102280008340920F9200A458054AA41822689A43EA
:102290001143216005B0F0BD882A000086000014BB
:1022A00010020050F8B50269C36807000E001D78DF
:1022B00093421BD0402D19D86A1C8468591C9B1866
:1022C000A34201D302689B1A994205D22A0030002A
:1022D00000F04BFB2800F8BD641AE4B22200300085
:1022E00000F043FB30192A1B7969F1E70025F1E77B
:1022F000F8B5040062684B1C0E0000209A4218D901
:1023000022691170501C2269A568D3182361AB4261
:1023100002D322689B1A236163680B4F9B1B013B0E
:1023200063602369984205D23200390000F01DFB3A
:102330000120F8BD2D1AEDB22A00390000F015FB7E
:102340006069721B7919F1E72218002070470000BC
:10235000012307B5A02101AA1370DB1853709370F5
:102360000233D3700E4BC9021B6A00200B4213D1FB
:10237000190312D40B4899030ED4D905C90D0231A3
:10238000800848431904890F525C9904C90E023130
:10239000514300F04FFA80000EBD0348EBE7C04602
:1023A00000020050001BB7000080510110B5FFF77C
:1023B000CFFF0721084A13690B40022B02D00749BF
:1023C0009B0058580F2391691940013100F032FAEF
:1023D000034B186010BDC04600020050442C0000A2
:1023E00000000020F0B585B06A461E4B0500103392
:1023F00013CB13C21B686E4613601B4A0323546938
:1024000097690022240E2A63EB601C40174AAB68D0
:102410003F0513403F0FAB60012C02D1FFF798FF3F
:102420000190A400791C305900F004FAE123E12165
:102430001B0204004902C01800F0FCF90C4B0238E2
:1024400098420BD9E123E1211B03E018490200F077
:10245000F1F900090238686205B0F0BDC0239B05A0
:102460001843F8E7882A0000000200500FFFF0FF31
:10247000FFFF000070B580258C186D05A14206D1C4
:10248000100070BD013B002B03D11A00F8E7802338
:10249000DB0586692E42F5D00B7801310360EDE74C
:1024A000064A030E9B1801220002000A82401968A6
:1024B0001143196019689143196070470800005072
:1024C000F0B50023032601249C40214208D03500AA
:1024D0005F00BD400468AC431500BD402C43046060
:1024E0000133102BEFD1F0BD064B0749CA680240FB
:1024F000904201D101207047013B002BF6D118001A
:10250000F9E7C046814F1200000200508023F0B569
:10251000484D5B022B6287B004000E002B68002838
:1025200062D1012003432B60FFF7DEFF02230093FB
:10253000414B05940393414B414AF318934267D9A9
:10254000404B414AF31893425AD801237600019335
:10255000002301271C0002937F420099039800F09A
:1025600069F93A4B3A4AC318934220D84300F21A09
:102570000492A4463A000224364F3749DF198F42AD
:102580000BD8049F9E4200D29F1B974205D2002F7A
:1025900040D0009AA44602923A0004990134091AE4
:1025A00004912E491B188C42E6D164461700009B0B
:1025B00001330093222BD0D1019B059A9B03134337
:1025C000A21E1343029A0420023A520213432B62C2
:1025D000FFF78AFF019B0398591C029B594300F0A7
:1025E00029F9604307B0F0BD04273B432B6010205E
:1025F000FFF77AFF80231B0305930097184B99E799
:10260000184B194AF318934207D8B60003239EE7E4
:1026100000239CE7009B0293C9E7002C07D1134BD2
:102620002B620420FFF760FFFFF792FEDAE7104B02
:10263000F6E7C04600020050001BB700FF1E0AFA72
:10264000FFE0F5057F0F05FD7FF0FA02FF95E7FF3C
:10265000BE77CC00001F0AFA00E1F5050202000077
:1026600000805101C08782FE40787D012EC20000AB
:102670006FD608007FB569466A46094B203370CB98
:1026800070C11B680B60830F9B009A58054BD218D2
:102690001F2318401E3B834011680B4313607FBD0E
:1026A000882A0000040200500200002330B5054DC6
:1026B000141AA14201DC180030BD147801326340C5
:1026C000EB5CF5E7442B000010B52C24831D05318D
:1026D00064421A1A914200DA10BD1A7862401A70E8
:1026E0000133F6E70200C368116900208B420ED067
:1026F0001978481C1B189068D360834202D3106875
:102700001B1AD3600120536801335B185360704774
:1027100070B5124B124C90B01C806C46A5232370F0
:1027200063700A246B466D469C7003236E46EB7003
:10273000012535710025B071F171684619003272BA
:102740007571FFF7C1FF09216846FFF7ADFF210052
:1027500070726846FFF76EFB10B070BD68180020FD
:10276000B80B00000649074A074B9B1A03DD043BE0
:10277000C858D050FBDCFFF7E9FDFDF7D1FC0000A5
:10278000742C00000000002074000020FEE7C0460A
:10279000ABBE744698472047084B10B50400002B89
:1027A00002D0002100E000BF054B1868836A002BAF
:1027B00000D09847200000F031F8C046000000002B
:1027C000642C000070B500260C4D0D4C641BA41049
:1027D000A64209D1002600F0FFF80A4D0A4C641BFE
:1027E000A410A64205D170BDB300EB58984701363E
:1027F000EEE7B300EB5898470136F2E76800002097
:1028000068000020680000206C000020030082188F
:10281000934200D1704719700133F9E7FEE7C046D3
:1028200003B47146490840004900095E49008E44DE
:1028300003BC7047002243088B4274D303098B42C8
:102840005FD3030A8B4244D3030B8B4228D3030C80
:102850008B420DD3FF22090212BA030C8B4202D322
:102860001212090265D0030B8B4219D300E0090A4A
:10287000C30B8B4201D3CB03C01A5241830B8B4253
:1028800001D38B03C01A5241430B8B4201D34B033C
:10289000C01A5241030B8B4201D30B03C01A5241A1
:1028A000C30A8B4201D3CB02C01A5241830A8B4226
:1028B00001D38B02C01A5241430A8B4201D34B020F
:1028C000C01A5241030A8B4201D30B02C01A524173
:1028D000CDD2C3098B4201D3CB01C01A5241830927
:1028E0008B4201D38B01C01A524143098B4201D361
:1028F0004B01C01A524103098B4201D30B01C01A8C
:102900005241C3088B4201D3CB00C01A5241830805
:102910008B4201D38B00C01A524143088B4201D332
:102920004B00C01A5241411A00D201465241104692
:102930007047FFE701B5002000F006F802BDC04671
:102940000029F7D076E770477047C04630B50024BD
:10295000A24201D1002005E0035D651C0C5DA3428D
:1029600001D0181B30BD2C00F2E7002310B59A42AD
:1029700000D110BDCC5CC4540133F8E7C9B2037870
:10298000002B04D0994200D170470130F7E74B4249
:10299000594149420840F7E7031C0A7801311A708F
:1029A0000133002AF9D1704710B5020000780028E1
:1029B00004D1097800290DD010BD0132107800280B
:1029C000FAD00023C85C002804D0D45C8442F4D13F
:1029D0000133F7E71000EFE7F8B5C046F8BC08BCD4
:1029E0009E467047F8B5C046F8BC08BC9E46704786
:1029F00041543A47490041543A47530054534745DC
:102A00004630334400424634303330004A58425F47
:102A100054544D004D454458494E472D4952540099
:102A2000000B0A030203000008090F020000000463
:102A3000080C000000000000010000000000010080
:102A400000000001010000000000000000801540AF
:102A50000040054000800540004015400000000097
:102A6000000000000000000101010100464646464A
:102A700046464646005B7631305D00535441543A39
:102A8000204E414D45000000000000000400000001
:102A90000C00000024000000001BB7000000000034
:102AA0000000000000805101000000000400000050
:102AB0002C000000000000009A7140346E00084EA7
:102AC000792090400A410404040303020153535344
:102AD00058565A6140404040C040C0212121272D16
:102AE00024001D41602752000513A9203A400A2006
:102AF0001DA1204EA5000A27522048400A201ED0C2
:102B0000009D4900244EA52018400A2003D0009DB6
:102B100049013D9D49200F400A1E0368013A930276
:102B20007809D5001F400A20064501D7DC03B80EFE
:102B3000BF002E400A2D8268013A9302781D7E0064
:102B40005C400A502DC30FBAB178A9F2750A7549D5
:102B5000938DC7A6C93C16F9AB4B29534080200F73
:102B6000BC9741B1213D28C5F4176CD63C1AC3303F
:102B7000B6906040FD08840E7CA795A369D251668B
:102B8000C0F5F654DEBCC6C0394166B8FFB5D75EA5
:102B900010487136FCDCB09C7996155EA2E1F49188
:102BA000E69974FC0EEC88E9D57937F23DE9F263D9
:102BB000797151BC9BAF56ADDDE80D9BAC9DEC85AA
:102BC00043E1502C4678527F07CB820BC8E0C0D43B
:102BD0002F8D6B8BBA05E5E71F6936277B545B2A7F
:102BE000C4F1ABC09246C9CFADE8AB0353D9DF08FF
:102BF0002513FE0F4C68D5AAAD781EBB95E71CC007
:102C00009B9D98CF4D6C39A93EB0FBFE93AE698079
:102C100025F0A2747C4C892B9D66E3695CEA7619E9
:102C2000520DAB967127E56C9A2764AC5B75D9F5AC
:102C300066FEC7CBD5D7FAD2CC36D4A4AAABF589D9
:102C400003A112F3001BB7000000000080F0FA029D
:102C5000102700000000000000000000000000003D
:0C2C60000080510108000020000000006E
:082C6C00B4D4FF7F0100000059
:102C740080F0FA02060000000000000000000000DE
:102C84000000000000000000000000000000000040
:102C94000000000000000000000000000000000030
:102CA4000000000000000000000000000000000020
:102CB4000000000000000000000000000000000010
:102CC4000000000000000000000000000000000000
:102CD4000000000000000000E9000000C100000046
:042CE40000000000EC
:04000003000027656D
:00000001FF
