:1000000000200020DD260000052700000527000055
:1000100000000000000000000000000000000000E0
:1000200000000000000000000000000005270000A4
:10003000000000000000000005270000DD1B00009C
:10004000052700000527000005270000951B00007C
:1000500005270000F51A000005270000052700000D
:10006000E11A0000CD1A0000052700000527000056
:10007000851A0000551A000005270000391A0000F3
:100080001D1A0000011A00000527000005270000C6
:1000900005270000052700000527000005270000B0
:1000A00005270000052700000527000005270000A0
:1000B0000527000005270000052700000527000090
:1000C00010B5064C2378002B07D1054B002B02D02E
:1000D000044800E000BF0123237010BD7800002019
:1000E00000000000E02B0000084B10B5002B03D0EF
:1000F0000749084800E000BF07480368002B00D10B
:1001000010BD064B002BFBD09847F9E7000000001C
:100110007C000020E02B00007400002000000000A4
:10012000164B002B00D1144B9D46402292029A1A86
:10013000924600218B460F461348144A121A02F0C9
:1001400021FB0F4B002B00D098470E4B002B00D00B
:1001500098470020002104000D000D48002802D01F
:100160000C4800E000BF02F0E9FA2000290000F08E
:1001700013F802F0CDFAC04600000800002000206D
:10018000000000000000000078000020A8170020F8
:100190000000000000000000F0B595B001F020FC68
:1001A0000920FC4D10262B6803432B6002F058F900
:1001B0000423EC682A68300013432B6002F050F9E6
:1001C00007232A69344013430F222B61AB69F2499C
:1001D0009343AB61EB68DB0701D400F0AFFC002078
:1001E00002F050F90426EF682B68102033432B608F
:1001F00002F036F907210F222B690B432B61AB6903
:1002000093431A0001231343AB6102232A698A43F3
:1002100013432B6102F076F8FB0602D42B68B3433C
:100220002B60002C03D104222B6893432B60AC205D
:10023000C00502F0DBF9D94802F0D8F9D84802F03D
:10024000D5F9D84802F0D2F9D74802F0CFF9D7480B
:1002500002F0CCF9D64802F0C9F9D64802F0C6F946
:10026000D54802F0C3F9D54802F0C0F9AC2003210B
:10027000C00501F093FFC021C848890401F08EFF3A
:100280000021C74801F08AFF8021C648890201F099
:1002900085FF8021C448890301F080FFC021C34845
:1002A000890401F07BFFC021C148890401F076FF79
:1002B000C021C048890401F071FFC021BE488904F3
:1002C00001F06CFFC021BD48890401F067FF02F016
:1002D00019F8802101228900B94802F09DF8802197
:1002E00001224900B64802F097F880210122090254
:1002F000B34802F091F801220421B24802F08CF8D0
:100300000022B14B04211A60B04BAD481A60B04BCB
:1003100001261A60AF4BA0241A60033202F07CF869
:1003200003220821A64802F077F880210322C900A1
:10033000A34802F071F8802103220901A04802F0CD
:100340006BF8A54B03221E60A44B08211E60A44B32
:100350009C481E60A34BE4051E6002F05DF8A24BB2
:10036000A24F1E608023E26B1B041343E3638023D0
:10037000E26BDB0313433800E3630022802102F0C9
:100380004BF8BB693800BB61FA69994B40211343B4
:100390008022FB617B6913437B61002202F03CF801
:1003A000BB693100BB61FA69924B93481343FB610F
:1003B00040237A6913437B61032202F02DF8032264
:1003C00002218D4802F028F8032204218A4802F015
:1003D00023F803220821884802F01EF80322802116
:1003E000774802F019F803220221754802F014F848
:1003F0000022824B824F1E60824B3E601E60824B09
:1004000031001E60814B6E481A60814B1A603200C9
:1004100002F002F832001021694801F0FDFF80214E
:1004200032004900674801F0F7FF8021320049019E
:10043000644801F0F1FF0022764B77481A60774B51
:100440001A60774B1A60774B1A600323626B9A43EA
:100450006263626B13436363236B734A13402363CA
:100460008023226BDB0113432363636B6F4A1340CA
:1004700080226363636B120213436363236D6C4AD0
:10048000134004222365236D2365E36D9343E365E5
:10049000E36D684AE365236E13402366236E664A64
:1004A0002366E36B1340E363C023E26B1B02134339
:1004B000E363236E614A13402366236E2366602341
:1004C000226B9A432263226B134323633023626EB1
:1004D0009A436266626E1A436266C022A16B9143C0
:1004E000A163A16B0A43A263226E55490A402266AA
:1004F000226E54492266626E0A406266626E5249FA
:100500006266226B0A402263C022216B92010A4379
:100510002263626E4D490A406266C022616E92009B
:100520000A436266626B9A436263626B134363635E
:1005300001F062FF464801F05FFF464801F05CFFB2
:10054000454801F059FF454801F056FF444801F085
:1005500053FF444801F0F2FE434801F0EFFE4348E8
:1005600001F0ECFE424801F0E9FE424801F0E6FEEF
:10057000414801F0E3FE3121404B414A19605A6085
:10058000404B414819605A6001F036FF6B6B0E9783
:100590007CE0C0460002005000E1F505103D8057A8
:1005A000100000B30400005F0500405F123D80575B
:1005B000083D8097093D80970A3D8097113D8057FF
:1005C0000040005040400050484200503C42005023
:1005D00024420050204200502C420050284200503B
:1005E0000C420050084200504C420050C0400050A5
:1005F00080008000400040008040005004420050D5
:100600001C42005088420050804200508C420050F2
:1006100084420050704200501000000460420050BC
:100620001042005000420050FFBFFFFFFF7FFFFF5E
:10063000FFFFFFFEFFFF7FFFFF3FFFFFFFFFFCFF0E
:10064000FFFFFFCFFFF3FFFFFFCFFFFFFFFCFFFF29
:100650001200000408000008090000080A00000851
:100660001100000400000540004015400040054016
:10067000008005400080154000001540000011403A
:1006800050C300002000114010000008DB0300D51B
:100690005CE201F009FE0024EC4902F087F8302208
:1006A000EB4BEC4D1C606B68013893431A00102330
:1006B00013436B60322380B2A86301305843642136
:1006C00002F074F88021E44B0138A8651A68E34809
:1006D000490302401A601A6811431960E04B1A6816
:1006E00002401A608022196892030A431A600423A8
:1006F000DC490A681A430A6001221100A14019422C
:1007000007D02100160091438E403100286A014332
:1007100029620134062CF0D10423D34A11680092D7
:10072000194205D02C2112688A431343009A1360A2
:100730000223009ACD4D5360009ACD4BA027136041
:1007400000236B6001F04CF901F07AFEC0208003B9
:1007500001F022FB0524FF05060004400195042C4E
:1007600013D11023C020C34A8003116801250B4315
:10077000136001F0FBFA3100C020A943214380033C
:1007800001F01AFBBB681D43BD60F920400201F077
:1007900003FBB94B1870FF2801D903221A7001F02E
:1007A00057FE0023019AA027536001F019F901F0C8
:1007B00047FEC020800301F0EFFA0524FF05060084
:1007C0000440042C13D11023C020AA4A80031168CE
:1007D00001250B43136001F0C9FA3100C020A94381
:1007E0002143800301F0E8FABB681D43BD60F82097
:1007F000400201F0D1FAA14CC0B22070102801D9FA
:100800000023237001F024FE0021019B182259606F
:100810009B4801F0B7FF322701239A4E9A4D9B481F
:100820005A5D195C92018900521899499F555218D6
:100830001168984A99540133062BF1D1802225780A
:10084000954C964BD200002120001D7001F09AFFBC
:10085000934B40221C60934B002193481C6001F095
:1008600091FF280001F02EFB9022904C0021D20035
:10087000200001F087FFC02601238D4D8D488E4951
:1008800032005A439F00A2187A513A508B4F5A5C5B
:10089000DF5D9201BF00D2197D4FD219884FFF5CF6
:1008A00001331760052BEBD1864C802200212000FC
:1008B00001F068FF844B40221C60844B0021844877
:1008C0001C6001F05FFF0023824AC0241370824A3B
:1008D00013608022814BD2001A605A6018329A1835
:1008E0009A601A001832DA601A615A6187237C4ACA
:1008F000DB00D2187B4B180019001C605C601830BC
:10090000D8338B60C860086148619A42F3D1C02235
:10091000002452000021744801F034FF0622002117
:10092000724801F02FFF40220021714801F02AFF98
:10093000704B714D1C70714B80201C70704B714955
:100940001C70714B4A681D8011231A434A606F4A1C
:1009500040016F4E106071681943716010606D48FE
:100960002D2641681943416080216B4809021160BE
:10097000416819434160802168484902116041681B
:100980001943416080218902116065494868034329
:100990004B6080239B0113602023FA211360614B7D
:1009A0008900186801F002FF5F4A01385060C020DA
:1009B0005E4900060B6A1B021B0A03430B620723F6
:1009C00094601360FA240F95FA25A4006D00584B2B
:1009D0001A68A24200D2BEE0FA229200A418554A38
:1009E0009442F4D11B68FA2103938900039801F023
:1009F00063FF002904D1F531FF31022001F06CF9C9
:100A0000284A2749136809688B4201D100F0E7FDA5
:100A1000214949481D780818834200D28AE21160B2
:100A20002C4A2B4C11784B1CDBB26554591E1370A9
:100A3000012905D0022900D1A7E0002900D0A8E0B3
:100A4000A52DDDD000231370DAE7C04648E8010089
:100A50001800044000000440B0000440CFFFCFFF66
:100A6000B4000440D800044000400040FC000050A6
:100A70008205000000C0005000000020530100204B
:100A8000281700204C010020AB2900009829000005
:100A9000004200509C010020E6010020540100208B
:100AA000080B0020E80A00205C01002066060020F8
:100AB000100B0020F00A0020B8290000A529000032
:100AC000D8290000E60500200C0B0020EC0A0020CD
:100AD0000B0100204B0100207C0D00209012002013
:100AE000800D0020580E0020280B0020E80C00206C
:100AF000A3010020E5010020B80B0000E401002064
:100B0000E301002000000540A417002000E100E000
:100B10000040154000400540008005400080154021
:100B2000000015400400002010E000E000ED00E0AF
:100B3000780D002070170000FF03000080200003E4
:100B400001F0A0FCEC683440FFF74CFB01F0DAFB4D
:100B5000D74B18689FE51A68D64BE3189A4207D21C
:100B60002900022001F0B8F82900032001F0B4F8B0
:100B700000F036FF009B1A680123B2431343009A2A
:100B800013600023019A536021E7062D00D859E72E
:100B900036E7A2789A4200D932E7200001F040FD02
:100BA000A8420ED13221032001F096F8E378A22B5F
:100BB00000D1B4E009D8052B00D143E1062B00D1C8
:100BC00098E10022BC4B1A701AE7B02B00D1C7E0A5
:100BD000E02BF6D1A3782000DF1F0293BBB21900EF
:100BE000059301F02DFDA779002F00D124E1E379D1
:100BF0000893002B00D11FE1237A0493002B00D12E
:100C00001AE1637A63240993029B0A210B3BDBB24E
:100C10000693049B069A9C42A4416442A31DD318E8
:100C2000DBB204980A9301F0C1FD00253030C3B255
:100C30000B93A24B1B34E3180C93069B1B190793D1
:100C4000033B9BB20D93079B5E1CF6B2C5239B4CE6
:100C5000082223706370B53BE3709949093B9948BA
:100C60002371677101F03DFE974B5B79A3730123FC
:100C7000E37301232374FF2F00D0CFE000236374BC
:100C8000FD23A37400232822E3746B469B181B7872
:100C9000043A2375012363756B469B181B78A37573
:100CA000049B632B00D8BBE01F3A8849884801F0B9
:100CB00018FE8549069A0A310C9801F012FE0D992A
:100CC000844801F0DFF87D4B079A834C985431003B
:100CD00082489E70267001F0B7FA0023984200D037
:100CE000330024780135E41A62426241089BEDB278
:100CF000941CAB42AAD10599734801F0A1FC724D36
:100D0000029B2C71591E280001F08AFC029B02995B
:100D1000EB18013B1870280001F018F851E7A521E5
:100D20006279664C6C4DE37001232170A52123711B
:100D300008332B706170D22309216271A170A371F5
:100D40000221CE3B2000E37101F07AFC2D782000D7
:100D50006E1E310001F064FCA05529002000DBE785
:100D6000A6782000073EF6B2310001F069FCA579B3
:100D7000E179002D1CD1FF2913D10139FF3904205D
:100D800000F0AAFF0123A57823713100200001F0B3
:100D900057FC691E200001F043FC6319013B1870E9
:100DA000DBE7FA239B005943042000F0AFFFE9E79B
:100DB000AA23227A414CA8002370553B63706B1E16
:100DC000A3700023E370464B5B5D237102236371C4
:100DD000444BC358180AA371E071180C1B0E6372C0
:100DE00020723C23002900D0C3330D273A4EE17214
:100DF0003D480921A3723770227301F043F86073F4
:100E0000D8200A23102145433848E37340190233A0
:100E1000A7733170E37001F017FAD2E667742FE719
:100E20005B23E3751B3323762C226B469B181B78C0
:100E300063765D23A3763CE72000059901F000FC72
:100E400001245CE7A5782000073DEDB2290001F000
:100E5000F7FBA279264B002A02D11B78E37116E03A
:100E6000E6791E7000F0BCFD01F0EAFAF8204002BD
:100E700000F07CFFF8203100400200F09DFF01F0FF
:100E8000E7FA0023019A5360E07901F01BF801238F
:100E9000A67823712900200001F0D2FB711E2000EA
:100EA00001F0BEFBA319013B1870310056E7C046A4
:100EB0000400002022FCFFFF4B0100205E170020F1
:100EC000E4290000641700200B010020ED29000038
:100ED0007517002061170020740D0020901200206B
:100EE000581700204017002062170020800D0020B6
:100EF00053010020A5782000073DEDB2290001F044
:100F00009FFBA279C14B002AA7D0E6791E7000F0A2
:100F100067FD01F095FAF920400200F027FFF92063
:100F20003100400200F048FF01F092FA0023019ADC
:100F30005360ACE70133136072E5053B1360002397
:100F4000B34DB44C2B70627F012A00D1F2E0E37FF5
:100F5000002B00D1637722003D321378012B00D1A2
:100F6000E8E03F342378002B00D113702B78002B5E
:100F700033D06421012000F0AFFEA5212A78A64CD1
:100F800093B29E1C093321706170D9B2FF2B05D931
:100F90000F210B40591E8B41103319000223E370BF
:100FA000013B2371200000239C4D63712970A170C7
:100FB00008309B49A371E27101F093FC31002000DD
:100FC00001F03EFB2D7820006E1E310001F028FB61
:100FD0002900A055200000F0B9FE924B1B78062B8B
:100FE0005ED0914F3B68052B00DCAEE0053B3B60DB
:100FF00000240E9B1B68A3421FD100F02DFF03208D
:1010000000F0EAFE0500C30702D500F005FF013C31
:10101000AB0710D54B2000F0DFFE00250400FF26B3
:1010200004906B1C02932B00049A33409A4200DD1B
:10103000D7E000F0F1FE00F0FAFE7C4D2C60002CB1
:101040002EDD7B4C2378C52B2AD16378C52B27D185
:10105000617C0B22A1713221203BA07B2370637045
:101060003B33E370DF3B2371A2706071217220007B
:101070002E39E37163722A6001F0E2FA2D682000D4
:101080006E1E310001F0CCFA2900A055200000F0BE
:101090005DFEFA219623490002203B6000F01CFE11
:1010A0000124644EF3683269934226D0624F3000C7
:1010B000390001F0A3F8021E1CD0604BA000E55CD3
:1010C0005F4BAD01E35C39009B00ED185D4BED1803
:1010D0005D4B1B5D2B605D4BC05801F077F95C4B9D
:1010E0001F685B4B1B68DB1B012B00D880E0594B52
:1010F0001B5D2B60300001F0B1FA0134D836052CAD
:10110000D0D10127544B554CC03340340493FBB22B
:101110000693049B524ABF330A93231D08933B0155
:10112000D3180593230010330793083B0993BB00A2
:101130000293A0E004225B01E418210038482A70E1
:1011400001F0CFFB0223637710E7464CE368226986
:10115000934200D14CE74449200001F04FF8061EAD
:1011600034D0FA239B003B6000F076FE01218820FA
:1011700000F040FE0021882000F03CFE3100BE203F
:1011800000F038FE0025EBB2B34223D304218520C2
:1011900000F030FE0021862000F02CFE032000F03D
:1011A0001BFE042000F018FE0921872000F022FE1B
:1011B0002E4A1368002BFCD100F04EFE00F02CFEEE
:1011C00000F035FE3221022000F086FD200001F003
:1011D00045FA0DE7244BFF20595D00F00BFE013569
:1011E000D1E77F2000F0F8FD114B5855029D18E71C
:1011F00000F0F6FB2D22009B1B6893432C3A13430F
:10120000009A13600023019A53606AE700000020EF
:101210000A0100205C010020F40C0020750D002064
:10122000F4000020080000207C0D0020F00C0020BD
:10123000A80C0020580E0020E8160020B829000055
:10124000A529000000420050DE290000C02900004E
:10125000780D0020D829000066060020280B002009
:101260009400002090120020A81600201C4200507C
:10127000AA2800D0FD54BF4A029BBF4902989B5840
:1012800041588B4200D1D6E10A99187899427FD80B
:10129000029B04999950B94BB94EFD5CB9016A1C87
:1012A000D2B271184855551EFA54012D66D0032D3F
:1012B0006AD0002DDCD0E378D81C8242DBDDCA186E
:1012C00095780D2D57D1095C0A2954D1033B99B269
:1012D0000898557800F0D6FD85424CD13221022085
:1012E00000F0FAFCA27AA74B0299FA54E37BA27BA6
:1012F0001B029B18627B1B029B18227B1B029B1804
:10130000E578A14A0F3D8B50A04BEDB2FD542A0069
:101310000799059801F0E5FAABB29A1C0B92A52249
:101320002270A52209336270DEB2FF2B05D90F2689
:1013300033405E1EB34110331E000223E370013BB5
:101340002371002363716B461B7E2A00A371E57134
:101350000599A670099801F0C4FA0B99200001F0D4
:101360006FF9711E2000651801F05AF931002870DC
:10137000200000F0EBFC0022804B03E0552800D158
:1013800079E70022FA5476E7062800D973E7F8E7F0
:10139000029901338B507EE76B469B8F7C4913800B
:1013A0007C483A0001F012F854E100217A4A1170A9
:1013B0000122C52B02D0532B03D10B22774B1A707D
:1013C00049E11522FF2BF9D01F22FA2BF6D000237A
:1013D0002B7040E171490A78012A04D1C52BF6D15E
:1013E000C33B0B7037E10B2A03D1542BEFD1483BA1
:1013F000F7E7152A05D1FE2B01D1D43BF1E71623DF
:10140000EFE71F2AE3D1102BE1D11033E9E763495D
:101410000A78022A03D1604A13700323E1E70C2AF9
:1014200003D1412BD3D1343BDBE7162A01D117235B
:10143000D7E7202A03D1082BC9D11933D1E72A2AAB
:10144000C5D1554A023313702B23CAE7534802789B
:10145000032A02D104230370FDE00D2A03D1542B8B
:10146000B5D1463BF7E7172A0BD16378A278E1782C
:1014700053409942ABD100220170012001F004F9E0
:10148000A5E72223212AE6D02B2AA0D12C23E2E7AC
:1014900042480178042907D13F4B1B78934200D979
:1014A000D9E0E378037092E70E2955D1A3185A1EAC
:1014B00012780A2A00D0CEE0023B1B780D2B00D018
:1014C000C9E03749200001F0FDF9002800D07EE78F
:1014D00026000A363349300001F022FA002812D1E2
:1014E0003149300001F01CFA00280CD12F4930009E
:1014F00001F016FA002806D12D49300001F010FA4B
:10150000002800D163E72D21200001F0F3F9061E29
:1015100000D15CE701302D2101F0ECF9002800D169
:1015200055E7841BE3B2022B00D850E710220021BC
:1015300010A801F027F91F4910A801F0E9F93C4073
:1015400010AB22003100581D01F0CBF9621D10A92B
:10155000104800F03BFF3AE7182900D137E722296D
:101560002AD10C2A77D9FF2B75D1E3780370A279A1
:10157000617982E7F00A0020100B0020E80C0020BF
:10158000280B0020581700204017002004010020DD
:101590006E29000000001540E5010020E301002055
:1015A000F3290000742900007D290000842900002F
:1015B0008C290000682900002C2900D007E7494B3E
:1015C0001B78934247D86379652B44D1E378037045
:1015D000E279A179022051E701320A6048E0424AEB
:1015E0001368052B00D9A8E40121404B404C13603F
:1015F000404AE1701388217101339BB21380A52208
:1016000000213D4D227062709C3AA27061712A7077
:1016100020001A0A0231A271E37101F011F82D784D
:1016200020006E1E310000F0FBFF2900A0552000B5
:1016300000F08CFB83E4049B0137C03340340493F7
:10164000052F00D063E52D4A1388052B00D8A3E6AB
:10165000053B1380FF272A492A4B0A681B689A42D8
:101660001CD02948137804007F34A242B4D3086008
:10167000264D2A783F2A01D900222A702978244C45
:101680004A1CD2B2501E2A706354032800D9FFE6C8
:1016900001F082F88BFEA0FEBDFEDCFE1D4B5B79E7
:1016A000002B07D11C4B04201978FA239B005943C7
:1016B00000F02CFB00F094F92D2218490B6893439D
:1016C0001A000123134300220B60154B5A60154A80
:1016D000136803995B1A042BFAD90B000533FFF743
:1016E00082F9C046E5010020580100203075000055
:1016F000340D002056010020760D0020A417002094
:10170000EC0A00200C0B0020E6050020E40100207C
:10171000A30100209C0100200000002000400040A8
:10172000FC000050780D0020094A30B58400A35811
:10173000084D1970C02358430300A158BF335B19EB
:10174000994202D34019A05030BD0131A150FBE7AE
:10175000100B00206606002030B5027F0300052A2A
:1017600038D10022110042769818007C551C0409DB
:1017700044406140002A01D12A00F5E71A681402AA
:1017800024181C602A00052DEED10F20DA7D0140BF
:101790008A4202D0012040420CE0C8229968DA77E0
:1017A000187C22008C4202D1997D884203D0987522
:1017B00001209A6030BD587F002803D05D68012069
:1017C000AC42F7D0002A01D10029E3D001205A60B1
:1017D0005877EFE70121007E084002D000225A76B8
:1017E000D8E7D97E18760829E4D1511C1977D97D1C
:1017F0009A18D8761174D875DCE710B51400527EAB
:101800000300FF2A37D0122A1BD10020E021ED323D
:101810006276E26820769B18E075E0762077E360D8
:10182000890001228B4202D9A276E27610BDA02166
:1018300089008B4201D9A076F7E70123A376002027
:10184000F4E7112A03D101326276E360F7E78238C8
:10185000FF38FE2804D8002902DD01236376EEE775
:10186000813B0020FE2B04D8824202D001326276F6
:10187000DCE76076E3E7A27E002A4CD00029E4DDB5
:10188000E2681318E360237E0133DBB25AB2237699
:10189000002A2BDBE27D52000132E275E27E511C10
:1018A000E17604218A43032A02D1833A1343237643
:1018B000A023E2689B009A42BFD9217E4BB2002B45
:1018C00023DBE27DE37E5200E2755A1CE2760422BD
:1018D0009343032B02D1833B0B432376E023E2683F
:1018E0009B009A42A9D80020A0769FE7237F052B72
:1018F00003D1E27D0B331343E3752000FFF72CFF88
:10190000431CD5D10120404290E72000FFF724FF7F
:10191000431CE3D1F6E7002997DDE268217E131826
:10192000E3604BB2002B0EDBE27DE37E5200E275FA
:101930005A1CE27604229343032B02D1833B0B43D0
:101940002376A023CBE72000FFF706FF431CF8D146
:10195000D8E700000A4B0B4AD86810B55A608022BD
:101960001968D2050A431A60074B084A19680139F9
:101970004B425941012349421943FFF73EFF10BD35
:101980002000114050C30000D84200507C010020CC
:101990000021F0B50F4D0B0008240127AC460E4A7C
:1019A0000E4E11605B0045B2DBB2002D10DA3760DD
:1019B000654617602D684000C0B2012D01D12B4350
:1019C000DBB2013C1160002CECD118001460F0BDBA
:1019D0003160EDE788420050844200508C42005054
:1019E00010B5592116208824044B5A68012A00D1C9
:1019F00010BD596058605C60F7E7C046FC000050BD
:101A0000054B10B5DA69D20504D519680120C9B2B1
:101A1000FFF78AFE10BDC04600801540054B10B58B
:101A2000DA69D20504D519680320C9B2FFF77CFE34
:101A300010BDC04600800540054B10B5DA69D205DF
:101A400004D519680220C9B2FFF76EFE10BDC0466A
:101A500000400540074BDA69D20508D5064A1968E7
:101A60001368197005498B4202D3054B1360704708
:101A70000133FBE7000015400C0B00206506002039
:101A8000E60500200C4B10B5DA69D20508D50B4AE3
:101A90001968136819700A498B420BD3094B1360FC
:101AA000094BDA69D20504D519680420C9B2FFF7D9
:101AB0003BFE10BD0133F2E700000540080B00209B
:101AC000E5050020E6010020004015400122034BFF
:101AD0009968114200D09A607047C04620000140CA
:101AE0000122034B9968114200D09A607047C046AA
:101AF0000000014080231F4A5B00116A10B51942A3
:101B000003D01362FFF726FF10BD40211A4B186A5D
:101B1000084201D01962F5E78021186A084215D001
:101B20001962164A164BD8685A6080221968D20585
:101B30000A431A60134B144A196801394B42594140
:101B4000012349421943FFF758FEDDE70F49086AB0
:101B50000C6A20430862196A186A014319620C4B27
:101B6000196A186A01431962136A116A0B431362F6
:101B7000CAE7C04640410050C040005050C300007A
:101B800000001140DC4200505C0100208040005009
:101B90000041005080220C4B120210B51A620B4B10
:101BA0000B4AD8685A6080221968D2050A431A6025
:101BB000084B094A196801394B42594101234942EE
:101BC0001943FFF71AFE10BD4040005000001140BD
:101BD00050C30000DC4200505C010020334AF0B5E5
:101BE0001368334901331360002301229C46314CB2
:101BF000314D324E0F687B1ED81C02D8012F26D0E3
:101C00000B6001320431052AF4D1012332212C4822
:101C10002C4C2D4DC25CE65C9201B60092192B4E05
:101C2000921916685A191778F6B29446284AB7429C
:101C300019D1D1540133062BECD1264BDA7F002A7F
:101C40001CD11A003F321278002A23D1F0BD63461E
:101C5000AF5C0B60A35CBF009B01DB191B4FDB1962
:101C6000B75C1F60CDE7D2181778012F02D9013F6A
:101C70001770DFE7117062461670DBE7012A09D999
:101C8000013ADA7719003F310A78012A07D9013A77
:101C90000A70DBE70022DA779A609A75F2E7002291
:101CA0009A6236330A701A70D0E7C046780D002069
:101CB0002C170020B22900009F290000D82900001D
:101CC000AB290000982900009C0100200042005030
:101CD0004C0100205C010020074B8200D150074BD3
:101CE000074A1B5C125C9B0192009B18054A9B18DB
:101CF000054A125C1A60704728170020B2290000BC
:101D00009F29000000420050DE29000010B5002984
:101D100002D0FFF7E1FF10BD074B8200D150074B07
:101D2000074A1B5C125C9B0192009B18054A9B189A
:101D3000054A125C1A60EEE728170020B22900005D
:101D40009F29000000420050D829000070B50D0006
:101D5000040032210320FFF7BFFF2A0021000248C0
:101D600000F034FB70BDC046000005402222094B44
:101D7000DA60213A58601A61BFF36F8F1869002842
:101D8000FCD140221968114203D0196801380A4376
:101D90001A60704700C000500022064BDA60013222
:101DA00058601A61BFF36F8F1A69002AFCD19868D6
:101DB0007047C04600C000502122064BDA60203A2E
:101DC000586099601A61BFF36F8F1A69002AFCD1BD
:101DD0007047C04600C00050002310B5044C23607B
:101DE000FFF7D6FDFF20FFF7D3FD0123236010BDD1
:101DF00080420050002370B50D00064C23608033F4
:101E00001843FFF7C5FD2800FFF7C2FD012323603B
:101E100070BDC0468042005010B502218820FFF7F7
:101E2000E9FF88200021FFF7E5FF002010BD10B575
:101E300003218520FFF7DEFF00218620FFF7DAFF70
:101E40000320FFF7C9FF0420FFF7C6FF8720052105
:101E5000FFF7D0FF002010BD10B501218720FFF74C
:101E6000C9FF00218520FFF7C5FF00218620FFF76D
:101E7000C1FF0320FFF7B0FF0420FFF7ADFF0020F4
:101E800010BD0000F0B503000826002031270139FD
:101E90000B4A89B2914200D1F0BD1A78504032000D
:101EA00044B2A44665464400E0B2002D01DA7C400D
:101EB000E0B2013AD2B2002AF2D10133E7E7C046DC
:101EC000FFFF00000022F8B504002D260127A54BD6
:101ED000A54D1A60013D002D00D0F2E00320FFF770
:101EE0007BFF06000420FFF777FFFF2E00D1E7E01D
:101EF000FF2800D1E4E09D4B9D4E1D7007239D4DB2
:101F0000AA212C709C4C33708D20053B2370FFF769
:101F100071FF0D20FFF760FF984F442138808D201E
:101F2000FFF768FF0D20FFF757FF38800320FFF70A
:101F300053FF0420FFF750FF80218720FFF75AFF4F
:101F40008F4B1F68012F00D1C6E00320FFF744FF2D
:101F50000420FFF741FF0320FFF73EFF0420FFF7B7
:101F60003BFF00218520FFF745FF02218620FFF778
:101F700041FF00218920FFF73DFF0021D120FFF71D
:101F800039FF0B21D020FFF735FF5321F520FFF754
:101F900031FF2F7823787B4DF620EB18D979FFF7A6
:101FA00029FF2378F720EB18997BFFF723FF23788D
:101FB000FA20ED18697DFFF71DFF3900F920FFF7C2
:101FC00019FF0021B220FFF715FF0221B320FFF710
:101FD00011FF2D21B620FFF70DFFD421B720FFF709
:101FE00009FF8821B020FFF705FF6321F120FFF7EB
:101FF00001FF1021B420FFF7FDFE4221B520FFF7BD
:10200000F9FEF5218B20FFF7F5FEF2218C20FFF77A
:10201000F1FE14218D20FFF7EDFE18213378ED201D
:102020001943FFF7E7FE514A237812780E24002A5D
:102030005ED15C43544D9C20615D2C19FFF7DAFEA4
:102040006178A020FFF7D6FEA178A120FFF7D2FE8D
:10205000E178A220FFF7CEFE2179A320FFF7CAFE88
:102060006179A420FFF7C6FEA179A520FFF7C2FE83
:10207000E179EE20FFF7BEFE217AEF20FFF7BAFEEE
:10208000617AF020FFF7B6FEA17AF220FFF7B2FEE8
:10209000E17A9D20FFF7AEFE217B9E20FFF7AAFE8E
:1020A000617BAA20FFF7A6FE344B1A880623FF2A7D
:1020B00000D00023354A1370FFF7CEFEFFF7B7FEBE
:1020C000F8BDFFF78DFC324A1368B3433B431360FE
:1020D0000022304B5A60FDE6FFF782FC2D212C4A8E
:1020E00013688B431F43176000222A4B5A6027E76F
:1020F0005C43294D9C20615D2C19FFF77BFE6178C4
:10210000A020FFF777FEA178A120FFF773FEE1780A
:10211000A220FFF76FFE2179A320FFF76BFE617904
:10212000A420FFF767FEA179A520FFF763FEE17900
:10213000EE20FFF75FFE217AEF20FFF75BFE617A6A
:10214000F020FFF757FEA17AF220FFF753FEE17A65
:102150009D20FFF74FFE217B9E20FFF74BFE412184
:102160009FE7C0460442005041420F009E170020E6
:10217000A11700209F170020A0170020A217002001
:102180001C4200503E2A00005A2A0000080000208D
:1021900000400040FC000050302A0000F0B585B03F
:1021A0006A46134B6C46E0CBE0C21B681360820AA0
:1021B000D2B2002A0AD08605F60EB2400D4D0303B6
:1021C0009B0F5B199B001D6895431D6003015B0F0E
:1021D0000CD08200C001C00E8340920F9200A45820
:1021E000054AA41822689A431143216005B0F0BD46
:1021F000002A00008600001410020050F8B50269A1
:10220000C36807000E001D7893421BD0402D19D8DB
:102210006A1C8468591C9B18A34201D302689B1A4C
:10222000994205D22A00300000F05BFB2800F8BD7F
:10223000641AE4B22200300000F053FB30192A1B6C
:102240007969F1E70025F1E7F8B5040062684B1CF5
:102250000E0000209A4218D922691170501C226980
:10226000A568D3182361AB4202D322689B1A23616D
:1022700063680B4F9B1B013B63602369984205D247
:102280003200390000F02DFB0120F8BD2D1AEDB20F
:102290002A00390000F025FB6069721B7919F1E70B
:1022A0005E17002070470000012307B5A02101AA96
:1022B0001370DB18537093700233D3700E4BC90246
:1022C0001B6A00200B4213D1190312D40B48990347
:1022D0000ED4D905C90D0231800848431904890F6D
:1022E000525C9904C90E0231514300F05FFA80003C
:1022F0000EBD0348EBE7C04600020050001BB700CC
:102300000080510110B5FFF7CFFF0721084A13697C
:102310000B40022B02D007499B0058580F239169AC
:102320001940013100F042FA034B186010BDC0465D
:1023300000020050BC2B000004000020F0B585B066
:102340006A461E4B0500103313CB13C21B686E4642
:1023500013601B4A0323546997690022240E2A63E1
:10236000EB601C40174AAB683F0513403F0FAB6062
:10237000012C02D1FFF798FF0190A400791C30597D
:1023800000F014FAE123E1211B0204004902C01805
:1023900000F00CFA0C4B023898420BD9E123E121F2
:1023A0001B03E018490200F001FA000902386862D4
:1023B00005B0F0BDC0239B051843F8E7002A0000D4
:1023C000000200500FFFF0FFFFFF000070B58025F6
:1023D0008C186D05A14206D1100070BD013B002B89
:1023E00003D11A00F8E78023DB0586692E42F5D079
:1023F0000B7801310360EDE7064A030E9B180122BA
:102400000002000A8240196811431960196891435B
:102410001960704708000050F0B50023032601241E
:102420009C40214208D035005F00BD400468AC43A9
:102430001500BD402C4304600133102BEFD1F0BDDB
:102440000123024A11680B431360704700C000501B
:102450000121024A13688B431360704700C000508B
:10246000064B0749CA680240904201D101207047DB
:10247000013B002BF6D11800F9E7C046814F12004E
:10248000000200508023F0B5484D5B022B6287B0FC
:1024900004000E002B68002862D1012003432B604A
:1024A000FFF7DEFF02230093414B05940393414B5A
:1024B000414AF318934267D9404B414AF31893427B
:1024C0005AD8012376000193002301271C000293B0
:1024D0007F420099039800F069F93A4B3A4AC318D1
:1024E000934220D84300F21A0492A4463A000224F0
:1024F000364F3749DF198F420BD8049F9E4200D2D6
:102500009F1B974205D2002F40D0009AA44602920A
:102510003A0004990134091A04912E491B188C427F
:10252000E6D164461700009B01330093222BD0D1E3
:10253000019B059A9B031343A21E1343029A042096
:10254000023A520213432B62FFF78AFF019B039862
:10255000591C029B594300F029F9604307B0F0BDB4
:1025600004273B432B601020FFF77AFF80231B03D7
:1025700005930097184B99E7184B194AF3189342A3
:1025800007D8B60003239EE700239CE7009B029335
:10259000C9E7002C07D1134B2B620420FFF760FF23
:1025A000FFF782FEDAE7104BF6E7C0460002005064
:1025B000001BB700FF1E0AFAFFE0F5057F0F05FDBF
:1025C0007FF0FA02FF95E7FFBE77CC00001F0AFA02
:1025D00000E1F5050202000000805101C08782FE83
:1025E00040787D012EC200006FD608007FB5694695
:1025F0006A46094B203370CB70C11B680B60830F98
:102600009B009A58054BD2181F2318401E3B83404D
:1026100011680B4313607FBD002A000004020050C4
:102620000200002330B5054D141AA14201DC180048
:1026300030BD147801326340EB5CF5E7BC2A000042
:1026400010B52C24831D053164421A1A914200DA18
:1026500010BD1A7862401A700133F6E70200C368B1
:10266000116900208B420ED01978481C1B18906805
:10267000D360834202D310681B1AD36001205368D1
:1026800001335B185360704770B5124B124C90B019
:102690001C806C46A523237063700A246B466D462C
:1026A0009C7003236E46EB70012535710025B071D7
:1026B000F1716846190032727571FFF7C1FF092187
:1026C0006846FFF7ADFF210070726846FFF73EFBDA
:1026D00010B070BDA4170020B80B00000649074ACF
:1026E000074B9B1A03DD043BC858D050FBDCFFF7B7
:1026F000D9FDFDF715FD0000EC2B000000000020C7
:1027000078000020FEE7C046ABBE744698472047DD
:10271000084B10B50400002B02D0002100E000BFE0
:10272000054B1868836A002B00D09847200000F002
:1027300031F8C04600000000DC2B000070B5002618
:102740000C4D0D4C641BA410A64209D1002600F0CC
:10275000FFF80A4D0A4C641BA410A64205D170BDB7
:10276000B300EB5898470136EEE7B300EB589847B3
:102770000136F2E76C0000206C0000206C000020A5
:102780007000002003008218934200D17047197036
:102790000133F9E7FEE7C04603B47146490840003B
:1027A0004900095E49008E4403BC7047002243087B
:1027B0008B4274D303098B425FD3030A8B4244D309
:1027C000030B8B4228D3030C8B420DD3FF2209024B
:1027D00012BA030C8B4202D31212090265D0030B0A
:1027E0008B4219D300E0090AC30B8B4201D3CB0300
:1027F000C01A5241830B8B4201D38B03C01A524142
:10280000430B8B4201D34B03C01A5241030B8B4243
:1028100001D30B03C01A5241C30A8B4201D3CB022E
:10282000C01A5241830A8B4201D38B02C01A524113
:10283000430A8B4201D34B02C01A5241030A8B4216
:1028400001D30B02C01A5241CDD2C3098B4201D32E
:10285000CB01C01A524183098B4201D38B01C01AAC
:10286000524143098B4201D34B01C01A5241030923
:102870008B4201D30B01C01A5241C3088B4201D3D2
:10288000CB00C01A524183088B4201D38B00C01A7F
:10289000524143088B4201D34B00C01A5241411AA6
:1028A00000D20146524110467047FFE701B50020B3
:1028B00000F006F802BDC0460029F7D076E7704761
:1028C0007047C04630B50024A24201D1002005E087
:1028D000035D651C0C5DA34201D0181B30BD2C00AC
:1028E000F2E7002310B59A4200D110BDCC5CC4546D
:1028F0000133F8E7C9B20378002B04D0994200D124
:1029000070470130F7E74B42594149420840F7E729
:10291000031C0A7801311A700133002AF9D170477B
:1029200010B502000078002804D1097800290DD0E4
:1029300010BD013210780028FAD00023C85C0028AE
:1029400004D0D45C8442F4D10133F7E71000EFE700
:10295000F8B5C046F8BC08BC9E467047F8B5C046FE
:10296000F8BC08BC9E46704741543A474900415460
:102970003A475300545347454630334400424634A7
:10298000303330004A58425F54544D004D4544584E
:10299000494E472D49525400000B0A030203000020
:1029A00008090F0200000004080C000000000000ED
:1029B0000100000000000100000000010100000013
:1029C00000000000008015400040054000800540E8
:1029D0000040154000000000000000000000000161
:1029E000010101004646464646464646005B7631B2
:1029F000305D00535441543A204E414D4500000093
:102A000000000000040000000C0000002400000092
:102A1000001BB70000000000000000000080510112
:102A200000000000040000002C0000000000000076
:102A30009A7140346E00084E792090400A41040497
:102A4000040303020153535358565A614040404017
:102A5000C040C0212121272D24001D4160275200A4
:102A60000513A9203A400A201DA1204EA5000A27DF
:102A7000522048400A201ED0009D4900244EA52027
:102A800018400A2003D0009D49013D9D49200F4078
:102A90000A1E0368013A93027809D5001F400A20F4
:102AA000064501D7DC03B80EBF002E400A2D826810
:102AB000013A9302781D7E005C400A502DC30FBA84
:102AC000B178A9F2750A7549938DC7A6C93C16F964
:102AD000AB4B29534080200FBC9741B1213D28C505
:102AE000F4176CD63C1AC330B6906040FD08840ED3
:102AF0007CA795A369D25166C0F5F654DEBCC6C06A
:102B0000394166B8FFB5D75E10487136FCDCB09C21
:102B10007996155EA2E1F491E69974FC0EEC88E9D1
:102B2000D57937F23DE9F263797151BC9BAF56AD6F
:102B3000DDE80D9BAC9DEC8543E1502C4678527F3F
:102B400007CB820BC8E0C0D42F8D6B8BBA05E5E7AD
:102B50001F6936277B545B2AC4F1ABC09246C9CFAC
:102B6000ADE8AB0353D9DF082513FE0F4C68D5AA97
:102B7000AD781EBB95E71CC09B9D98CF4D6C39A9C5
:102B80003EB0FBFE93AE698025F0A2747C4C892B8D
:102B90009D66E3695CEA7619520DAB967127E56C88
:102BA0009A2764AC5B75D9F566FEC7CBD5D7FAD248
:102BB000CC36D4A4AAABF58903A112F3001BB7004D
:102BC0000000000080F0FA02102700000000000062
:102BD0000000000000000000008051010C000020F7
:042BE00000000000F1
:082BE4003CD5FF7F0100000059
:102BEC000300000080F0FA02060000000000000064
:102BFC0000000000000000000000000000000000C9
:102C0C0000000000000000000000000000000000B8
:102C1C0000000000000000000000000000000000A8
:102C2C000000000000000000000000000000000098
:102C3C000000000000000000000000000000000088
:102C4C00000000000000000000000000E90000008F
:082C5C00C100000000000000AF
:04000003000026DDF6
:00000001FF
