:10000000002000204D270000752700007527000004
:1000100000000000000000000000000000000000E0
:100020000000000000000000000000007527000034
:100030000000000000000000752700004D1C0000BB
:10004000752700007527000075270000051C0000BB
:1000500075270000651B000075270000752700004C
:10006000511B00003D1B0000752700007527000094
:10007000F51A0000C51A000075270000A91A000033
:100080008D1A0000711A0000752700007527000006
:1000900075270000752700007527000075270000F0
:1000A00075270000752700007527000075270000E0
:1000B00075270000752700007527000075270000D0
:1000C00010B5064C2378002B07D1054B002B02D02E
:1000D000044800E000BF0123237010BD7800002019
:1000E00000000000502C0000084B10B5002B03D07E
:1000F0000749084800E000BF07480368002B00D10B
:1001000010BD064B002BFBD09847F9E7000000001C
:100110007C000020502C0000740000200000000033
:10012000164B002B00D1144B9D46402292029A1A86
:10013000924600218B460F461348144A121A02F0C9
:1001400059FB0F4B002B00D098470E4B002B00D0D3
:1001500098470020002104000D000D48002802D01F
:100160000C4800E000BF02F021FB2000290000F055
:1001700013F802F005FBC046000008000020002034
:10018000000000000000000078000020AC170020F4
:100190000000000000000000F0B595B001F058FC30
:1001A0000920FC4D10262B6803432B6002F090F9C8
:1001B0000423EC682A68300013432B6002F088F9AE
:1001C00007232A69344013430F222B61AB69F2499C
:1001D0009343AB61EB68DB0701D400F01BFC00200C
:1001E00002F088F90426EF682B68102033432B6057
:1001F00002F06EF907210F222B690B432B61AB69CB
:1002000093431A0001231343AB6102232A698A43F3
:1002100013432B6102F0AEF8FB0602D42B68B34304
:100220002B60002C03D104222B6893432B60AC205D
:10023000C00502F013FAD94802F010FAD84802F0CB
:100240000DFAD84802F00AFAD74802F007FAD74860
:1002500002F004FAD64802F001FAD64802F0FEF99C
:10026000D54802F0FBF9D54802F0F8F9AC2003219B
:10027000C00501F0CBFFC021C848890401F0C6FFCA
:100280000021C74801F0C2FF8021C648890201F061
:10029000BDFF8021C448890301F0B8FFC021C348D5
:1002A000890401F0B3FFC021C148890401F0AEFF09
:1002B000C021C048890401F0A9FFC021BE488904BB
:1002C00001F0A4FFC021BD48890401F09FFF02F0A6
:1002D00051F8802101228900B94802F0D5F8802127
:1002E00001224900B64802F0CFF88021012209021C
:1002F000B34802F0C9F801220421B24802F0C4F860
:100300000022B14B04211A60B04BAD481A60B04BCB
:1003100001261A60AF4BA0241A60033202F0B4F831
:1003200003220821A64802F0AFF880210322C90069
:10033000A34802F0A9F8802103220901A04802F095
:10034000A3F8A54B03221E60A44B08211E60A44BFA
:100350009C481E60A34BE4051E6002F095F8A24B7A
:10036000A24F1E608023E26B1B041343E3638023D0
:10037000E26BDB0313433800E3630022802102F0C9
:1003800083F8BB693800BB61FA69994B402113437C
:100390008022FB617B6913437B61002202F074F8C9
:1003A000BB693100BB61FA69924B93481343FB610F
:1003B00040237A6913437B61032202F065F803222C
:1003C00002218D4802F060F8032204218A4802F0DD
:1003D0005BF803220821884802F056F803228021A6
:1003E000774802F051F803220221754802F04CF8D8
:1003F0000022824B824F1E60824B3E601E60824B09
:1004000031001E60814B6E481A60814B1A603200C9
:1004100002F03AF832001021694802F035F88021E4
:1004200032004900674802F02FF88021320049016C
:10043000644802F029F80022764B77481A60774B1F
:100440001A60774B1A60774B1A600323626B9A43EA
:100450006263626B13436363236B734A13402363CA
:100460008023226BDB0113432363636B6F4A1340CA
:1004700080226363636B120213436363236D6C4AD0
:10048000134004222365236D2365E36D9343E365E5
:10049000E36D684AE365236E13402366236E664A64
:1004A0002366E36B1340E363C023E26B1B02134339
:1004B000E363236E614A13402366236E2366602341
:1004C000226B9A432263226B134323633023626EB1
:1004D0009A436266626E1A436266C022A16B9143C0
:1004E000A163A16B0A43A263226E55490A402266AA
:1004F000226E54492266626E0A406266626E5249FA
:100500006266226B0A402263C022216B92010A4379
:100510002263626E4D490A406266C022616E92009B
:100520000A436266626B9A436263626B134363635E
:1005300001F09AFF464801F097FF464801F094FF0A
:10054000454801F091FF454801F08EFF444801F015
:100550008BFF444801F02AFF434801F027FF43483E
:1005600001F024FF424801F021FF424801F01EFF44
:10057000414801F01BFF3121404B414A19605A604C
:10058000404B414819605A6001F06EFF6B6B0E974B
:100590007CE0C0460002005000E1F505103D8057A8
:1005A000100000B30400005F0500405F123D80575B
:1005B000083D8097093D80970A3D8097113D8057FF
:1005C0000040005040400050484200503C42005023
:1005D00024420050204200502C420050284200503B
:1005E0000C420050084200504C420050C0400050A5
:1005F00080008000400040008040005004420050D5
:100600001C42005088420050804200508C420050F2
:1006100084420050704200501000000460420050BC
:100620001042005000420050FFBFFFFFFF7FFFFF5E
:10063000FFFFFFFEFFFF7FFFFF3FFFFFFFFFFCFF0E
:10064000FFFFFFCFFFF3FFFFFFCFFFFFFFFCFFFF29
:100650001200000408000008090000080A00000851
:100660001100000400000540004015400040054016
:10067000008005400080154000001540000011403A
:1006800050C300002000114010000008DB0300D51B
:10069000C8E101F041FE0024E54902F0BFF8302234
:1006A000E44BE54D1C606B68013893431A0010233E
:1006B00013436B60322380B2A86301305843642136
:1006C00002F0ACF88021DD4B0138A8651A68DC48DF
:1006D000490302401A601A6811431960D94B1A681D
:1006E00002401A608022196892030A431A600423A8
:1006F000D5490A681A430A6001221100A140194233
:1007000007D02100160091438E403100286A014332
:1007100029620134062CF0D10423CC4A11680092DE
:10072000194205D02C2112688A431343009A1360A2
:100730000223009AC64D5360009AC64BA02713604F
:1007400000236B6001F084F901F0B2FEC020800349
:1007500001F05AFB0524FF05060004400195042C16
:1007600013D11023C020BC4A8003116801250B431C
:10077000136001F033FB3100C020A9432143800303
:1007800001F052FBBB681D43BD60F920400201F03F
:100790003BFBB24B1870FF2801D903221A7001F0FD
:1007A0008FFE0023019AA027536001F051F901F058
:1007B0007FFEC020800301F027FB0524FF05060013
:1007C0000440042C13D11023C020A34A80031168D5
:1007D00001250B43136001F001FB3100C020A94348
:1007E0002143800301F020FBBB681D43BD60F8205E
:1007F000400201F009FB9A4CC0B22070102801D9C8
:100800000023237001F05CFE0021019B1822596037
:10081000944801F0EFFF32270123934E934D944803
:100820005A5D195C92018900521892499F555218DD
:100830001168914A99540133062BF1D18022257811
:100840008E4C8F4BD200002120001D7001F0D2FF92
:100850008C4B40221C608C4B00218C481C6001F0AA
:10086000C9FF280001F066FB9022894C0021D200CC
:10087000200001F0BFFFC0260123864D864887492E
:1008800032005A439F00A2187A513A50844F5A5C62
:10089000DF5D9201BF00D219764FD219814FFF5C04
:1008A00001331760052BEBD17F4C80220021200003
:1008B00001F0A0FF7D4B40221C607D4B00217D4854
:1008C0001C6001F097FF00237B4AC02413707B4A11
:1008D000136080227A4BD2001A605A6018329A183C
:1008E0009A601A001832DA601A615A618723754AD1
:1008F000DB00D218744B180019001C605C601830C3
:10090000D8338B60C860086148619A42F3D1C02235
:100910000024520000216D4801F06CFF06220021E6
:100920006B4801F067FF402200216A4801F062FF36
:10093000694B6A4D1C706A4B80201C70694B6A4978
:100940001C706A4B4A681D8011231A434A60684A2A
:100950004001684E1060716819437160106066480C
:100960002D264168194341608021644809021160C5
:100970004168194341608021614849021160416822
:10098000194341608021890211605E494868034330
:100990004B6080239B0113602023FA2113605A4B84
:1009A0008900186801F03AFF584A01385060C020A9
:1009B000574900060B6A1B021B0A03430B620723FD
:1009C00094601360FA240F95FA25A4006D00514B32
:1009D0001A68A24200D2A1E0FA229200A418FA22D8
:1009E00012019442F3D11B68FA2104938900049800
:1009F00001F09AFF002904D1F531FF31022001F006
:100A0000A3F9454B1B680A2B00D8A4E000222A4B0F
:100A10001A70A0E08020000301F06CFDEC68344007
:100A2000FFF7E0FB01F0A6FC374B186833E6C04641
:100A300048E801001800044000000440B0000440F1
:100A4000CFFFCFFFB4000440D80004400040004076
:100A5000FC0000508205000000C000500000002093
:100A6000570100202C170020500100201B2A0000F5
:100A7000082A000000420050A0010020EA010020E6
:100A8000580100200C0B0020EC0A0020600100201F
:100A90006A060020140B0020F40A0020282A000017
:100AA000152A0000482A0000EA050020100B00204B
:100AB000F00A00200F0100204F010020800D0020CF
:100AC00094120020840D00205C0E00202C0B0020CE
:100AD000EC0C0020A7010020E9010020B80B000069
:100AE000E8010020E701002000000540A8170020D1
:100AF00000E100E000401540004005400080054056
:100B000000801540000015400400002010E000E0C7
:100B100000ED00E07C0D0020940000201A68D94B05
:100B2000E3189A4207D22900022001F00DF92900AA
:100B3000032001F009F900F08BFF009B1A680123E4
:100B4000B2431343009A13600023019A53603EE7B7
:100B5000A52D00D05AE7CC4ACC4910680B68CC4A86
:100B6000834201D100F07AFCCA48CB4C1D780419AD
:100B7000A34200D2F9E108600026C84916600A784D
:100B8000C74C531CDBB20B70591EA5540129DFD092
:100B900002292AD0B142DBD0A2789A42DBD82000C9
:100BA00001F076FDA84200D030E73221032001F0A9
:100BB000CBF8E378A22B00D1C6E01BD8052B00D1DF
:100BC00051E1062B00D1B0E1A5226079B54CCF21CF
:100BD0002270A52262700822B34DE170CE39A27056
:100BE000217160712A70A371C1E0073D392D00D9D0
:100BF0000CE7B0E7B02B00D1C4E0E02BE4D1A37840
:100C00002000DF1F0293BBB21900059301F050FDD5
:100C1000A779002F00D120E1E3790893002B00D1C0
:100C20001BE1237A0393002B00D116E1637A63243E
:100C30000993029B0A210B3BDBB20693039B069AA6
:100C40009C42A4416442A31DD318DBB203980A93CB
:100C500001F0E4FD00253030C3B20B93914B1B34FF
:100C6000E3180C93069B1B190793033B9BB20D9350
:100C7000079B5E1CF6B2C5238A4C08222370637062
:100C8000B53BE3708949093B89482371677101F0DD
:100C900060FE834B5B79A3730123E3730123237409
:100CA000FF2F00D0CBE000236374FD23A374002347
:100CB0002822E3746B469B181B78043A23750123A2
:100CC00063756B469B181B78A375039B632B00D839
:100CD000B7E01F3A7749784801F03BFE7049069A21
:100CE0000A310C9801F035FE0D99744801F002F9B3
:100CF0006C4B079A6C4C9854310071489E7026706A
:100D000001F0DAFA0023984200D03300247801354C
:100D1000E41A62426241089BEDB2941CAB42AAD134
:100D200005995F4801F0C4FC5D4D029B2C71591E72
:100D3000280001F0ADFC029B0299EB18013B1870F2
:100D4000280001F03BF861E6A5226179554C564D2B
:100D50002270A522E37001236270092261710221D1
:100D60002371D133A371C83BA2702A70E3712000B4
:100D700001F09EFC2D7820006E1E310001F088FCF1
:100D8000A0551EE0A7782000073FFFB2390001F010
:100D90008FFCA579E179002D1CD1022913D949498D
:100DA000042000F0D1FF0123A57823713900200031
:100DB00001F07EFC691E200001F06AFC6319013B12
:100DC00018702900AFE0FA239B005943042000F07B
:100DD000D5FFE8E7AA23227A324CA8002370553BBE
:100DE00063706B1EA370384BE6705B5D237102234A
:100DF0006371364BC358180AA371E071180C1B0EAF
:100E0000637220723C23002900D0C3330D27264E85
:100E1000E1722F480921A3723770227301F06AF83A
:100E20006073D8200A23102145432A48E3734019F0
:100E30000233A7733170E37001F03EFAE6E56774A0
:100E400033E75B23E3751B3323762C226B469B1819
:100E50001B7863765D23A37640E72000059901F0B7
:100E600027FC012460E7A5782000073DEDB22900AA
:100E700001F01EFCA279184B002A2FD11B78E371D8
:100E800042E0C04622FCFFFF0C0B0020EC0A0020D1
:100E900094000020EA010020FF0300004F01002021
:100EA0000F01002062170020780D0020542A000056
:100EB000681700205D2A00007917002065170020C0
:100EC00094120020B80B00005C170020441700208B
:100ED00066170020840D002057010020E7791F705D
:100EE00000F0B6FD01F0E4FAF820400200F076FFD1
:100EF000F8203900400200F097FF01F0E1FA019B71
:100F00005E60E07901F016F80123A67823712900CC
:100F1000200001F0CDFB711E200001F0B9FB310073
:100F2000A319013B187020000BE7A5782000073DAE
:100F3000EDB2290001F0BCFBA279CC4B002A9DD078
:100F4000E6791E7000F084FD01F0B2FAF92040024B
:100F500000F044FFF9203100400200F065FF01F08D
:100F6000AFFA0023019A5360CEE701330B6003E62A
:100F7000052B02D9053B13807AE211800121BC4A7E
:100F8000BC4C1388E17001339BB21380A522217100
:100F90000021B94D227062709C3AA27061712A7072
:100FA00020001A0A0231A271E37101F081FB2D7851
:100FB00020006E1E310001F06BFB2900A0552000BF
:100FC00000F0FCFE54E204225B01E4182100AB486F
:100FD0002A7001F0BEFC0223637760E2A84CE3684C
:100FE0002269934200D19CE2A649200001F03EF91B
:100FF000061E34D0FA239B003B6000F065FF012100
:10100000882000F02FFF0021882000F02BFF310006
:10101000BE2000F027FF0025EBB2B34223D304210A
:10102000852000F01FFF0021862000F01BFF032019
:1010300000F00AFF042000F007FF0921872000F0DC
:1010400011FF914A1368002BFCD100F03DFF00F026
:101050001BFF00F024FF3221022000F075FE20006B
:1010600001F034FB5DE2874BFF20595D00F0FAFE92
:101070000135D1E77F2000F0E7FE844B5855029DF3
:1010800068E200F0E5FC2D22009B1B6893432C3A9C
:101090001343009A13600023019A5360BAE2AA280E
:1010A00000D0FD547A4A029B7A4902989B584158D5
:1010B0008B4200D1D7E20A99187899427FD8029BD7
:1010C00003999950744B754EFD5CB9016A1CD2B2FC
:1010D00071184855551EFA54012D66D0032D6AD05B
:1010E000002DDCD0E378D81C8242DBDDCA1895786D
:1010F0000D2D57D1095C0A2954D1033B99B20898A8
:10110000557800F0F7FE85424CD13221022000F0E4
:101110001BFEA27A624B0299FA54E37BA27B1B026C
:101120009B18627B1B029B18227B1B029B18E57895
:101130005C4A0F3D8B505C4BEDB2FD542A00079981
:10114000059801F006FCABB29A1C0B92A522227006
:10115000A52209336270DEB2FF2B05D90F2633407A
:101160005E1EB34110331E000223E370013B237166
:10117000002363716B461B7E2A00A371E5710599FC
:10118000A670099801F0E5FB0B99200001F090FA98
:10119000711E2000651801F07BFA310028702000D4
:1011A00000F00CFE00223C4B03E0552800D179E70B
:1011B0000022FA5476E7062800D973E7F8E7029987
:1011C00001338B507EE76B469B8F3849138038483C
:1011D0003A0001F033F954E20021364A117001223D
:1011E000C52B02D0532B03D10B22334B1A7049E28B
:1011F0001522FF2BF9D01F22FA2BF6D000232B70DB
:1012000040E22D490A78012A04D1C52BF6D1C33B0F
:101210000B7037E20B2A03D1542BEFD1483BF7E791
:10122000152A05D1FE2B01D1D43BF1E71623EFE7B8
:101230001F2AE3D1102BE1D11033E9E71E490A78C8
:10124000022A03D11B4A13700323E1E70C2A03D1BE
:10125000412BD3D1343BDBE7162A01D11723D7E743
:10126000202A2BD1082BC9D11933D1E70000002047
:101270005A010020380D00207A0D0020F8000020CF
:1012800094120020AC1600201C420050AC0C002030
:10129000F40A0020140B0020EC0C00202C0B002082
:1012A0005C1700204417002008010020DE29000000
:1012B00000001540E9010020E70100202A2A9DD105
:1012C0005D4A023313702B23A2E75C480278032A9D
:1012D00002D104230370D5E10D2A03D1542B8DD103
:1012E000463BF7E7172A0CD16378A278E1785340A0
:1012F000994200D082E700220170012001F0FCF940
:101300007CE72223212AE5D02B2A00D076E72C2364
:10131000E0E74A480178042907D1474B1B789342FC
:1013200000D9AFE1E378037068E70E2955D1A3181F
:101330005A1E12780A2A00D0A4E1023B1B780D2B1A
:1013400000D09FE13E49200001F0F4FA002800D0CF
:1013500054E726000A363B49300001F019FB00280B
:1013600012D13949300001F013FB00280CD1374964
:10137000300001F00DFB002806D13549300001F0A6
:1013800007FB002800D139E72D21200001F0EAFAFF
:10139000061E00D132E701302D2101F0E3FA0028CA
:1013A00000D12BE7841BE3B2022B00D826E71022E2
:1013B000002110A801F01EFA264910A801F0E0FA59
:1013C0003C4010AB22003100581D01F0C2FA621DF2
:1013D00010A9214801F032F810E7182900D10DE7D3
:1013E00022290AD10C2A00D84CE1FF2B00D049E178
:1013F000E3780370A27961797FE72C2900D0FDE6BC
:101400000D4B1B78934200D93CE16379652B00D0EA
:1014100038E1E3780370E279A17902206EE70132C6
:101420000A603DE100F014FB2368029A93433343C2
:10143000236000236B6063E1E9010020E7010020E5
:10144000632A0000E4290000ED290000F4290000CF
:10145000FC290000D8290000000015401368AC49A1
:1014600005331360AB4A13888B4200D880E51180A6
:101470000023A94DA94C2B70627F012A00D1A2E55F
:10148000E37F002B00D1637722003D321378012BDC
:1014900000D198E53F342378002B00D113702B78CE
:1014A000002B33D06421012000F04EFCA5212A78C6
:1014B0009B4C93B29E1C093321706170D9B2FF2BF3
:1014C00005D90F210B40591E8B41103319000223FF
:1014D000E370013B237120000023924D637129705A
:1014E000A17008309049A371E27101F032FA310025
:1014F000200001F0DDF82D7820006E1E310001F093
:10150000C7F82900A055200000F058FC874B1B7835
:10151000062B5ED0864F3B68052B00DC5EE5053B65
:101520003B6000240E9B1B68A3421FD100F0CCFC43
:10153000032000F089FC0500C30702D500F0A4FCDD
:10154000013CAB0710D54B2000F07EFC00250400C9
:10155000FF2603906B1C02932B00039A33409A42A0
:1015600000DD87E500F090FC00F099FC714D2C60E7
:10157000002C2EDD704C2378C52B2AD16378C52B27
:1015800027D1617C0B22A1713221203BA07B2370EB
:1015900063703B33E370DF3B2371A2706071217293
:1015A00020002E39E37163722A6001F081F82D6802
:1015B00020006E1E310001F06BF82900A0552000BC
:1015C00000F0FCFBFA219623490002203B6000F06A
:1015D000BBFB0124594EF3683269934226D0584F21
:1015E0003000390000F042FE021E1CD0554BA00016
:1015F000E55C554BAD01E35C39009B00ED18534BA6
:10160000ED18534B1B5D2B60524BC05800F016FF7A
:10161000514B1F68504B1B68DB1B012B00D830E57A
:101620004E4B1B5D2B60300001F050F80134D83672
:10163000052CD0D101274A4B4A4CC0334034039388
:10164000FBB20693039B484ABF330A93231D0893BA
:101650003B01D3180593230010330793083B0993EC
:10166000BB0002931EE5039B0137C0334034039354
:10167000052FE5D13D4A1388052B00D8A3E5053B8E
:101680001380FF273A493B4B0A681B689A421DD0DA
:101690003948137804007F34A24200D2BFE60860C4
:1016A000364D2A783F2A01D900222A702978344CF5
:1016B0004A1CD2B2501E2A706354032800D928E66F
:1016C00001F0A2F88AFD9FFDBCFD03FE2D4B5B7966
:1016D000002B07D12C4B04201978FA239B00594387
:1016E00000F04CFB00F0B4F92D220126274C284DC8
:1016F0002368284F93433343236000236B60029297
:10170000013F002F00D08DE6049B0533FFF76CF9F5
:10171000307500005C0100200E01002060010020F7
:10172000F80C0020790D0020F800002008000020AF
:10173000800D0020F40C0020AC0C00205C0E00207A
:10174000EC160020282A0000152A00000042005054
:101750004E2A0000302A00007C0D0020482A00009C
:101760006A0600202C0B002098000020A8170020FB
:10177000F00A0020100B0020EA050020E8010020FC
:10178000A7010020A0010020000000200040004030
:10179000FC0000503B0B0000094A30B58400A35800
:1017A000084D1970C02358430300A158BF335B197B
:1017B000994202D34019A05030BD0131A150FBE73E
:1017C000140B00206A06002030B5027F0300052AB2
:1017D00038D10022110042769818007C551C04096B
:1017E00044406140002A01D12A00F5E71A6814023A
:1017F00024181C602A00052DEED10F20DA7D01404F
:101800008A4202D0012040420CE0C8229968DA776F
:10181000187C22008C4202D1997D884203D09875B1
:1018200001209A6030BD587F002803D05D680120F8
:10183000AC42F7D0002A01D10029E3D001205A6040
:101840005877EFE70121007E084002D000225A7647
:10185000D8E7D97E18760829E4D1511C1977D97DAB
:101860009A18D8761174D875DCE710B51400527E3A
:101870000300FF2A37D0122A1BD10020E021ED32CD
:101880006276E26820769B18E075E0762077E36068
:10189000890001228B4202D9A276E27610BDA021F6
:1018A00089008B4201D9A076F7E70123A3760020B7
:1018B000F4E7112A03D101326276E360F7E7823858
:1018C000FF38FE2804D8002902DD01236376EEE705
:1018D000813B0020FE2B04D8824202D00132627686
:1018E000DCE76076E3E7A27E002A4CD00029E4DD45
:1018F000E2681318E360237E0133DBB25AB2237629
:10190000002A2BDBE27D52000132E275E27E511C9F
:10191000E17604218A43032A02D1833A13432376D2
:10192000A023E2689B009A42BFD9217E4BB2002BD4
:1019300023DBE27DE37E5200E2755A1CE27604224C
:101940009343032B02D1833B0B432376E023E268CE
:101950009B009A42A9D80020A0769FE7237F052B01
:1019600003D1E27D0B331343E3752000FFF72CFF17
:10197000431CD5D10120404290E72000FFF724FF0F
:10198000431CE3D1F6E7002997DDE268217E1318B6
:10199000E3604BB2002B0EDBE27DE37E5200E2758A
:1019A0005A1CE27604229343032B02D1833B0B4360
:1019B0002376A023CBE72000FFF706FF431CF8D1D6
:1019C000D8E700000A4B0B4AD86810B55A6080224D
:1019D0001968D2050A431A60074B084A1968013989
:1019E0004B425941012349421943FFF73EFF10BDC5
:1019F0002000114050C30000D84200508001002058
:101A00000021F0B50F4D0B0008240127AC460E4A0B
:101A10000E4E11605B0045B2DBB2002D10DA37606C
:101A2000654617602D684000C0B2012D01D12B43DF
:101A3000DBB2013C1160002CECD118001460F0BD49
:101A40003160EDE788420050844200508C420050E3
:101A500010B5592116208824044B5A68012A00D158
:101A600010BD596058605C60F7E7C046FC0000504C
:101A7000054B10B5DA69D20504D519680120C9B241
:101A8000FFF78AFE10BDC04600801540054B10B51B
:101A9000DA69D20504D519680320C9B2FFF77CFEC4
:101AA00010BDC04600800540054B10B5DA69D2056F
:101AB00004D519680220C9B2FFF76EFE10BDC046FA
:101AC00000400540074BDA69D20508D5064A196877
:101AD0001368197005498B4202D3054B1360704798
:101AE0000133FBE700001540100B002069060020C1
:101AF000EA0500200C4B10B5DA69D20508D50B4A6F
:101B00001968136819700A498B420BD3094B13608B
:101B1000094BDA69D20504D519680420C9B2FFF768
:101B20003BFE10BD0133F2E7000005400C0B002026
:101B3000E9050020EA010020004015400122034B86
:101B40009968114200D09A607047C0462000014059
:101B50000122034B9968114200D09A607047C04639
:101B60000000014080231F4A5B00116A10B5194232
:101B700003D01362FFF726FF10BD40211A4B186AED
:101B8000084201D01962F5E78021186A084215D091
:101B90001962164A164BD8685A6080221968D20515
:101BA0000A431A60134B144A196801394B425941D0
:101BB000012349421943FFF758FEDDE70F49086A40
:101BC0000C6A20430862196A186A014319620C4BB7
:101BD000196A186A01431962136A116A0B43136286
:101BE000CAE7C04640410050C040005050C300000A
:101BF00000001140DC420050600100208040005095
:101C00000041005080220C4B120210B51A620B4B9F
:101C10000B4AD8685A6080221968D2050A431A60B4
:101C2000084B094A196801394B425941012349427D
:101C30001943FFF71AFE10BD40400050000011404C
:101C400050C30000DC42005060010020334AF0B570
:101C50001368334901331360002301229C46314C41
:101C6000314D324E0F687B1ED81C02D8012F26D072
:101C70000B6001320431052AF4D1012332212C48B2
:101C80002C4C2D4DC25CE65C9201B60092192B4E95
:101C9000921916685A191778F6B29446284AB7422C
:101CA00019D1D1540133062BECD1264BDA7F002A0F
:101CB0001CD11A003F321278002A23D1F0BD6346AE
:101CC000AF5C0B60A35CBF009B01DB191B4FDB19F2
:101CD000B75C1F60CDE7D2181778012F02D9013FFA
:101CE0001770DFE7117062461670DBE7012A09D929
:101CF000013ADA7719003F310A78012A07D9013A07
:101D00000A70DBE70022DA779A609A75F2E7002220
:101D10009A6236330A701A70D0E7C0467C0D0020F4
:101D200030170020222A00000F2A0000482A000055
:101D30001B2A0000082A0000A001002000420050D9
:101D40005001002060010020074B8200D150074B5A
:101D5000074A1B5C125C9B0192009B18054A9B186A
:101D6000054A125C1A6070472C170020222A0000D6
:101D70000F2A0000004200504E2A000010B5002932
:101D800002D0FFF7E1FF10BD074B8200D150074B97
:101D9000074A1B5C125C9B0192009B18054A9B182A
:101DA000054A125C1A60EEE72C170020222A000078
:101DB0000F2A000000420050482A000070B50D00B4
:101DC000040032210320FFF7BFFF2A002100024850
:101DD00000F034FB70BDC046000005402222094BD4
:101DE000DA60213A58601A61BFF36F8F18690028D2
:101DF000FCD140221968114203D0196801380A4306
:101E00001A60704700C000500022064BDA600132B1
:101E100058601A61BFF36F8F1A69002AFCD1986865
:101E20007047C04600C000502122064BDA60203ABD
:101E3000586099601A61BFF36F8F1A69002AFCD14C
:101E40007047C04600C00050002310B5044C23600A
:101E5000FFF7D6FDFF20FFF7D3FD0123236010BD60
:101E600080420050002370B50D00064C2360803383
:101E70001843FFF7C5FD2800FFF7C2FD01232360CB
:101E800070BDC0468042005010B502218820FFF787
:101E9000E9FF88200021FFF7E5FF002010BD10B505
:101EA00003218520FFF7DEFF00218620FFF7DAFF00
:101EB0000320FFF7C9FF0420FFF7C6FF8720052195
:101EC000FFF7D0FF002010BD10B501218720FFF7DC
:101ED000C9FF00218520FFF7C5FF00218620FFF7FD
:101EE000C1FF0320FFF7B0FF0420FFF7ADFF002084
:101EF00010BD0000F0B5030008260020312701398D
:101F00000B4A89B2914200D1F0BD1A78504032009C
:101F100044B2A44665464400E0B2002D01DA7C409C
:101F2000E0B2013AD2B2002AF2D10133E7E7C0466B
:101F3000FFFF00000022F8B504002D260127A54B65
:101F4000A54D1A60013D002D00D0F2E00320FFF7FF
:101F50007BFF06000420FFF777FFFF2E00D1E7E0AC
:101F6000FF2800D1E4E09D4B9D4E1D7007239D4D41
:101F7000AA212C709C4C33708D20053B2370FFF7F9
:101F800071FF0D20FFF760FF984F442138808D20AE
:101F9000FFF768FF0D20FFF757FF38800320FFF79A
:101FA00053FF0420FFF750FF80218720FFF75AFFDF
:101FB0008F4B1F68012F00D1C6E00320FFF744FFBD
:101FC0000420FFF741FF0320FFF73EFF0420FFF747
:101FD0003BFF00218520FFF745FF02218620FFF708
:101FE00041FF00218920FFF73DFF0021D120FFF7AD
:101FF00039FF0B21D020FFF735FF5321F520FFF7E4
:1020000031FF2F7823787B4DF620EB18D979FFF735
:1020100029FF2378F720EB18997BFFF723FF23781C
:10202000FA20ED18697DFFF71DFF3900F920FFF751
:1020300019FF0021B220FFF715FF0221B320FFF79F
:1020400011FF2D21B620FFF70DFFD421B720FFF798
:1020500009FF8821B020FFF705FF6321F120FFF77A
:1020600001FF1021B420FFF7FDFE4221B520FFF74C
:10207000F9FEF5218B20FFF7F5FEF2218C20FFF70A
:10208000F1FE14218D20FFF7EDFE18213378ED20AD
:102090001943FFF7E7FE514A237812780E24002AED
:1020A0005ED15C43544D9C20615D2C19FFF7DAFE34
:1020B0006178A020FFF7D6FEA178A120FFF7D2FE1D
:1020C000E178A220FFF7CEFE2179A320FFF7CAFE18
:1020D0006179A420FFF7C6FEA179A520FFF7C2FE13
:1020E000E179EE20FFF7BEFE217AEF20FFF7BAFE7E
:1020F000617AF020FFF7B6FEA17AF220FFF7B2FE78
:10210000E17A9D20FFF7AEFE217B9E20FFF7AAFE1D
:10211000617BAA20FFF7A6FE344B1A880623FF2A0C
:1021200000D00023354A1370FFF7CEFEFFF7B7FE4D
:10213000F8BDFFF78DFC324A1368B3433B4313608D
:102140000022304B5A60FDE6FFF782FC2D212C4A1D
:1021500013688B431F43176000222A4B5A6027E7FE
:102160005C43294D9C20615D2C19FFF77BFE617853
:10217000A020FFF777FEA178A120FFF773FEE1789A
:10218000A220FFF76FFE2179A320FFF76BFE617994
:10219000A420FFF767FEA179A520FFF763FEE17990
:1021A000EE20FFF75FFE217AEF20FFF75BFE617AFA
:1021B000F020FFF757FEA17AF220FFF753FEE17AF5
:1021C0009D20FFF74FFE217B9E20FFF74BFE412114
:1021D0009FE7C0460442005041420F00A217002072
:1021E000A5170020A3170020A4170020A617002081
:1021F0001C420050AE2A0000CA2A0000080000203D
:1022000000400040FC000050A02A0000F0B585B05E
:102210006A46134B6C46E0CBE0C21B681360820A2F
:10222000D2B2002A0AD08605F60EB2400D4D030345
:102230009B0F5B199B001D6895431D6003015B0F9D
:102240000CD08200C001C00E8340920F9200A458AF
:10225000054AA41822689A431143216005B0F0BDD5
:10226000702A00008600001410020050F8B50269C0
:10227000C36807000E001D7893421BD0402D19D86B
:102280006A1C8468591C9B18A34201D302689B1ADC
:10229000994205D22A00300000F05BFB2800F8BD0F
:1022A000641AE4B22200300000F053FB30192A1BFC
:1022B0007969F1E70025F1E7F8B5040062684B1C85
:1022C0000E0000209A4218D922691170501C226910
:1022D000A568D3182361AB4202D322689B1A2361FD
:1022E00063680B4F9B1B013B63602369984205D2D7
:1022F0003200390000F02DFB0120F8BD2D1AEDB29F
:102300002A00390000F025FB6069721B7919F1E79A
:102310006217002070470000012307B5A02101AA21
:102320001370DB18537093700233D3700E4BC902D5
:102330001B6A00200B4213D1190312D40B489903D6
:102340000ED4D905C90D0231800848431904890FFC
:10235000525C9904C90E0231514300F05FFA8000CB
:102360000EBD0348EBE7C04600020050001BB7005B
:102370000080510110B5FFF7CFFF0721084A13690C
:102380000B40022B02D007499B0058580F2391693C
:102390001940013100F042FA034B186010BDC046ED
:1023A000000200502C2C000004000020F0B585B085
:1023B0006A461E4B0500103313CB13C21B686E46D2
:1023C00013601B4A0323546997690022240E2A6371
:1023D000EB601C40174AAB683F0513403F0FAB60F2
:1023E000012C02D1FFF798FF0190A400791C30590D
:1023F00000F014FAE123E1211B0204004902C01895
:1024000000F00CFA0C4B023898420BD9E123E12181
:102410001B03E018490200F001FA00090238686263
:1024200005B0F0BDC0239B051843F8E7702A0000F3
:10243000000200500FFFF0FFFFFF000070B5802585
:102440008C186D05A14206D1100070BD013B002B18
:1024500003D11A00F8E78023DB0586692E42F5D008
:102460000B7801310360EDE7064A030E9B18012249
:102470000002000A824019681143196019689143EB
:102480001960704708000050F0B5002303260124AE
:102490009C40214208D035005F00BD400468AC4339
:1024A0001500BD402C4304600133102BEFD1F0BD6B
:1024B0000123024A11680B431360704700C00050AB
:1024C0000121024A13688B431360704700C000501B
:1024D000064B0749CA680240904201D1012070476B
:1024E000013B002BF6D11800F9E7C046814F1200DE
:1024F000000200508023F0B5484D5B022B6287B08C
:1025000004000E002B68002862D1012003432B60D9
:10251000FFF7DEFF02230093414B05940393414BE9
:10252000414AF318934267D9404B414AF31893420A
:102530005AD8012376000193002301271C0002933F
:102540007F420099039800F069F93A4B3A4AC31860
:10255000934220D84300F21A0492A4463A0002247F
:10256000364F3749DF198F420BD8049F9E4200D265
:102570009F1B974205D2002F40D0009AA44602929A
:102580003A0004990134091A04912E491B188C420F
:10259000E6D164461700009B01330093222BD0D173
:1025A000019B059A9B031343A21E1343029A042026
:1025B000023A520213432B62FFF78AFF019B0398F2
:1025C000591C029B594300F029F9604307B0F0BD44
:1025D00004273B432B601020FFF77AFF80231B0367
:1025E00005930097184B99E7184B194AF318934233
:1025F00007D8B60003239EE700239CE7009B0293C5
:10260000C9E7002C07D1134B2B620420FFF760FFB2
:10261000FFF782FEDAE7104BF6E7C04600020050F3
:10262000001BB700FF1E0AFAFFE0F5057F0F05FD4E
:102630007FF0FA02FF95E7FFBE77CC00001F0AFA91
:1026400000E1F5050202000000805101C08782FE12
:1026500040787D012EC200006FD608007FB5694624
:102660006A46094B203370CB70C11B680B60830F27
:102670009B009A58054BD2181F2318401E3B8340DD
:1026800011680B4313607FBD702A000004020050E4
:102690000200002330B5054D141AA14201DC1800D8
:1026A00030BD147801326340EB5CF5E72C2B000061
:1026B00010B52C24831D053164421A1A914200DAA8
:1026C00010BD1A7862401A700133F6E70200C36841
:1026D000116900208B420ED01978481C1B18906895
:1026E000D360834202D310681B1AD3600120536861
:1026F00001335B185360704770B5124B124C90B0A9
:102700001C806C46A523237063700A246B466D46BB
:102710009C7003236E46EB70012535710025B07166
:10272000F1716846190032727571FFF7C1FF092116
:102730006846FFF7ADFF210070726846FFF73EFB69
:1027400010B070BDA8170020B80B00000649074A5A
:10275000074B9B1A03DD043BC858D050FBDCFFF746
:10276000D9FDFDF7DDFC00005C2C0000000000201E
:1027700078000020FEE7C046ABBE7446984720476D
:10278000084B10B50400002B02D0002100E000BF70
:10279000054B1868836A002B00D09847200000F092
:1027A00031F8C046000000004C2C000070B5002637
:1027B0000C4D0D4C641BA410A64209D1002600F05C
:1027C000FFF80A4D0A4C641BA410A64205D170BD47
:1027D000B300EB5898470136EEE7B300EB58984743
:1027E0000136F2E76C0000206C0000206C00002035
:1027F0007000002003008218934200D170471970C6
:102800000133F9E7FEE7C04603B4714649084000CA
:102810004900095E49008E4403BC7047002243080A
:102820008B4274D303098B425FD3030A8B4244D398
:10283000030B8B4228D3030C8B420DD3FF220902DA
:1028400012BA030C8B4202D31212090265D0030B99
:102850008B4219D300E0090AC30B8B4201D3CB038F
:10286000C01A5241830B8B4201D38B03C01A5241D1
:10287000430B8B4201D34B03C01A5241030B8B42D3
:1028800001D30B03C01A5241C30A8B4201D3CB02BE
:10289000C01A5241830A8B4201D38B02C01A5241A3
:1028A000430A8B4201D34B02C01A5241030A8B42A6
:1028B00001D30B02C01A5241CDD2C3098B4201D3BE
:1028C000CB01C01A524183098B4201D38B01C01A3C
:1028D000524143098B4201D34B01C01A52410309B3
:1028E0008B4201D30B01C01A5241C3088B4201D362
:1028F000CB00C01A524183088B4201D38B00C01A0F
:10290000524143088B4201D34B00C01A5241411A35
:1029100000D20146524110467047FFE701B5002042
:1029200000F006F802BDC0460029F7D076E77047F0
:102930007047C04630B50024A24201D1002005E016
:10294000035D651C0C5DA34201D0181B30BD2C003B
:10295000F2E7002310B59A4200D110BDCC5CC454FC
:102960000133F8E7C9B20378002B04D0994200D1B3
:1029700070470130F7E74B42594149420840F7E7B9
:10298000031C0A7801311A700133002AF9D170470B
:1029900010B502000078002804D1097800290DD074
:1029A00010BD013210780028FAD00023C85C00283E
:1029B00004D0D45C8442F4D10133F7E71000EFE790
:1029C000F8B5C046F8BC08BC9E467047F8B5C0468E
:1029D000F8BC08BC9E46704741543A4749004154F0
:1029E0003A47530054534745463033440042463437
:1029F000303330004A58425F54544D004D454458DE
:102A0000494E472D49525400000B0A0302030000AF
:102A100008090F0200000004080C0000000000007C
:102A200001000000000001000000000101000000A2
:102A30000000000000801540004005400080054077
:102A400000401540000000000000000000000001F0
:102A5000010101004646464646464646005B763141
:102A6000305D00535441543A204E414D4500000022
:102A700000000000040000000C0000002400000022
:102A8000001BB700000000000000000000805101A2
:102A900000000000040000002C0000000000000006
:102AA0009A7140346E00084E792090400A41040427
:102AB000040303020153535358565A6140404040A7
:102AC000C040C0212121272D24001D416027520034
:102AD0000513A9203A400A201DA1204EA5000A276F
:102AE000522048400A201ED0009D4900244EA520B7
:102AF00018400A2003D0009D49013D9D49200F4008
:102B00000A1E0368013A93027809D5001F400A2083
:102B1000064501D7DC03B80EBF002E400A2D82689F
:102B2000013A9302781D7E005C400A502DC30FBA13
:102B3000B178A9F2750A7549938DC7A6C93C16F9F3
:102B4000AB4B29534080200FBC9741B1213D28C594
:102B5000F4176CD63C1AC330B6906040FD08840E62
:102B60007CA795A369D25166C0F5F654DEBCC6C0F9
:102B7000394166B8FFB5D75E10487136FCDCB09CB1
:102B80007996155EA2E1F491E69974FC0EEC88E961
:102B9000D57937F23DE9F263797151BC9BAF56ADFF
:102BA000DDE80D9BAC9DEC8543E1502C4678527FCF
:102BB00007CB820BC8E0C0D42F8D6B8BBA05E5E73D
:102BC0001F6936277B545B2AC4F1ABC09246C9CF3C
:102BD000ADE8AB0353D9DF082513FE0F4C68D5AA27
:102BE000AD781EBB95E71CC09B9D98CF4D6C39A955
:102BF0003EB0FBFE93AE698025F0A2747C4C892B1D
:102C00009D66E3695CEA7619520DAB967127E56C17
:102C10009A2764AC5B75D9F566FEC7CBD5D7FAD2D7
:102C2000CC36D4A4AAABF58903A112F3001BB700DC
:102C30000000000080F0FA021027000000000000F1
:102C40000000000000000000008051010C00002086
:042C50000000000080
:082C5400CCD4FF7F0100000059
:102C5C000300000080F0FA020600000000000000F3
:102C6C000000000000000000000000000000000058
:102C7C000000000000000000000000000000000048
:102C8C000000000000000000000000000000000038
:102C9C000000000000000000000000000000000028
:102CAC000000000000000000000000000000000018
:102CBC00000000000000000000000000E90000001F
:082CCC00C1000000000000003F
:040000030000274D85
:00000001FF
